:020000040800F2
:10000000E00E00207D010008B90500086305000826
:10001000B5050008A1030008210700080000000042
:100020000000000000000000000000008906000839
:10003000CF030008000000000D0600088B06000832
:100040009701000897010008970100089701000830
:1000500097010008250500089701000827050008FA
:100060009701000897010008970100089701000810
:100070009701000897010008970100089701000800
:100080009701000897010008000000009701000890
:1000900097010008970100089701000897010008E0
:1000A00097010008970100089701000897010008D0
:1000B0009701000800000000970100080000000000
:1000C0009701000800000000970100089701000850
:1000D00097010008190700089701000800000000B8
:1000E00000000000000000009701000897010008D0
:1000F0009701000897010008970100089701000880
:1001000097010008000000000000000097010008AF
:1001100000000000000000000000000000000000DF
:1001200000000000000000000000000000000000CF
:1001300000000000000000000000000000000000BF
:1001400000000000000000000000000000000000AF
:10015000000000000000000097010008970100085F
:100160009701000897010008DFF80CD000F088F82C
:100170000048004701100008E00E002006488047B4
:1001800006480047FEE7FEE7FEE7FEE7FEE7FEE77C
:10019000FEE7FEE7FEE7FEE79506000869010008B6
:1001A000D2B201E000F8012B491EFBD270470022B9
:1001B000F6E710B513460A4604461946FFF7F0FF66
:1001C000204610BD30B505462A460B4612F8010BF5
:1001D00013F8014B08B1A042F8D01CB1002802D09E
:1001E0006D1CF1E7284630BD421C10F8011B0029A8
:1001F000FBD1801A704770B5064600F011FD046807
:1002000005460A220021304600F002F82C6070BD3D
:100210002DE9F04791460F4680460446002614F823
:10022000015B2DB100F03EF80068405DC007F6D1DB
:100230002B2D02D02D2D18D0641E4A46394620465B
:1002400000F034F827B13968A14201D1C7F8008025
:1002500071054FF002040BD54042002803DD00F089
:10026000DFFC0460A007BDE8F08746F48066E4E7A1
:100270000028F8DA00F0D4FC04606FF00040F2E7E8
:10028000064C074D06E0E06840F0010394E80700E3
:1002900098471034AC42F6D3FFF76AFF7425000884
:1002A0009425000800487047702500082DE9F05F8C
:1002B00082460078002715468B460AF10104B946AC
:1002C000302801D09DB113E014F8010B01277828E4
:1002D00003D0582801D045B10AE00DB1102D07D147
:1002E0000027102514F8010B02E0082500E00A257C
:1002F0000026B0460EE005FB080005FB06F10127CD
:1003000001EB10461FFA80F8B6F5803F00D3B946DE
:1003100014F8010B294600F018F80028EBDABBF1BD
:10032000000F05D00FB1641E00E05446CBF800402A
:10033000B9F1000F06D000F073FC02210160C81E65
:10034000BDE8F09F48EA0640FAE73A2800D2303884
:1003500020F02002412A01D3A2F13700884201D3C4
:100360004FF0FF307047000010B500F087FF00F03D
:10037000F5FE00F0E9FD094801F03EF800F084FACE
:10038000012000F093FA00F07FFE20214FF0904012
:1003900000F0D8FD05200149487010BD1400002070
:1003A00000BFFEE710B502460B460021002000BF4B
:1003B00002E0545C6040491C9942FAD310BD000031
:1003C0000148002101607047A0000020704770477D
:1003D000012001490870704702000020F0B591B07B
:1003E0000446002500270026402101A8FFF7DFFE74
:1003F00067783F212046FFF7D5FF064694F83F0077
:10040000B0421AD034480078012814D105208DF864
:10041000040001208DF80500AA208DF80600AE200A
:100420008DF84300402301AA81212C4801F002FAF3
:1004300000202B49087011B0F0BD022527E02948A3
:100440000068401E28490968884208D0254800688D
:1004500058B925480068A0F54071FF3905D1002042
:10046000204908602049086010E0605D1F491E4A6D
:10047000126888541C480068401C1B4908600846E4
:100480000068B0F5806F01D3002008606D1CB81CB7
:100490008542D4D310480078012814D105208DF866
:1004A000040001208DF80500BB208DF80600BF2058
:1004B0008DF84300402301AA8121084801F0BAF9D0
:1004C000002007490870084802680648016808A02B
:1004D000FFF77CFF00BFAEE7B4000020140000204F
:1004E00002000020AC000020B0000020DA0600204E
:1004F0004550315F4F55545F43616C6C6261636B73
:100500002055534252656376546F70203D20256418
:100510002C55534252656376456E64203D20256418
:100520000D0A00007047704770B504464FF4702004
:1005300000F0AAFC054600F0D1FCA005800D03D018
:1005400000F074FC002070BD204600F079FC0546E8
:100550001DB900F06BFC0120F5E700F067FC0020FE
:10056000F1E700BFFEE7000010B50E4800680E4935
:100570000840B0F1005F13D10A48001D00680B4924
:100580000860084600680A4908600649086880F360
:10059000088800BF72B606480068804700BFFEE7C3
:1005A000002010BD003400080000FE2F9C00002039
:1005B0009800002000BFFEE77047000010B500283B
:1005C00007DA0A07140E054A00F00F031B1FD45464
:1005D00003E00A07130E024A135410BD18ED00E0A1
:1005E00000E400E0BFF34F8F0648006800F4E060CD
:1005F00005490843001D03490860BFF34F8F00BF42
:10060000FEE700000CED00E00000FA0570472DE960
:10061000F04104460F46164600F060FC002504E059
:1006200020787855641C681C85B2B542F8DB00F070
:10063000FDFBBDE8F081000000B591B0FFF7C0FE02
:10064000402101A8FFF7B3FD042201A90C48FFF7E0
:10065000DEFF0C48019901600078AA280ED10948F4
:100660004078BB280AD107488078AA2806D10548D7
:10067000C078BB2802D1012011B000BD0220FBE7E9
:1006800000FC0008A0000020704710B500F0B8FB87
:1006900010BD000010B51C48006840F001001A4968
:1006A000086000BF1848006810F0020FFAD0164822
:1006B0004068164908401449486008464068144993
:1006C0000840114948600846406820F440004860EE
:1006D000084600680F4908400B4908600846C06A90
:1006E00020F00F00C8620846006B40F243118843B7
:1006F000054908630846406B20F00100486300206C
:10070000886000F0B7FD10BD001002400C00FF082B
:10071000FFFFC277FFFFF2FE10B501F0ABFB10BD8B
:1007200000BFFEE770B50446002521460748FFF7E5
:1007300049FD05462346054A054906A0FFF746FE42
:100740000DB1012070BD0020FCE70000DA0600209A
:10075000D52400082573207573627265637662750F
:1007600066203D202573092C657870656374737469
:1007700072696E67203D2025730D0A002DE9F84F40
:1007800081468A4615460024002000900026002756
:1007900080461C48D0F800B01B4800EB0B0616B989
:1007A000601EBDE8F88F29463046FFF70BFD07466F
:1007B00017B96FF00100F4E72846FFF715FD07446D
:1007C000A7EB06084246114911A0FFF7FFFD0EE016
:1007D000684600F037F8012809D19DF8000009F8B3
:1007E0000400601C504502D2641CA8F10108B8F155
:1007F000000FEDD1224605490CA0FFF7E7FD20468A
:10080000CFE70000AC000020DA060020E224000858
:100810002573203A204279746573546F426552659E
:1008200061642069732025640D0A00002573203A55
:1008300020526563764C656E2069732025640D0A2D
:100840000000000001460D4800680D4A1268904201
:1008500001D1002070470B48084A1268805C08707C
:1008600006480068401C054A106010460068B0F554
:10087000806F01D3002010600120EBE7AC00002066
:10088000B0000020DA06002010B5002004490860FE
:10089000044908604FF480610348FFF788FC10BDED
:1008A000AC000020B0000020DA06002018B90021BA
:1008B000034A117002E00121014A117070470000E3
:1008C000B40000201CB50024A146002001900026A1
:1008D0008246009000254FF4806780468346F5E00D
:1008E000062C7DD2DFE804F0032F5A87DCEB4FF4AF
:1008F0007A7000F07BFA76A0FFF768FD00F0EEFA60
:10090000002505E07A4901EB852000F099FA6D1C7D
:10091000322DF7D3601CC4B2214676A0FFF756FDF6
:100920004FF4A0617B48FFF742FCFFF7ADFF0024C6
:10093000A1460020019000268246009000254FF439
:100940008067641CC1E074A0FFF740FD7AA0FFF748
:10095000E9FE012821D14FF4A0616E48FFF727FC82
:1009600075A24FF4A0616B48FFF708FF4FF4A06138
:100970006848FFF71CFC66A24FF4A0616548FFF7CA
:10098000FDFE6448FFF737FCC0B20090601CC4B2A3
:100990004FF4A0615F48FFF70AFC96E05EA0FFF706
:1009A00015FD68A0FFF7BEFE012823D14FF4A0611A
:1009B0005848FFF7FCFB63A24FF4A0615548FFF7CE
:1009C000DDFE4FF4A0615348FFF7F1FB61A24FF445
:1009D000A0615048FFF7D2FE4E48FFF70CFC00E044
:1009E00072E081464E46601CC4B24FF4A061494893
:1009F000FFF7DDFB69E059A0FFF7E8FC4CE016B912
:100A0000601CC4B24AE043494819FFF71BFF0128A4
:100A100004D14048405D80EA0A0A6D1CBD4200D204
:100A20003AE0DFF8F0804FF0000B1BE05348D8F8B5
:100A30000010006800F064FA504800680068D8F8B8
:100A40000010884205D000F0D7F800F0EFF9FFF76A
:100A5000C9FD4A480068001D4849086008F10408BB
:100A60000BF1040BBB4505D22148484443490968B2
:100A70008842DBD8019838440190F61BB6F5806FA8
:100A800002D34FF4806700E0374600254FF4A061A1
:100A90002048FFF78CFB00BF032CB0D000BF14E050
:100AA0000098824508D12DA0FFF790FC00F0A4F833
:100AB00000F0BCF9FFF796FD601CC4B205E0002011
:100AC000FFF7F4FEFFF78EFD00BF00BF08E7000050
:100AD0007374657020302D2D2D2D2D2D2D2D2D2D48
:100AE0002D2D2D2D2D2D2D2D2D2D2D0D0A00000000
:100AF000003400083E3E3E3E3E7374657031206512
:100B00006E6420737465703C3C3C3C203D20256441
:100B10000D0A0000DA0100207374657020312D2D5C
:100B20002D2D2D2D2D2D2D2D2D2D2D2D2D2D2D2DF5
:100B30002D2D2D0D0A000000436865636B73756DE4
:100B40003A000000436F6E74656E742D4C656E67DD
:100B500074683A000D0A0D0A000000007374657095
:100B600020332D2D2D2D2D2D2D2D2D2D2D2D2D2DBC
:100B70002D2D2D2D2D2D2D0D0A0000009000002073
:100B80002DE9F04706460F46144600F0A7F9E11795
:100B900004EB91718910B4EB810104D000F046F9A7
:100BA0000020BDE8F087B94600251EE03046D9F8A0
:100BB000001000F0A5F94FF000080FE096F800A033
:100BC00005EB0800385C504503D000F02FF90020F9
:100BD000E7E7761C08F1010000F0FF08B8F1040F08
:100BE000ECDB09F10409281D85B2A542DEDB00F02B
:100BF0001DF90120D5E7000008B507A000680090A6
:100C000072B60648FFF790FC042269460348FFF7D6
:100C1000B7FF62B608BD000055AA55AA00FC00083F
:100C2000004870471401002002E008C8121F08C1E4
:100C3000002AFAD170477047002001E001C1121F5D
:100C4000002AFBD17047000070B506460C461546D9
:100C5000012C03D1012D01D1002070BD4CB9012D13
:100C600007D14023044A8121304600F057FD00207F
:100C7000F3E70220F1E700001801002070B50446F8
:100C80000D468121204600F091FC0121204600F014
:100C90008DFC002070BD000070B504460D4608496B
:100CA000204600F0CBFC0649C91D204600F0C6FCDA
:100CB0004023044A0121204600F030FD002070BD91
:100CC00081240008180100202DE9F04105460C465A
:100CD00000260027B046207810F060003CD0202885
:100CE00070D160780C282ED2DFE800F02D06070EB8
:100CF0002D2D2D2D2D1524292CE00123334A802163
:100D0000284600F097FD25E00123314A802128463E
:100D100000F090FD1EE001202E490870A0782E49B9
:100D2000087094F8068043462C4A0021284600F0BB
:100D3000F5FC0FE060880012244908600AE0A07802
:100D40002349086006E02146284600F0A9FB02205E
:100D5000BDE8F08100BF35E06078062804D00A289D
:100D600023D00B282CD127E06088001221280AD03C
:100D7000222811D1E088312801DD312000E0E0880F
:100D80000646174F09E0E088092801DD092000E048
:100D9000E0880646134F00E000BF00BF33463A46E6
:100DA0008021284600F046FD0AE001230E4A8021FA
:100DB000284600F03FFD03E0A0780B49086000BF23
:100DC00000BF00BF00BF0020C2E700000C000020F1
:100DD0000800002001000020000000201801002071
:100DE000A4240008782400080400002003490860B7
:100DF00000BF024909680029FBD17047A800002004
:100E00000848006820B107480068401E054908608E
:100E10000548006820B104480068401E0249086087
:100E200070470000A8000020A400002003480069CB
:100E300040F0800001490861704700000020024036
:100E400030B504464FF4702000F01EF80546B5B9E1
:100E50000C48006940F002000A49086108464461F4
:100E6000006940F0400008614FF4702000F00CF879
:100E700005460448006920F002000249086128463E
:100E800030BD00000020024000B50346012200BF33
:100E900000F00CF802465B1E012A01D1002BF7D1AD
:100EA000012A00D10422104600BD000000200A499A
:100EB000C96811F0010F01D001200CE00649C96892
:100EC00011F0100F01D0022005E00349C96811F0AC
:100ED000040F00D00320704700200240054800693D
:100EE00010F0800F04D0044802494860034848606D
:100EF000704700000020024023016745AB89EFCD19
:100F000070B504460D464FF47020FFF7BDFF06464E
:100F10008EB90A48006940F001000849086125605F
:100F20004FF47020FFF7B0FF06460448006920F038
:100F3000010002490861304670BD000000200240F7
:100F4000816270478161704710B520230022012122
:100F50004FF0904000F008F82023032200214FF0CA
:100F6000904000F02AF810BDF0B504460D46164634
:100F70002168E26800201BE0012787401F4200D162
:100F800014E04FEA400C032707FA0CF7B943470077
:100F900005FA07F739434FEA400C032707FA0CF725
:100FA000BA43470006FA07F73A4300BF471CB8B2F6
:100FB0001028E1DB2160E260F0BDF0B50C4615467B
:100FC000012C03D146681E43466002E046689E43FA
:100FD0004660826800210FE001268E401E4200D14B
:100FE00008E04F000326BE40B2434E0005FA06F665
:100FF000324300BF4E1CB1B21029EDDB8260F0BD60
:1010000010B50024FFF7B0F9FFF716FB012815D043
:1010100012A0FFF7DBF920214FF09040FFF790FF7F
:1010200000E0641C13488442FBD1FFF79DFA0024C2
:1010300000E0641C0F488442FBD10CE00EA000F0DD
:1010400045F9002400E0641C0A488442FBD101E019
:10105000FFF738FCFCE7002010BD00004A756D70FA
:1010600020546F204170706C69636174696F6E0DFC
:101070000A000000FEFF0F00696170206973207391
:10108000746172740D0A000010B54FF4C06000F076
:101090005BF800220121252000F002F810BD0000BD
:1010A000F0B50B46002100240025254E366806F4D5
:1010B000E066B6F5E06F02D100BF042526E0204EC1
:1010C000366806F4E066B6F5C06F02D10124032548
:1010D0001CE01B4E366806F4E066B6F5A06F02D140
:1010E0000224022512E0164E366806F4E066B6F5D4
:1010F000806F02D10324012508E0114E366806F402
:10110000E066B6F5407F01D104240025C4F1040651
:1011100003FA06F1C5F104070F263E41164031439C
:101120000901084E315400F01F070126BE40471147
:101130004FF0E02C0CEB8707C7F80061F0BD000012
:101140000CED00E000E400E002490143024A1160B6
:10115000704700000000FA050CED00E010B540F209
:10116000115000F009F8002000F016F840F2177056
:1011700000F002F810BD0000064901EBA01109685B
:1011800000F01F0301229A401143024A02EBA01211
:1011900011607047001002400549496821F4400180
:1011A000034A51601146496801435160704700008D
:1011B000001002400648006880B220F00400044994
:1011C00008600846006880B220F008000860704798
:1011D000405C004000202549096841F48031234AE1
:1011E000116000BF2149096811F4003F04D1014694
:1011F000401CB1F5006FF5D11C49096811F4003F9E
:1012000000D1704719494968184A51601146496828
:10121000516011464968516011464968144A1140AD
:10122000124A51601146496841F4E8115160114673
:10123000096841F08071116000BF0C49096811F024
:10124000007FFAD00949496821F00301074A51603B
:101250001146496841F00201516000BF03494968E5
:1012600011F0080FFAD000BFCBE7000000100240D9
:10127000FFFFC27710B5FFF7ADFF10BD10B51248E4
:1012800000684FF47A71B0FBF1F4601EB0F1807F1A
:1012900001D301200FE0601E4FF0E02148610F21D3
:1012A0004FF0FF30FFF78AF900204FF0E02188610E
:1012B00007200861002008B100BFFEE70021481E9A
:1012C000FFF77CF910BD0000B80000207047000057
:1012D00070B504460D460026287810F01F0004D093
:1012E00001282FD0022876D142E06078022802D06F
:1012F000032824D100E000BF6888012817D100200E
:10130000E07029462046626F904700BF00203549B3
:101310000968888000BF3449096848F6BF7201EA4D
:10132000020080F03001304A116000BF06E068889A
:10133000022803D12946204600F0B2F800E000BFA1
:1013400000BF4DE06078022802D003280DD104E0F0
:101350002946204600F0A4F808E02879012803DD9A
:101360002946204600F09CF800E000BF00BF37E0AF
:101370002E796078022802D0032829D107E02EB107
:10138000802E03D02946204600F08AF821E06888A4
:1013900030B92EB1802E03D03146204600F088F8B7
:1013A00029462046626F904700BF00200D4909681A
:1013B000888000BF0C49096848F6BF7201EA020044
:1013C00080F03001084A116000BF00BF01E002E078
:1013D00000BF00BF04E02946204600F061F800BFCE
:1013E00000BF70BDC4000020005C00400346586E82
:1013F00080781080586E70470021C1700121094A21
:10140000116000211160121D1160064A1032116036
:101410004FF41F41044A11601146098889B2014AFC
:1014200011607047405C0040BC00002070B504466D
:101430000D466078032821D12879012819DC294636
:101440002046626F90470646E888B0B9AEB900BF43
:1014500000200E490968888000BF0D49096848F6D8
:10146000BF7201EA020080F03001094A116000BF3A
:1014700003E02946204600F013F804E02946204600
:1014800000F00EF800BF00BF002070BDC4000020B7
:10149000005C00400346186E00781080186E70479C
:1014A00070B504460D460021204600F07FF970BD5E
:1014B00070B5024601F07F00CC1126D000EB80050C
:1014C00002F1100404EB850300BF254C54F82040C2
:1014D00014F0400F0AD0224C54F8204048F68F7583
:1014E0002C4044F040041E4D45F8204000BF00BF92
:1014F0001B4D55F8205048F6BF7605EA060484F0E7
:101500003005174E46F8205026E000EB800502F12A
:10151000380404EB850300BF114C54F8204014F448
:10152000804F0AD00E4C54F8204048F68F752C405E
:1015300044F480440A4D45F8204000BF00BF084DE8
:1015400055F820504BF68F7605EA060484F4405592
:10155000034E46F8205000BF00241C7070BD0000F0
:10156000005C004070B5074D05EB4104002304E02A
:1015700034F8046B0680801C5B1C551CB3EB550FC4
:10158000F6D370BD0060004030B5074D05EB410457
:10159000002303E0058820C4801C5B1C551CB3EBB2
:1015A000550FF7D330BD00000060004030B5034652
:1015B00001F07F00CA111ED000BF1F4A52F8202040
:1015C00012F0400F0AD01C4A52F8202048F68F74BF
:1015D000224042F04002184C44F8202000BF00BFD7
:1015E000154C54F8204048F6BF7504EA0502124C29
:1015F00044F820201EE000BF0F4A52F8202012F4C9
:10160000804F0AD00C4A52F8202048F68F742240AE
:1016100042F48042084C44F8202000BF00BF064C32
:1016200054F820404BF68F7504EA0502024C44F84A
:10163000202000BF30BD0000005C0040F0B5034634
:101640000A46957805F00F0094889578ED111BD027
:1016500000EB800603F1100505EB86014C602C4D74
:101660002D882C4E366806EB0016358000BF2A4EBA
:1016700056F8206048F6BF7706EA070585F0200691
:10168000254F47F820601BE000EB800603F138058A
:1016900005EB86014C601E4D2D881E4E366806EB0C
:1016A0000016358100BF1C4E56F820604BF68F7730
:1016B00006EA070585F40056174F47F8206000BF7B
:1016C000134E4D6836683544114E3560D57815F0A7
:1016D000030506D0012D0CD0022D05D0032D0BD112
:1016E00004E04FF4007408E0002406E04FF4C06406
:1016F00003E04FF4806400E000BF00BF44EA00054F
:10170000ADB2054E46F8205000250D70F0BD00002A
:10171000C0000020C4000020005C00402DE9F0471C
:101720000746884691461C4608F07F0505EB850173
:1017300007F1380000EB8106C6F80890F4603E2CF3
:1017400010D904F11F0020F01F0084B20120C0EB6B
:10175000441080B240F400401249096801EB0511C1
:1017600088810CE0601C20F0010084B24FF6FF700D
:1017700000EA44200B49096801EB05118881B06833
:10178000FEF72CFE00BF084951F825104BF68F726A
:1017900001EA020080F44051034A42F8251000BFDC
:1017A000BDE8F087C4000020005C004070B5024630
:1017B00001F07F00CC1113D000EB800502F1100482
:1017C00004EB850300BF1A4D55F8205048F6BF764C
:1017D00005EA060484F01005154E46F8205013E083
:1017E00000EB800502F1380404EB850300BF104DC7
:1017F00055F820504BF68F7605EA060484F48055A0
:101800000B4E46F8205000BF01241C7078B900BF71
:10181000074D55F820504BF6BF7605EA060484F4D0
:10182000805585F01005024E46F8205000BF70BD6F
:10183000005C00402DE9F84306460F469046994665
:101840000020009007F07F0505EB850106F11000F0
:1018500000EB8104C4F80880C4F80C9000202061DB
:101860006168E068884202D96068009001E0E06841
:101870000090009B9AB20F4B1B6803EB051319886D
:10188000A068FFF781FE0B490098096801EB05117C
:10189000888000BF084951F8251048F6BF7201EA58
:1018A000020080F03001044A42F8251000BFBDE874
:1018B000F8830000C4000020005C004038B50446F6
:1018C0000D4600200090E888012804D029462046D3
:1018D000FFF7E6FD19E06078022802D003280ED158
:1018E00006E001236A4680212046FFF7A3FF0BE0B4
:1018F0000123224680212046FFF79CFF04E0294671
:101900002046FFF7CDFD00BF00BF38BDF8B5054646
:101910000C46207810F01F0F2BD10027608806128C
:1019200000200090032E1FD8A178701E174A52F88D
:1019300020306A46284698470746BDF80000B8B1EF
:10194000E088A8B1E088BDF80010884202DDBDF84B
:10195000000000E0E0880090BDF800303A468021A9
:101960002846FFF767FF03E021462846FFF798FD6A
:101970000AE0207800F01F00012805D1686F18B137
:10198000214628466A6F9047F8BD000004010020F8
:1019900070B504460D466078022802D0032814D1A1
:1019A00004E029462046FFF77BFD0FE02879012857
:1019B00006DC606F40B129462046626F904703E025
:1019C00029462046FFF76CFD00E000BF00BF70BD58
:1019D0007CB504460E46002001900090307810F04F
:1019E0001F0004D001281AD0022867D134E06078A3
:1019F000022802D003280FD100E000BFE07820B118
:101A0000BDF8040040F002000190022301AA8021E9
:101A10002046FFF70FFF00E000BF00BF53E06078F3
:101A2000022802D0032814D104E031462046FFF7F3
:101A300037FD0FE03079012806DC022301AA80215E
:101A40002046FFF7F7FE03E031462046FFF728FD6A
:101A500000E000BF00BF36E035796078022802D090
:101A6000032828D107E02DB1802D03D03146204630
:101A7000FFF716FD20E005F0800080280BD105F06F
:101A80007F0000EB800104F1100010F8210058B134
:101A90000120009008E005EB850104F1380010F802
:101AA000210008B10120009002236A4680212046CF
:101AB000FFF7C0FE00E000BF00BF04E03146204653
:101AC000FFF7EEFC00BF00BF7CBD000070B505460F
:101AD0000E4606EB860105F1100000EB8104002E96
:101AE00063D1E868002852D06168E068884211D963
:101AF0006168E068401AE060A08983B280212846CE
:101B0000A268FFF797FE00231A4619462846FFF7FA
:101B100005FE60E06168E068B0FBF1F201FB1200D5
:101B200090B9E068E96888420ED200231A46802105
:101B30002846FFF77FFE0020E86000231A4619467A
:101B40002846FFF7EBFD46E00020E06068780328B8
:101B500004D1002201212846AB6F984700BF1F48DF
:101B6000006840F4807048F68F7108401B49086097
:101B700000BF09684BF68F7201EA020080F4405101
:101B8000164A116000BF00BF0020E86023E014483F
:101B9000007800B31248007840F080000F494C31C3
:101BA000086000200E49087015E0D4E90301401ACE
:101BB000E060E06840B9687803280CD13246012122
:101BC0002846AB6F984706E0A08983B23146284685
:101BD000A268FFF72FFE002070BD0000005C0040EF
:101BE000CC00002001461448007818B31248007851
:101BF000401E114A107010460078D8B90F4800787E
:101C000001280AD10E48006880B220F010000C4A6A
:101C100010600020094A10700CE00948006880B28A
:101C200040F01000064A10600320034A10700120A3
:101C3000024A107000207047C8000020CA0000202F
:101C4000405C00402DE9FC41074600240020019043
:101C5000009000258BE0BDF8040000F00F04494817
:101C600050F8240080B20090BDF8040010F0100F6E
:101C700026D104EB840107F1100000EB8105BDF8CB
:101C8000000010F0800F72D03E4850F8240048F653
:101C90000F7108403B4941F824003B48006800EBC5
:101CA00004108088C0F3090028612969A8680844E5
:101CB000A860FEF78DFB21463846FFF707FF56E088
:101CC000002604EB840107F1380000EB8105BDF824
:101CD000000010F4004F49D02A4850F82400C0F307
:101CE0000E0048F68F710840264941F82400264826
:101CF000006800EB04108089C0F30906D6B1BDF876
:101D0000000010F4006F0CD0B2B21F4800680189C7
:101D1000381DFFF727FC384600F01BFB0020BDE80C
:101D2000FC81B2B2184B1B6803EB04131989A86835
:101D3000FFF718FC286930442861A8683044A8607F
:101D4000E868801BE860E86810B16868B04206D9AE
:101D50002146384600F0FAF80020286106E0A889FC
:101D600083B221463846AA68FFF7D8FC00BF054871
:101D70004430006880B2019010F4004F7FF46BAFE4
:101D80000020CCE7005C0040C40000200246202078
:101D90001C4B1860184600881B4B1B68188019489C
:101DA00000684030174B186018460088164B1B68B7
:101DB0001881144800684030124B18604FF480506E
:101DC000114B1B68988140235361D36343F2202059
:101DD0000E4B186000210BE00C4850F8210048F62B
:101DE0008F7318400843094B43F82100481CC1B2C7
:101DF0000229F1DB8020054B4C3318600120507024
:101E000000207047C0000020C4000020005C00409B
:101E100010B504460448006820B103480068016812
:101E200020468847002010BD1000002010B5044651
:101E30006078A070042060700548007810B100F050
:101E4000C5FA02E0032003490870002010BD00001D
:101E5000C9000020C800002010B50446A0786070BA
:101E60000348007808B9FFF7A5F9002010BD00006D
:101E7000CA0000201CB50020019000903048006886
:101E800080B201902F48008800F40040BDF8041093
:101E9000084202D02C48FFF7D5FE2A48008800F4FB
:101EA0008050BDF80410084206D04EF6FF70244959
:101EB00008602548FFF7D0FF2248008800F4006042
:101EC000BDF8041008420CD01D48001F006810F037
:101ED000100F06D11C48FFF7A9FF4FF2FF701849F9
:101EE00008601848008800F40070BDF8041008422B
:101EF00006D04FF6FF50124908601348FFF788FFDD
:101F00001048008800F48070BDF80410084206D024
:101F10004FF6FF600A4908600B48FFF763FE094867
:101F2000008800F48060BDF80410084206D04FF627
:101F3000FF30034908600448FFF728FF1CBD00007C
:101F4000445C0040BC0000201400002070B5044632
:101F50000E4606EB860104F1380000EB810576BBE6
:101F6000E06868B36968E86888420BD96968E8681E
:101F7000401AE860A88983B200212046AA68FFF7CA
:101F8000CDFB2EE06078032804D1002211462046C4
:101F9000A36F984700BF002013490968888000BFDD
:101FA0001249096848F6BF7201EA020080F0300168
:101FB0000E4A116000BF00BF0020E06011E008E0A1
:101FC000FFE70A48006848F68F6108400749086043
:101FD00007E06078032804D1324600212046A36F31
:101FE0009847002070BD0000C4000020005C004045
:101FF0007047000070B504460D46A88848BBE888C5
:1020000038BBA87800F07F00144908706078032876
:1020100004D129462046FFF743FA1EE000BF002006
:102020000F490968888000BF0E49096848F6BF72E9
:1020300001EA020080F030010A4A116000BF00BFCF
:102040000648007810B10220607006E00120607040
:1020500003E029462046FFF723FA70BDCC0000209C
:10206000C4000020005C004070B504460D46A8780E
:102070004D49087008460078012804DD29462046AD
:10208000FFF70EFA8FE06078022802D0032874D19F
:1020900031E045480078D8B14348007820700320EB
:1020A0006070414801782046E26E904700BF0020F2
:1020B0003E490968888000BF3D49096848F6BF72FB
:1020C00001EA020080F03001394A116000BF11E0DE
:1020D00000BF002035490968888000BF344909687D
:1020E00048F6BF7201EA020080F03001304A116008
:1020F00000BF00BF56E02C480078D8B902206070BD
:10210000294800782070284801782046226F90479F
:1021100000BF002025490968888000BF244909685C
:1021200048F6BF7201EA020080F03001204A1160D7
:1021300000BF35E020781C49097888421ED02178FC
:102140002046226F90471848007820701648017882
:102150002046E26E904700BF00201449096888803D
:1021600000BF1349096848F6BF7201EA020080F017
:1021700030010F4A116000BF12E012E000BF0020E2
:102180000A490968888000BF0949096848F6BF7292
:1021900001EA020080F03001054A116000BF00BF73
:1021A00000E000BF00BF70BD10010020C40000208F
:1021B000005C00407047000070B505460C460026E4
:1021C000207810F01F0004D0012823D0022865D108
:1021D00036E06878022802D0032818D100E000BF5A
:1021E0006088012812D1E87000BF00202F490968DB
:1021F000888000BF2E49096848F6BF7201EA0200D4
:1022000080F030012A4A116000BF00BF00E000BF2B
:1022100000BF48E06878022802D003280DD104E00E
:1022200021462846FFF73CF908E02079012803DD24
:1022300021462846FFF734F900E000BF00BF32E036
:1022400026796878022802D0032824D107E02EB12D
:10225000802E03D021462846FFF722F91CE0608833
:1022600030B92EB1802E03D031462846FFF79EFAB2
:1022700000BF00200D490968888000BF0C4909682B
:1022800048F6BF7201EA020080F03001084A11608E
:1022900000BF00BF00E000BF00BF04E021462846A9
:1022A000FFF7FEF800BF00BF70BD0000C4000020B3
:1022B000005C004070B504460D466078022802D0EC
:1022C000032825D104E029462046FFF7E9F820E05D
:1022D0002879012817DC606F18B129462046626F03
:1022E000904700BF00200C490968888000BF0B4957
:1022F000096848F6BF7201EA020080F03001074A1F
:10230000116000BF03E029462046FFF7C9F800E04E
:1023100000BF00BF70BD0000C4000020005C004092
:1023200010B50246101D03780B7043784B7084780B
:10233000C37804EB03234B800479437904EB032334
:102340008B808479C37904EB0323CB80CB88D36063
:1023500010BD1CB5044669462046FFF7E1FF9DF815
:10236000000010F0600004D0202807D040280FD1D2
:1023700009E06946204600F013F80EE06946204661
:10238000FFF754F809E06946204600F02AF804E017
:1023900000212046FFF70AFA00BF00BF00201CBD45
:1023A00070B505460C466078034951F82020214657
:1023B00028469047002070BDD000002010B503468D
:1023C0009C6E54F821000478148010BD0348006806
:1023D00080B240F00C00014908607047405C00404A
:1023E00070470246002070471203500061007900D8
:1023F000460075006C006C002E0000003C03450098
:102400006E00630072007900700074006500640063
:1024100020004D00610067006E00650074006900D7
:102420006300200052006500610064002000480045
:102430006500610064002E000000180345004D0097
:1024400050003300300030003100560031002E00C3
:10245000330000001201000200000040CD0A3020CD
:1024600000010102030109022900010100C0320933
:1024700004000002030000000921110100012231C3
:102480000007058103400001070501034000010426
:10249000030904008F240008E8230008FC23000837
:1024A0003A24000806FF000901A101850109011570
:1024B0000025017508953FB182850109019182854A
:1024C000050905150026FF007508953F81828505E1
:1024D0000905B182C0557362436865636B427566D6
:1024E000660055736252656164546F00004040405D
:1024F00040404040404041414141414040404040D7
:102500004040404040404040404040404005020282
:102510000202020202020202020202020220202041
:10252000202020202020200202020202020290909D
:10253000909090901010101010101010101010109B
:1025400010101010101010100202020202028888EF
:1025500088888888080808080808080808080808FB
:1025600008080808080808080202020240000000E3
:10257000ED24000894250008000000201801000048
:10258000280C0008AC26000818010020C80D000027
:10259000380C0008000001000000000000000000EE
:1025A000000000000000000000000000000000002B
:1025B000000000000000000000000000000000001B
:1025C000000000000000000000000000000000000B
:1025D00000000000000000000000000000000000FB
:1025E00000000000000000000000000000000000EB
:1025F00000000000000000000000000000000000DB
:1026000000000000000000005424000866240008B8
:1026100094240008990C00087D0C0008C90C0008DF
:10262000490C000800340008000000000000000011
:10263000000000000000000000000000000000009A
:1026400000000000000000000000000000A24A049A
:1026500000000000200000000060004000010000B9
:1026600000000000D1190008D1120008F11F000875
:10267000B9210008F11F0008F51F00080D19000816
:10268000B5210008BD18000869200008911900084C
:10269000B5220008E123000895140008ED13000896
:0C26A000BD230008000000000000000046
:040000050800016985
:00000001FF
