:020000040800F2
:10000000C023002075B60008D5A60008D7A60008B2
:10001000D9A60008DBA60008DDA600080000000045
:10002000000000000000000000000000E1A6000841
:10003000DFA6000800000000E3A60008E5A600080F
:10004000BDB60008C1B60008C5B60008C9B60008AC
:10005000CDB60008D1B600082BA80008D5B6000818
:10006000D9B60008DDB60008CDA70008E1B6000843
:10007000E5B60008E9B60008EDB60008F1B60008DC
:10008000F5B60008F9B60008FDB6000801B700088B
:1000900005B7000809B700080DB70008B5A80008A3
:1000A00011B7000815B7000819B700081DB70008F8
:1000B00021B7000807A8000825B7000829B70008DD
:1000C0002DB7000831B7000835B7000839B7000868
:1000D0003DB7000841B70008E7A6000845B700088B
:1000E0003FA9000825AA000849B7000800F5E070FC
:1000F0000268914203D343689A18914202D3806800
:100100000028F5D17047DFF86007016891B9DFF882
:100110005C274FF4803181604FF4805141604FF093
:10012000FF31C160016104214161C2F8BC11DFF8F7
:10013000401701600120704701F1080313F0070325
:1001400005D001F10803C3F1080303F007035918B0
:10015000D21A8161C26042F001034B60511828231A
:100160004B60DFF804170969C16170472DE9F04F52
:10017000064601F1080083B010F0070008BF88466A
:1001800007D001F10800C0F1080000F0070000EB03
:10019000010802F1080010F0070006D002F1080083
:1001A000C0F1080000F0070082181546A5EB080012
:1001B000A0EB030903EB080B43F00300C8F80400AD
:1001C000AB4528BF01F012FA2879C00758BF01F0EB
:1001D0000DFAB9F1100F38BF01F008FAB069854285
:1001E00009D1F0684844F060C6F818B040F001004A
:1001F000CBF804006DE1706985420BD1B0684844CA
:10020000B060C6F814B040F00101CBF8041040F81B
:100210000B005EE1686800F00301012940F0AD8049
:10022000C008C0000190C00820283AD2D5F808A024
:10023000EF680090BD4208BF01F0D8F9554508BFEE
:1002400001F0D4F968680099C008C000B0EBC10F94
:1002500018BF01F0CBF9009806EBC00000F12801AF
:100260008A4507D031698A45C0F08280DAF80C10DF
:10027000A9427DD1574506D1009A306801219140AD
:100280008843306076E02830874205D03069874265
:100290006ED3B868A8426BD1CAF80C70C7F808A032
:1002A00068E0EF68D5F818A0AF420CD0A8683169B3
:1002B000884223D3C168A94204BFB968A9421DD1AD
:1002C000C760B8601CE005F11400076837B905F194
:1002D00010000768A7B101E00846076807F114019C
:1002E0000A68002A02BF07F110010A68002AF3D148
:1002F0003169884202D30021016001E001F076F902
:10030000BAF1000F36D0E86906EB800000F598706E
:1003100001688D4208D10760A7B9EA6970680121B8
:1003200091408843706025E03069824508D3DAF84F
:100330001000A84214BFCAF81470CAF8107001E087
:1003400001F054F9B7B13069874211D3C7F818A04A
:10035000296929B1814226BF39618F6101F046F9CF
:10036000686938B13169884202D37861876101E0F8
:1003700001F03CF901984519814468684008400043
:1003800068604FEAD90549F00100CBF8040049F84C
:100390000B90202D23D206EBC50000F12807BA46AA
:1003A000B9F1100F38BF01F021F9306820FA05F1DA
:1003B000C90704D40121A9400843306006E0B868A9
:1003C000316988422CBF824601F010F9C7F808B0A5
:1003D000CAF80CB0CBF808A0CBF80C7079E05FEA53
:1003E000192108BF002023D0B1F5803F28BF1F206E
:1003F0001ED2A1F58070000C00F008008140A1F52C
:100400008052120C02F004029140A1F580431B0CB3
:10041000C0F10E0003F00203801AC01A994000EBED
:10042000D130C11D29FA01F101F0010101EB4000B9
:10043000CBF81C000022CBF81420CBF8102006EBE0
:100440008001726822FA00F301F59871DB0707D486
:10045000012303FA00F010437060C1F800B01DE002
:100460001F2809680EBF00204008C0F1190009FAD2
:1004700000F000E011464A68D208D2004A4514D084
:10048000C20F01EB820202F1100340001A68002A39
:10049000F0D1306983421AD3C3F800B0CBF81810FA
:1004A000CBF80CB0CBF808B013E032698868914201
:1004B00028BF90420BD3C0F80CB0C1F808B0CBF8FD
:1004C0000800CBF80C100020CBF8180001E001F078
:1004D0008DF808F1080000F0FABD2DE9FA4D054647
:1004E000DFF88403006884B008B9FFF70CFEDFF87A
:1004F00078030499806841182F31401E21EA0000DA
:100500000499814280F0AB8105F5D876B16841B19C
:10051000D5F8B0218018824280F0A1818142C0F0DC
:100520009E8101F077F800281EBF0446D0F80080B5
:1005300014F1010F00F09381D5F8B0014044C5F8E3
:10054000B0017168814238BF01467160A86980BB03
:10055000286908B1844200D22C613461C6F8148045
:100560000020F06105F12801BF48006868624FF083
:10057000FF3028620020C960896001F10802801CF8
:10058000D260103192602028F5D3B848854203D15B
:10059000A8F12802214629E055F8040CC00805EB13
:1005A000C000A0F1080108EB0400401AA0F12802E5
:1005B0001CE005F5E071084600E08068D0B10268F3
:1005C00043689A189442F8D1027B120712D4AA69A0
:1005D00003689A420ED347683B449A420AD208EB1A
:1005E00007014160E868A96908EB00022846FFF7A7
:1005F000A3FD1EE12869844238BF2C61084608EB40
:10060000040100E0806880B102688A42FAD1017B6F
:1006100009070AD404604168414441602146049BB3
:10062000284606B0BDE8F04DA0E5AF69394628463A
:10063000FFF75CFD01684068401802902F3800F118
:10064000080111F0070105D000F10801C1F108010E
:1006500001F00701081807F11001884234BF009724
:10066000009000980830019004F10801009800F112
:10067000180A4FF0000BA8F1280011F0070105D06F
:1006800004F10801C1F1080101F007010A19401A3B
:10069000AA61E86040F001015160801828214160A2
:1006A00071480069E861019810F0070018BF00F078
:1006B0009DFF00991B20486005F5E071B1E80C50E2
:1006C0000198A0E80C503461C6F81480C6F81CB03C
:1006D0000198B061029800E08A460722CAF8042017
:1006E0000AF104010A1D0BF1010B8242F4D3BBF1A4
:1006F000020FB8BF00F07AFF0098B84200F099806E
:10070000C01BC119C4084A68520852004A6040F030
:1007100001017960C051202C20D205EBC40101F108
:100720002806B046102838BF00F060FF286820FA7D
:1007300004F1C90704D40121A1400843286006E060
:10074000B068296988422CBF804600F04FFFB7602F
:10075000C8F80C70C7F80880FE606AE0010A08BF9C
:10076000002223D0B1F5803F28BF1F221ED2A1F561
:100770008072120C02F008029140A1F580531B0C0C
:1007800003F004039940A1F58044240CC2F10E0249
:1007900004F00204D21A121BA14002EBD131CA1D8F
:1007A00020FA02F202F0010202EB4102FA61002398
:1007B0007B613B6105EB82016B6823FA02F401F572
:1007C0009871E40705D401209040184368600F60D9
:1007D0001CE01F2A09680EBF00225208C2F119024C
:1007E00000FA02F200E019464B68DB08DB008342A6
:1007F00010D0D30F01EB830303F1100452002368E0
:10080000002BF0D12869844211D32760B961FF60C1
:10081000BF600EE02A698868914228BF904206D3E3
:10082000C7608F60B860F9600020B86101E000F037
:10083000DDFEE8680499814211D2401AE860A96996
:10084000049A5218AA6140F001005060049840F0E8
:100850000300486006B001F10800BDE8F08D0020FB
:1008600006B0BDE8F08D0000601F0020B41B002022
:100870006859883C2DE9F04D044688460026C8F1A9
:10088000000B5FEA182008BF002123D0B0F5803F9D
:1008900028BF1F211ED2A0F58071090C01F00801AC
:1008A0008840A0F58052120C02F004029040A0F59E
:1008B00080431B0CC1F10E0103F00203891AC91A0F
:1008C000984001EBD030C11D28FA01F101F001017F
:1008D00001EB400104EB8100D0F8300130B31F2957
:1008E0000EBF00224A08C2F1190208FA02F20023E0
:1008F00000E052004568ED08ED00A5EB08055D45F8
:1009000003D206465FEA050B0CD045694FEAD27E5A
:1009100000EB8E00002D00691CBF85422B4600288D
:10092000E7D1184600283AD1002E3AD1012088405C
:100930004000414208436168084000F0658141423F
:100940000840411E080B00F0100021FA00F2510986
:1009500001F00801CA40930803F00403DA40550887
:1009600005F002050818EA401818C2F3400E2844A2
:10097000704422FA0EF1081804EB8000D0F8300120
:100980000DE008464168C908C900A1EB08015945B6
:100990003CBF8B46064601690029F2D14069002818
:1009A000F0D1002E00F03081A068A0EB0800834554
:1009B00080F02A8120698642C0F024817068C008D6
:1009C000C00008EB0B0108EB0605884218BF00F0D9
:1009D0000DFEAE4280F01681F768D6F818A0B74237
:1009E0000CD0B0682169884223D3C168B14204BFEA
:1009F000B968B1421DD1C760B8601CE006F11400AF
:100A0000076837B906F110000768A7B101E008468A
:100A1000076807F114010A68002A02BF07F11001F4
:100A20000A68002AF3D12169884202D300210160BB
:100A300001E000F0DBFDBAF1000F38D0F06904EB03
:100A4000800000F5987001688E4209D10760380077
:100A500014D1F2696068012191408843606026E00A
:100A60002069824508D3DAF81000B04214BFCAF8F2
:100A70001470CAF8107001E000F0B8FDBFB1206931
:100A8000874212D3C7F818A0306930B12169884273
:100A900026BF3861876100F0A9FD706938B121690E
:100AA000884202D37861876101E000F09FFDBBF1CD
:100AB000100F0CD208EB0B0040F00300706008EB45
:100AC0000B008019416841F00101416096E048F057
:100AD000030070604BF0010068604BF805B04FEA0E
:100AE000DB0020281DD204EBC00101F1280721689A
:100AF00021FA00F2BB46D20705D4012202FA00F027
:100B00000843206006E0B868216988422CBF83460C
:100B100000F06CFDBD60CBF80C50C5F808B0EF607C
:100B20006CE05FEA1B2108BF002023D0B1F5803FB5
:100B300028BF1F201ED2A1F58070000C00F0080015
:100B40008140A1F58052120C02F004029140A1F5FF
:100B500080431B0CC0F10E0003F00203801AC01A80
:100B6000994000EBD130C11D2BFA01F101F00101D8
:100B700001EB4000E86100226A612A6104EB800118
:100B8000626822FA00F301F59871DB0706D40123AD
:100B900003FA00F0104360600D601CE01F28096834
:100BA0000EBF00204008C0F119000BFA00F000E071
:100BB00011464A68D208D2005A4510D0C20F01EB44
:100BC000820202F1100340001A68002AF0D1206965
:100BD000834211D31D60A961ED60AD600EE0226912
:100BE0008868914228BF904206D3C5608D60A86096
:100BF000E9600020A86101E000F0F8FC06F10800BF
:100C0000BDE8F08D00F0F2FC0020BDE8F08D2DE98C
:100C1000F84F04468846606841420840411E080B70
:100C200000F01000C1404A0902F00802D1408B08D0
:100C300003F00403D9404D0805F002051018E940FF
:100C40001818C1F3400628443018F140081804EB86
:100C50008000D0F830014168C908C9000646A1EB00
:100C6000080A09E008464168C908C900A1EB080163
:100C700051453CBF8A46064601690029F2D14069C8
:100C80000028F0D120698642C0F0C4807068C00896
:100C900008EB0A09C00008EB060B484518BF00F036
:100CA000A5FC5E4580F0B680F768B569B7420CD008
:100CB000B0682169884223D3C168B14204BFB968D2
:100CC000B1421DD1C760B8601CE006F1140007688E
:100CD00037B906F110000768A7B101E008460768B8
:100CE00007F114010A68002A02BF07F110010A681F
:100CF000002AF3D12169884202D30021016001E07A
:100D000000F074FC002D34D0F06904EB800000F595
:100D1000987001688E4209D10760380011D1F269DC
:100D20006068012191408843606022E0206985422B
:100D300005D32869B04214BF6F612F6101E000F054
:100D400055FCB7B12069874211D3BD61306930B11C
:100D50002169884226BF3861876100F047FC7069CD
:100D600038B12169884202D37861876101E000F0DF
:100D70003DFCBAF1100F09D249F00300706009EB95
:100D80000600416841F0010141603FE048F0030086
:100D900070604AF00100CBF804004AF80BA0D4F8C8
:100DA00008804FEAD805202D28BF00F01FFCB8F1BD
:100DB000000F27D0D4F81490009504EBC50000F183
:100DC00028052F46B8F1100F38BF00F00FFC20683F
:100DD000009920FA01F1C90705D4009A0121914038
:100DE0000843206006E0A868216988422CBF0746B6
:100DF00000F0FCFBC5F80890C7F80C90C9F8087023
:100E0000C9F80C50C4F808A0C4F814B006F10800E2
:100E1000BDE8F28F00F0EAFB0020BDE8F28F2DE97B
:100E2000F04F83B00546C046C046DFF8B847F52D01
:100E300080F002810B2D31BF102705F10B00C00897
:100E4000C7002068FE08F04010F0030F42D0C043F6
:100E500000F00100861904EBC60000F12808F70035
:100E6000D8F808506868C008C000B84218BF00F041
:100E7000BDFBD5F80890454508BF00F0B7FB4D45D0
:100E800008BF00F0B3FB6868C008C000B84218BFD4
:100E900000F0ACFBC84505D120680121B140884372
:100EA00020600DE02069814508D3D9F80C00A842E4
:100EB00004D1C8F80890C9F80C8001E000F096FB56
:100EC00047F00300686078190835416841F0010176
:100ED0004160F9E0A168B94280F0C080002800F0CC
:100EE000A280012505FA06F149004A42B0401143AB
:100EF000084041420840411E080B00F01000C1406C
:100F00004A0902F00802D1408B0803F00403D940DB
:100F10004E0806F002061018F1401818C1F34008F8
:100F20003018404421FA08F101EB000804EBC80036
:100F300000F128094FEAC80AD9F808607068C008AB
:100F4000C000504518BF00F051FBD6F808B04E4520
:100F500008BF00F04BFB5E4508BF00F047FB706820
:100F6000C008C000504518BF00F040FBD94505D16E
:100F7000206805FA08F1884320600DE02069834568
:100F800008D3DBF80C00B04204D1C9F808B0CBF8A4
:100F90000C9001E000F02AFB47F003007060AAEB20
:100FA0000708B819019048F00100019948600198BC
:100FB00048F80080A7684FEAD70ABAF1200F28BF87
:100FC00000F014FB47B3CDF800A004EBCA00D4F83E
:100FD000149000F1280AD346102F38BF00F006FB0A
:100FE0002068009920FA01F1C90705D4009905FA93
:100FF00001F10843206007E0DAF80800216988421F
:101000002CBF834600F0F2FACAF80890CBF80C9097
:10101000C9F808B0C9F80CA0C4F8088006F10805A2
:101020000198606150E06068C0B339462046FFF720
:10103000EEFD050012D047E015F1400F28BF4FF03C
:10104000FF370BD205F10B00C008C700606828B15C
:1010500039462046FFF70EFC050035D1A068B8429E
:101060001CD3C11B626910290AD3B8186061A16042
:1010700041F001034360095047F0030050600AE06B
:101080000021A160616140F0030151608018416856
:1010900041F00101416002F1080515E0E068874276
:1010A0000DD2C01BA169E0607A18A26140F0010076
:1010B000506001F1080547F00300486004E039463C
:1010C0002046FFF70AFA0546C046C046284603B048
:1010D000BDE8F08F00B970472DE9F047A0F1080492
:1010E000C046C046DFF8FC5428698442C0F07482D0
:1010F000616801F00302012A00F06E82CA084FEA1B
:10110000C20808EB0409CA0736D4226811F0030F9D
:1011100000F06482A41A90448442C0F05D82696940
:101120008C4200F0D880D608202E70D2D4F80CA0C3
:10113000A768544508BF00F059FABC4208BF00F048
:1011400055FA6068C008C000B0EBC60F18BF00F0C9
:101150004DFA05EBC60000F128018F4205D0296940
:101160008F4251D3F968A1424ED1BA453DD128688A
:101170000121B140884328604C4580F02D82D9F888
:101180000400C10740F12882810700F17A81A96932
:10119000894540F0B580E868AC614044E86040F0C3
:1011A0000101616069698C4202D100216961A96015
:1011B000E969814280F01282DFF82C04006808B9E6
:1011C000FEF7A1FFA969002900F00882E868292834
:1011D00024BF2846FEF78AFFE869E968884280F064
:1011E000FD814FF0FF30E861F8E12830824506D0FC
:1011F0002869824508D3DAF80800A04204D1C7F86C
:101200000CA0CAF80870B7E700F0F0F9B4E7E76897
:10121000A669A7420BD0A168814222D3C868A04228
:1012200004BFB868A0421CD1CF60B9601BE004F1D4
:1012300014010F6837B904F110010F689FB101E084
:1012400011460F6807F114021368002B02BF07F163
:1012500010021368002BF3D1814202D300200860F2
:1012600001E000F0C3F9002E86D0E06905EB8000B4
:1012700000F5987001688C4209D10760380011D1DF
:10128000E2696868012191408843686074E72869D1
:10129000864205D33069A04214BF7761376101E00F
:1012A00000F0A4F9002F3FF467AF28698742ABD361
:1012B000BE61216929B1814226BF39618F6100F089
:1012C00095F9606900283FF457AF296988429BD39C
:1012D0007861876150E799F8040000F00300032863
:1012E0007FF44AAFC5F80880D9F8040040084000F0
:1012F000C9F8040048F00100606048F804806DE11E
:101300006969894508D1A8686C614044A86040F0CB
:1013100001016160005161E1C008C0004FEAD00ADC
:101320008044BAF1200F36D2D9F80C70D9F8086091
:10133000B94508BF00F05AF9B14508BF00F056F9A9
:10134000D9F80400C008C000B0EBCA0F18BF00F005
:101350004DF905EBCA0000F128018E4206D029693B
:101360008E42C0F08180F16849457DD1B74206D1F7
:101370002868012101FA0AF18843286076E02830C4
:10138000874205D0286987426ED3B86848456BD13B
:10139000F760BE606AE0D9F80C70D9F818604F4564
:1013A0000DD0D9F808002969884223D3C16849457E
:1013B00004BFB96849451DD1C760B8601CE009F198
:1013C0001400076837B909F110000768A7B101E0F8
:1013D0000846076807F114010A68002A02BF07F1EE
:1013E00010010A68002AF3D12969884202D300213A
:1013F000016001E000F0FAF8002E37D0D9F81C00A7
:1014000005EB800000F59870016889450AD10760F6
:10141000380012D1D9F81C20686801219140884316
:10142000686023E02869864205D33069484514BFC7
:101430007761376101E000F0D9F8BFB128698742D0
:1014400012D3BE61D9F8101029B1814226BF39618B
:101450008F6100F0CBF8D9F8140038B129698842BF
:1014600002D37861876101E000F0C0F848F0010024
:10147000606048F80480686984420BD1C5F8088030
:10148000ACE040084000C9F8040048F0010060608A
:1014900048F804804FEAD807202F22D205EBC70076
:1014A00000F128094E46B8F1100F38BF00F09EF841
:1014B000286820FA07F1C90704D40121B94008437C
:1014C000286007E0D9F80800296988422CBF064641
:1014D00000F08CF8C9F80840F460A660C4F80C90DD
:1014E0007CE05FEA182008BF002123D0B0F5803FE0
:1014F00028BF1F211ED2A0F58071090C01F0080140
:101500008840A0F58052120C02F004029040A0F531
:1015100080431B0CC1F10E0103F00203891AC91AA2
:10152000984001EBD030C11D28FA01F101F0010112
:1015300001EB4001E16100226261226105EB810063
:101540006A6822FA01F300F59870DB0706D40123DC
:1015500003FA01F11143696004601CE01F2900686F
:101560000EBF00214908C1F1190108FA01F100E09C
:1015700010464268D208D200424510D0CA0F00EB94
:10158000820202F1100349001A68002AF0D1296989
:101590008B4211D31C60A061E460A4600EE02A6954
:1015A0008168904228BF914206D3CC608460A160DC
:1015B000E0600020A06101E000F018F8286A401EF9
:1015C00028620BD1D5F8C80100E080680028FCD162
:1015D0004FF0FF30286201E000F008F8C046C04636
:1015E000BDE8F087B41B0020601F0020012000F040
:1015F00027B850F8041B61B150F8042BD30744BF3F
:10160000A9F101039A18002342F8043B091FFAD1FB
:10161000EFE770470749086808B10020704706489F
:10162000C008C00008600549C908C900091A01605E
:10163000704700BF901F0020C723002040240020D7
:1016400080B5C046C046024A11001820ABBEFBE779
:101650002600020080F3088880F309888F467047CF
:1016600080B55FF0FF30DFF8981908605FF0FF3059
:10167000DFF8901908600020DFF8CC1C0860DFF864
:10168000CC0CDFF8CC1C0860042001680020006846
:10169000FFF7E0FF01BD0020DFF8B81C0870002054
:1016A000DFF8B41C08700020DFF8B01C0870704729
:1016B00070B590B04021002200AC200001F0F0F99C
:1016C000DFF89C0C0078012841D13E22DFF8941C01
:1016D00000AD280001F018FA0222B6A10DF13E0675
:1016E000300001F011FA002410E09DF83E0000A93E
:1016F000E4B2615C48408DF83E009DF83F0000A9CF
:10170000E4B2615C08188DF83F00641CE4B23E2C22
:10171000EBDB00240BE00023DFF84C2CDFF84C1C43
:1017200000A8E4B210EBC40001F06AFF641CE4B24C
:10173000082CF0DB72B6DFF8380C01F088FF40228D
:1017400000A9DFF82C0C01F0A7FF62B6FFE710B08C
:1017500070BD30B591B04021002200AD280001F0ED
:101760009FF9402200A9DFF8080C01F062FF002475
:101770000BE00123DFF8F02BDFF8F01B00A8E4B248
:1017800010EBC40001F03CFF641CE4B2082CF0DB59
:10179000402200A9DFF8CC5B280001F0B5F9002455
:1017A0002100200008E000AAE4B2A25C504000AA98
:1017B000E4B2A25C5118641CE4B23E2CF3DBDFF807
:1017C000A42B92F83E20C0B2904208D1DFF8940BCF
:1017D00090F83F00C9B2814201D1012000E0002011
:1017E00011B030BD78B4022392FBF3F404FB132450
:1017F000002C01D0002040E0022392FBF3F20023F2
:1018000009E09DF8004024015C545C5C9DF80150A7
:101810002C435C545B1C93422EDA04788DF8004014
:10182000401C04788DF80140401C002405E000AD08
:10183000655D373D00AEA555641C022CE1DA00ADB4
:10184000655D413D062DF2D300AD655D613D062D20
:1018500005D200AD655D573D00AEA555ECE700AD86
:10186000655D303D0A2D05D200AD655D303D00AEB1
:10187000A555E1E7002000E0012072BC704778B474
:10188000002300E05B1C934225DA1C5CE4B22409CF
:101890008DF800401C5C14F00F048DF8014000240A
:1018A0000DE000AD655D102D04DA00AD655D3735E6
:1018B00000AEA55500AD655D0D70491C641C022C81
:1018C000E0DA00AD655D0A2DEBDA00AD655D30351F
:1018D00000AEA555EEE771BC704710B500240BE0D3
:1018E00001F018FFFF2190FBF1F201FB1200DFF87D
:1018F000841AE4B26054641CE4B2082CF0DB10BD1E
:1019000080B5DFF8600A90F82D00401CDFF8541A0B
:1019100081F82D00DFF84C0A90F82D0000283DD109
:10192000DFF8400A90F82C00401CDFF8381A81F8E4
:101930002C00DFF8300A90F82C0000282ED1DFF8B8
:10194000240A90F82B00401CDFF8181A81F82B00AD
:10195000DFF8100A90F82B0000281FD1DFF8040AE6
:1019600090F82A00401CDFF8FC1981F82A00DFF803
:10197000F40990F82A00002810D1DFF8E80990F85F
:101980002900401CDFF8DC1981F82900DFF8D409B0
:1019900090F82900FF2801D100200AE00120DFF89B
:1019A000C0190870FFF784FE0020DFF8B419087032
:1019B000012002BD0000000038B501240120DFF83D
:1019C000B8190870DFF8B429DFF8B419012001F064
:1019D00011FFDFF8900990F82D00DFF8881991F8D1
:1019E0002C1050EA0120DFF87C1991F82B1011F02F
:1019F0001F0150EA01452100C9B2280002F0AFF8EA
:101A0000010000200090DFF87C39DFF87029012008
:101A100001F05EFF641C280002F094F8E4B2A042DA
:101A2000E9DA31BDF0B5A3B000A9DFF85C2938CA06
:101A300038C10C3A0C39002404E0012105AAE4B2B3
:101A4000A154641CE4B2052CF7DB0125C0B20100EF
:101A500006296ED00A2900F04B82132900F01F825C
:101A6000152966D0222900F0DE804E2900F06F8112
:101A7000512900F01881542900F0BD81742900F02B
:101A80009B807E295BD0A12902D0BE2916D0B4E26A
:101A9000132105AAE4B2A154641C133505A9E4B2CC
:101AA0006054641C451905A8E4B22554641CE4B2D2
:101AB000210005A802F0DAF923B0F0BD122005A933
:101AC000E4B26054641C1235B12005A9E4B260543C
:101AD000641C4F3DDFF8B40802F0F8F905A9E4B240
:101AE0006054641CDFF8A40802F0F0F945190026E0
:101AF0000DE0DFF89808F6B2305C05A9E4B2605456
:101B0000641CDFF88808F6B2305C4519761CDFF8F3
:101B10007C0802F0DBF9F6B28642EAD3032005A97D
:101B2000E4B26054641CED1C05A8E4B22554641CA6
:101B3000BDE7002405A9E4B26054641CB7E7DFF8F0
:101B4000500880787E2834D10024062005A9E4B20C
:101B50006054641CDFF83808007805A9E4B26054CA
:101B6000641CDFF82C0805787E2005A9E4B26054D7
:101B7000641C95F07E05012005A9E4B26054641C44
:101B800095F00105DFF8DC07407805A9E4B2605460
:101B9000641CDFF8D00740784540032005A9E4B273
:101BA0006054641C95F0030505A8E4B22554641C38
:101BB0007DE7FFF770FD7AE7DFF8D40780787428B7
:101BC0002ED10024062005A9E4B26054641CDFF87D
:101BD000C007007805A9E4B26054641CDFF8B007C0
:101BE000057800260DE0DFF88C07F6B2305C05A919
:101BF000E4B26054641CDFF87C07F6B2305C454008
:101C0000761CF6B2082EEEDB032005A9E4B2605480
:101C1000641C95F0030505A8E4B22554641C46E74E
:101C2000FFF739FD43E7DFF868078078222837D1CE
:101C30000024FF2005A9E4B26054641C062005A915
:101C4000E4B26054641CDFF84807007805A9E4B2E8
:101C50006054641CDFF83807057800260DE0DFF8D3
:101C60000C07F6B2305C05A9E4B26054641CDFF8DE
:101C7000FC06F6B2305C4540761CDFF8F00602F058
:101C800025F9F6B28642EAD3032005A9E4B26054EE
:101C9000641C95F0030505A8E4B22554641C06E70E
:101CA000FFF7F9FC03E7DFF8E806807851284BD10D
:101CB0000024062005A9E4B26054641CDFF8D006B5
:101CC000007805A9E4B26054641CDFF8C406057806
:101CD000DFF8BC06807805A9E4B26054641CDFF824
:101CE000B006807845400B2005A9E4B26054641C1E
:101CF00095F00B050A2005A9E4B26054641C95F028
:101D00000A05002611E0DFF85C06F6B2301890F8FC
:101D1000240005A9E4B26054641CDFF84806F6B25A
:101D2000301890F824004540761CF6B20A2EEADB03
:101D3000032005A9E4B26054641C95F0030505A8CE
:101D4000E4B22554641CB2E6FFF7A5FCAFE6DFF869
:101D5000400680784E284BD10024062005A9E4B225
:101D60006054641CDFF82806007805A9E4B26054CA
:101D7000641CDFF81C060578DFF81406807805A9D6
:101D8000E4B26054641CDFF80806807845400920FE
:101D900005A9E4B26054641C95F00905082005A962
:101DA000E4B26054641C95F00805002611E0DFF8E9
:101DB000B405F6B2301890F8360005A9E4B26054C4
:101DC000641CDFF8A005F6B2301890F836004540E4
:101DD000761CF6B2082EEADB032005A9E4B26054B3
:101DE000641C95F0030505A8E4B22554641C5EE666
:101DF000FFF751FC5BE6DFF89805807854284BD15B
:101E00000024062005A9E4B26054641CDFF88005B4
:101E1000007805A9E4B26054641CDFF87405057805
:101E2000DFF86C05807805A9E4B26054641CDFF823
:101E3000600580784540092005A9E4B26054641C1F
:101E400095F00905082005A9E4B26054641C95F0DA
:101E50000805002611E0DFF80C05F6B2301890F8FE
:101E60002E0005A9E4B26054641CDFF8F804F6B251
:101E7000301890F82E004540761CF6B2082EEADBAA
:101E8000032005A9E4B26054641C95F0030505A87D
:101E9000E4B22554641C0AE6FFF7FDFB07E60024C4
:101EA000DFF89C0B0078002821D11022DFF8941B6A
:101EB00005AE300000F028FE0522DFF88C1B1EA8BE
:101EC00002F020F808221EA906AF380000F01CFE20
:101ED0000025022404E005A8E4B2205C4540641C0F
:101EE000E4B20F2CF7DB05A8E4B22554641CDEE550
:101EF0000024DFF84C0B007801283CD11722DFF8D2
:101F00004C1B05AE300000F0FFFD0023082203A9A2
:101F1000DFF8680402F018F903220DF1030103A8A9
:101F2000FFF7ADFC0025002404E000A8E4B2205C2B
:101F30004540641CE4B2092CF7DB00A8E4B2255448
:101F40000A2200A91EA801F0DDFF0F221EA906AE7D
:101F5000300000F0D9FD0025022404E005A8E4B219
:101F6000205C4540641CE4B2162CF7DB05A8E4B203
:101F70002554641C40E0DFF8C80A007802283BD1F1
:101F80001722DFF8C81A05AE300000F0BDFD0023AF
:101F9000102203A9DFF8B80A02F0D6F803220DF1E7
:101FA000030103A8FFF76BFC0025002404E000A850
:101FB000E4B2205C4540641CE4B2092CF7DB00A8C5
:101FC000E4B225540A2200A91EA801F09BFF0F22AB
:101FD0001EA906AE300000F097FD0025022404E0A3
:101FE00005A8E4B2205C4540641CE4B2162CF7DB83
:101FF00005A8E4B22554641C59E5FFF74CFB5BE5EA
:1020000080E100E084E100E080B502E00020D249F8
:102010000870012100A801F001FFC0B2002800D122
:1020200001BDCC480078002814D0142848D01528C9
:1020300000F08F80162800F0A580172800F0CA80D5
:10204000182800F0E980192800F010811A2800F003
:102050002A816DE10020C14908709DF80000012827
:1020600019D1BD480078401CBB490870BA480078B7
:102070000328CED19DF80000C54908709DF80000E6
:10208000DFF8D01908700120DFF8CC19087014208F
:10209000B0490870BDE79DF800000228B6D19DF850
:1020A0000000BB4908709DF80000DFF8A81908700F
:1020B0000120DFF8A41908701920A6490870A8E7C4
:1020C0009DF8000013281CD1DFF88C090078411C12
:1020D000DFF8842911709DF80010AD4AC0B2815418
:1020E000DFF8700900789DF800100818DFF864190F
:1020F00008701720974908700320DFF860190870EE
:1021000026E09DF80000122818D1DFF84C0900786D
:10211000411CDFF8442911709DF800109C4AC0B2A0
:102120008154DFF8300900789DF800100818DFF8B6
:102130002419087015208749087009E09DF80000EF
:10214000012805D0002083490870002082490870CA
:102150005FE7DFF804090078411CDFF8FC28117004
:102160009DF800108A4AC0B28154DFF8E808007870
:102170009DF800100818DFF8DC1808701620754963
:10218000087046E7DFF8D0080078411CDFF8C8285F
:1021900011709DF800107E4AC0B28154DFF8B40877
:1021A00000789DF800100818DFF8A81808709DF84E
:1021B0000000401DDFF8A4180870DFF8A0080078C0
:1021C000FB2803DBFA20DFF8941808701720614918
:1021D00008701EE7DFF880080078411CDFF87828D7
:1021E00011709DF800106A4AC0B28154DFF864088B
:1021F00000789DF800100818DFF858180870DFF80C
:1022000058080078DFF854180978C0B2884202D123
:10221000182050490870FCE69DF80000DFF83418DB
:10222000097888421BD1DFF830080078411CDFF8BC
:10223000282811709DF80010554AC0B28154DFF86B
:1022400018080078DFF81418087055204349087002
:1022500000204049087000203F490870D9E600205E
:102260003C49087000203C490870D2E69DF8000007
:10227000032802D11A2037490870DFF8DC070078FC
:10228000411CDFF8D42711709DF80010404AC0B2FD
:102290008154DFF8C00700789DF800104840DFF84F
:1022A000B4170870B5E69DF80000DFF8A8170978A4
:1022B000884208D09DF8000090F00200DFF89417E3
:1022C000097888421BD1DFF890070078411CDFF8BD
:1022D000882711709DF800102D4AC0B28154DFF894
:1022E00078070078DFF87417087055201B490870CC
:1022F00000201849087000201749087089E6DFF8A7
:1023000058070078411CDFF8502711709DF8001025
:102310001F4AC0B28154DFF83C0700789DF80010D6
:102320004840DFF83017087019200A49087070E635
:102330000A480078002805D10020064908700020CE
:102340000549087065E6000008ED00E00400FA05A4
:102350000CED00E0AA1F0020AB1F0020AC1F0020E6
:10236000A61F0020201F0020C0B50008B8B5000837
:1023700000E00008881F0020A71F0020441F002045
:10238000341F0020781F002084B6000830B60008F3
:102390008419002010B50024DFF8C4060078552801
:1023A00040F04C8301F044FFDFF8B80600780128C4
:1023B0003AD1002005E0DFF8AC1680B2415C0C1980
:1023C000401C80B2DFF894160978491E8842F2DB7F
:1023D000DFF89006DFF884160978081810F8010C69
:1023E000E4B284421DD1DFF87C064078132840F027
:1023F0002583DFF870068078AE2807D0BE280DD17F
:10240000BE20FFF70FFBFFF746F917E3A120FFF708
:1024100009FBFFF740F9FFF723F90FE3FFF73BF95B
:102420000CE3FFF738F909E3DFF8380600780228F3
:1024300040F00283002005E0DFF8281680B2415CFE
:102440004C40401C80B2DFF814160978491E8842BF
:10245000F2DBDFF81006DFF804160978081810F828
:10246000010CE4B284420DD0E4B294F00200DFF833
:10247000F415DFF8E8251278511811F8011C88428C
:1024800040F0DC82DFF8DC05407838281ED10020DF
:10249000DFF8AC15087040210022DFF8CC452000A1
:1024A00000F0FEFA3120DFF8C01548700120DFF897
:1024B000BC150870FFF7FCF80620FFF7B3FA002000
:1024C000DFF8A8150870FFF7E6F8B7E2DFF8940523
:1024D0004078462840F0C580DFF888058078462897
:1024E00040F0BF8004210022DFF88445200000F086
:1024F000D7FADFF868050078C21FDFF87815DFF833
:10250000700501F057FDDFF870150870DFF8600501
:102510000078FF2840F092820024002005E0DFF8D8
:10252000501580B2415C4C40401C80B2DFF8481529
:102530000978491E8842F2DBDFF83405DFF83815E8
:102540000978081810F8010CE4B2844240F0768251
:10255000DFF81C058078DFF820150870DFF810051B
:1025600040780A281DD0132878D1DFF80C050078B0
:1025700001280CD1DFF8F804C078022807D1132015
:10258000FFF750FA0120DFF8B814087006E01520B4
:10259000FFF748FA0020DFF8A8140870FFF77BF86F
:1025A0004CE2DFF89C040078002851D0DFF8C80422
:1025B000007811281ED1DFF8B804C078322819D16C
:1025C000DFF8B4040078421EDFF8B014DFF8B0047E
:1025D000FFF708F9FFF794F9002807D00A20FFF762
:1025E00021FA0220DFF85814087034E01520FFF7B4
:1025F00019FA30E0DFF88004007821282BD1DFF8C9
:102600007004C078332826D1DFF86C040078421EAD
:10261000DFF83C14DFF86804FFF7E4F83120DFF856
:10262000481488703320DFF8401448700120DFF828
:102630003C140870FFF73CF80A20FFF7F3F900207C
:10264000DFF8FC1308700020DFF82014087002E0A7
:102650001520FFF7E7F9FFF71EF8EFE1FFF71BF88A
:10266000ECE1DFF800044078522844D1DFF8F403AD
:10267000807822280AD04E282AD0512820D05428E9
:102680002ED074280AD07E2812D031E02220FFF705
:10269000C9F90020DFF8C8130870CFE1FFF71DF972
:1026A0007420FFF7BFF90020DFF8B4130870C5E10C
:1026B0007E20FFF7B7F90020DFF8A4130870BDE112
:1026C0005120FFF7AFF90020DFF894130870B5E14F
:1026D0004E20FFF7A7F90020DFF884130870ADE162
:1026E0005420FFF79FF90020DFF874130870A5E16C
:1026F000FEF7D1FFA2E1DFF86C034078532840F0E9
:102700009881DFF860038078182824D01A2800F018
:1027100072811D283DD0342800F0FA80352800F061
:10272000FE80362800F002814C2800F096804E286A
:1027300000F04481542800F02481582830D07428B7
:1027400060D0762800F0F980842800F0BF808528CA
:1027500000F0CF806AE10020DFF80C130870312010
:10276000DFF8041348700020BF49C8700020DFF86C
:10277000141308700120BD490870FEF799FF00206E
:10278000BA4908700620FFF74DF90020B4490870D7
:1027900054E10620FFF746F90020B14908704DE1E9
:1027A000B048C078012826D1AE480079302803D03F
:1027B000AC48007931281AD1AA480079AA49887012
:1027C000A8480079302803D13220A749487002E098
:1027D0003320A54948700120A4490870FEF768FF1E
:1027E0000020A24908700620FFF71CF906E015201A
:1027F000FFF718F902E01520FFF714F900209849B7
:1028000008701BE10023A04AA049A14800F0F8FE8F
:102810009448C2789F499E4801F01AFD00280CD1C7
:1028200031209849087008210022994C200000F0BE
:1028300037F90620FFF7F6F80BE0302091490870D1
:1028400008210022924C200000F02AF91520FFF701
:10285000E9F8002082490870F0E08248C078012839
:1028600022D180480079302807D07E48007931286D
:1028700003D07C480079322812D17A4800797A490D
:10288000C870012078490870012078490870FEF767
:102890000FFF0020754908700620FFF7C3F811E00C
:1028A0001520FFF7BFF80DE000206F4908700120E8
:1028B0006E490870FEF7FCFE00206C490870152078
:1028C000FFF7B0F8002066490870B7E06548C078A7
:1028D000012807D1634800790F2806D10620FFF7A9
:1028E000A1F802E01520FFF79DF800205C49087070
:1028F000A4E05C48C078002803D00620FFF792F8D7
:1029000002E01520FFF78EF800205549087095E089
:102910000620FFF787F80020514908708EE0062056
:10292000FFF780F800204E49087087E00620FFF787
:1029300079F800204A49087080E04A48C078102899
:1029400018D150480078312814D10A2251494F4CEF
:10295000200000F0D9F83220434948700120434953
:102960000870FEF7A5FE0020404908700620FFF71A
:1029700059F802E01520FFF755F800203849087093
:102980005CE03848C078082811D108224149424CFF
:10299000200000F0B9F8012034490870FEF788FEE5
:1029A0000020324908700620FFF73CF802E01520AD
:1029B000FFF738F800202A4908703FE02948C0781E
:1029C000082811D108223349344C200000F09CF82B
:1029D000012026490870FEF76BFE0020234908708D
:1029E0000620FFF71FF802E01520FFF71BF8002074
:1029F0001B49087022E01B48C07801280FD11948F4
:102A0000007919494870012018490870FEF750FEF6
:102A10000020164908700620FFF704F802E0152090
:102A2000FFF700F800200E49087007E0FEF733FEBC
:102A300004E0FEF730FE01E0FEF72DFE10BD0000C1
:102A4000B01F00201CB60008B4B6000804B6000889
:102A5000341F0020B11F0020AD1F0020AE1F00203A
:102A6000AC1F002084190020201F0020A61F00207A
:102A7000F419002087190020AF1F0020441F0020F8
:102A8000F8190020A81F00202C1F0020241F002060
:102A9000881F0020881900204E1F0020561F00208C
:102AA00062F30F2262F31F42401810F0030308D0B4
:102AB000C91A1FD3DB0748BF00F8012D28BF20F833
:102AC000022D130030B414461546103928BF20E9F2
:102AD0003C00FAD8490728BF20E90C0048BF40F85D
:102AE000042D890028BF20F8022D48BF00F8012DD1
:102AF00030BC7047C91818BF00F8012DCB0728BF9C
:102B000000F8012D7047000062B38B0708D0521EF9
:102B100011F8013B00F8013B00F024808B07F6D14F
:102B2000830740F0208000BF103A07D330B4B1E8EB
:102B30003810103AA0E83810F9D230BC530724BF3F
:102B4000B1E80810A0E8081044BF51F8043B40F871
:102B5000043BD20724BF31F8022B20F8022B44BFDC
:102B60000B7803707047083A07D3B1E80810083AA9
:102B700040F8043B40F804CBF7D25307E4E70000E9
:102B80001CB4002104E0002200ABC9B2CA54491CA5
:102B9000C9B20829F7DB002113E000ABD2B29B1ABF
:102BA000DB79C9B20C5C144114F001048C4023435E
:102BB00000ACD2B2A41AE371521CD2B2082AECDBE8
:102BC000491CC9B2082901DA0022F6E700210EE00B
:102BD00000AAC9B212EB41025278C9B20A5400AA43
:102BE000C9B212F81120C9B20B181A71491CC9B226
:102BF0000429EDDB13BC7047FCB4002304E000247F
:102C000000ADDBB25C555B1CDBB2082BF7DB0023AD
:102C100014E000ADE4B22D1BED79DBB21E5C0127A0
:102C2000A7403E4026419E40354300AEE4B2361BED
:102C3000F571641CE4B2082CEBDB5B1CDBB2082BE7
:102C400001DA0024F6E700230BE000A8DBB2185CF1
:102C5000DBB2585400A8DBB2C01A8079DBB29854BA
:102C60005B1CDBB2042BF0DBC87810F0F000C870FE
:102C7000D0780001D070F3BC704730B4FF22D1F19E
:102C800008039A4003781340DBB21B09C47823433E
:102C9000C370002412E0E4B2235C8B40E4B22354FE
:102CA000E4B223185B78D2B21340D1F108052B416E
:102CB000E4B2255C2B43E4B22354641CE4B2032C3D
:102CC000E9DBC27812FA01F1C17030BC704730B450
:102CD000002231E0037813F001030478E4B26408C1
:102CE0000470447814F001044578EDB26D08457025
:102CF000457855EAC3134370837813F00103857850
:102D0000EDB26D088570857855EAC4148470C47876
:102D1000E4B26408C470C47854EAC313C370C378BF
:102D20000F24234207D0037853F080030370C37845
:102D300013F0F003C370521C1300DBB21BB209B2D4
:102D40008B42C7DB30BC70472DE9F04104000D0019
:102D500016001F000020DDF8188004E00021C0B23A
:102D600000F80810401CC0B20628F7DB24B2002C83
:102D700009D1390009B22800FFF77FFF390009B2F5
:102D80003000FFF77AFF687810F00400A978C9B224
:102D9000490811F0400151EA4010697811F0200112
:102DA0000843A97811F0010150EA01102978C9B24D
:102DB000090911F0080108432978C9B2490811F03E
:102DC000040108432978C9B2090911F00201084336
:102DD000E978C1F30011084388F80000687810F022
:102DE0000200297811F00401090151EA8010A97844
:102DF00011F0080150EA81006978C9B2890811F020
:102E000010010843A97811F0020150EA8100A97865
:102E1000C9B2C90811F0040108436978C9B2C908E8
:102E200011F0020108432978C1F30011084388F822
:102E30000100E87810F04000297811F001018901C3
:102E400051EA4000697811F0010150EA41102978F7
:102E500011F0020150EAC100E978C9B2890811F005
:102E600008010843A978C9B2890811F00401084390
:102E70006978C9B2890811F0020108432978C1F3C1
:102E80008011084388F80200707810F00800B178CB
:102E900011F00101890151EA0010317811F020018F
:102EA00008437178C9B2C90811F010010843B1781C
:102EB000C9B2890811F008010843F178C9B2C908FC
:102EC00011F0040108433178C9B2490911F0020137
:102ED00008437178C1F30011084388F80300B07803
:102EE00010F00200B178C9B2490811F0400151EA6E
:102EF0008010317811F0080150EA8100B17811F0AA
:102F000010010843717811F0010150EAC100B17855
:102F1000C9B2490811F0040108437178C9B209091E
:102F200011F002010843F178C1F30011084388F859
:102F30000400307810F00400F178C9B2490811F0AB
:102F4000400151EA4010B178C9B2490811F020019E
:102F50000843717811F0040150EA8100B17811F052
:102F6000040150EA4100317811F0010150EA81007A
:102F70003178C9B2890911F0020108433178C1F3EF
:102F80000011084388F8050024B2012C09D139004A
:102F900009B22800FFF79BFE390009B23000FFF7A5
:102FA00096FEBDE8F081C2780378DBB25B0813F0CF
:102FB0007C0353EAC2120378C3F3C1031A430A70B5
:102FC0000278037813F00103DB0053EA42124378DE
:102FD000DBB2DB0813F010031A434378DBB252EA8A
:102FE00053124A70427812F01802437813F01F030C
:102FF0005B0053EAC2028378DBB252EAD3128A70D2
:1030000042788378DBB25B0813F07C0353EAC21288
:103010008378C3F3C1031A43CA708278837813F0AC
:103020000103DB0053EA4212C378DBB2DB0813F082
:1030300010031A43C378DBB252EA53120A71C27802
:1030400012F01802C37813F01F035B0053EAC202A8
:103050000078C0B252EAD0104871704781B0417810
:10306000027812F00202520152EAC111827812F083
:10307000100251EA4201827812F0080251EA42013C
:10308000C27812F0080211434278D2B2920812F0CC
:1030900004021143C278D2B2D20812F002021143E4
:1030A0008278D2B251EAD2118DF80010017811F075
:1030B0008001427812F0020251EA4211827812F045
:1030C000020251EA0211C278D2B2920812F0100242
:1030D0001143027812F0080211438278D2B2120929
:1030E00012F004021143C27812F002021143427836
:1030F000C2F3801211438DF80110017811F04001E4
:10310000027812F00102920152EA4101827812F033
:10311000010251EA4211427812F0040251EA82019E
:10312000C27812F0010251EAC201C278D2B2D208CA
:1031300012F0040211430278D2B2120912F0020214
:1031400011434278D2B251EAD2118DF8021081783F
:1031500011F02001427812F00802D20052EA8101F7
:10316000C27812F0040251EAC201027812F004029D
:1031700051EA8201827812F0040251EA4201427857
:10318000D2B2D20812F0040211430278D2B2D208AD
:1031900012F002021143C278D2B251EAD2118DF874
:1031A0000310002105E000AAC9B28A5CC9B20A5422
:1031B000491CC9B20429F6DB01B0704710B409B24A
:1031C000012902D009B205290FD10278D2B29209A1
:1031D00012F002020378C3F380031A430378C3F3A7
:1031E000C303D2B2DBB213EB021209B2022902D03E
:1031F00009B2062912D1027812F002024378C3F311
:1032000000131A43037813F001034478E4B264090D
:1032100054EAC303D2B2DBB213EB021209B20329A0
:1032200002D009B2072914D14278D2B2920812F022
:1032300002028378C3F380131A43437813F0070321
:103240008478E4B2E40954EA4303D2B2DBB213EB6C
:10325000021209B2042902D009B208290FD18278DA
:10326000D2B2120912F00202837813F001031A435A
:103270008078C0F34303D2B2DBB213EB0212D7481B
:1032800009B2402303FB0100D2B2101810F8400C21
:1032900010BC704730B583B00D00140000A9FFF7D3
:1032A00082FE002009E000A9C0B2415CC0B2425DCC
:1032B000514000AAC0B28154401CC0B20628F2DBC3
:1032C000012100A8FFF77AFF0500022100A8FFF7FF
:1032D00075FF50EA05102070032100A8FFF76EFF6C
:1032E0000500042100A8FFF769FF50EA051060708F
:1032F00005210DF10300FFF761FF050006210DF127
:103300000300FFF75BFF50EA0510A07007210DF1E5
:103310000300FFF753FF050008210DF10300FFF73D
:103320004DFF50EA0510E0702000FFF797FE37BD13
:103330002DE9F04399B004000E00150014A8A84927
:103340001022FFF7F1FB10A8A6491022FFF7ECFBB3
:103350005FF0000813E05FFA88F818F8040008A985
:103360005FFA88F808F801005FFA88F818F8060094
:103370000DA95FFA88F808F8010018F101085FFA52
:1033800088F8B8F1080FE6DB00208DF8280000204F
:103390008DF83C0008A8FFF7F3FB08AE09AF06AABA
:1033A00007A90DA8FFF728FC5FF0000817E001A9A6
:1033B000C0B2415CC0B2825D514001AAC0B281542A
:1033C000C0B2C15DC0B2815501A9C0B2415CC0B2FA
:1033D000C155401CC0B20428E9DB18F101085FFAAE
:1033E00088F8B8F1100F77DAEDB2002D0FD00BA8E6
:1033F000009010A85FFA88F818F800301BB206AAEF
:1034000007A9EDB2280000B2FFF79EFC0EE00BA862
:10341000009014A85FFA88F818F800301BB206AACA
:1034200007A9EDB2280000B2FFF78EFC04AA0BA991
:103430003800FFF72FFF02A93800FFF7B4FD002086
:103440000AE002A9C0B2415C0BAAC0B2825C514042
:1034500002AAC0B28154401CC0B20628F1DB01218F
:1034600002A8FFF7ABFE8146022102A8FFF7A6FEE5
:1034700050EA09108DF80400032102A8FFF79EFE10
:103480008146042102A8FFF799FE50EA09108DF841
:10349000050005210DF10B00FFF790FE8146062186
:1034A0000DF10B00FFF78AFE50EA09108DF80600B7
:1034B00007210DF10B00FFF781FE814608210DF178
:1034C0000B00FFF77BFE50EA09108DF8070001A8FA
:1034D000FFF7C4FD00207DE75FF0000814E05FFA0D
:1034E00088F818F807005FFA88F818F8061008AA94
:1034F0005FFA88F818EB0202117108A95FFA88F8E0
:1035000008F8010018F101085FFA88F8B8F1040F13
:10351000E5DB5FF0000807E0002004A95FFA88F807
:1035200008F8010018F101085FFA88F8B8F1080FEF
:10353000F2DB5FF0000833E004A95FFA88F818F8BE
:10354000011008AAC0B2825CD8F107039A4012F0B9
:103550008002C0B243005B1C1A41114304AA5FFA07
:1035600088F808F8021004A95FFA88F818F8011022
:1035700008AAC0B282181279D8F107039A4012F053
:103580008002C0B243001A41114304AA5FFA88F8CE
:1035900008F80210401CC0B20428CDDB18F1010865
:1035A0005FFA88F8B8F1080F01DA0020F3E75FF05E
:1035B00000080AE004A85FFA88F818F800005FFA2B
:1035C00088F808F8040018F101085FFA88F8B8F1E3
:1035D000080FEFDB19B0BDE8F0830000CCB00008A5
:1035E00044B6000854B6000830B4002304E01C5C64
:1035F0005D5C6C401C545B1C9342F8DB30BC704734
:10360000F8B504000D0016001F003A00D2B22900E0
:103610002000FFF78DFED7F10102D2B23100200069
:10362000FFF786FE3A00D2B229002000FFF780FEA5
:10363000F1BD10B4002304E004789BB25C54401C3C
:103640005B1C9BB292B29342F6D310BC704710B58C
:1036500082B0040004208DF8000000F047FE4FF413
:103660008060B4FBF0F101FB1041002903D000F0B1
:1036700048FE00200FE0200000F04CFE8DF8000016
:103680009DF80000042803D100F03BFE012002E079
:1036900000F037FE002016BD2DE9F04104000D00BA
:1036A000160000F023FEB6B2042096FBF0F101FBF9
:1036B0001061002903D000F024FE002027E02F0035
:1036C0005FF0000802E03F1D18F104081FFA88F8B7
:1036D000B6B2B04518D23968200000F04AFE002189
:1036E00001E0641C491CC9B20429ECDA20781FFAF5
:1036F00088F8C9B211EB0802525DC0B29042F0D016
:1037000000F0FFFD002002E000F0FBFD0120BDE81D
:10371000F0810000F8B5344F384600F0A5FE0446AD
:10372000381D00F0A1FE054607F1080000F09CFEE0
:10373000064607F10C0000F097FE23782B492C4A2F
:10374000002B40D12B6802FB03132B60082702FBE0
:1037500003132B6002FB03132B6002FB03132B608C
:1037600002FB03132B6002FB03132B6002FB03130A
:103770002B6002FB03132B600346D5F800C002FB4D
:103780000C1CC5F800C043F804CB7F1ED5F800C060
:1037900002FB0C1CC5F800C043F804CBD5F800C0F0
:1037A00002FB0C1CC5F800C043F804CBD5F800C0E0
:1037B00002FB0C1CC5F800C043F804CBDDD1C36F7D
:1037C0003360012323702B6802FB031129603178D9
:1037D00001F01F0150F8212032602A6840F82120B2
:1037E000306880008008F2BD000000205FF36E3C6E
:1037F0000D661900F0B585B006000D00140000A894
:10380000102100F033FEF6B2002E0CD01020DFF8AD
:10381000241508701120DFF8201508701020DFF83B
:103820001C1508700BE00820DFF808150870092047
:10383000DFF8041508700820DFF80015087000266E
:103840000CE011210022DFF8F804112303FB06002D
:1038500010F108073800FFF723F9761C152EF0D376
:103860000020DFF8DC1448601426DFF8C804027872
:10387000DFF8CC04112101FB060010F10807290034
:103880003800FFF741F90A22DFF8B8542100280078
:10389000FFF73AF9DFF8AC14DFF8A404406800F051
:1038A00047F932005FF4801100A800F0A1F9DFF8B9
:1038B00090044068401CDFF888144860DFF88414E6
:1038C000DFF87C04406800F033F9012005B0F0BD5A
:1038D0002DE9F04389B00600894615001F00002439
:1038E00004A8102100F0C2FDDFF854044068B0F5D0
:1038F000001F09D97FF00600A6E0DFF84404406805
:103900002018DFF83C144860484600F0EEF8804686
:103910004146200000F0F5F80400DFF818040278B2
:10392000DFF81C04112101FB080010F10801380028
:10393000FFF7EAF8380000F0EBF8DFF80414112282
:1039400002FB0811DFF8F42312785118097AC0B28B
:103950008142D2D1DFF8E803C0F80490DFF8E41325
:10396000DFF8DC03406800F0E3F81098C0B20128EB
:1039700010D1F6B2002E08D0F87B90F0FF00F8735B
:10398000F87990F0FF00F87153E0F87990F0FF00BB
:10399000F8714EE0C0B2002838D1F6B2002E20D027
:1039A000787B90F0FF007873787990F0FF00787161
:1039B000002005E0C0B2C15D00AAC0B28154401C25
:1039C000C0B21028F6DB002302AA00A93800FFF7D6
:1039D00017FE002302AA00A917F10800FFF710FE46
:1039E00027E0787990F0FF007871002005E0C0B200
:1039F000C15D00AAC0B28154401CC0B20828F6DBE9
:103A0000002200A93800FFF793FC12E0C0B20228A0
:103A10000FD1F6B2002E08D0B87B90F0FF00B8733B
:103A2000B87990F0FF00B87103E0B87990F0FF002A
:103A3000B8710A22C3492800FFF766F84246210000
:103A400004A800F004F8012009B0BDE8F08370B5C7
:103A500006000D001400BA48406800F073F80A2808
:103A600024DA6D0822002900300000F0C1F811218D
:103A70000022B348112303FB040010F108052800BD
:103A8000FFF70EF8AE48112101FB0400AB4909789D
:103A90000818FF210172AA484068401CA8494860E4
:103AA000A849A748406800F043F81DE01121002212
:103AB000A348112303FB040010F108063000FEF7B1
:103AC000EFFF9F48112101FB04009C490978081869
:103AD000FF2101729A48406828189949486099491D
:103AE0009748406800F024F870BD0021012201E0F1
:103AF000491C5200152901D21042F9D0D1F114000D
:103B000070470122D1F1140112FA01F10843704704
:103B10000178401C002203E003785940521C401CED
:103B2000844B1B785B1E9A42F6D30800C0B27047E4
:103B30004872020A0A72CA7912F0E002000C1043BD
:103B4000C871704700210022012304E0184200D010
:103B5000491C521C5B00152AF8DB0800704730B482
:103B6000002300225FF480145FF4801508E0D2B2D5
:103B7000002A01D064086519204200D05B1C521C49
:103B8000DBB2C9B28B4202D2D2B2152AEFDB284097
:103B900030BC704730B585B0040002A80023002572
:103BA00028C0083800A80023002528C008380020B5
:103BB00008E00300DBB2DB0031FA03F302AD2D1A9B
:103BC000EB71401C0328F4D30820911C00AD0200C7
:103BD0002800FEF799FF002006E002A9415C00AA38
:103BE000825C11430155401C0828F6D305B030BD56
:103BF0002DE9F84F04000F001600009414F1080599
:103C000017E04C48027821004D48112303FB0800BF
:103C100010F108094846FEF777FF2000FFF778FF0C
:103C20004749112202FB0811444A127851180872C0
:103C30007F08002F44D0434A39002000FFF7AAFF35
:103C40003800FFF752FF8046022098FBF0FB0BFB89
:103C5000108B3B48112101FB080010F1080A1AF1F2
:103C600008093748112101FB060010F10801200066
:103C700000F028F832484068FFF737FF022290FB37
:103C8000F2F101FB12012E484068002802D091F0A9
:103C9000010100E00021C9B2002901D09BF0010B15
:103CA0005FFA8BFBBBF1000FABD0082200994846AE
:103CB000FEF72AFF082229005046FEF725FFACE751
:103CC000BDE8F18FF0B585B004000D0000A81E49D5
:103CD0001022FEF729FF14F1080615F10807082243
:103CE00021003000FEF710FF082239003000FFF7F6
:103CF0007BFC002229003000FFF71AFB0822390064
:103D00003000FFF771FC102200A92800FFF76CFCBF
:103D1000082239002000FFF767FC0022290020005C
:103D2000FFF706FB082239002000FFF75DFC05B015
:103D3000F0BD0000B21F0020B31F0020B41F002000
:103D4000000A00206D0B002064B6000810B50400C6
:103D500004E00121200000F089F8641C207800288C
:103D6000F7D110BD00B587B0534800F083FB0121A7
:103D7000042000F049FD01215FF4003000F054FD03
:103D80000420ADF8000003208DF8020018208DF803
:103D9000030000A9494800F0C3FD0820ADF8000069
:103DA00004208DF8030000A9444800F0B9FD262046
:103DB0008DF8040001208DF8050000208DF8060024
:103DC00001208DF8070001A800F049FE5FF4E13002
:103DD00002900020ADF80C000020ADF80E0000208D
:103DE000ADF810000C20ADF812000020ADF8140062
:103DF00002A9314800F085FB012240F225512E48EE
:103E000000F0F6FB01212C4800F0E4FB00202C49D7
:103E100008802C490880002007B000BD30B401297B
:103E200001DB002802D15FF0FF301DE00022244BAF
:103E30001B88244C24889BB2A34214D0204B1B889F
:103E40005C1C1F4D2C80204C9BB21B5D03701C4BD7
:103E50001B88B3F5007F02DB0023194C2380401C34
:103E6000521C8A42E3DB100030BC7047F8B50400F6
:103E70000D00002C01D0012D02DA5FF0FF3019E0B7
:103E8000002706E0395D89B20B4800F0DAFB7F1CA1
:103E90006D1E002D0DD000268021074800F0D5FBB7
:103EA0000028EFD13000461CB0F5801FF4D3380055
:103EB00000E03800F2BD000000440040000801406E
:103EC000941F0020961F00206401002000F10103D0
:103ED000810704D010F8011B89B18107FAD102686B
:103EE000B2F10131914311F0803F04BF50F8042F2B
:103EF000F6E710F8011B11B110F8011BFBE7C01A1F
:103F00007047000030B428E0DFF804330C78A410C8
:103F1000E35C0370401CDFF8F8320C78240114F0E5
:103F200030044D7854EA2514E35C0370401CDFF83C
:103F3000E0324C78A40014F03C048D7854EAA514C7
:103F4000E35C0370401CDFF8C8328C7814F03F0447
:103F5000E35C0370401CC91CD21E032AD4DA012A78
:103F600024DBAB4B0C78A410E35C0370401C0B7893
:103F70001B0113F03003022A03DB4C78E4B253EA4E
:103F80001413A34CDBB21B5D0370401C0300581CD0
:103F9000022A01DA3D2105E09D4A4978890011F0A5
:103FA0003C01895C19703D210170401C00210170A9
:103FB00030BC7047F0B500230C782B2C03D14C7823
:103FC000202C00D1891C0C780D2C01D10020BAE0E6
:103FD0000F78FFB2802F03D28E4CFFB23C5D00E021
:103FE000FF24FF2C02D15FF0FF30ACE04C78E4B24C
:103FF000802C03D2874DE4B2655D00E0FF25FF2DE4
:1040000002D15FF0FF309EE08D78EDB23D2D0CD0F7
:10401000EDB2802D03D27F4EEDB2AE5D00E0FF2603
:10402000FF2E02D15FF0FF308DE0CE78F6B23D2E4C
:1040300010D0F6B2802E05D2DFF8D8C1F6B216F84D
:104040000CC001E04FF0FF0CBCF1FF0F02D15FF09C
:10405000FF3078E0091D5B1C002A04D09A4202DA86
:104060005FF0FF306FE084461CF10100FFB2802F4B
:1040700005D2DFF8A0E1FFB217F80E7000E0FF27CD
:10408000E4B2802C05D2DFF88CE1E4B214F80EE043
:1040900001E04FF0FF0E5FEA2E1E5EEA87078CF804
:1040A0000070EDB23D2D43D05B1C002A04D09A4233
:1040B00002DA5FF0FF3046E00700781CE4B2802CA3
:1040C00005D2DFF850C1E4B214F80C4000E0FF2440
:1040D000EDB2802D05D2DFF83CC1EDB215F80CC071
:1040E00001E04FF0FF0C5FEAAC0C5CEA04143C709A
:1040F000F6B23D2E1CD05B1C002A04D09A4202DA94
:104100005FF0FF301FE00400601CEDB2802D03D291
:10411000404FEDB2ED5D00E0FF25F6B2802E03D2F8
:104120003C4FF6B2F75D00E0FF2757EA8515257092
:104130000C78002C06D00C780D2C03D0F6B23D2E56
:104140007FF446AF1800F0BD2DE9F04106000D00E8
:1041500090461F004046FCF762FE040042463100D4
:104160002000FEF7D1FC4046FCF759FE0600002275
:1041700041463000FEF794FC012F03D0032F01D0FD
:10418000022F1CD1082098FBF0F0012807D1002352
:1041900014F1080221003000FFF732FA2BE000236F
:1041A00014F1080221003000FFF72AFA002314F16D
:1041B0000802210016F10800FFF722FA1BE0002F89
:1041C00019D1082098FBF0F0012805D10022210028
:1041D0003000FFF7ADF80EE0002314F108022100D3
:1041E0003000FFF70DFA002314F10802210016F148
:1041F0000800FFF705FA032231002800FEF784FCCF
:104200002000FCF767FF3000FCF764FFBDE8F08199
:104210000C0100208C00002080B20A490860704721
:10422000C0B209490860704780B208490860704709
:104230004AF6AA200349086070474CF6CC40014971
:1042400008607047003000400430004008300040F3
:104250000300002013F0030F09D0521E22BF13F8F1
:10426000010B11F801CBB0EB0C00F3D07047121F1B
:1042700022BF53F8040B51F804CB6045F7D0121D50
:104280000AD200BA9CFA8CFCB0EB0C0038BF6FF07D
:10429000000088BF01207047521E22BF13F8010B97
:1042A00011F801CBB0EB0C00F6D0521C08BF104641
:1042B000704700000021DFF868211268110011F03A
:1042C00038010143DFF8580101607047DFF85011F1
:1042D000096831F01001DFF848211160DFF8401162
:1042E00009680843DFF8381108607047DFF83401C7
:1042F000DFF834110860DFF83401DFF82C110860B2
:104300007047DFF82C01006850F08000DFF82011C2
:104310000860704738B5040004255FF4302000F0D1
:104320008DF80500EDB2042D20D1DFF804010068FE
:1043300050F00200DFF8F8100860DFF8F8000460C1
:10434000DFF8EC00006850F04000DFF8E41008608F
:104350005FF4302000F072F80500DFF8D400006848
:1043600041F6FD710840DFF8C81008602800C0B2AF
:1043700032BD70B582B005000C000426002000900C
:104380004FF4005000F05AF80600F6B2042E2DD17A
:10439000DFF89C00006850F00100DFF8941008601E
:1043A0002C804FF4005000F049F80600F6B2042EBD
:1043B00013D1A81C0090200C009908804FF40050E5
:1043C00000F03CF80600DFF86800006841F6FE7176
:1043D0000840DFF85C10086008E0DFF8540000686F
:1043E00041F6FE710840DFF8481008603000C0B2A6
:1043F00076BD042010490968C90701D501200CE0E9
:104400000D480068400701D5022006E00A48006810
:10441000C00601D5032000E00420C0B270470000B0
:10442000002002402301674504200240AB89EFCD04
:1044300010200240142002400C20024038B5040035
:104440000425FFF7D6FF050003E0FFF7D2FF0500C4
:10445000641EEDB2012D01D1002CF6D1002C00D14B
:1044600005252800C0B232BD70470000002200F0D0
:104470003FBB000080B5524988420AD101214FF468
:10448000804000F0E1F900214FF4804000F0DCF9B9
:1044900036E04C4988420AD101215FF4003000F037
:1044A000E3F900215FF4003000F0DEF928E046492E
:1044B00088420AD101215FF4802000F0D5F9002163
:1044C0005FF4802000F0D0F91AE0404988420AD118
:1044D00001215FF4002000F0C7F900215FF4002003
:1044E00000F0C2F90CE03A49884209D101215FF499
:1044F000801000F0B9F900215FF4801000F0B4F9E9
:1045000001BDF0B585B004000D000020002100229F
:1045100000230026AF89002F2600208A4CF6FF7169
:104520000840E98808432082A0894EF6F31108402C
:10453000A9882A8911436A8911430843A081A08A66
:104540004FF6FF410840A9890843A08200A800F067
:10455000FBF81B48864201D1039900E00299A0892B
:10456000000407D5192000FB01F029684900B0FBC1
:10457000F1F206E0192000FB01F029688900B0FB88
:10458000F1F26420B2FBF0F000010109642303FBA7
:104590001123A189090408D5D90032316422B1FB65
:1045A000F2F111F00701084307E0190132316422EA
:1045B000B1FBF2F111F00F010843208105B0F0BD0D
:1045C000003801400044004000480040004C0040DA
:1045D00000500040C9B2002904D0818951F4005133
:1045E000818104E081894DF6FF721140818170471D
:1045F000F0B4002300240025002689B240F66A1793
:10460000B94206000800C0B24309DBB289B211F01A
:104610001F04012010FA04F5012B01D10C3604E02F
:10462000022B01D1103600E01436D2B2002A03D09A
:1046300030682843306002E03068A8433060F0BC46
:104640007047C905C90D81807047002289B2B1F554
:10465000007F0088084201D0012200E00022100003
:10466000C0B27047DFF87402006850F00100DFF854
:104670006C120860DFF868020068DFF86812084012
:10468000DFF85C120860DFF854020068DFF85812A7
:104690000840DFF848120860DFF84002006830F494
:1046A0008020DFF838120860DFF83402006830F448
:1046B000FE00DFF82C1208605FF41F00DFF82C12F8
:1046C00008607047C0B2DFF8281208607047002207
:1046D000834B1B681A0032F47C1208430243804863
:1046E00002607047C0B283490860704700217C4A6D
:1046F00012681100890889000143794801607047F8
:104700007748006810F00C0070470021744A126866
:10471000110031F0F0010143714801607047002140
:104720006F4A1268110031F4E06101436C48016086
:10473000704700216A4A1268110031F4605151EA51
:10474000C00167480160704730B400220021002397
:104750000024634D2D6815F00C052A00002A04D0B2
:10476000042A05D0082A06D021E06449016020E02F
:10477000624901601DE05A49096811F47011584AF4
:10478000126812F48033890C891C002B03D15C4A17
:10479000514301600AE0524A1268920303D5584A15
:1047A0005143016002E0554A5143016001E0534921
:1047B00001604B49096811F0F00212095149545C3B
:1047C0000168E14041604649096811F4E062120A5B
:1047D0004C49545C4168E14081604149096811F4E9
:1047E0006052D20A4749545C4168E140C1603C498B
:1047F000096811F44042920B4349545CC168B1FB13
:10480000F4F1016130BC7047C9B2002905D03F49BD
:10481000096808433D49086005E03C49096831EAF8
:1048200000003A4908607047C9B2002905D03849EC
:10483000096808433649086005E03549096831EAE6
:104840000000334908607047C9B2002905D03149DA
:10485000096808432F49086005E02E49096831EAD4
:1048600000002C4908607047C9B2002905D02A49C8
:10487000096808432849086005E02749096831EAC2
:10488000000025490860704710B400220023002171
:10489000C0B24409E4B22200012A02D10F490B68D8
:1048A00006E0022A02D114490B6801E01B490B689B
:1048B000C0B210F01F0233FA02F0C00701D5012187
:1048C00000E000210800C0B210BC70471348006827
:1048D00050F08070114908607047000000100240DD
:1048E000041002400000FFF8FFFFF6FE081002402F
:1048F00000004242600042422010024000127A0052
:1049000000093D0050010020600100201810024005
:104910001C1002400C1002401010024024100240F3
:10492000F0B400220026002400250023002791F87F
:1049300003C01CF00F0C624691F803C05FEACC6C18
:1049400001D58B781A430B781B0621D0036800240D
:1049500006E0CD78482D02D10125A5400561641CF3
:10496000082C14D20125A5400E882E40AE42F6D167
:10497000A5000F2616FA05F7BB4312FA05F52B43DF
:10498000CD78282DE5D10125A5404561E7E70360F5
:104990000B88FF2B26DD4368002420E0012514F15D
:1049A0000806B5400E882E40AE4217D1A5000F264E
:1049B00016FA05F7BB4312FA05F52B43CD78282DDF
:1049C00004D1012514F10806B5404561CD78482D84
:1049D00004D1012514F10806B5400561641C082CBA
:1049E000DCD34360F0BC70470022806889B2084283
:1049F00001D0012200E000221000C0B2704710B4C4
:104A000000220F2311F00304E4B2A400A3401A0013
:104A10000F4BC9B28C1053F8243033EA02020C4B0E
:104A2000C9B28C1043F82420094AC9B28B1052F83D
:104A30002320C0B211F00303DBB29B009840104367
:104A4000034AC9B2891042F8210010BC7047000027
:104A5000080001401D4908431D490860704710B413
:104A6000002100220F23C478002C1DD018490968AA
:104A700011F4E061D1F5E061090AD1F10402CB4003
:104A80004178914082781A4011430901114A037814
:104A900099540121027812F01F0291400E4A0078C9
:104AA000401142F8201009E00121027812F01F02A3
:104AB00091400A4A0078401142F8201010BC70471B
:104AC000074A114008430749086070470000FA058B
:104AD0000CED00E000E400E000E100E080E100E037
:104AE00080FFFF1F08ED00E062F30F2262F31F4218
:104AF00000B500BF130096469446103928BFA0E8C1
:104B00000C50FAD85FEA417C28BF0CC048BF40F87F
:104B1000042BC90728BF20F8022B48BF00F8012B3F
:104B200000BD00000278012303FA01F11143017076
:104B300070470278012303FA01F122EA01010170B2
:104B400070470278012303FA01F151400170704768
:104B500030B50023002405E0255CD540ED0748BFB3
:104B60005B1C641CA4B28C42F6D3D80701D401208C
:104B700030BD002030BD00F00F020FF21001525C7A
:104B80000009405C801800F001007047000101023C
:104B900001020203010202030203030400210822AE
:104BA000C30748BF491C4008521EF9D1C9B20129A8
:104BB00001D1012070470020704710B500220B463C
:104BC000082909DB01215C1A30F81440A218491C9D
:104BD0000929F8D3D00809E0002103E030F811409A
:104BE000A218491C9942F9D3B2FBF3F080B210BD70
:104BF0002DE9F04F8BB0044600208DF80200ADF88F
:104C00000000834682468046002506A81021FFF753
:104C10002DFC20094746C146DFF8F44C01280ED18F
:104C2000B4F898080390029404F5A050FC30059065
:104C300040F22231FFF71AFCCDF804801BE0022875
:104C400008D141F2F840005B039004F58850103021
:104C50000290E9E7032806D141F20C10005B0390B3
:104C600004F69C00F4E703205DE14FF0010AD3460F
:104C7000BDF81000019001980399884280F24881A4
:104C80000298019930F81160481CADF810009DF8A9
:104C9000020000283BD1002EEAD047F23150864274
:104CA000E6DA464534BFA8EB0600A6EB080080B262
:104CB00064214843B0FBF6F0B0461F2803D3002020
:104CC000ADF80000D4E7BDF80000401CADF80000CE
:104CD000BDF800000828CBDB01208DF8020041F66A
:104CE0001C0100204FF0000A0853D346D14606AA03
:104CF000029931F8101000F0070322F81310401C3D
:104D00000199491C8842F3D3BDF81070B0E7B14453
:104D1000082106A8FFF751FF8046642000FB09F038
:104D200090FBF8F16420704390FBF8F2A2F11403B9
:104D300089B20D2B38BF4FF0010AA1F12103252BB9
:104D400006D2142A38BF4FF0010A0BF1010B8FE78E
:104D500004F5A05000F1F806A1F146003C287BD2F2
:104D60000298019B00EB43005A394088142913D361
:104D7000591C039B99420FDA70B16421414391FBA6
:104D8000F8F1212908DA48446421484390FBF8F0FF
:104D90006E28B8BF6D1CDADBEDB2002D04BF5FFAE0
:104DA0008BFBBBF1010F03D1142AB8BF4FF0000BEE
:104DB000B8B2471C00F00701C14513DAA8EB09029D
:104DC000104664234343B3FBF8F3232B12D3C0EB09
:104DD000C000C50806AB05EB090023F81100A2EBE3
:104DE000050914E0A9EB080064224243B2FBF8F283
:104DF000232A05D206A820F811904FF0000906E0FA
:104E0000C50806AAA9EB050022F81100A94641F63B
:104E10001C00BAF1000F005B04D0B0F5487F07DA40
:104E200002210CE05FFA8BF1002904D0B0F5487F35
:104E300078DA012103E0B0F5487F73DA0021321DF2
:104E40000025815441F61C0041F61C01005B401C0A
:104E50000853AB46AA460BE78229FCDB002509E094
:104E6000321D0221815441F61C0041F61C01005BF9
:104E7000401C0853C14515DB6D1C0B2D12D206A832
:104E8000BAB202F0070120F81180571CA9EB0809FB
:104E90000821FFF792FE804641F61C00005BB0F54A
:104EA000487FDDDB642000FB09F04FF0000A00259D
:104EB00090FBF8F0D346BFB228280FD2781E81109D
:104EC00000EB5171C91006AAA0EBC10132F8112004
:104ED00006AB4A4423F81120A946C9E64628FFF448
:104EE000C4AE06A807F0070120F8119041F61C0097
:104EF0007F1C005BB0F5487F14DA321D022181541B
:104F000041F61C0041F61C01005B401C0853E3E71E
:104F10009DF8020030B9059840F22231FFF7A6FA59
:104F2000002000E001200BB0BDE8F08F2DE9F14F2B
:104F30008CB04FF0000B152818BF162803D0172887
:104F400018BF18280CD1DFF8D80A05906F210598F2
:104F500000F084FDDFF8CC0A008870B900F013BCC3
:104F6000252808BFDFF8C00AEFD035281CBF362837
:104F70003728F3D1DFF8B40AE7E7DFF8B4AAADF8D1
:104F80001CB0CDF810B0ADF80EB08DF80DB0CDF866
:104F900018B04FF000099DF830408DF806900026BB
:104FA000C846ADF804900DE0DFF8881A401C087080
:104FB0009AF80000401C8AF80000BDF80400401C6C
:104FC000ADF80400DFF8700ABDF804100290DFF8B5
:104FD0006C0A0890DFF84C0A0088814280F0128148
:104FE000069911B9BDF8045004E0BDF80410401A48
:104FF000401E85B2DFF8480A295C0F46022F08BF21
:105000000027B9F1000F40F0B18004F00F0107292B
:1050100036D1062ED1D8DFE806F005090F13171B8D
:105020001F00CAE7012FC8D10126C6E7002F08BF1D
:105030000226C2D00026C0E7012FFBD10326BCE721
:10504000002FF7D10426B8E7002FF3D10526B4E7E7
:10505000002FEFD10626B0E7012FEBD108984FF0D3
:10506000010900F09EFB029800F09CFBDFF8C419D8
:105070008AF8009045208AF8020081F80090D9E76C
:1050800005291DD1002ECDD0022E06D003D3042E2B
:1050900009D005D391E7012FC9E7002FCAD1CDE789
:1050A000012FC7D1CEE7002FC4D100F077FB0298C3
:1050B00000F078FBDFF87C198AF800900B20DAE723
:1050C00006292DD1052E06D8DFE806F00304061BBD
:1050D0001D20A7E7AAE770E76F210898FFF7C6F938
:1050E000029800F05FFB012F05D1162CA2D10520FC
:1050F0008AF80200A2E7002F08BF362C9AD10120BF
:10510000F6E7002FCDE7002F94D19FE7002F91D134
:105110004FF00109DFF81C198AF80090C346ACE78C
:1051200008290AD1072E08D8DFE806F0040508068A
:105130000A0C0F1376E7AEE7B2E73EE7012FADE7C3
:10514000012FE1E7012FE2D184E7012FDFD107260C
:1051500033E7012FDBD100F021FB029800F022FBA6
:10516000DFF8D0188AF80090FF2084E7DFF8C42821
:1051700002981278101819B95946FFF7DAFC0BE0BB
:105180000129594606D0FFF7D4FC08989AF8002068
:1051900059461018FFF7C6FC0BF1010004F00F018F
:1051A0005FFA80FB072904D19BFBF1F1C1EBC10140
:1051B00005E0052906D19BFBF1F101EB8101ABEB89
:1051C000010B0DE0062905D19BFBF1F1062202FB44
:1051D00011BB05E004F00F00082808BF0BF0070B17
:1051E0005FFA8BFBBBF1000FB2D1DFF84808007803
:1051F0006D28FFF6D9AE9DF8300000F00F008DF855
:10520000300008E0B9F1000F9DF8300000F00F0009
:105210008DF8300056D0DFF81C089DF83040037838
:105220000094062000FB03F1069C03EB8300C3EB14
:10523000C3028CB9009B072B08BFADF81C201DD002
:10524000052B06D0062B08BFADF81C1016D0082B76
:1052500014D1ADF81C0011E0009C072C08BFADF87C
:1052600012200BD0052C07D0062C08BFADF8121069
:1052700004D0082C02D1D800ADF81200CDF8288057
:10528000002401254BE00098072836D17F270AF13A
:105290000200285C38401F283FD1DFF89817A81C6F
:1052A00008708AF80000641C0098062840F0888086
:1052B00006270024E2B2DFF87C0701780298FFF7A6
:1052C00047FC002800F03C82641CA4B2062CF1DBF1
:1052D0000698002840F012820025DFF85807007871
:1052E000854280F223820AF102000599285C691840
:1052F00020304870681C85B2EFE7062808BF3F27BA
:10530000C5D0052808BF1F27C1D00828BFD10AF182
:105310000200FF27285CFF28BFD0681C85B2DFF899
:1053200004070990DFF80C0700788542ABDB2CB14D
:10533000641CA4B2022C80F20382A2E70098062823
:10534000F6D000250FE0052908BF1F272AD008291D
:1053500028D1FF27FF2829D00AF1020189EA00009D
:105360006854681C85B2DFF8CC0600788542DFDA25
:105370000AF102002E5C3046FFF7FDFB0028F0D159
:105380000998001D15F800904846FFF707FC002813
:10539000E7D00AF1020189EA06006854009907295A
:1053A000D1D17F2707EA00011F29D5D10999091D0D
:1053B0000020685408F1010801208DF80600B7E7C5
:1053C0004FF001090026002506E0BDF80E00401C44
:1053D000ADF80E00681C85B2DFF8580600788542EB
:1053E0003EDA0AF10200285C8DF80C00FFF7C3FBDF
:1053F000002806982CD138B9BDF8100008280ADA20
:105400000020ADF8100006E0BDF80E000828BCBF73
:105410000020ADF80E000998001D4FF00009285C2F
:105420008DF80700FFF7BAFB0028D3D09DF80C00D9
:105430009DF8071048400AF102010126685408F15E
:1054400001080999091D05F801908DF80660C1E76A
:105450000028BAD1BDF81000401CADF81000B9E723
:105460000098072808BF062706D0052808BF04278C
:1054700002D0082808BF0727002523E0DFF890C4E2
:1054800084440CF5C1510978E940C90744BF04467A
:10549000521C401C80B29842F0D392B2012A0FD124
:1054A0000298A4B208F10108E9B22018FFF749FBFD
:1054B0000898E9B22018FFF73CFB01268DF806603A
:1054C000681C85B2BD420FDADFF8680501780298E2
:1054D000EAB2FFF73DFB0028F2D19AF80030002233
:1054E0004FF000091046D5E7002E7FF469AFB9F1FF
:1054F000000F78D100264FF00109ADF80460ADF837
:105500001E60002513E0641CA4B2BC420DDA00F05A
:105510003EF90028F7D1029808F10108E1B22818F5
:10552000FFF70FFB01268DF80660681C85B2DFF8D7
:105530000405007885421EDA0AF10200285CFFF7B4
:105540001AFB0028F1D1BDF80400ADF81E50401C34
:10555000ADF804004FF000090098072808BF06279F
:1055600007D00098052808BF042702D0082808BFE4
:1055700007270024C8E7BDF80400012808BF002E53
:1055800017D10098072808BF062706D0052808BFAE
:10559000042702D0082808BF07270298BDF81E205C
:1055A00008F10108F9B21018FFF7CBFA01268DF8BF
:1055B00006600098072808BF062706D0052808BF00
:1055C000042702D0082808BF0727002400E0641C35
:1055D000A4B2BC4205DA00F0DAF80028F7D14FF0A7
:1055E0000009002E86D1B9F1000F00F0A9800098C3
:1055F00005280CBF032001205FFA88F18842A2BF72
:10560000DFF8300400780328C0F29A80012516E004
:105610000AF102000AF10201285C00F00F00685450
:105620009DF8061049B10A2807DB0E2818BF0D287F
:1056300003D00C281CBF01200A90681C85B2DFF83B
:10564000F4030078811E8D4202DA00990529DFD02B
:105650000A99002974D1069929BB002509E0082977
:1056600005D10AF10201695C01F07F014170681CFB
:1056700085B2DFF8C0030078854257DA05980099B3
:105680002818072906D10AF10201695C01F03F01DF
:105690002031EBE70529E2D10AF10201695C01F052
:1056A0000F013031E2E7059991F86E10814244D242
:1056B000002509E0082905D10AF10201695C01F021
:1056C0007F014170681C85B2DFF86803007885426D
:1056D0002CDA059800992818072906D10AF1020149
:1056E000695C01F03F012031EBE70529E2D10AF1C5
:1056F0000201695C01F00F013031E2E70598DFF843
:10570000341390F86E000978884216D2002508E01C
:105710000AF102000599285C691820304870681C5D
:1057200085B2DFF8100300788542F1DBDFF804036F
:1057300005990078401C81F86E0001208DF80D005D
:105740000698401CC0B206900228FFF622AC9DF8D5
:105750000D0030B1059890F86E00042813DB00208E
:1057600012E0BDF810000828A4BFBDF81C00642892
:1057700007DABDF80E000828A4BFBDF8120064289F
:1057800001DB012000E002200DB0BDE8F08FDFF862
:10579000A40201780298E2B2FFF7DAB94FF00109EA
:1057A0000898C3466F21FEF761BE70B5DFF89442DA
:1057B0000025002240F69A012046FFF795F904F5EE
:1057C00088502A4640F2EA311030FFF78DF92A4618
:1057D00040F6720104F69C00FFF786F904F5A0502C
:1057E0002A4640F22231FC30FFF77EF96F262A4626
:1057F000314604F5C850FFF777F904F5C8502A463A
:1058000031467030FFF770F92A46314604F5CF5023
:10581000BDE87040FFF768B92DE9F0410446002566
:105820000026884F2EE0012E2CD12009012803D11B
:10583000B7F8980839460FE0022806D141F2F8403F
:1058400007F58851C05B103106E003281AD141F2F8
:105850000C1007F69C01C05B00EBD072D203002352
:105860000DE0A0EB030E01EB4E0E31F813C03EF835
:10587000028C21F813805B1C2EF802CC9BB2B3EB98
:10588000124FEEDB2046FFF7B3F930B12046FFF7A9
:105890004DFB50B1012808BF0125761CF6B2022E3F
:1058A000C1DB002D14BF01200220BDE8F08180B5CE
:1058B000FFF77BFF64490020087001BD10B5614A05
:1058C00018B1022814D00AD310BDB2F8980822F8F3
:1058D0001010B2F89808401CA2F8980810BD41F2C8
:1058E000F84041F21014835A02EB4303E15206E000
:1058F00041F20C10835A02EB4303A3F89C18815A1F
:10590000491C815210BD50490020087070470000AA
:10591000640100204C490120087070472DE9F846C9
:1059200007465FEA010A914608BF6FF0020074D093
:105930004946504600F092F841F66E1541F6DE14E5
:10594000404E1FB1022F3DD027D364E0B6F898082F
:1059500015285EDB1720FFF75FFF070009D018202E
:10596000FFF75AFF070004D01620FFF755FF070086
:1059700052D106F5C8512B200870A85D821EAA5589
:10598000D2B2B2EB090058BF4A46491C5046FDF757
:10599000BBF8A85D801CA8553EE041F2F840805B52
:1059A000152836DB2520FFF737FF070034D1A9196A
:1059B0002C20887000F04AF858BF4A4606F5C851B6
:1059C00071311FE041F20C10805B152821DB35207E
:1059D000FFF722FF070009D03720FFF71DFF070060
:1059E00004D03620FFF718FF070015D1A1192D208C
:1059F000887041F64E2400F029F858BF4A4606F553
:105A0000C851E1315046FDF77FF8A05D801CA055DC
:105A100002E0022700E003277842BDE8F28600009A
:105A2000641A002080190020D41A0020441B002092
:105A3000F2190020621A0020F419002084190020B5
:105A40006016002064010020B91F0020A05D821EA6
:105A5000A255D2B2B2EB0900704700000022FDF758
:105A600023B800000A005FEA302131F0FF115FEA3D
:105A7000306010F0FF1001435FEA322030F0FF1079
:105A80005FEA326212F0FF121043704700220023D7
:105A9000C0E90023DFF8AC1D8160DFF8AC1DC160F8
:105AA000DFF8A81D0161DFF8A81D4161DFF8A41D22
:105AB00081610021C161704730B5A1B0040080212F
:105AC000002200AD2800FCF7EBFF803C012C02DB3C
:105AD0002000FFF7F1FF21B030BDF0B4D0B000AA34
