:020000040800F2
:10340000D829002001350008877B00088970000852
:10341000857B0008A35A0008739C00080000000088
:10342000000000000000000000000000358E0008D1
:103430009965000800000000777E000835960008B6
:103440001B3500081B3500081B3500081B3500081C
:103450001B3500081B350008ED6700085968000897
:10346000C96800081B3500081B3500081B3500081B
:103470001B3500081B3500081B3500081B350008EC
:103480001B3500081B3500081B3500081B350008DC
:10349000059C00081B3500081B3500080969000859
:1034A0001B3500081B3500081B3500081B350008BC
:1034B0001B350008559700081B3500081B35000810
:1034C0001B3500081B3500081B3500081B3500089C
:1034D0001B350008699800081B3500081B350008DB
:1034E0001B350008AD8100081B350008DFF80CD043
:1034F00001F004FD0048004799AD0008D8290020DC
:103500000648804706480047FEE7FEE7FEE7FEE77D
:10351000FEE7FEE7FEE7FEE7FEE7FEE74996000866
:10352000ED340008027801238B401A430270704783
:10353000027801238B409A4302707047027801237E
:103540008B405A400270704770B503460C461546D2
:103550000021002208E0985C284110F0010F01D002
:10356000481C81B2501C82B2A242F4DB084601EB37
:10357000D0767610B1EB460601D1012070BD002057
:10358000FCE770B504460D460026002109E0685CA2
:10359000184110F0010F02D02180701C86B2481C27
:1035A00081B29142F3DB012E01D1012070BD0020D8
:1035B000FCE7014601F00F00FA4A105C02EB111221
:1035C0001278104400F001007047014600230022E9
:1035D00007E011F0010F01D0581CC3B24910501C74
:1035E000C2B2082AF5DB012B01D10120704700206F
:1035F000FCE702468A4202DD501A80B27047881A00
:1036000080B2FBE710B504460A460023082A0ADB0D
:10361000012104E0501A34F810000344491C082921
:10362000F8D9DB0809E0002103E034F81100034475
:10363000491C9142F9D3B3FBF2F398B210BDF0B537
:10364000034600251B11012B04D1D74EB6F898086C
:1036500031460EE0022B04D1D44EB6F8E8033146D1
:1036600007E0032B04D1D24EB6F87008314600E0D3
:10367000F0BD064600EBD677C7F34F0500220DE0FC
:1036800031F81240861A761E31F8166021F8126061
:10369000861A761E21F81640561CB2B2AA42EFDBFB
:1036A00000BFE5E72DE9F14F8EB000200D900B90A3
:1036B0000A90099008908046824600260490059062
:1036C00006900790002400270E9800110E900E9887
:1036D000012806D1B448B0F898080390DFF8C892E2
:1036E00017E00E98022806D1B048B0F8E80303901E
:1036F000DFF8B8920DE00E98032806D1AC48B0F878
:1037000070080390DFF8A89203E003200FB0BDE833
:10371000F08F40F22231A74801F025F94FF0000860
:10372000D2E10D9800283DD139F8180028B139F8B8
:10373000180047F23051884200DDC1E139F8181015
:103740003046FFF756FF05466420684339F81810E5
:10375000B0FBF1F539F818601E2D02D90020089051
:10376000ADE10898401C80B2089008980828F7DB63
:1037700001200D90002009900A9000278D49A1F8A2
:1037800020030024002507E039F8150005F00701A3
:1037900004AA22F811006D1C08F101008542F3D340
:1037A00084B28CE139F8180002900298074408218D
:1037B00004A8FFF727FF0646642007FB00F191FBF2
:1037C000F6F01FFA80FA64210298414391FBF6F566
:1037D000142D03D3212D01D201200990BAF1210F1C
:1037E0000BDBBAF1460F08DA142D01D20120099043
:1037F0000A98401CC0B20A9061E1BAF1460F7DDB25
:10380000BAF1820F7ADA00200C9008F1010039F841
:1038100010000190BAF15A0F02DBBAF16E0F1ADBF9
:1038200008F101000399884215DA019898B16421E2
:103830000198484390FBF6F021280CDA01983844AF
:10384000484390FBF6F06E2805DA01200C900B98A7
:10385000401CC0B20B900C980028A2D10B9858B90C
:103860000A98012808D164210298484390FBF6F099
:10387000142801DA00200A90BE422ADDF51B6420DC
:103880006843B0FBF6F023280DD22046E21704EB84
:103890005272D210A4EBC20204AB23F81270601C67
:1038A00084B200273CE0C5EBC5004FEAD00B07EB24
:1038B0000B012046E21704EB5272D210A4EBC202B5
:1038C00004AB23F81210601C84B207EB0B00371A0C
:1038D00026E0BD1B64206843B0FBF6F023280ED21F
:1038E0002046E21704EB5272D210A4EBC20204ABE2
:1038F00023F81270601C84B2002711E062E04FEAE6
:10390000D50BA7EB0B012046E21704EB5272D21045
:10391000A4EBC20204AB23F81210601C84B25F4611
:103920000998012813D12348B0F82003B0F5487F47
:103930000CDA02211F48B0F82023B0F82003401C05
:103940001C4BA3F820031846815436E0C0E00A98C7
:10395000002813DD1748B0F82003B0F5487F0CDAD3
:1039600001211448B0F82023B0F82003401C114B6B
:10397000A3F82003184681541FE0A9E00D48B0F8D1
:103980002003B0F5487F17DA00210A48B0F8202359
:10399000B0F82003401C074BA3F8200318468154BD
:1039A0000BE00000B7DE0008700B00200A140020B6
:1039B000F4170020662000208AE000200B900A9077
:1039C00009907CE0BAF1820F79DB4FF0000B2BE01D
:1039D0000BF1010BBBF10A0F00D927E02046E117DC
:1039E00004EB5171C910A4EBC10104AA22F81160C3
:1039F000601C84B2BF1B082104A8FFF703FE064623
:103A0000FE48B0F82003B0F5487F0CDA0221FB48ED
:103A1000B0F82023B0F82003401CF84BA3F8200393
:103A20001846815400E001E0B742D1DA00BF00201F
:103A300009900A900B906420784390FBF6F5282DAE
:103A400016D2601EC11700EB5171C910A0EBC10165
:103A500004AA32F8111039448AB2C11700EB51712F
:103A6000C910A0EBC10104AB23F81120002726E008
:103A7000462D21D32046E21704EB5272D210A4EB5C
:103A8000C20204AB23F81270601C84B2DB48B0F8A9
:103A90002003B0F5487F0CDA0221D848B0F8202383
:103AA000B0F82003401CD54BA3F8200318468154DE
:103AB00000E00DE0002702E0012009900A9000BF1D
:103AC00008F101001FFA80F803988045FFF629AE3F
:103AD00000BF0D9830B940F22231C84800F043FFD2
:103AE000002013E6012011E62DE9F04F8DB00546C8
:103AF0004FF00008152D05D0162D03D0172D01D03D
:103B0000182D01D1BE4F0FE0252D01D1BD4F0BE087
:103B1000352D03D0362D01D0372D01D1BA4F03E01A
:103B200002200DB0BDE8F08F6F21384600F01BFF7A
:103B3000B248B0F8200308B90220F2E700200A904A
:103B400009900890079002908146F5E300200590C7
:103B50008246019000908346DBE1B9F1000F01D16C
:103B60005C4606E0A548B0F820130BF10100081AE6
:103B700084B2A248065D022E00D1002605980028D6
:103B800073D105F00F0007284BD1BAF1070F47D2C8
:103B9000DFE80AF004080F171E252C00012E00D1C3
:103BA000B2463DE016B94FF0020A01E04FF0000ABC
:103BB00036E0012E02D14FF0030A01E04FF0000A77
:103BC0002EE016B94FF0040A01E04FF0000A27E09A
:103BD00016B94FF0050A01E04FF0000A20E016B9CF
:103BE0004FF0060A01E04FF0000A19E0012E14D14F
:103BF000012005904FF000086F21844800F0B3FECB
:103C00006F21834800F0AFFE4520814908700120F4
:103C100081F86E007D4981F86E004FF0000A00BF08
:103C200073E105F00F0005283DD1BAF1050F39D237
:103C3000DFE80AF003070F161F00012E00D1B2467D
:103C400030E0012E02D14FF0020A01E04FF0000AED
:103C500028E016B94FF0030A01E04FF0000A21E016
:103C6000012E03D14FF0040A02E0DAE04FF0000A1F
:103C700018E0A6B9012005904FF000086F216348B5
:103C800000F071FE6F21624800F06DFE0B2060496C
:103C90000870012081F86E005C4981F86E004FF0D9
:103CA000000A00BF31E105F00F00062850D1BAF13B
:103CB000060F4CD2DFE80AF0030A112F363D012E21
:103CC00001D1B24601E04FF0000A40E016B94FF0D2
:103CD000020A01E04FF0000A39E06F214B4800F082
:103CE00042FE6F214A4800F03EFE012E07D1162DFC
:103CF00005D10520464908704FF0030A0AE03EB995
:103D0000362D05D10120424908704FF0030A01E029
:103D10004FF0000A1BE016B94FF0040A01E04FF023
:103D2000000A14E016B94FF0050A01E04FF0000A4E
:103D30000DE04EB9012005904FF00008344981F89C
:103D40006E00324981F86E004FF0000A00BFDCE0DF
:103D500005F00F000828A5D1BAF1080F60D2DFE8FE
:103D60000AF00408101820283038012E00D1B2467D
:103D700056E0012E02D14FF0020A01E04FF0000A96
:103D80004EE0012E02D14FF0030A01E04FF0000A8D
:103D900046E0012E02D14FF0040A01E04FF0000A84
:103DA0003EE0012E02D14FF0050A01E04FF0000A7B
:103DB00036E0012E02D14FF0060A01E04FF0000A72
:103DC0002EE0012E02D14FF0070A01E04FF0000A69
:103DD00026E0012E21D1012005904FF000086F212F
:103DE0000A4800F0C0FD6F21094800F0BCFDFF202B
:103DF00007490870012081F86E000BE06620002062
:103E000066240020D524002044250020882300209B
:103E1000F7230020FC4981F86E004FF0000A00BF34
:103E200073E0FA48005D40B9F94991F86E10F84A1C
:103E300088184146FFF77CFB1CE0F448005D012830
:103E400008D1F34991F86E10F14A88184146FFF7FE
:103E500069FB0FE0EE4991F86E10ED4A8818414673
:103E6000FFF766FBE84991F86E10E74A881841466B
:103E7000FFF758FB08F1010000F0FF0805F00F0004
:103E8000072806D198FBF0F100FB118000F0FF0835
:103E900023E005F00F00052806D198FBF0F100FBA8
:103EA000118000F0FF0818E005F00F00062806D189
:103EB00098FBF0F100FB118000F0FF080DE005F029
:103EC0000F00082809D140464FEAE87108EB51710C
:103ED000C910A8EBC10101F0FF08B8F1000F14D11F
:103EE000CB4890F86E006D280EDAC94890F86E0045
:103EF000401CC74981F86E00C34890F86E00401C12
:103F0000C14981F86E0000E009E00BF101001FFAE1
:103F100080FBBE48B0F8200358453FF71EAE00BFF7
:103F200005F00F050598002877D0B9F1000F24D1CE
:103F3000072D06D1B64890F86E00C0EBC0000A907D
:103F40003EE0052D06D1B24890F86E0000EB8000EF
:103F50000A9035E0062D07D1AD4890F86E0000EBD1
:103F6000400040000A902BE0082D29D1A84890F885
:103F70006E0000EB80000A9022E0072D06D1A448D5
:103F800090F86E00C0EBC000099019E0052D06D135
:103F90009F4890F86E0000EB8000099010E0062D1D
:103FA00007D19B4890F86E0000EB4000400009905C
:103FB00006E0082D04D1964890F86E00C0000990E4
:103FC000002006900C9083E0012429E0072D01D108
:103FD0007F260AE0062D01D13F2606E0052D01D1FE
:103FE0001F2602E0082D00D1FF26082D04D08848A6
:103FF000005D30401F2806D0082D0FD18448005D99
:104000003040FF280AD1A01C814981F86E007E490A
:1040100081F86E000120069007E0F4E1601C84B294
:104020007B4890F86E00A042D0DC00BF0698C8BB69
:10403000BDF83000B0BB062D45D000243DE07449EA
:10404000085DFFF7B6FA70BB6F49085DFFF7BDFA70
:1040500048B36F48005D6C49095D48406C4908559C
:10406000072D01D17F2606E0052D01D11F2602E094
:10407000082D00D1FF26082D04D06548005D304092
:104080001F2805D0082D0FD16148005DFF280BD1F6
:104090000098401CC0B2009000205B4908550120E8
:1040A00001900FE00FE006E05948005D5649095DB8
:1040B000484057490855601C84B2554890F86E0036
:1040C000A042BCDC00BFBDF83000401C80B20C90A8
:1040D000069820B9BDF830000228FFF675AF0698A3
:1040E00001287DD1062D7BD000BF01200390002048
:1040F0000490002439E04649085DFFF75AFA30BBC6
:10410000B9F1000F05D10898082807DA00200890B7
:1041100004E00798082801DA0020079000200390A7
:104120003949085DFFF751FAE8B10098401CC0B268
:1041300000903748005D3449095D484034490855CE
:104140000020314908550120049001900BE0B9F19D
:10415000000F04D10898401C80B2089003E0079833
:10416000401C80B20790601C84B2294890F86E0011
:10417000A042C0DC072D01D1062606E0052D01D1A5
:10418000042602E0082D00D1072600242AE0E2B22E
:104190001F4890F86E10FFF7D7F9F8B90020039088
:1041A000E3B2194890F86E2001460CA8FFF7E9F930
:1041B000A0B10098401CC0B20090E1B2144ABDF812
:1041C0003030D018FFF7BAF9E1B20F4ABDF83030FD
:1041D000D018FFF7ADF9012004900190601C00E0B9
:1041E00047E184B2B442D2DB049800287FF47DAF6B
:1041F0000398E0BB00BF0120039000200490834699
:104200000B90002447E00000882300206620002057
:10421000F7230020F749085DFFF7CBF940BB0020EA
:1042200003900BF101001FFA80FB0B94072D01D1C5
:10423000062606E0052D01D1042602E0082D00D156
:10424000072600200C901FE0BDF83000C2B2E948FC
:1042500090F86E10FFF778F988B90098401CC0B24A
:104260000090BDF83020D1B2E24A101901E05CE0C4
:104270000FE0FFF763F901200490019008E0BDF81A
:104280003000401C80B20C90BDF83000B042DBDB47
:1042900000BF601C84B2D74890F86E00A042B9DC21
:1042A000BBF1010F19D10498B8B9072D01D1062629
:1042B00006E0052D01D1042602E0082D00D10726D5
:1042C0000098401CC0B20090CA4A0B995018314661
:1042D000FFF734F9012004900190072D01D1062643
:1042E00006E0052D01D1042602E0082D00D10726A5
:1042F00000200C9010E0BDF83000C2B2BD4890F82C
:104300006E10FFF721F910B90020039008E0BDF806
:104310003000401C80B20C90BDF83000B042EADBA7
:1043200000BF049800287FF466AF039800286AD085
:10433000052D02D1032101E0F6E001210098814220
:1043400061DBAC4890F86E0003285CDB002006902F
:10435000012420E0052D06D1A648005D00F00F00E5
:10436000A449085500E01CE00198012811D1A1489A
:10437000005D09280DDD9F48005D0E2809D09D488D
:10438000005D0D2805D09B48005D0C2801D0012060
:104390000690601C84B2974890F86E00801EA04280
:1043A000D8DC00BF069870BBB9F1000F2CD10024F7
:1043B0001DE0072D07D18F48005D00F03F00203041
:1043C000611C785411E0052D07D18A48005D00F08A
:1043D0000F003030611C785407E0082D05D1854866
:1043E000005D00F07F01601C3954601C84B281487C
:1043F00090F86E00A042DCDC7E4890F86E00401C15
:1044000087F86E0032E08BE07A4890F86E0097F8FB
:104410006E1088422ADD00241DE0072D07D1754863
:10442000005D00F03F002030611C785411E0052D44
:1044300007D17048005D00F00F003030611C7854E7
:1044400007E0082D05D16B48005D00F07F01601C7E
:104450003954601C84B2674890F86E00A042DCDCDE
:10446000644890F86E00401C87F86E0001200290AE
:1044700056E00698012853D1062D51D1062600207A
:1044800003900C9010E0BDF83000C2B2594890F88B
:104490006E10FFF759F810B90120039008E0BDF83D
:1044A0003000401C80B20C90BDF83000B042EADB16
:1044B00000BF0398A0BBB9F1000F14D1002406E09F
:1044C0004C48005D2030C1B2601C395484B2494868
:1044D00090F86E00A042F3DC464890F86E00401C55
:1044E00087F86E001AE0434890F86E0097F86E1057
:1044F000884213DD002406E03E48005D2030C1B252
:10450000601C395484B23B4890F86E00A042F3DC42
:10451000384890F86E00401C87F86E000120029029
:1045200009F1010000F0FF09B9F1020FFFF60EAB2F
:104530000298012808D197F86E00042802DA0220B8
:10454000FFF7EFBA0020FBE70898082802DB0A987B
:10455000642805DA0798082804DB0998642801DB39
:104560000120EDE70220EBE710B540F69A01224862
:1045700000F0F9F940F2EA31204800F0F4F940F691
:1045800072011F4800F0EFF940F222311D4800F09F
:10459000EAF96F211C4800F0E6F96F211B4800F092
:1045A000E2F96F211A4800F0DEF910BD2DE9F04163
:1045B00006460027002515E0012D02D13046FFF701
:1045C0003EF83046FFF76EF850B13046FFF78CFAF0
:1045D000044614B90020BDE8F081012C00D1012768
:1045E000681CC5B2022DE7DB012F01D10120F2E7E3
:1045F0000220F0E7F7230020700B00200A140020AF
:10460000F41700206620002066240020D524002016
:10461000442500200020AF490870704710B5FFF70F
:10462000A3FFFFF7F7FF10BD30B520B101280FD071
:10463000022827D119E0A84BB3F89848B3F8983866
:104640005B1C9DB2A44BA3F8985823F8141019E0F2
:10465000A24BB3F8E843B3F8E8335B1C9F4DA5F8D1
:10466000E8332B4623F814100CE09D4BB3F8704848
:10467000B3F870385B1C9DB2994BA3F8705823F8BF
:10468000141000BF00BF30BD704710B59248B0F89D
:104690009808142802DD0120FFF788FF8F48B0F842
:1046A000E803142802DD0220FFF780FF8C48B0F8F1
:1046B0007008142802DD0320FFF778FF10BD10B545
:1046C000884890F86E00022813DD87A005F0EAFB09
:1046D000022405E08348015D85A005F0E3FB641C2E
:1046E000804890F86E00801EA042F3DC81A005F0A7
:1046F000D9FB814890F86E00022813DD7FA005F0F9
:10470000D1FB022405E07C48015D79A005F0CAFBDD
:10471000641C794890F86E00801EA042F3DC75A0FE
:1047200005F0C0FB774890F86E00022813DD76A0F4
:1047300005F0B8FB022405E07248015D6CA005F0AD
:10474000B1FB641C6F4890F86E00801EA042F3DC41
:1047500068A005F0A7FB002010BD01205D4908708E
:1047600070472DE9F04107460E461546002416B95C
:10477000E01EBDE8F0812946304600F0F4F827B18C
:10478000012F3AD0022F7DD164E05348B0F8980849
:10479000142830DD1720FFF709FF04464CB11CB187
:1047A0001820FFF703FF04461CB11620FFF7FEFE9A
:1047B0000446FCB92B204B490870084690F86E005F
:1047C000801E81F86E00084690F86E00401B03D5ED
:1047D000084690F86E0000E0284602464149491C10
:1047E000304600F0A7F83F4890F86E00801C3D4925
:1047F00081F86E0000E0022468E03848B0F8E80371
:10480000142825DD2520FFF7D1FE0446FCB92C2015
:1048100039490870084690F86E00801E81F86E00D5
:10482000084690F86E00401B03D5084690F86E00CD
:1048300000E0284602463049491C304600F07AF82C
:104840002D4890F86E00801C2B4981F86E0000E026
:1048500002243BE02248B0F87008142832DD3520ED
:10486000FFF7A4FE04464CB11CB13720FFF79EFEB3
:1048700004461CB13620FFF799FE04460CBB2D20E0
:10488000204900E020E00870084690F86E00801E85
:1048900081F86E00084690F86E00401B03D508466C
:1048A00090F86E0000E0284602461649491C304642
:1048B00000F040F8134890F86E00801C114981F810
:1048C0006E0000E0022401E0032400BF00BF60424C
:1048D0004FE700002A020020700B00200A1400207D
:1048E000F417002066240020544B313A00000000E9
:1048F000256300000D0A0000D5240020544B323AF5
:104900000000000044250020544B333A0000000012
:104910000649074A0868504343F2390210440860C8
:104920004008704701490860704700002C020020D1
:104930006D4EC64140EA01039B0703D009E008C958
:10494000121F08C0042AFAD203E011F8013B00F854
:10495000013B521EF9D27047D2B201E000F8012BA0
:10496000491EFBD270470022F6E710B513460A46EF
:1049700004461946FFF7F0FF204610BD421C10F810
:10498000011B0029FBD1801A704730B50446002076
:10499000034600E05B1C934203D2E05CCD5C401B0D
:1049A000F8D030BD70B521F0004303430CD0C1F303
:1049B0000A550024D5EB040564EB0403D617AD1AA1
:1049C000B34102DB0020014670BD201841EB0251CB
:1049D00070BD0EB5C10F80EAE0700844CA0700211F
:1049E00040F233438DE80E000A460B4600F07FF894
:1049F00003B000BDC1F30A5210B5C1F3130140F278
:104A0000FF3341F480119A4201DA002010BD40F2D8
:104A100033439A42A2F2334203DC524200F04AF896
:104A200010BD904010BD30B50B460146002020223D
:104A3000012409E021FA02F59D4205D303FA02F5AB
:104A4000491B04FA02F52844151EA2F10102F1DC0B
:104A500030BD2DE9F05F0546002092469B46884612
:104A60000646814640241BE02846414647462246EA
:104A700000F020F853465A46C01A914110D311460F
:104A80001846224600F04CFA2D1A67EB01084F46F3
:104A900022460120002100F043FA17EB00094E41A5
:104AA000201EA4F10104DFDC484631462A46434675
:104AB000BDE8F09F202A04DB203A21FA02F0002111
:104AC000704721FA02F3D040C2F12002914008431E
:104AD0001946704710B5002B08DA401C41F100015F
:104AE00092185B411A4301D120F0010010BD2DE95D
:104AF000F04D92469B4611B1B1FA81F202E0B0FA54
:104B000080F22032904600F00BFA04460F4640EA4D
:104B10000A0041EA0B0153465A46084303D1204696
:104B20003946BDE8F08D114653EA010015D0C8F1B1
:104B300040025046FFF7BEFF05460E465046594616
:104B4000424600F0EDF9084301D0012000E00020CA
:104B5000054346EAE0762C4337430A984FEA44532C
:104B6000A0EB08004FEAD4240A304FF0000244EAD8
:104B700047544FEAD72502D500200146D1E7010569
:104B800010196941DDE9084500196941BDE8F04D9A
:104B9000A0E72DE9FE4F804681EA0300C00F0C46D6
:104BA000009021F0004123F00045B8EB0200A9413C
:104BB00005D24046214690461C460B46024623F04D
:104BC0000040104304D14046214603B0BDE8F08FB9
:104BD000270DC7F30A00C3F30A510290401A01904F
:104BE000402866DAC3F3130040F4801B0098924615
:104BF00020B10023D2EB030A63EB0B0B019859465B
:104C0000C0F14002504600F08BF906460D46504672
:104C10005946019A00F093F910EB08006141002415
:104C200087EA115284EAE7731A433BD0009A3AB3F9
:104C3000019A012A4FEA075210DC001B61EB0201C6
:104C40004FF0004202EA0752CDE90042001C41F554
:104C5000801132462B46FFF74AFFB6E7001B61EB97
:104C60000201001C41F5801300185B412018A2F5D9
:104C7000001747EB030140EAD570B6196D4111E00A
:104C80006D084FEA360645EAC0754FEA0752001B29
:104C900061EB0201001C41F5801149084FEA300028
:104CA0000019514132462B4603B0BDE8F04FFFF7E3
:104CB00011BF0098012240000023D0EB020263EBF9
:104CC000E073009821464FEAE074B8EB000061EB16
:104CD0000401E9E783F000435BE781F0004158E716
:104CE0002DE9FE4F81EA030404F0004421F0004165
:104CF00000944FF0000B23F0004350EA010402D06F
:104D000052EA030404D10020014603B0BDE8F08F4D
:104D1000C3F30A54C1F30A552C44A4F2F3340194AA
:104D2000A0FB0254C1F3130141F48011C3F3130338
:104D300043F4801301FB024400FB034E840A970AEC
:104D400044EA815447EA8357A4FB076802958D0A19
:104D500005FB07854FEA932C04FB0C542705029DA5
:104D60004FEA065847EA1637B5EB08056EEB070C15
:104D7000870E920E47EA811742EA8312A7FB0201CF
:104D8000B6EB0B0164EB00042B0D43EA0C335E1809
:104D900044EB1C50DA465146E7FB0201C5F313040D
:104DA0004FEA0B3343EA14534FEA0432019C43EABF
:104DB0000603A4F10C040294009CCDE900B4FFF7B3
:104DC00096FEA2E72DE9F04D81EA030404F0004BC2
:104DD00021F0004514464FF0000A23F0004150EA4C
:104DE000050220D054EA01021DD0C5F30A5702463D
:104DF000C5F31303C1F31300C1F30A5640F4801541
:104E000043F48013A7EB0608101BD64608F2FD38C2
:104E100073EB050002D308F1010801E092185B4131
:104E2000B8F1000F03DA00200146BDE8F08D002044
:104E30004FF48011064684460EE0171B73EB0507FE
:104E400005D3121B63EB050306434CEA010C49082A
:104E50004FEA300092185B4150EA0107EDD152EA67
:104E6000030012D082EA040083EA0501084303D15B
:104E700000224FF0004308E0101BAB4102D2012298
:104E8000002302E06FF0010253101AEB06004CEB16
:104E9000085110EB0A0041EB0B01BDE8F04DFFF7A4
:104EA00019BEC1F30A52C1F3130140F2FF3341F4BA
:104EB00080119A4202DA00200146704740F23343E3
:104EC0009A42A2F2334202DC5242FFF7F3BD00F0F5
:104ED00027B8000030B5002904DB4FF00044404201
:104EE00064EB0101002B04DB4FF00044524264EB01
:104EF0000303994208BF904230BD0000064C074DA5
:104F000006E0E06840F0010394E807009847103499
:104F1000AC42F6D3FEF7EEFAC8DE0008E8DE000881
:104F2000202A04DB203A00FA02F100207047914069
:104F3000C2F1200320FA03F3194390407047202A5E
:104F400006DBCB17203A41FA02F043EAE07306E0B1
:104F500041FA02F3D040C2F12002914008431946C1
:104F6000704770B501EB020410F8015B15F0070300
:104F700001D110F8013B2A1106D110F8012B03E0F2
:104F800010F8016B01F8016B5B1EF9D12B0705D4FA
:104F90000023521E0FD401F8013BFAE710F8013B41
:104FA00002F10202A1EB030303E013F8015B01F835
:104FB000015B521EF9D5A142D6D3002070BD2DE968
:104FC000FF470646DDE90C70994614460D46E84653
:104FD000B0B94EE000204246315C3B5C5940115470
:104FE000401C1028F8D34A462946684600F020FAAB
:104FF000102229463846FFF79DFC103C103610352C
:10500000102CE7D2002C51D00020414604E0325C45
:105010003B5C5A400A54401CA042F8D302E0385D81
:105020000855641C102CFAD369464A46084600F01D
:10503000FFF9102269462846FFF77CFC31E0102278
:1050400031466846FFF776FC4A462946304600F06E
:105050002FF80020295C3A5C51402954401C10284C
:10506000F8D3102269463846FFF764FC103C10362E
:105070001035102CE3D2002C18D01022314668468F
:10508000FFF758FC69464A46084600F011F8002030
:10509000424604E0115C3B5C59402954401CA0424C
:1050A000F8D3102269463846FFF744FCBDE8FF8775
:1050B0002DE9F84FC3780478857883EA046344784F
:1050C000D84E240484EA052463401468857983EA71
:1050D0000409C379047983EA04634479240484EAE3
:1050E000052463405468857A83EA040AC37A047A03
:1050F00083EA0464437A1B0483EA05235C409368D3
:10510000057B5C40C37B83EA0565437B807B1B0496
:1051100083EA00204540D0684540D2F8F0004010B6
:105120000090DFF804B34FEA19630BF58060C5F314
:1051300007475BF8233050F827000BF5006EC4F3E7
:10514000072743405EF827000AF0FF07C9F3074C22
:1051500056F82770CAF307487840434010694FEA71
:105160001A6743405BF827000BF5806757F82C70EF
:10517000C5F3072C78405EF82C7004F0FF0C56F84D
:105180002CC087EA0C07784057694FEA146C7840C6
:105190005BF82C700BF5806CC4F307445CF828C0F6
:1051A000C9F3072887EA0C075EF828C005F0FF0856
:1051B00056F828808CEA080C87EA0C07D2F818C049
:1051C00087EA0C074FEA156C5BF82C500BF5806CE6
:1051D0005CF82440CAF3072C65405EF82C4009F0C7
:1051E000FF0C56F82CC084EA0C046540D4692032C8
:1051F0006540009C641E00946DD04FEA136CC5F3AB
:1052000007485BF82C400BF5806CDE465CF828C044
:105210000BF5006BC7F3072884EA0C045BF828C081
:1052200000F0FF0856F828808CEA080C84EA0C0489
:10523000D2F800C0C3F3074884EA0C094FEA106CA7
:105240005EF82C40ABF5806C5CF828C0C5F30728ED
:1052500084EA0C045BF828C007F0FF0856F82880A1
:105260008CEA080C84EA0C04D2F804C0C0F30748A6
:1052700084EA0C0A4FEA176CC7F307475EF82C4024
:10528000ABF5806CC0F307205CF828C0C3F3072897
:1052900084EA0C045BF828C005F0FF08DBB256F87E
:1052A00028805BF820008CEA080C84EA0C04D2F811
:1052B00008C056F8233084EA0C044FEA156C5840B5
:1052C0005EF82C50ABF5806C5CF827707D40454053
:1052D000D068454025E7554C1E0EC5F3074C54F8E1
:1052E000266054F82CC006F07F460CF47F0C86EA4A
:1052F0000C06C7F3072C34F82CC00CF47F4C86EA5C
:105300000C0600F0FF0C14F82CC086EA0C06D2F84C
:1053100000C086EA0C064FEA166C81F800C04FEA1E
:10532000164C81F801C04FEA162C81F802C0CE70ED
:10533000060EC3F3074C54F8266054F82CC006F050
:105340007F460CF47F0C86EA0C06C5F3072C34F874
:105350002CC00CF47F4C86EA0C0607F0FF0C14F806
:105360002CC086EA0C06D2F804C086EA0C064FEA86
:10537000166C81F804C04FEA164C81F805C04FEA5C
:10538000162C81F806C0CE713E0EC0F3074C54F8BF
:10539000266054F82CC006F07F460CF47F0C86EA99
:1053A0000C06C3F3072C34F82CC00CF47F4C86EAAF
:1053B0000C0605F0FF0C2D0E14F82CC086EA0C0626
:1053C000D2F808C086EA0C064FEA166C81F808C0CD
:1053D0004FEA164C81F809C04FEA162C81F80AC032
:1053E000CE72C7F3074654F8255054F8266005F0EE
:1053F0007F45C0F3072006F47F0634F8200075408F
:1054000000F47F404540D8B214F820004540D068F1
:105410004540280E0873280C4873280A8873CD73FA
:10542000BDE8F88F6CD300086CC700086CD7000883
:105430002DE9F84FC3780478857883EA04634478CB
:10544000D84E240484EA052463401468857983EAED
:105450000409C379047983EA04634479240484EA5F
:10546000052463405468857A83EA040AC37A047A7F
:1054700083EA0464437A1B0483EA05235C4093684F
:10548000057B5C40C37B83EA0565437B807B1B0413
:1054900083EA00204540D0684540D2F8F000401033
:1054A0000090DFF804B34FEA19630BF58060CAF38C
:1054B00007475BF8233050F827000BF5006EC4F364
:1054C000072743405EF82700EFB2C4F3074C56F8B5
:1054D0002770C5F307487840434010694FEA1A67C0
:1054E00043405BF827000BF5806757F82C70C5F335
:1054F000072C78405EF82C7009F0FF0C56F82CC091
:1055000087EA0C07784057694FEA146C78405BF8DB
:105510002C700BF5806CE4B25CF828C0C9F3072846
:1055200087EA0C075EF828C00AF0FF0856F8244006
:1055300056F828808CEA080C87EA0C07D2F818C0C5
:10554000C9F3074887EA0C074FEA156C5BF82C5043
:105550000BF5806C5CF828C0CAF3072885EA0C05B7
:105560005EF828C08CEA040CD46985EA0C05654015
:10557000009C2032641E00946DD04FEA136CC0F37F
:1055800007485BF82C400BF5806CDE465CF828C0C1
:105590000BF5006BC7F3072884EA0C045BF828C0FE
:1055A00005F0FF0856F828808CEA080C84EA0C0401
:1055B000D2F800C0C7F3074884EA0C094FEA106C20
:1055C0005EF82C40ABF5806C5CF828C0C5F307286A
:1055D00084EA0C045BF828C003F0FF0856F8288022
:1055E0008CEA080C84EA0C04D2F804C0C5F307481E
:1055F00084EA0C0A4FEA176C5EF82C40ABF5806C1D
:105600005CF828C0C3F3072884EA0C045BF828C0C0
:1056100000F0FF08C3F3074356F82880C0F30720C3
:105620008CEA080C84EA0C04D2F808C05BF820006D
:1056300084EA0C044FEA156C5EF82C50ABF5806CD4
:105640005CF823305D40FBB256F8233058404540AB
:10565000D068454025E7554C1E0EC0F3074C54F862
:10566000266054F82CC006F07F460CF47F0C86EAC6
:105670000C06C7F3072C34F82CC00CF47F4C86EAD8
:105680000C0605F0FF0C14F82CC086EA0C06D2F8C4
:1056900000C086EA0C064FEA166C81F800C04FEA9B
:1056A000164C81F801C04FEA162C81F802C0CE706A
:1056B000060EC7F3074C54F8266054F82CC006F0C9
:1056C0007F460CF47F0C86EA0C06C5F3072C34F8F1
:1056D0002CC00CF47F4C86EA0C0603F0FF0C14F887
:1056E0002CC086EA0C06D2F804C086EA0C064FEA03
:1056F000166C81F804C04FEA164C81F805C04FEAD9
:10570000162C81F806C0CE713E0EC5F3074C54F836
:10571000266054F82CC006F07F460CF47F0C86EA15
:105720000C06C3F3072C2D0E34F82CC0C3F307432B
:105730000CF47F4C86EA0C0600F0FF0C14F82CC029
:1057400086EA0C06D2F808C086EA0C064FEA166C08
:1057500081F808C04FEA164C81F809C04FEA162CB0
:1057600081F80AC0CE7254F8255054F8233005F061
:105770007F45C0F3072003F47F0334F820005D4029
:1057800000F47F404540F8B214F820004540D0684E
:105790004540280E0873280C4873280A8873CD7377
:1057A000BDE8F88F6CBF00086CB300086CC300083C
:1057B000F0B5002350B14AB14FF48076802908D06B
:1057C000C02906D0B14204D0981EF0BD4FF0FF3082
:1057D000F0BD80297DD0C0297CD00E25C2F8F050C4
:1057E000C4780578877884EA056445782D0485EACD
:1057F00007256C401460C4790579877984EA0564CB
:1058000045792D0485EA07256C405460C47A057AF1
:10581000877A84EA0564457A2D0485EA07256C4079
:105820009460C47B057B877B84EA0564457B2D04FB
:1058300085EA07256C40804FD460A7F5C0548029C5
:105840007ED0C57C90F810C090F812E085EA0C6517
:1058500090F811C0C0294FEA0C4C8CEA0E2C85EA56
:105860000C051561C57D90F814C090F816E085EA26
:105870000C6590F815C04FEA0C4C8CEA0E2C85EAAA
:105880000C05556173D0C57E90F818C090F81AE0E9
:1058900085EA0C6590F819C04FEA0C4C8CEA0E2C86
:1058A00085EA0C059561C57F90F81CC085EA0C65FA
:1058B00090F81DC0807F4FEA0C4C8CEA00204540D8
:1058C000D561B1427ED1D069C0F3074554F8255067
:1058D00001E04DE04EE0116805F07F456940C0F3FE
:1058E0000725C6B254F8255034F8266005F47F0524
:1058F00006F47F4675406940050E14F8255069404E
:1059000057F823505B1C6940116255684D40556241
:1059100096686E409662D1687140D162072B51D073
:105920000E0E156954F82660C1F3072C06F07F4669
:105930007540C1F3074654F8266006F47F0600E080
:105940001AE034F82CC0C9B20CF47F4C86EA0C067D
:1059500014F8211075404D40156351696940516339
:1059600095694D406840C2E90E502032ABE730E007
:105970000A2533E70C2531E7D0681168C0F30745E5
:10598000C6B254F8255034F8266005F07F456940CA
:10599000C0F3072506F47F4654F8255005F47F052B
:1059A00075406940050E14F82550694057F823509A
:1059B0006940116155684D405561916869404840A2
:1059C0005B1C00E036E0C2E906100A2B32D0103230
:1059D000D2E750691168C0F30745C6B254F82550A4
:1059E00034F8266005F07F456940C0F3072506F4CA
:1059F0007F4654F8255005F47F0575406940050E33
:105A000014F82550694057F823505B1C6940916198
:105A100055684D40D561916869401162D5684D4027
:105A20005562082B06D0116969404840C2E90A1046
:105A30001832CEE70020F0BD6CDB0008F8B5D307C4
:105A40002DD102EBD272561000246D4623E002786D
:105A50008DF800204278801C8DF801200022AB5C7C
:105A6000A3F14107052F01D8373B08E0A3F16107F7
:105A7000052F01D8573B02E0303B092B0FD8AB5420
:105A8000521C022AEBDB9DF800209DF8013043EA0E
:105A900002120A55641CB442D9DB0120F8BD002073
:105AA000F8BDFEE7C1B2000A40EA012070470000DD
:105AB0002DE9F84F0020ADF800004BF6BF7748F213
:105AC0008008484E40F68F79474D484C48F60F7A8B
:105AD000DFF81CB12AE0088810F00F0028702FD0E2
:105AE00004EB80000168ADF80010BDF80010090457
:105AF0000AD5016801EA090101603E48297800EBF6
:105B0000810050F8040C8047BDF8000000060DD558
:105B1000287804EB8000016801EA0A010160364838
:105B2000297800EB810050F8040C80472F4844305E
:105B300000685946ABF800000004CCD4BDE8F88FEB
:105B400020683080308800F030007080308800F4A9
:105B5000405030802068384080F4005080F02000B1
:105B600040EA080020600888C00617D4216801EACE
:105B70000A01216001F0EEFC28E03188890401D59A
:105B800080F400507188C90628D47188890601D52F
:105B900080F0200040EA08002060CFE72068ADF8E0
:105BA0000000BDF80000000506D5206800EA0900E5
:105BB000206003F075FB09E0BDF800000004B5D5D6
:105BC000206800EA0900206002F086F82068318829
:105BD0003840C904D1D580F48050CEE780F0100061
:105BE000D3E700002602002014020020005C0040E1
:105BF000320100205001002034010020F8B5144982
:105C000001244C70134A20461746A2F1100101F0FE
:105C1000A1FB10482438002590F82B10808D01F04E
:105C20001F0146BA61F31F462146304601F05EFA75
:105C3000084B01461C333A460120009501F06EFAEC
:105C4000641CE4B2304601F04DFBA042ECDAF8BD32
:105C5000040000206002002010B503460022104618
:105C600002E09C5C6040521C8A42FAD310BD0000E6
:105C7000074901EB80000168490407D5016848F62F
:105C80008F7211404CF28002114301607047000096
:105C9000005C0040074901EB80000168490607D518
:105CA000016848F68F72114048F2C002114301604A
:105CB00070470000005C0040054901EB800001686E
:105CC00048F68F62114048F280021143016070472C
:105CD000005C0040124910B50A680628117801F0EE
:105CE0007F0103D1012901D1537913B121290AD0B0
:105CF00013E09078222802D0212802D00DE0094933
:105D000004E0094902E0032807D1084929B100202D
:105D1000916150828847002010BD022010BD000014
:105D200018020020715D0008495D0008555D0008FB
:105D3000014903F073BB00007C010020014903F01E
:105D40006DBB000074010020014903F067BB000037
:105D50008C01002008B104487047044901200968FB
:105D60000882002070470000700100201802002007
:105D7000014903F053BB0000840100200549096874
:105D8000C978042901D900207047034A02EBC101F8
:105D900003F044BB18020020C401002009B9002808
:105DA00000D002207047000006490968097801F018
:105DB0007F01212901D10B2801D00220704700F07A
:105DC0006FB8000018020020274810B500680021B5
:105DD0008172C1722549C9794172002003F02CF803
:105DE0004FF40071002003F0EDF81021002003F0C3
:105DF000C1F81821002003F047F85821002003F0D3
:105E00009BF80020FFF758FF194890F82C1000204D
:105E100003F04AF8002003F07FF84FF4C06101203E
:105E200003F0D0F84FF48071012003F085F84FF4AF
:105E3000A171012003F028F84021012003F08CF823
:105E40004021012003F030F84FF44051012003F0CD
:105E50004BF82021012003F08DF8002002F0F4FF20
:105E600004490120086010BD1802002013DE00085C
:105E7000940100200802002004480068807A00286D
:105E800002D0034905200860704700001802002076
:105E90000802002001490420086070470802002021
:105EA000034804490068C07808600020704700007B
:105EB00018020020700100207047704710B501F0F3
:105EC000C9F8054800240068847201F0F7FF03F068
:105ED0009BFE0248046010BD18020020080200204A
:105EE0002DE9F047DFF89490254F4FF03008D9F8AE
:105EF000001001F11005088A0E7A08B9042E04D0AA
:105F0000AC88A04215D8042614E01E490878012860
:105F100003D00726102038802BE01B4A002012688F
:105F20001A4B92B203EB42025060A7F8008008704F
:105F30001FE00226844200D90446A968204688470B
:105F40008246002000F0F0FF01462246504603F052
:105F50000DFF2146002002F0FFFF2888001B28804B
:105F6000688820446880A7F8008009494FF44050B1
:105F70000880D9F800000672BDE8F08718020020FA
:105F80002802002010020020505C00400060004009
:105F9000260200202DE9F047224EDFF88C803027C2
:105FA000346834F8100FA168A9B100B3A588854200
:105FB00000D905462846884781462088401B208016
:105FC000608828446080002000F08EFF01462A4649
:105FD000484601F0A5FE208848B114494FF44050CE
:105FE00008800021084602F0B7FFA8F8007020885A
:105FF000A188884201D3032001E020B10520316847
:106000000872BDE8F0873168062008720849002050
:106010000968084A89B202EB41014860A8F800709B
:10602000EFE70000180200202802002026020020CE
:10603000505C004000600040F8B55C4C5C4D0926A7
:106040002068002729684278062A05D0AAB1082AC4
:106050004BD00A2A4ED069E00278520666D1807889
:10606000012804D0022804D0032804D05EE0C969C6
:1060700054E0096A52E0496A50E04288A2BBC288F3
:10608000022A53D102797ABB0278530601D1838860
:1060900033B102F07F02012A04D0022A0CD045E07D
:1060A00044493BE08A69407900219047E0B9206883
:1060B000807A0028F4D139E0417901F00F0001F035
:1060C00070020B063C4951F8201003D5C1F30111B1
:1060D000090102E0C1F301310903384B1B78834207
:1060E00024D90AB90029DBD120E0007840061DD16F
:1060F000334913E0027802F07F02012A16D1827A36
:10610000A2B1428892B9027982B9C288012A0DD11E
:106110008A6940790021904740B92A4931B1206805
:106120004782816100208847002006E029682068B6
:10613000096940788847032807D021680A8AA2F5B0
:106140007F43FF3B04D10E72F8BD20680672F8BD94
:10615000022809D042B10878000621D5C8880090ED
:10616000824205D9088213E04FF008000872F8BD9A
:106170000ED22868144B90F82C00824201D21F7076
:1061800006E0B2FBF0F400FB142008B901201870FF
:10619000286890F82C008882BDE8F840FFF7A0BE80
:1061A00003200872094900030880F8BD1802002086
:1061B0001C02002061940008005C00406C0100207B
:1061C000F5930008399400081002002026020020F0
:1061D0002DE9F05FC24C00266079552875D1C14A7F
:1061E0001078022814D15178552912D0282923D0AB
:1061F000012700254FF03109A2F1500838291DD0A0
:1062000010464629807828D0522970D053296FD063
:10621000E0E0062004F066FE04F0B6FD03F02EFE7A
:10622000BFF34F8FB0480168B04A01F4E0611143F9
:106230000160BFF34F8FFEE728206BE06572A9482D
:1062400040215038FEF78FFB88F80190277003F04B
:10625000CBFD062004F046FE75E09246462833D179
:10626000A04850216430FEF77EFBE2799D48D21FA2
:106270000AF10301643004F011FD20729948643082
:106280000178FF2921D1002103E0425C5640491CDE
:1062900089B2227A521E9142F7DB217A014411F829
:1062A000011CB14211D18178217241780A2912D0A2
:1062B000132909D1217A012902D1C078022805D0F9
:1062C000152004F00FFE657284E0A3E0132004F0B3
:1062D00009FE67727EE0617AD9B1217A112902D173
:1062E000C178322905D0217A212916D072E02CE01C
:1062F00040E0227A7B49521E2C39001DFFF79EFB9D
:1063000000F070FE28B10A2004F0ECFD022060725B
:1063100060E0152004F0E6FD5CE0C178332959D136
:10632000227A7049521E3C39001DFFF787FB88F81E
:106330000290332188F80110277003F055FD0A20E0
:1063400004F0D0FD6572257044E054280FD006DCBF
:1063500022280CD04E280AD051283BD107E07428BF
:1063600002D07E2836D102E001F05CFF742004F0F8
:10637000B9FD4EE0DFF86CC15A49ACF1500C9246C1
:10638000CA78DCF85460DCF8583009794E2877D0A8
:1063900010DC34282AD006DC18281FD01A2870D028
:1063A0001D2817D122E0352820D036281ED04C28B1
:1063B00010D151E04FF0320B76286BD006DC542818
:1063C00077D0582814D0742804D125E0842859D0D7
:1063D00085285CD0BDE8F05F04F0D6BC88F800509A
:1063E00088F8019088F80350A57074E00620BEE795
:1063F000012A0CD1302901D0312908D188F80210A6
:10640000302901D0332164E088F801B063E0152021
:10641000ADE76571BDE8F09F324A31480023443A48
:1064200008F104010B3004F073FF2D489AF80320A3
:106430000AF104010B30FEF7A8FA30B13020A07049
:10644000C4F80B50C4F80F50E1E784F80290C4F888
:106450000B50C4F80F50C9E7012A06D088F8005045
:10646000277003F0C1FC2570D1E7302903D0312912
:1064700001D03229CBD188F8031088F800702AE0C7
:106480001EE024E0012AC2D10F29C2D1AEE7002AC2
:10649000BDD0ABE7102ABAD1A0783128B7D1464693
:1064A0000AF10401301DFEF745FA86F801B012E04A
:1064B000FFE7082AABD1CCF82E60CCF832300AE0E6
:1064C000082AA4D1CCF83660CCF83A3003E0012A8F
:1064D0009DD188F80110277003F086FC257085E7B0
:1064E000040000208C0200200CED00E00400FA05FE
:1064F000F8B50025264C274F8DF800501926684620
:1065000003F0C4FB012842D1F87840B1192811D01A
:106510001A281ED078790028F1D1FD7003E09DF88B
:106520000000022801D03D71E9E72070B872012017
:10653000B8712AE09DF80010032901D11A20F870E3
:10654000B8792218401CB8711170B87A4840B872F6
:10655000D5E79DF80000B97A884204D0BA7A80F075
:106560000201914209D1B9796218491CB9711070C0
:10657000B879F87155207871CFE7B9796218491C5C
:10658000B9711070B97A4140B972FE70B7E7F8BDC1
:106590008C020020040000207047FCB500210A4650
:1065A0006E467254491CC9B20829FAD30022002150
:1065B000845CC1F1070324FA01F707F00107974053
:1065C000F55C491C3D43C9B2F5540829F1D3521C6E
:1065D000D2B2082AEBD3002106EB410243185278CD
:1065E000425416F81120491CC9B21A710429F3D378
:1065F000FCBD2DE9FC438146002003466F463B5419
:10660000401CC0B20828FAD300234FF0010819F843
:1066100003C0002008FA00F40CEA0405C540C0F1EC
:1066200007049D403E5D401C3543C0B23D550828DF
:10663000F0D35B1CDBB2082BE9D300203B5C0B548E
:10664000C0F10603FB5C1354401CC0B20428F5D310
:10665000C87800F0F000C870D0780001D070BDE8B4
:10666000FC8370B5C1F10806FF22B240D4B20278B3
:10667000C378224043EA1213C3700022835C8B402C
:1066800085186D782540F5402B438354521CD2B2B7
:10669000032AF3D3C2788A40C27070BD70B500235C
:1066A0001DE00278550805704478660846EAC21273
:1066B0004270827802F00106520842EAC4128270E7
:1066C000C278520842EAC612C270140705D045F0DB
:1066D0008004047002F0F002C2705B1CDBB28B42DB
:1066E000DFDB70BD014901200870704724010020E4
:1066F0002DE9F04F91B040216846FEF734F9384952
:10670000012003F091FA364F7E783F213846FFF79B
:10671000A3FA97F83F200024324D4FF001094FF4BF
:1067200040514FF0050A82420ED0012002F0DCFBFE
:106730006878012850D18DF800A08DF80190AA202A
:106740008DF80200AE203CE0022040F2FF52264BC2
:106750004FF4C06BB61C24E0D5F80880D5F804C00F
:10676000ACF1010CE04508D0D5F804C0BCF1000F35
:1067700005D1D5F808C0944501D16C600FE017F839
:1067800000C0D5F8088003F808C0D5F808C00CF19F
:10679000010CC5F808C0D5F808C0DC4500D3AC60D2
:1067A000401CB042D8D3012002F09EFB687801283B
:1067B00012D18DF800A08DF80190BB208DF8020059
:1067C000BF208DF83F0040226946812003F03EFA49
:1067D000012002F0E7FB2C7011B0BDE8F08F000043
:1067E000D00A002024010020D004002010B5012090
:1067F00000F07CF901280CD100F0BEF8144C61784F
:106800004FF08040022905D8808C20816078401CA0
:10681000607010BD0F49B1F8E813B1F5FA7FF8D2F6
:10682000808C608160892189884203D960892189AF
:10683000401A05E020894FF6FF71081A6189084463
:1068400081B200220120FDF7EFFE6089208110BD9A
:10685000E00000200A14002010B5022000F046F9E4
:1068600001280DD1022000F087F8154CA1784FF0D7
:106870008040022905D8808CA081A078401CA0709F
:1068800010BD104940F21A42B1F834189142F7D2C3
:10689000808CE081E089A189884203D9E089A189BF
:1068A000401A05E0A0894FF6FF71081AE1890844F3
:1068B00081B200220220FDF7B7FEE089A08110BD61
:1068C000E0000020F417002010B5042000F00EF9BD
:1068D000012814D1042000F04FF80421084800F0EA
:1068E000F7FA084C38B1FDF738FF00212046BDE823
:1068F000104002F04DBFFDF78DFE0121F6E710BDFF
:10690000000C01400004004010B5802000F0EEF8BB
:1069100001280DD1802000F02FF8154C21784FF080
:106920008040022905D8808CA0802078401C2070EF
:1069300010BD1049B1F84016B1F5487FF8D2808CEF
:10694000E080E088A188884203D9E088A188401AC5
:1069500005E0A0884FF6FF71081AE188084481B26B
:1069600000221046FDF760FEE088A08010BD000008
:10697000E0000020700B0020014908607047000013
:10698000140401402DE9FF5F0426ADF80C600327D5
:10699000DFF850A18DF80E708DF80F6003A95046F6
:1069A00000F04AFA4FF4E06B584601F021F9082054
:1069B0008DF8080000258DF809508DF80A50012443
:1069C0008DF80B4002A801F0E1F80221012000F04F
:1069D0001FFA8DF804504FF010088DF805800096CE
:1069E0008DF80640684600F091F84FF08009ADF848
:1069F0000C908DF80E708DF80F6003A93A4800F0E6
:106A00001BFA584601F0F4F817208DF808008DF8AD
:106A100009508DF80A408DF80B4002A801F0B6F835
:106A20000721002000F0F4F98DF804508DF805805E
:106A3000CDF800908DF80640684600F067F8ADF894
:106A40000C408DF80E708DF80F6003A9504600F0D1
:106A5000F3F9584601F0CCF806208DF808008DF8BF
:106A600009504FF002098DF80A908DF80B4002A8EA
:106A700001F08CF80021012000F0CAF98DF80450D3
:106A80008DF8058000948DF80640684600F03EF8C9
:106A9000ADF80C908DF80E708DF80F6003A950467C
:106AA00000F0CAF9584601F0A3F807208DF8080055
:106AB0008DF809508DF80A708DF80B4002A801F08E
:106AC00065F80121084600F0A3F98DF804508DF80F
:106AD0000580CDF800908DF80640684600F016F865
:106AE000BDE8FF9F000C014000080140064A014636
:106AF00000201268044B0A4014331B680B4202D07A
:106B0000002A00D0012070470004014030B51A4A25
:106B10008379016853B313688B431360111D0B68AD
:106B20000468A3430B60017911440B680468234394
:106B30000B60114B083319680468A14319601C1DD0
:106B400021680568A94321604179102905D01144C5
:106B50000A68006802430A6030BD19680268114380
:106B60001960216800680143216030BD007910443C
:106B700002688A43026030BD0004014070B50278AB
:106B80007C2303EA5205C478C2F3C10245EAC41467
:106B900014430C700278540102F0010244EAC20569
:106BA0004278102404EAD206354345EA52124A706C
:106BB000427802F01805ED0002F01F0245EA420299
:106BC000857842EAD5128A70827803EA52054378C2
:106BD000C2F3C10245EAC3131343CB708278530159
:106BE00002F0010243EAC203C27804EAD20423435A
:106BF00043EA52120A71C278007802F01803DB00EF
:106C000002F01F0243EA420242EAD010487170BD0E
:106C100038B5042104468DF8001000F091F8A10564
:106C200008D1204600F014F88DF800009DF800000F
:106C3000042803D000F03EF8002038BD00F03AF8F8
:106C4000012038BD01490320086070470802002078
:106C500070B505464FF43026304600F07DF8042824
:106C600011D1094C206940F0020020616561206962
:106C700040F040002061304600F06EF8216941F696
:106C8000FD721140216170BD0020024008490420BE
:106C9000CA68D20701D001207047CA68520701D5DF
:106CA00002207047C968C906FBD503207047000061
:106CB000002002400248016941F0800101617047F3
:106CC0000020024004490A6822F010020A600A68A3
:106CD00002430A6070470000002002402DE9F8419D
:106CE000064600204FF4005700900D46384600F04D
:106CF00033F8042816D10C4C206940F001002061C3
:106D00003580B846384600F027F8BF1E042806D163
:106D1000B61C280C00963080404600F01DF8216912
:106D200039402161BDE8F88100200240034A116822
:106D300001F038010143116070470000002002405B
:106D40000348024941600349416070472301674598
:106D500000200240AB89EFCD00B50346FFF796FF58
:106D600002E0FFF793FF5B1E012803D0002B00D148
:106D7000052000BD002BF4D1FAE7000070B5002219
:106D80000223012901D0052909D1027803EA9214CE
:106D9000C2F380052C43C2F3C30202EB04120229A2
:106DA00001D006290CD10278447802F00205C4F320
:106DB00000163543D207120F42EA541202EB0512B5
:106DC000032901D007290CD14278847803EA92057F
:106DD000C4F3801635435207120F42EAD41202EB75
:106DE0000512042901D0082909D1807803EA10127C
:106DF00000F001031A43C0F3430000EB0212034802
:106E000000EB8110104410F8400C70BDC1DB00088D
:106E100010B58A0721F003040649120F21440F23FD
:106E20008C6893409C438C608B68904003438B60DC
:106E300010BD000000000140F0B5CC78002204F045
:106E40000F03E40601D58C7823430C784FF00F0C28
:106E50004FF0010EDCB105680E880EFA02F42640F0
:106E6000A64210D196000CFA06F725EA070703FAA6
:106E700006F5CE783D43282E02D0482E02D002E0FF
:106E8000446100E00461521C082AE5D305600A88C9
:106E9000FF2A1CD94468002202F108060EFA06F502
:106EA0000E882E40AE420ED196000CFA06F7BC4377
:106EB00003FA06F7CE783C43282E00D14561CE7800
:106EC000482E00D10561521C082AE5D34460F0BD6C
:106ED0000246002092680A4200D0012070474161BA
:106EE00070470161704700000549096889B201EBEC
:106EF000C000044901EB4000008980B270470000E7
:106F0000505C0040006000400549096889B201EB0F
:106F1000C000044901EB40008089C0F309007047BC
:106F2000505C0040006000400449096889B201EBF0
:106F3000C000034931F8100080B27047505C004037
:106F4000006000402DE9F04106461C468846174681
:106F5000104603F091FF05463A463146FDF7EAFC3C
:106F6000384603F089FF06463946FDF7FCFCF81762
:106F7000012107EB5070012C05D0032C03D0022C0B
:106F800001D034B317E0B1EBE00F05D1002305F1D8
:106F90000802294630460CE005F108020023144699
:106FA0002946304604F0B4F900232246294606F16A
:106FB000080004F0ADF93188A8F80010B17888F81D
:106FC0000210284603F042FE3046BDE8F04103F0CF
:106FD0003DBEB1EBE00FDFD100222946304603F081
:106FE00065FCE8E7194910B591F82D00401C10F038
:106FF000FF0081F82D0020D191F82C00401C10F0EA
:10700000FF0081F82C0018D191F82B00401C10F0E3
:10701000FF0081F82B0010D191F82A00401C10F0DD
:10702000FF0081F82A0008D111F8290F401CC0B2D6
:107030000870FF2801D3002010BD054C01202070EE
:1070400002F0D2FE00202070012010BD3C02002082
:10705000040000200A4810B50168001D0468001DE6
:10706000006808180BD00822064900F0A1FA05496B
:1070700020460422BDE81040103100F099BA10BD3E
:10708000E8F7FF1F0B010020FEE778B500256E46EC
:1070900017E0435D1C098DF8004003F00F038DF8E5
:1070A00001300023F45C0A2C01D2303402E0102CB1
:1070B00001D23734F4545B1C01F8014B022BF1DB95
:1070C0006D1C9542E5DB78BD074B10B51C7800219F
:1070D00010F8012B641E03E010F8013B5A40491CD4
:1070E000A142F9D3104610BD1800002070B500244D
:1070F0004FF4801206462346154608E00BB15208AD
:107100001544164201D0641CE4B25B1CDBB28C4215
:1071100001D2152BF2D306EA050070BD2DE9FF4F11
:1071200089B04FF000094C4EDDF858B08246CDF8DA
:107130001090CDF81490CDF81890CDF81C90706890
:107140001C46B0F5001F04D96FF006000DB0BDE875
:10715000F08FDFF808810A9800F0D1F80546014663
:10716000484600F0E5F9814605EB0510871907F15F
:10717000080198F800202046FDF7DCFB2046FFF7C9
:10718000A3FF98F802103944097A884204D0716844
:1071900001EB09007060DEE70A983149706000F089
:1071A000CDF9BBF1010F06D0BBF1000F0DD0BBF143
:1071B000020F39D041E0BAF1000F02D0E07BC043AA
:1071C000E073E079C043E07137E06946BAF1000F3F
:1071D0001BD0607BC04360736079C0436071002046
:1071E000225C0A54401CC0B21028F9D301F10802F5
:1071F00000231646204604F08BF8002332466946E9
:1072000004F1080004F084F817E06079C04360716D
:107210000020225C0A54401CC0B20828F9D3002286
:10722000204603F043FB08E0BAF1000F02D0A07B38
:10723000C043A073A079C043A07109490B980A68A4
:1072400002604A684260098901812A46494604A8C9
:1072500000F008F8012079E7F4170020180000205A
:10726000611900202DE9F74F1C4F93468846786836
:1072700000F038F80BEB0B113E468D19DFF860A0DB
:1072800005F108044FF0FF0906F26D160A2811DA1D
:107290004FEA58015A46009800F0EAF820461121BA
:1072A000FDF761FB9AF80210294481F8089078688C
:1072B000401C0BE020461121FDF755FB9AF8021007
:1072C000294481F80890796801EB0800786003B0E0
:1072D0003146BDE8F04F00F031B90000F41700204E
:1072E0001800002010B504460020024601210C427F
:1072F00000D0401C521C4900152AF8DB10BD0021AB
:1073000003460122134203D1491C52001529F9D327
:10731000C1F1140070477FB50023009301930293DD
:107320006C460393DD0021FA05F5C3F107065B1CEB
:10733000A555032BF6D352F8021F02915168039111
:10734000002102AA635C555C2B434354491C082965
:10735000F8D37FBD2DE9FF470027214D9046894690
:10736000009701970297039718B1102028701121F8
:1073700002E008202870092169701A4EA8700024C4
:1073800004EB0410304408301121FDF7ECFA641CC2
:10739000152CF5D37760142413482A784946FDF755
:1073A000C9FA1149D8F8002011310D460A60D8F801
:1073B00004204A60B8F808000881706800F0BEF840
:1073C00022464FF48011684600F052F87068294652
:1073D000401C706000F0B2F804B00120BDE8F087F6
:1073E00018000020F4170020501900202DE9FF415B
:1073F00005460E461AA005F1080490E80E00C06884
:10740000CDE90012CDE902302868A860686806F16D
:107410000807E86008223946204603F09BFF002257
:107420003146204603F042FA08223946204603F04E
:1074300091FF10226946304603F08CFF082239463E
:10744000284603F087FF00223146284603F02EFA33
:1074500008223946284603F07DFFBDE8FF81000081
:10746000C0C0C0C000000000C0C0C0C0000000001C
:107470002DE9F74F0E46824600F1080B294F4CE0EC
:10748000294A31465046FFF746FF3046FFF737FF9F
:1074900000EBD07121F00101411A00EB001000EB6C
:1074A00007080298CCB200EB0010C11908F10805DA
:1074B00008F1100908315046FFF798FF7868FFF788
:1074C0001EFF00EBD07121F00101401A7968C0B2B3
:1074D00021B190F0010001D084F0010474B1DAF818
:1074E0000020C9F80020DAF80410C9F80410DBF80D
:1074F00000102960DBF80400686005E00B492846AD
:107500000A785146FDF716FA5046FFF7DDFD074AA7
:107510007608927808EB02010872002EB0D1BDE81F
:10752000FE8F0000F41700206119002018000020D1
:10753000C1F1140201219140084370474872020AC8
:107540000A72CA79C0F3074002F0E0020243CA712E
:107550007047000010B5134C2068017A022904D04E
:10756000042902D0062905D015E0FEF7B9FC2068F1
:10757000007A11E04178052909D10178490606D140
:10758000C07801F061FC08480068006A804707483D
:10759000006880688047082021680872BDE81040B4
:1075A00000F06ABC18020020200200201C0200200B
:1075B000F0B500230A24302537261F4610E0B4EB2F
:1075C000107F02D905EB107C01E006EB107C01F87E
:1075D00013C001EB430C00015B1C8CF80170DBB2A3
:1075E0009342ECD3F0BD00000448817A044809B10D
:1075F000052100E00121016070470000540B0020CC
:10760000080200202DE9F04FFF4AFE4CDFF8FCB3E2
:10761000107889B0FE499BF86E80012891F86E5071
:10762000FC4991F86E9002D000287DD005E1DFF88A
:10763000E8A3BF218AF80010F348C0783228A9F1E6
:10764000010072D0FDF7C5F96FF00202FDF7AAF94B
:1076500003F0A8F8FDF7CEF9C6B2681EFDF7B9F938
:107660006FF00202FDF79EF903F09CF8FDF7C2F9F6
:10767000C7B2A8F10100FDF7ACF96FF00202FDF707
:1076800091F903F08FF8FDF7B5F900F0FF08F11953
:107690004144542000EBC10546EA070050EA0800C7
:1076A000C4D0B9F1000F7CD0DC4801F071FBD9499E
:1076B000DA4891F86E20491C521E01F081FBD8492E
:1076C000D64800F059FEDFF84893D54899F86E1077
:1076D00014300690002973D0D04801F059FB99F876
:1076E0006E2009F10101521ECC4801F069FBCB4824
:1076F000069900F041FEC54890F86E10C848283041
:107700000790002965D0C54801F042FBBF49C34836
:1077100091F86E20491C521E01F052FBBF48079998
:1077200000F02AFEBFA001E0E7E111E0016821605E
:107730004168616000892081E81FA070DFF8D4B241
:10774000000AE0709BF86E0060B3401EA0714BE031
:10775000FDF73FF96FF00302FDF724F903F022F87B
:10776000FDF748F9C6B2681EFDF733F96FF0030262
:10777000FDF718F903F016F8FDF73CF9C7B2A8F1C8
:107780000100FDF726F96FF00302FDF70BF903F096
:1077900009F8FDF72FF900F0FF08F11941445420D2
:1077A00002E004E01EE00BE000EB011574E79AF83C
:1077B000001001F0F6018AF80010143DADB282E726
:1077C0009AF8001001F0ED018AF80010143DADB2F6
:1077D00091E79AF8001001F0DB018AF80010143DDF
:1077E000ADB29FE737206071894890F86E0008B10C
:1077F000401EE071854890F86E0008B1401E20726E
:1078000085480078DFF80092A07299F802003128CC
:1078100002D0302803D008E0FEF7F0F905E010228E
:1078200009F104018248FDF785F899F80300302832
:1078300003D0312814D032286FD00A25FF222946E0
:107840002046FDF789F841F288322946204602F0A9
:1078500045FA2946204603F079F909B0BDE8F08FD2
:10786000734A0023083272490BF10100009203F0C1
:107870004FFD012012E00BEBC90AAAF107010AF142
:107880000100082203F066FD0AF1010000236849A7
:10789000009A03F03DFD09F1010080B28146B0423B
:1078A000E9D3F2000BF1010104F10B00FDF742F8FE
:1078B000DFF85CB100235E490BF10100009A03F090
:1078C00027FD012012E00BEBC90AAAF107010AF11A
:1078D0000100082203F03EFD0AF101000023544993
:1078E000009A03F015FD09F1010080B28146B8420B
:1078F000E9D304EBC6000190FA000B300BF1010153
:10790000FDF718F8DFF804B1002349490BF1010035
:10791000009A03F0FDFC012013E023E00BEBC90A01
:10792000AAF107010AF10100082203F013FD0AF190
:10793000010000233E49009A03F0EAFC09F101002E
:1079400080B281464045E9D301984FEAC80200EB76
:10795000C7000B300BF10101FCF7ECFFB8F1000F91
:107960007FD195E02D4A802160323148FDF720FF1C
:107970004FF0000AE6B13001CDF80CA002460890A5
:1079800004F10B00CDF808A0CDF810A00BF1010117
:10799000CDF814A08146FCF7CDFF012102A81F4BB2
:1079A000CDE90001494660330846089AFDF707FB18
:1079B000EFB104EB061016494FEA071B0B30CDF868
:1079C00008A0CDF80CA0CDF810A081465A46491C5D
:1079D000CDF814A0FCF7AEFF012102A8CDE900010B
:1079E0000E4B484660335A464946FDF7E8FAB8F16F
:1079F000000F4DD0CDF808A0CDF80CA0CDF810A008
:107A000018E02EE0662000203C02002044250020E3
:107A1000D524002066240020170000204003002009
:107A200094040020FF020000803F000000000000DE
:107A30007C020020F0194FEA081904EB00100B300B
:107A400080464A464949CDF814A0FCF773FF01214E
:107A500002A8CDE900014046454B4A464146FDF7A4
:107A6000AEFA04EB0508A8F1210014220799FCF7EF
:107A700061FF4FB1A8F1350014220699FCF75AFFB7
:107A8000D6B1A8F1490012E0B6B1A8F135000EE078
:107A900057B16719A7F1210014220699FCF74AFF94
:107AA00056B1A7F1350002E036B1601921383049EE
:107AB0001422F431FCF73EFF2E480078000608D56A
:107AC0002D486119426A41F80D2D826A4A60808D05
:107AD0000881002104200A46EE1E05E0235C59407F
:107AE0001A44401CD2B280B2B042F7DB601900F8F1
:107AF000031D032142708170A5E608EB050109F121
:107B000001000D18FF2020701C4F1D4A9BF86E00CD
:107B10005E460D2110B1154B9B1EC15497F86E00A7
:107B200010B1164B5B1EC15492F86E00904610B116
:107B3000134A521E81540D4916F86E2F491E601CBF
:107B4000FCF7F8FEB94697F86E203178671CC81923
:107B50000A49FCF7EFFE317899F86E0098F86E202C
:107B6000084438440649FCF7E5FE6CE6452500204C
:107B7000A0030020170000203C020020D524002094
:107B800066240020FEE770477047000070B50F23A1
:107B9000C278017801244FF0E025DAB1124A126868
:107BA00002F4E062C2F5E062120AC2F10406D340B8
:107BB0004278B24086781E400C4B16433201CA54BC
:107BC000007800F01F018C40400905EB8000C0F8F0
:107BD000004170BD01F01F008440480905EB8000A2
:107BE000C0F8804170BD00000CED00E000E400E052
:107BF0000249084302490860704700000000FA0586
:107C00000CED00E070B52F4D296808784C784206DD
:107C100006D000F07F00012828D002282BD035E0C4
:107C2000092C06D0052C07D0032C0ED0012C14D023
:107C30002CE001F05DFC28E0C8787F282ED88878F9
:107C400060BB888850BB887A27E0C87801281DD19E
:107C50008888D8B901F068FC17E0C878012815D1E8
:107C6000888898B9487A80060AD40FE00B2C0DD189
:107C700001F0ACFC09E0012C02D0032C03D005E09C
:107C800001F042FB01E001F061FC58B10E492046D1
:107C9000096849698847032802D018B108200DE017
:107CA00009200BE0094A062000211268084B92B215
:107CB00003EB42025160074A3021118029680872A3
:107CC00070BD0000180200201C020020505C004023
:107CD000006000402802002010B50F4C2068007A98
:107CE000022811D004280FD0032804D0052802D080
:107CF000072805D008E0FEF74DF92068007A04E077
:107D000006480068C0688047082021680872BDE8FE
:107D1000104000F0B1B80000180200201C02002042
:107D2000064B521C520803EB410105D031F8043BCD
:107D300020F8023B521EF9D170470000006000405D
:107D400002490A6842EA80000860704700700040FB
:107D5000034A0146002052680A4200D001207047C1
:107D600000700040F8B541780478CA0104F00203BD
:107D700042EA4312837803F0100542EA450203F019
:107D8000080542EA4507C27802F008052F4304259A
:107D900005EA91063743022606EAD20C47EA0C07A9
:107DA00047EAD3178DF8007004F0800701F0020C49
:107DB00047EA4C1703F0020C47EA0C174FF0100C7F
:107DC0000CEA920C47EA0C0704F0080C47EA0C078F
:107DD00005EA131C47EA0C0702F0020C47EA0C07FD
:107DE000C1F3801C47EA0C078DF8017004F04007CE
:107DF0007F0004F0010C47EA8C1703F0010C47EAFE
:107E00004C1701F0040C47EA8C0702F0010C47EA1A
:107E1000CC0705EAD20C47EA0C0706EA141C47EA2D
:107E20000C0747EAD1178DF8027003F0200701F024
:107E3000080CBF0047EACC0702F0040C47EACC0765
:107E400004F0040C47EA8C0703F0040347EA4303F9
:107E500005EAD1010B4306EAD4010B4343EAD211F0
:107E60008DF8031000216A46535C4354491CC9B283
:107E70000429F9D3F8BD70470C4810B590F82C10C0
:107E8000002001F011F80A480068007A082802D0A2
:107E9000092809D006E007494FF4805008800649B8
:107EA00010200880002010BD012010BD940100208A
:107EB00018020020260200202802002010B5012010
:107EC00001F0F6FD0648012101600021054A01602C
:107ED000031D19604FF4E05111800160002010BDB6
:107EE000405C004024020020044A0029D16901D0EE
:107EF000014300E08143D16170470000001002405F
:107F0000044A0029116901D0014300E08143116155
:107F10007047000000100240044A0029916901D016
:107F2000014300E08143916170470000001002406E
:107F3000044A0029D16801D0014300E08143D160A7
:107F4000704700000010024010B500F037F84FF401
:107F50008034204600F0C6F800F012F916490128D6
:107F6000087022D1002000F0B3F8002000F0DEF805
:107F7000A01100F0D1F80220FEF7D8FE1020FEF785
:107F8000A1FE4FF4E011204600F0E0F8012000F0DF
:107F9000D7F8392000F07CF80028FAD0022000F051
:107FA000DFF800F08DF80828FBD10121BDE8104072
:107FB0000D20FFF7B1BF0000080100200C48016848
:107FC00041F00101016041680A4A114041600168C5
:107FD000094A11400160016821F480210160416873
:107FE00021F4FE0141604FF41F01816070470000E1
:107FF000001002400000FFF8FFFFF6FE30B5204AF7
:108000005168204B11F00C0103D0042901D008293C
:1080100001D0036012E05168536801F470114FF011
:10802000020413F4803F04EB914102D053689B0398
:1080300001D5154B00E0134B5943016051680F23E4
:1080400003EA1111114B5C5C0168E1404160546826
:10805000072505EA14241C5D21FA04F484605468A1
:1080600005EAD4241B5DD940C1605268032303EAAA
:108070009232064B1B1F9A5CB1FBF2F1016130BDDD
:108080000010024000127A0000093D00F8000020B4
:10809000034600205909094A01290AD002290AD0B9
:1080A000516A03F01F02012393400B4200D00120CC
:1080B00070471168F5E7116AF3E70000001002400D
:1080C0000248406800F00C007047000000100240B9
:1080D000034A516821F0F0010143516070470000EC
:1080E000001002400B490A6822F480320A600A68D4
:1080F00022F480220A60B0F5803F07D0B0F5802FCF
:1081000003D1086840F4A02008607047086840F474
:108110008030F9E700100240034A516821F4E06121
:10812000014351607047000000100240034A51684B
:1081300021F4605141EAC0005060704700100240D5
:10814000014908667047000000004242034B5A682C
:10815000084322F47C12104358607047001002401C
:10816000034A516821F00301014351607047000048
:10817000001002400149086070470000D8004242E8
:1081800018B500204FF4A06400903120FFF780FF65
:108190000099491C0091A14201D00028F5D031205E
:1081A000FFF776FF002800D0012018BD10B502208F
:1081B00000F020F8002813D04FF40030FEF7DCFB6D
:1081C0000120FFF7C5FD10B10120FFF7B9FD00F058
:1081D00021F8022000F006F8BDE8104000F01AB8BF
:1081E00010BD000002490A8882430A8070470000DF
:1081F0000428004006490988C2B21140044A121FEF
:108200001288024202D009B1012070470020704755
:1082100004280040024801888906FCD57047000008
:108220000428004070B50024FF25064EFCF770FBC3
:1082300090FBF5F105FB11003055641CE4B2082CED
:10824000F4D370BD0F00002010B5002304E010F837
:10825000014BCC545B1C9BB29342F8D310BD000081
:1082600070B590B040216846FCF77DFB402269461E
:108270001748FFF7E9FF174E00246D46154905EB37
:10828000C40001233246083903F042F8641CE4B20A
:10829000082CF3D3402269460F48FCF74BFB002023
:1082A000024611462B5C401C59401A44C0B2D2B25F
:1082B0003E28F7D3084890F83E308B4206D190F81C
:1082C0003F00904202D1012010B070BD0020FBE7BA
:1082D00000F800089CDB00083C02002070B51C4C34
:1082E000072800D020702078062604251949062882
:1082F0002CD2DFE800F00306090E162000F02CF85F
:1083000024E000F029F80AE00220607003202070C9
:1083100070BD6078401E607060780028F8D12570CC
:1083200070BD086880B240F0100008600520207021
:108330000A20607070BD6078401E60706078002810
:10834000F8D1086880B220F010000860267070BD77
:108350000D020020405C004010B5064C206880B241
:1083600020F004002060FFF73FF94FF43F40206009
:1083700010BD0000405C00402DE9FC410546C0698D
:108380000C46C0F17802402A00D9403AD5E90010E5
:108390004FF0FF2606EA3123370A07EA31610B4323
:1083A00006EA302107EA30600143CDE900130F49A6
:1083B000284600F005FD08226946284600F000FD29
:1083C000002C11D0002105EB8102491C9068000EA1
:1083D00020709068000C60701089000AA070107AFC
:1083E000E070241D0529EEDBBDE8FC81C1DD00083D
:1083F0002DE9F04FD2B00F234FF0FF256A462E0A29
:1084000010C905EA342706EA3464274380C25B1E9C
:10841000F6D56D4602A908AB0DAC3F2680CC53F8CB
:1084200004CB761E87EA0C0751F804CB87EA0C07C9
:1084300055F804CB87EA0C074FEAF77780C2EDD5F1
:10844000D0F808C0C56851950469416983695093A3
:10845000009E8B4606EBFC6784EA01062E404E40E8
:108460003344FE18FF4B4FEAB505F71885EA0408B8
:10847000019E08EA0C0888EA040806EBF766414406
:108480003144CE18029AE6464FEABC0102EBF66C84
:1084900081EA05023A406A402244A24662444FEA19
:1084A000B70402EB030C039F049A07EBFC6884EA11
:1084B000010737404F403D444544EF184FEAB605A9
:1084C00002EBF76685EA040202EA0C0262401144FC
:1084D0003144CE184FEABC01DDF814C005AA0CEBFC
:1084E000F66881EA050C0CEA070C8CEA050C64447A
:1084F000444404EB030C4FEAB704069F07EBFC6807
:1085000084EA010737404F403D444544EF184FEAA5
:10851000B60585EA0408079E08EA0C0888EA0408FC
:1085200006EBF76641443144CE184FEABC01DDF852
:1085300020C048320CEBF66881EA050C0CEA070C07
:108540008CEA050C6444444404EB030C4FEAB70482
:1085500084EA0108099F08EA060888EA010807EB8F
:10856000FC6745443D44EF184FEAB60585EA040828
:1085700052F8346C08EA0C0888EA040806EBF7663F
:1085800041443144CE184FEABC0181EA050808EAAB
:10859000070852F830CC88EA05080CEBF66C444426
:1085A000644404EB030CA9464FEAB70452F82C5C70
:1085B00084EA0107374005EBFC684F4007EB0905EB
:1085C000454405EB030852F8285C4FEAB60605EB74
:1085D000F86786EA040505EA0C0565402944394434
:1085E0004FEABC05CF1885EA060C52F8241C0CEAA9
:1085F000080C8CEA060C01EBF7616444214401EBA2
:10860000030C52F8204C4FEAB80181EA050808EA49
:10861000070888EA050804EBFC6446443444E6187D
:1086200052F81C3C4FEAB70403EBF66784EA0103F7
:1086300003EA0C034B402B443B448A4FDD194FEABD
:10864000BC0352F818CC0CEBF56883EA040C0CEA76
:10865000060C8CEA040C6144414401EB070C4FEA20
:10866000B60152F8146C06EBFC6881EA03062E4052
:108670005E4034444444E61952F8104C4FEAB505C4
:1086800004EBF66885EA010404EA0C044C40234438
:108690004344DC1952F80C7C4FEABC0307EBF46C42
:1086A00086EA03076F4039440CEB01076E4952F824
:1086B00008CC0F444FEAB6060CEBF76884EA060CC8
:1086C0008CEA030C654445444FEAB40452F804CCE8
:1086D00087EA04080D4488EA06080CEBF56C43446D
:1086E00063444FEAB70C176885EA0C080B4488EA24
:1086F000040807EBF36746443E4477184FEAB50594
:10870000566883EA050888EA0C0806EBF7664444D5
:10871000344466184FEAB304936887EA040888EA89
:10872000050803EBF663C44463444FEAB70CD7680B
:1087300086EA0C080B4488EA040807EBF367454413
:108740003D444FEAB607166983EA07080D4488EAF4
:108750000C0806EBF566444434444FEAB30685EA58
:1087600006080C4488EA0708C44453694FEAB50573
:1087700003EBF463634484EA05080B4488EA0608C3
:108780004744D2F818C04FEAB4040CEBF36C6744CA
:1087900083EA04080F4488EA05084644D2F81CC05E
:1087A0004FEAB3030CEBF76C664487EA03080E4408
:1087B00088EA04084544D2F820C04FEAB7070CEB1A
:1087C000F66C654486EA0708D2F824C00D4488EAAE
:1087D00003080CEBF56C444464440C444FEAB606C1
:1087E00085EA060888EA07084344D2F828C04FEA19
:1087F000B5050CEBF46C634403EB010C84EA05084B
:10880000D36A88EA060803EBFC6347443B44176BD2
:108810000B444FEAB40407EBF3688CEA04076F409B
:108820003E444FEABC074644D2F834C00E440CEB39
:10883000F66883EA070C8CEA040C65444544D2F8D8
:1088400038C00D444FEAB3030CEBF56886EA030C1D
:108850008CEA070C644444440C444FEAB606D2F850
:108860003CC003E09979825AA1EBD96E0CEBF46815
:1088700085EA060C8CEA030C67444744D2F840C0F2
:108880000F444FEAB5050CEBF76884EA050C8CEA57
:10889000060C6344434403EB010C516C4FEAB404EF
:1088A00001EBFC6344EA0501394004EA050841EAAA
:1088B000080131440B44FE49A9465E184FEAB7034C
:1088C000956C43EA040705EBF66807EA0C0703EA30
:1088D00004052F4307EB090545446F18A1464FEAED
:1088E000BC05D46C45EA030C04EBF7680CEA060CF3
:1088F00005EA03044CEA040C0CEB0904444404EBC1
:10890000010C99464FEAB604136D44EA050603EBE1
:10891000FC683E4004EA05031E4306EB090343449A
:108920005E18A9464FEAB703556D43EA040805EB04
:10893000F66708EA0C0803EA040548EA050808EBAC
:1089400009053D446F18A1464FEABC05946D45EA00
:10895000030C04EBF7680CEA060C05EA03044CEA86
:10896000040C0CEB0904444404EB010C99464FEA57
:10897000B604D36D44EA050603EBFC683E4004EA06
:1089800005031E4306EB090343445E18A9464FEA5C
:10899000B703156E43EA040705EBF66807EA0C0710
:1089A00003EA04052F4307EB090545446F18A14668
:1089B0004FEABC05546E45EA030804EBF76C08EA7D
:1089C000060805EA030448EA040808EB09046444BD
:1089D00004EB010C99464FEAB604936E44EA05068F
:1089E00003EBFC683E4004EA05031E4306EB090363
:1089F00043441944A846D36E4FEAB70503EBF1662A
:108A000045EA040303EA0C0305EA04073B43434435
:108A10001E44A74BA146F7184FEABC06146F46EA5E
:108A2000050C04EBF7680CEA010C06EA05044CEAB5
:108A3000040C0CEB0904A9464444556F1C444FEA4E
:108A4000B10105EBF46841EA060C0CEA070C01EAF7
:108A500006054CEA050C0CEB0905454405EB030C37
:108A6000B1464FEAB705966F45EA010706EBFC6889
:108A7000274005EA0106374307EB090646448946C5
:108A80004FEAB404D16F1E4401EBF66744EA0508CF
:108A900008EA0C0804EA050148EA010808EB0901A4
:108AA0003944CF18A9464FEABC01D2F8805041EAB8
:108AB000040C05EBF7680CEA060C01EA04054CEA25
:108AC000050C0CEB0905454405EB030CA1464FEAE8
:108AD000B605D2F8844045EA010604EBFC683E4046
:108AE00005EA0104264306EB09044444E6188946D6
:108AF0004FEAB704D2F8881044EA050801EBF6679C
:108B000008EA0C0804EA050148EA010808EB090133
:108B10003944CF18A9464FEABC01D2F88C5041EA3B
:108B2000040C05EBF7680CEA060C01EA04054CEAB4
:108B3000050C0CEB0905454405EB030CA1464FEA77
:108B4000B605D2F8904045EA010604EBFC683E40C9
:108B500005EA0104264306EB090444442344D2F801
:108B600094604FEAB70406EBF3678CEA04066E40A4
:108B700031447E184F494FEABC07D2F898C00E44E2
:108B80000CEBF66883EA070C8CEA040C6544454458
:108B9000D2F89CC00D444FEAB3030CEBF56886EAAB
:108BA000030C8CEA070C64444444D2F8A0C00C4483
:108BB0004FEAB6060CEBF46885EA060C8CEA030C67
:108BC00067444744D2F8A4C00F444FEAB5050CEB04
:108BD000F76884EA050C8CEA060C63444344D2F837
:108BE000A8C00B444FEAB4040CEBF36887EA040C0A
:108BF0008CEA050C66444644D2F8ACC00E444FEAF9
:108C0000B7070CEBF66883EA070C8CEA040C6544A2
:108C10004544D2F8B0C00D444FEAB3030CEBF568FD
:108C200086EA030C8CEA070C644444440C44D2F8F2
:108C3000B4C04FEAB6060CEBF46885EA060C8CEA81
:108C4000030C67444744D2F8B8C00F444FEAB50557
:108C50000CEBF76884EA050C8CEA060C6344434489
:108C6000D2F8BCC00B444FEAB4040CEBF36887EABB
:108C7000040C8CEA050C66444644D2F8C0C00E448D
:108C80004FEAB7070CEBF66883EA070C8CEA040C92
:108C900065444544D2F8C4C00D444FEAB3030CEB1D
:108CA000F56886EA030C8CEA070C6444444403E04C
:108CB000DCBC1B8FD6C162CAD2F8C8C00C444FEAD4
:108CC000B6060CEBF46885EA060C8CEA030C6744E4
:108CD0004744D2F8CCC00F444FEAB5050CEBF76817
:108CE00084EA050C8CEA060C63444344D2F8D0C0F5
:108CF0000B444FEAB4040CEBF36887EA040C8CEAEB
:108D0000050C66444644D2F8D4C00E444FEAB70777
:108D10000CEBF66883EA070C8CEA040C65444544C6
:108D2000D2F8D8C00D444FEAB3030CEBF56886EADD
:108D3000030C8CEA070C64444444D2F8DCC00C44B5
:108D40004FEAB6060CEBF46885EA060C8CEA030CD5
:108D500067444744D2F8E0200F444FEAB50502EBE0
:108D6000F76C84EA050272401A446244114471446B
:108D7000816051993944C1600AEBB40101610BEB88
:108D80000501416150993144816152B0BDE8F08FD5
:108D90000021C0E90011074981600749C160054908
:108DA000C94301610449C94341610449816100210A
:108DB000C16170470123456789ABCDEFF0E1D2C3B4
:108DC0002DE9F0474FF0000816460F460546C1460C
:108DD00000F1200A21E0E869C0F14004B44200D962
:108DE0003446504422463946FBF7A4FDD5E900300D
:108DF000E2009A1840EB0900C5E90020E869361B3B
:108E000020442744E861402807D151462846FFF70F
:108E1000EFFA4FF00108C5F81C90002EDBD1B8F135
:108E2000000F05D0BDE8F0474FF4B87001F0ABBCBF
:108E3000BDE8F08770470000024920F00700086095
:108E400070470000505C0040F0B50D490D4E48F6EB
:108E50008F770D78002148F2800C09E0CAB206EB4A
:108E600082031C683C40144344EA0C041C60491C07
:108E7000A942F3D3034940F080004C310860F0BDB3
:108E80006C010020005C0040054A21F001011268DD
:108E900092B202EBC000034A02EB400081607047CF
:108EA000505C0040006000400D4A12683E2992B2BA
:108EB00002EBC0000B4A02EB400209D94809C9067F
:108EC00001D1401E80B24FF4004141EA802004E00D
:108ED0004808C90700D0401C80021060704700009D
