:020000040800F2
:10340000681F00207D350008576E0008095E00081F
:10341000556E0008EF4400088D7F00080000000092
:10342000000000000000000000000000897B000890
:10343000454B0008000000008B6F0008F37D00087A
:10344000973500089735000897350008973500082C
:10345000973500086559000897350008395A000863
:10346000973500089735000897350008973500080C
:10347000973500089735000897350008197F000830
:103480001D7F0008973500080000000097350008F0
:1034900097350008973500089735000897350008DC
:1034A000973500089735000897350008497F0008D0
:1034B0009735000800000000973500080000000064
:1034C0009735000800000000973500089735000880
:1034D00097350008897F0008973500080000000034
:1034E0000000000000000000973500089735000834
:1034F000973500089735000897350008973500087C
:103500009735000800000000000000009735000813
:1035100000000000000000000000000000000000AB
:10352000000000000000000000000000000000009B
:10353000000000000000000000000000000000008B
:10354000000000000000000000000000000000007B
:1035500000000000000000009735000897350008C3
:103560009735000897350008DFF80CD000F0ECF92B
:1035700000480047958A0008681F002006488047D9
:1035800006480047FEE7FEE7FEE7FEE7FEE7FEE748
:10359000FEE7FEE7FEE7FEE7F97D00086935000873
:1035A0000649074A0868504343F23902104408604C
:1035B000400870470149086070470000F001002092
:1035C0006D4EC64140EA01039B0703D009E008C9DC
:1035D000121F08C0042AFAD203E011F8013B00F8D8
:1035E000013B521EF9D27047D2B201E000F8012B24
:1035F000491EFBD270470022F6E710B513460A4673
:1036000004461946FFF7F0FF204610BD30B50546C9
:103610002A460B4612F8010B13F8014B08B1A042E1
:10362000F8D01CB1002802D06D1CF1E7284630BD4F
:1036300010B5044604E00B7800F8013B03B1491CC7
:10364000521EF8D2204610BD421C10F8011B002962
:10365000FBD1801A704730B504460020034600E0D5
:103660005B1C934203D2E05CCD5C401BF8D030BDC4
:1036700070B521F0004303430CD0C1F30A55002478
:10368000D5EB040564EB0403D617AD1AB34102DB96
:103690000020014670BD201841EB025170BD0EB5EF
:1036A000C10F80EAE0700844CA07002140F23343AA
:1036B0008DE80E000A460B4600F038F803B000BD56
:1036C000C1F30A5210B5C1F3130140F2FF3341F4C4
:1036D00080119A4201DA002010BD40F233439A4231
:1036E000A2F2334203DC524200F003F810BD9040D6
:1036F00010BD202A04DB203A21FA02F00021704795
:1037000021FA02F3D040C2F1200291400843194649
:10371000704710B5002B08DA401C41F100019218E7
:103720005B411A4301D120F0010010BD2DE9F04D9D
:1037300092469B4611B1B1FA81F202E0B0FA80F2F2
:103740002032904600F012F904460F4640EA0A0083
:1037500041EA0B0153465A46084303D120463946F5
:10376000BDE8F08D114653EA010015D0C8F14002C2
:103770005046FFF7BEFF05460E46504659464246A4
:1037800000F0F4F8084301D0012000E000200543D8
:1037900046EAE0762C4337430A984FEA4453A0EBBD
:1037A00008004FEAD4240A304FF0000244EA47549C
:1037B0004FEAD72502D500200146D1E701051019AF
:1037C0006941DDE9084500196941BDE8F04DA0E710
:1037D0002DE9FE4F804681EA0300C00F0C460090A1
:1037E00021F0004123F00045B8EB0200A94105D2C9
:1037F0004046214690461C460B46024623F00040B8
:10380000104304D14046214603B0BDE8F08F270D98
:10381000C7F30A00C3F30A510290401A01904028EE
:1038200066DAC3F3130040F4801B0098924620B17F
:103830000023D2EB030A63EB0B0B01985946C0F14E
:103840004002504600F092F806460D465046594652
:10385000019A00F09AF810EB08006141002487EA11
:10386000115284EAE7731A433BD0009A3AB3019AA3
:10387000012A4FEA075210DC001B61EB02014FF0F6
:10388000004202EA0752CDE90042001C41F58011D6
:1038900032462B46FFF74AFFB6E7001B61EB0201F9
:1038A000001C41F5801300185B412018A2F5001799
:1038B00047EB030140EAD570B6196D4111E06D0880
:1038C0004FEA360645EAC0754FEA0752001B61EB26
:1038D0000201001C41F5801149084FEA300000192F
:1038E000514132462B4603B0BDE8F04FFFF711BF00
:1038F0000098012240000023D0EB020263EBE0734A
:10390000009821464FEAE074B8EB000061EB040137
:10391000E9E783F000435BE781F0004158E70000EE
:1039200030B5002904DB4FF00044404264EB010154
:10393000002B04DB4FF00044524264EB0303994236
:1039400008BF904230BD0000064C074D06E0E0681D
:1039500040F0010394E8070098471034AC42F6D3D6
:10396000FFF706FE70CC000890CC0008202A04DB8C
:10397000203A00FA02F1002070479140C2F1200382
:1039800020FA03F3194390407047202A06DBCB1737
:10399000203A41FA02F043EAE07306E041FA02F30A
:1039A000D040C2F12002914008431946704770B5DB
:1039B00001EB020410F8015B15F0070301D110F8C8
:1039C000013B2A1106D110F8012B03E010F8016B1E
:1039D00001F8016B5B1EF9D12B0705D40023521EA1
:1039E0000FD401F8013BFAE710F8013B02F10202A3
:1039F000A1EB030303E013F8015B01F8015B521E26
:103A0000F9D5A142D6D3002070BD2DE9FF47064667
:103A1000DDE90C70994614460D46E846B0B94EE013
:103A200000204246315C3B5C59401154401C102838
:103A3000F8D34A462946684600F020FA1022294663
:103A40003846FFF7BFFD103C10361035102CE7D27A
:103A5000002C51D00020414604E0325C3B5C5A40CF
:103A60000A54401CA042F8D302E0385D0855641C9B
:103A7000102CFAD369464A46084600F0FFF9102296
:103A800069462846FFF79EFD31E010223146684620
:103A9000FFF798FD4A462946304600F02FF80020EF
:103AA000295C3A5C51402954401C1028F8D310225C
:103AB00069463846FFF786FD103C10361035102C4D
:103AC000E3D2002C18D0102231466846FFF77AFD69
:103AD00069464A46084600F011F80020424604E0D4
:103AE000115C3B5C59402954401CA042F8D3102281
:103AF00069463846FFF766FDBDE8FF872DE9F84FB8
:103B0000C3780478857883EA04634478D84E240423
:103B100084EA052463401468857983EA0409C3793B
:103B2000047983EA04634479240484EA0524634025
:103B30005468857A83EA040AC37A047A83EA0464BF
:103B4000437A1B0483EA05235C409368057B5C4051
:103B5000C37B83EA0565437B807B1B0483EA0020EB
:103B60004540D0684540D2F8F00040100090DFF8A2
:103B700004B34FEA19630BF58060C5F307475BF8A0
:103B8000233050F827000BF5006EC4F3072743409D
:103B90005EF827000AF0FF07C9F3074C56F82770B4
:103BA000CAF307487840434010694FEA1A67434018
:103BB0005BF827000BF5806757F82C70C5F3072CCE
:103BC00078405EF82C7004F0FF0C56F82CC087EAA1
:103BD0000C07784057694FEA146C78405BF82C70FA
:103BE0000BF5806CC4F307445CF828C0C9F30728C0
:103BF00087EA0C075EF828C005F0FF0856F8288011
:103C00008CEA080C87EA0C07D2F818C087EA0C0780
:103C10004FEA156C5BF82C500BF5806C5CF8244077
:103C2000CAF3072C65405EF82C4009F0FF0C56F8EB
:103C30002CC084EA0C046540D46920326540009CA5
:103C4000641E00946DD04FEA136CC5F307485BF80F
:103C50002C400BF5806CDE465CF828C00BF5006B41
:103C6000C7F3072884EA0C045BF828C000F0FF08BB
:103C700056F828808CEA080C84EA0C04D2F800C0BC
:103C8000C3F3074884EA0C094FEA106C5EF82C4035
:103C9000ABF5806C5CF828C0C5F3072884EA0C04F7
:103CA0005BF828C007F0FF0856F828808CEA080C5B
:103CB00084EA0C04D2F804C0C0F3074884EA0C0A72
:103CC0004FEA176CC7F307475EF82C40ABF5806CE2
:103CD000C0F307205CF828C0C3F3072884EA0C046B
:103CE0005BF828C005F0FF08DBB256F828805BF8C7
:103CF00020008CEA080C84EA0C04D2F808C056F8BC
:103D0000233084EA0C044FEA156C58405EF82C50BE
:103D1000ABF5806C5CF827707D404540D06845402D
:103D200025E7554C1E0EC5F3074C54F8266054F891
:103D30002CC006F07F460CF47F0C86EA0C06C7F315
:103D4000072C34F82CC00CF47F4C86EA0C0600F0EB
:103D5000FF0C14F82CC086EA0C06D2F800C086EAE4
:103D60000C064FEA166C81F800C04FEA164C81F839
:103D700001C04FEA162C81F802C0CE70060EC3F3C4
:103D8000074C54F8266054F82CC006F07F460CF41B
:103D90007F0C86EA0C06C5F3072C34F82CC00CF413
:103DA0007F4C86EA0C0607F0FF0C14F82CC086EA5C
:103DB0000C06D2F804C086EA0C064FEA166C81F8AD
:103DC00004C04FEA164C81F805C04FEA162C81F862
:103DD00006C0CE713E0EC0F3074C54F8266054F86E
:103DE0002CC006F07F460CF47F0C86EA0C06C3F369
:103DF000072C34F82CC00CF47F4C86EA0C0605F036
:103E0000FF0C2D0E14F82CC086EA0C06D2F808C060
:103E100086EA0C064FEA166C81F808C04FEA164C89
:103E200081F809C04FEA162C81F80AC0CE72C7F398
:103E3000074654F8255054F8266005F07F45C0F336
:103E4000072006F47F0634F82000754000F47F4018
:103E50004540D8B214F820004540D0684540280EAF
:103E60000873280C4873280A8873CD73BDE8F88F4F
:103E7000DCC00008DCB40008DCC400082DE9F84F01
:103E8000C3780478857883EA04634478D84E2404A0
:103E900084EA052463401468857983EA0409C379B8
:103EA000047983EA04634479240484EA05246340A2
:103EB0005468857A83EA040AC37A047A83EA04643C
:103EC000437A1B0483EA05235C409368057B5C40CE
:103ED000C37B83EA0565437B807B1B0483EA002068
:103EE0004540D0684540D2F8F00040100090DFF81F
:103EF00004B34FEA19630BF58060CAF307475BF818
:103F0000233050F827000BF5006EC4F30727434019
:103F10005EF82700EFB2C4F3074C56F82770C5F3DC
:103F200007487840434010694FEA1A6743405BF8FE
:103F300027000BF5806757F82C70C5F3072C7840E5
:103F40005EF82C7009F0FF0C56F82CC087EA0C07BD
:103F5000784057694FEA146C78405BF82C700BF589
:103F6000806CE4B25CF828C0C9F3072887EA0C0724
:103F70005EF828C00AF0FF0856F8244056F828805A
:103F80008CEA080C87EA0C07D2F818C0C9F3074876
:103F900087EA0C074FEA156C5BF82C500BF5806C28
:103FA0005CF828C0CAF3072885EA0C055EF828C02B
:103FB0008CEA040CD46985EA0C056540009C20322B
:103FC000641E00946DD04FEA136CC0F307485BF891
:103FD0002C400BF5806CDE465CF828C00BF5006BBE
:103FE000C7F3072884EA0C045BF828C005F0FF0833
:103FF00056F828808CEA080C84EA0C04D2F800C039
:10400000C7F3074884EA0C094FEA106C5EF82C40AD
:10401000ABF5806C5CF828C0C5F3072884EA0C0473
:104020005BF828C003F0FF0856F828808CEA080CDB
:1040300084EA0C04D2F804C0C5F3074884EA0C0AE9
:104040004FEA176C5EF82C40ABF5806C5CF828C02A
:10405000C3F3072884EA0C045BF828C000F0FF08CB
:10406000C3F3074356F82880C0F307208CEA080CF6
:1040700084EA0C04D2F808C05BF8200084EA0C043F
:104080004FEA156C5EF82C50ABF5806C5CF8233071
:104090005D40FBB256F8233058404540D06845405B
:1040A00025E7554C1E0EC0F3074C54F8266054F813
:1040B0002CC006F07F460CF47F0C86EA0C06C7F392
:1040C000072C34F82CC00CF47F4C86EA0C0605F063
:1040D000FF0C14F82CC086EA0C06D2F800C086EA61
:1040E0000C064FEA166C81F800C04FEA164C81F8B6
:1040F00001C04FEA162C81F802C0CE70060EC7F33D
:10410000074C54F8266054F82CC006F07F460CF497
:104110007F0C86EA0C06C5F3072C34F82CC00CF48F
:104120007F4C86EA0C0603F0FF0C14F82CC086EADC
:104130000C06D2F804C086EA0C064FEA166C81F829
:1041400004C04FEA164C81F805C04FEA162C81F8DE
:1041500006C0CE713E0EC5F3074C54F8266054F8E5
:104160002CC006F07F460CF47F0C86EA0C06C3F3E5
:10417000072C2D0E34F82CC0C3F307430CF47F4CEE
:1041800086EA0C0600F0FF0C14F82CC086EA0C0638
:10419000D2F808C086EA0C064FEA166C81F808C00F
:1041A0004FEA164C81F809C04FEA162C81F80AC074
:1041B000CE7254F8255054F8233005F07F45C0F3F3
:1041C000072003F47F0334F820005D4000F47F40B3
:1041D0004540F8B214F820004540D0684540280E0C
:1041E0000873280C4873280A8873CD73BDE8F88FCC
:1041F000DCAC0008DCA00008DCB00008F0B500234F
:1042000050B14AB14FF48076802908D0C02906D039
:10421000B14204D0981EF0BD4FF0FF30F0BD8029B0
:104220007DD0C0297CD00E25C2F8F050C478057826
:10423000877884EA056445782D0485EA07256C4073
:104240001460C4790579877984EA056445792D0479
:1042500085EA07256C405460C47A057A877A84EA37
:104260000564457A2D0485EA07256C409460C47B7B
:10427000057B877B84EA0564457B2D0485EA072559
:104280006C40804FD460A7F5C05480297ED0C57C97
:1042900090F810C090F812E085EA0C6590F811C013
:1042A000C0294FEA0C4C8CEA0E2C85EA0C051561EE
:1042B000C57D90F814C090F816E085EA0C6590F87A
:1042C00015C04FEA0C4C8CEA0E2C85EA0C055561A2
:1042D00073D0C57E90F818C090F81AE085EA0C6596
:1042E00090F819C04FEA0C4C8CEA0E2C85EA0C05AC
:1042F0009561C57F90F81CC085EA0C6590F81DC0DB
:10430000807F4FEA0C4C8CEA00204540D561B142D9
:104310007ED1D069C0F3074554F8255001E04DE047
:104320004EE0116805F07F456940C0F30725C6B22D
:1043300054F8255034F8266005F47F0506F47F46CE
:1043400075406940050E14F82550694057F8235010
:104350005B1C6940116255684D40556296686E401D
:104360009662D1687140D162072B51D00E0E15694B
:1043700054F82660C1F3072C06F07F467540C1F360
:10438000074654F8266006F47F0600E01AE034F889
:104390002CC0C9B20CF47F4C86EA0C0614F821102C
:1043A00075404D40156351696940516395694D40B1
:1043B0006840C2E90E502032ABE730E00A2533E70F
:1043C0000C2531E7D0681168C0F30745C6B254F830
:1043D000255034F8266005F07F456940C0F3072575
:1043E00006F47F4654F8255005F47F057540694072
:1043F000050E14F82550694057F8235069401161A3
:1044000055684D4055619168694048405B1C00E02B
:1044100036E0C2E906100A2B32D01032D2E75069DA
:104420001168C0F30745C6B254F8255034F8266029
:1044300005F07F456940C0F3072506F47F4654F830
:10444000255005F47F0575406940050E14F8255088
:10445000694057F823505B1C6940916155684D4095
:10446000D561916869401162D5684D405562082B4D
:1044700006D0116969404840C2E90A101832CEE7F7
:104480000020F0BDDCC80008F8B5D3072DD102EB41
:10449000D272561000246D4623E002788DF8002079
:1044A0004278801C8DF801200022AB5CA3F141070B
:1044B000052F01D8373B08E0A3F16107052F01D88C
:1044C000573B02E0303B092B0FD8AB54521C022A59
:1044D000EBDB9DF800209DF8013043EA02120A55FB
:1044E000641CB442D9DB0120F8BD0020F8BDFEE712
:1044F000F8B5144901244C70134A20461746A2F11E
:10450000100101F0E7FD10482C38002590F8331019
:10451000808E01F01F0146BA61F31F4621463046E6
:1045200001F0A4FC084B014660333A460120009597
:1045300001F0B4FC641CE4B2304601F093FDA042EB
:10454000ECDAF8BD000000202802002010B5034678
:104550000022104602E09C5C6040521C8A42FAD362
:1045600010BD00221146C30701D0521CD2B2491C13
:104570004008C9B20829F6D3012A01D000207047AB
:104580000120704730B50024234607E0C55CD540C4
:10459000ED0701D0641CA4B25B1C9BB28B42F5D327
:1045A000E00701D0002030BD012030BD00F00F0237
:1045B000044901EB10108A5C0078424002F00100CF
:1045C0007047000060CC0008027801238B409A43BA
:1045D00002707047027801238B405A400270704786
:1045E000704770472DE9F05FFB4C4FF00008607991
:1045F000552871D1E279F949F9A0FFF7F1FF0020C0
:1046000005F054FDF5490878022812D1487855285C
:1046100010D0282824D0F8281FD00126DFF8C49312
:1046200000254FF0310A46281DD0522871D053285A
:1046300070D0E2E0062004F0B3FB04F023FA03F0AC
:1046400083FDBFF34F8FE8480168E84A01F4E06159
:1046500011430160BFF34F8FFEE702F015FD062006
:1046600004F09EFBC9E0887846282FD1E04F3D60DA
:10467000E279C91CD21F384604F0C6F82072387897
:10468000FF2829D100203B4604E0195C401C81EA48
:10469000080880B2217A491E8842F6DB217A384622
:1046A000394411F8011C414516D1817821724178B5
:1046B0000A2912D0F32909D1217A012902D1F878E7
:1046C000022804D0152004F06BFB657295E0F320FE
:1046D00004F066FB667290E0A9E0617AD9B1217AB4
:1046E000112902D1C178322903D0217A212914D08D
:1046F00083E0227ABB49521E2C31381DFFF7C4FEDD
:1047000001F04AFB38B10A2004F04AFB0220607233
:1047100073E01AE02FE01520A2E7C17833296CD1AD
:10472000227AB049521E1C31381DFFF7ADFE89F8C0
:104730000AA0332189F80910267003F0BBFC0A2077
:1047400004F02EFB6572257057E0887854280FD04E
:1047500006DC22280CD04E280AD051284DD107E083
:10476000742802D07E2848D102E002F029FC74208F
:1047700004F016FB5AE00F4689784FF030083829CC
:1047800076D01ADC1D2976D00ADCA1F111010A29A4
:1047900033D2DFE801F03E324E323232593662F720
:1047A000352967D004DC212977D0342925D121E1AE
:1047B000362973D0372920D143E18A484FF0320B94
:1047C0000C30742971D00CDC4E2969D004DC3929F5
:1047D00067D04C2911D18AE054297CD058290CD1BA
:1047E0004BE0852978D004DC762976D0842904D161
:1047F00093E0D22972D0D32971D0BDE8F05F04F0E4
:1048000041B989F8085089F809A089F80B50A570BA
:104810003DE1F878012807D13879A0F13001042969
:1048200002D289F8010032E11520A1E76571BDE8E7
:10483000F09FF8780128F7D13879A0F130010929E3
:10484000F2D889F8050022E1F8780128ECD138790E
:104850007F28E9D889F8060019E1F8780128E3D122
:104860003879A0F130010429DED289F807000EE181
:10487000F3E000E0CBE006207AE7F8780128D3D116
:104880003879302801D03128CED189F80A00302873
:1048900008D0332089F80900F9E07FE0C3E004E0A4
:1048A0005DE0E8E089F809B0F1E001464D4A4A4888
:1048B000002314320B3004F0C7FD4748FA78391D45
:1048C0000B30FEF7C8FE58B184F80280C4F80B50D4
:1048D000C4F80F50A8E738E026E02CE065E06CE073
:1048E00084F802A0C4F80B50C4F80F50C3E7F8785E
:1048F000012806D089F80850267003F0DBFB2570EC
:1049000092E73879302803D0312801D032288BD172
:1049100089F80B0089F80860B9E0F878012883D19C
:1049200038790828A7D081E7F8780128D2D13879DA
:104930003128A0D07AE7FA78102ACBD1A378312B8E
:10494000C8D1391DFEF73EFEACE7F8780828C1D182
:104950007968C9F83610B968C9F83A1097E0F8785C
:104960000A28B7D199F8031048463029B2D179689E
:1049700040F83E1FB9684160B989018100F83BAC3D
:1049800085E0FFE7F8780128A4D13879302802D0F3
:1049900089F802007BE089F8028078E0F878012845
:1049A00098D1397989F8041071E0B846FF780F2F53
:1049B00090D80C480F21483006E0B846FF780F2FFA
:1049C00088D808480F2157308146FEF714FE3A4632
:1049D00008F10501484658E0000000208819002031
:1049E000434D4400FC0100200CED00E00400FA05FA
:1049F000F7190020FA783946062AD9D809F1660055
:104A0000C9F86650A9F86A50491D23483DE0FA7874
:104A10003946062ACCD82048C9F86C50491DA9F857
:104A20007050801D31E0FA783946062AC0D809F165
:104A300072001948C9F87250491DA9F876500C3017
:104A400023E0FA783946062AB2D81348C9F87850D4
:104A5000491DA9F87C50123017E0FA783946062A29
:104A6000A6D809F17E000C48C9F87E50491DA9F866
:104A70008250183009E0FA783946062A98D8064854
:104A8000491D1A3045600581001DFEF79BFD26700B
:104A900003F010FB2570EEE662020020F8B5002559
:104AA000264C274F8DF800501926684603F070FAFF
:104AB000012842D1F87840B1192811D01A281ED007
:104AC00078790028F1D1FD7003E09DF800000228FC
:104AD00001D03D71E9E72070B8720120B8712AE079
:104AE0009DF80010032901D11A20F870B879221816
:104AF000401CB8711170B87A4840B872D5E79DF87B
:104B00000000B97A884204D0BA7A80F0020191425A
:104B100009D1B9796218491CB9711070B879F87166
:104B200055207871CFE7B9796218491CB9711070B6
:104B3000B97A4140B972FE70B7E7F8BD8819002014
:104B400000000020704700002DE9F04F01460020D2
:104B500089B0834606900746814680460646049003
:104B60000090019002900546044603900809012830
:104B700007D002280BD003280FD0032009B0BDE8CE
:104B8000F08FAC48B0F840060590AA480AE0AA4861
:104B9000B0F8E8030590A84804E0A848B0F8340845
:104BA0000590A64840F222318246A548FEF723FD33
:104BB00030E1069820B33AF81820082114446846DA
:104BC000079202F0E3F90646642004FB00F191FB32
:104BD000F6F081B2079A64204243B2FBF6F2A2F1EA
:104BE00014000D2801D24FF00109A1F12100252860
:104BF0003DD2142A01D24FF001097F1CFFB205E11A
:104C00003AF818000028FAD047F230518842F6D816
:104C1000864201D9311A00E0811B89B264225143D6
:104C2000B1FBF0F106461E2902D900200490EDE008
:104C30000498401C80B204900828E0D34FF000098B
:104C400001207F4906904F46A1F820934C464846E4
:104C500008F101016B4606E03AF8102000F0070564
:104C6000401C23F815208842F6D38DB2CEE0A1F186
:104C700046003C2876D20AEB48005A39408814296D
:104C800017D3059B08F10101994212D288B1642122
:104C90004143B1FBF6F121290BD220446421484362
:104CA00090FBF6F06E2804DA0BF1010000F0FF0B28
:104CB000ACE0BBF1000F04D1012F02D1142A00D2C5
:104CC0000027A64212DD301B64214143B1FBF6F1FF
:104CD000232912D305F00702C0EBC00004EBD0007B
:104CE0006D1C2DF81200ADB2341A17E0A01B642120
:104CF0004143B1FBF6F1232907D205F007016D1CF2
:104D00002DF81140ADB2002408E0C008211A05F0CA
:104D100007036D1C2DF81310ADB20446B9F1010F55
:104D200008D04749B1F8200367B1B0F5487F77D282
:104D300001220BE04249B1F82003B0F5487F6FD261
:104D4000022203E0B0F5487F6AD200220A54B1F88B
:104D500020034FF0000B401CA1F820035F46D9460A
:104D600054E0FFE7822951D300271BE07F1C0A2F64
:104D70001AD805F007016D1C2DF811606846ADB218
:104D8000A41B082102F002F92D490646B1F82003C0
:104D9000B0F5487F08D202220A54B1F82003401C23
:104DA000A1F82003B442E1DA6420604390FBF6F0FE
:104DB0004FF000094F46CB4628280DD2681EC11778
:104DC00000EB517121F00701411A684600EB4100E8
:104DD00001882144018014E0462814D305F007011E
:104DE0006D1C2DF811401649ADB2B1F82003B0F595
:104DF000487F13D202220A54B1F82003401CA1F8C4
:104E00002003002402E04FF001094F4608F10100A1
:104E10001FFA80F805998845FFF4CBAE069808B1D3
:104E20000120ABE640F222310548FEF7E4FB00200A
:104E3000A4E6000004040020460A0020300E0020F2
:104E4000661600202DE9F04F00278BB006463C4641
:104E500015280ED0162E0CD0172E0AD0182E08D0DA
:104E6000252E08D0352E09D0362E07D0372E05D066
:104E7000FDE3FC4804E0FB486F3001E0F948DE3018
:104E800081466F21FEF7B7FBF749B1F820030028F0
:104E9000EED0002008900790069005908346099078
:104EA0000020054602908246049006F00F0801900B
:104EB00029E1BBF1000F08D00199401A401E80B2D1
:104EC000105C0446022802D002E00198F8E70024B2
:104ED000029919B3002878D00128E248A0F16F00A8
:104EE00007D090F86E1008443946FFF76DFBDD4897
:104EF000DE3890F86E100844394602F046FE7F1CFA
:104F0000FFB2B8F1070F71D0B8F1050F6FD0B8F14B
:104F1000060F6ED0B8F1080F6CD0E2E0B8F1070FC1
:104F200009D0B8F1050F2AD0B8F1060F56D0B8F164
:104F3000080F74D0E3E0072D62D2DFE805F05F04CC
:104F400006090B0D0F00ECB3B4E0012C72D0B1E0F8
:104F5000CCB3AFE0C4B3ADE0C4B3ABE0012C17D128
:104F600001200290BF4800276F21DE38FEF743FB87
:104F7000BC486F216F38FEF73EFB45201DE0052D34
:104F80003ED2DFE805F03B0306080B00012C68D099
:104F900090E06CB38EE0012C65D08BE05CBB01200F
:104FA0000290B04800276F21DE38FEF724FBAD48A1
:104FB0006F216F38FEF71FFB0B20AA496F3908706D
:104FC000012004E04DE04EE051E075E053E081F84F
:104FD0006E00A449DE3981F86E006BE0062D0FD219
:104FE000DFE805F00C0B0F0A032AB3E76DE06EE073
:104FF00020E06EE073E05DE0AAE7A4E7012C2ED08C
:105000007DE098486F21DE38FEF7F5FA95486F216C
:105010006F38FEF7F0FA012C02D02CB14AE012E012
:10502000162E47D1052002E0362E43D101208D49AE
:105030006F390870032562E0E4BB0120894900272D
:105040006F390290BDE7082D59D2DFE805F0070659
:1050500005040E12161A9EE777E797E7CEE70125BB
:105060004DE002254BE0042549E0012C22D1052525
:1050700045E0012C1ED1062541E0012C1AD107255F
:105080003DE0012C16D101200290764800276F21C7
:10509000DE38FEF7B0FA73486F216F38FEF7ABFACF
:1050A0007048FF216F380170012180F86E106F3851
:1050B00080F86E10002522E06A486F3890F86E1074
:1050C00008443946FFF780FA19E7072002E0052077
:1050D00000E00620B7FBF0F100FB117701E007F0DC
:1050E000070767B95F496F3991F86E006D2811D2D3
:1050F000401C81F86E00481E0178491C017001981F
:10510000401C80B20190584A0199B2F820038842AD
:105110003FF6CFAE02984646002879D0BBF1000F8B
:1051200008D0072E26D0052E2BD0062E30D0082EE4
:1051300036D03BE0072E06D0052E0BD0062E10D021
:10514000082E07D032E047486F3890F86E00C0EB69
:10515000C0000DE043486F3890F86E0000EB80000F
:1051600006E040486F3890F86E0000EB40004000C9
:1051700008901BE03B486F3890F86E00C0EBC00011
:1051800013E038486F3890F86E0000EB80000CE0B8
:1051900034486F3890F86E0000EB4000400004E0A7
:1051A00030486F3890F86E00C00007904FF000084C
:1051B000ADF800802B4A01206F3A92F86E301FE064
:1051C000072E06D0062E06D0052E06D0082E0ED0AD
:1051D00004E07F2402E03F2400E01F2421496F39CE
:1051E000095C21401F2914D0082E01D006E0FF24BD
:1051F0001C496F39095C2140FF290AD0401C80B24C
:105200008342DDD8BDF8001058EA01000BD045E01C
:10521000C7E11449801CDE3982F86E0081F86E0007
:105220004FF00108EEE7062E38D0002531E00D489A
:105230006F38405DFFF7BAF948BB0A48DE38405D79
:10524000FFF78FF918B3074A6F3AA2F16F01505D6B
:10525000495D48405055072E08D0052E08D0082E2D
:105260000ED006E0661A0020661600207F2400E0BB
:105270001F2400EA04031F2B1DD0082E01D004E0D8
:10528000FF24C34313F0FF0F15D0484050556D1C49
:10529000ADB2FA4890F86E10A942C8D8BDF8000027
:1052A000401C80B2ADF80000B8F1000F0ED0B8F18C
:1052B000010F0FD0FFE1F1490AF1010000F0FF0AF0
:1052C0006F390020485501200490E7E70228FFF4D9
:1052D00071AFF0E1062E7DD001200390002005463D
:1052E00001900DE0E548405DFFF760F9A0B1BBF12A
:1052F000000F3CD00598401C80B205906D1CADB2EB
:10530000DE4890F86E00A842ECD8072E34D0052E67
:1053100034D0082E34D034E0BBF1000F21D00598F2
:10532000082801D200200590DFF850830020A8F162
:105330006F08039018F80500FFF713F90028DDD077
:10534000CE4918F805300AF101004A5D00F0FF0A65
:105350005A404A55002108F8051001200190049098
:10536000CCE706980828DFD200200690DCE70698F4
:10537000401C80B20690C1E7062402E0042400E04D
:10538000072400253DE0BD48EAB290F86E10FFF713
:10539000F9F8A0BBB94A00206F3A039010460021EB
:1053A00090F86EE06B4605F0FF0808460BE012F837
:1053B00000C02CFA08FC5FEACC7C02D0491C1880A3
:1053C00089B2401C80B27045F1D3012917D10AF18E
:1053D000010000E02CE100F0FF0AA848BDF8002021
:1053E000E9B21044FFF7F6F8A448BDF800206F3882
:1053F000E9B21044FFF7E8F80120019004906D1C19
:10540000ADB2A542BFD3019800287FF465AF0398E1
:10541000E0BB4FF000080120CDE90280CDF8048008
:1054200045462AE09548405DFFF7C0F818BB0020CC
:1054300003900198401C80B2CDE90105072E04D0ED
:10544000052E04D0082E04D004E0062402E0042433
:1054500000E00724002009E0C2B2884890F86E10EE
:10546000FFF790F898B1BDF80000401CADF80000BF
:1054700080B2A042F0D36D1CADB2804890F86E00AF
:10548000A842CFD80198012811D02DE052E00AF1AE
:10549000010000F0FF0ABDF80000C1B277482844BF
:1054A000FFF798F84FF00108CDF81080E3E7B8F166
:1054B000000F19D1072E04D0052E04D0082E04D0D9
:1054C00004E0062402E0042400E007240AF10100BD
:1054D00000F0FF0A6948029908442146FFF77AF86C
:1054E0004FF00108CDF81080072E04D0052E04D00F
:1054F000082E04D004E0062402E0042400E007247F
:105500000020ADF800005D4D0BE0C2B295F86E10C2
:105510005A48FFF737F8D0B1BDF80000401CADF88D
:10552000000080B2A042F0D3B8F1000F7FF471AF59
:105530000398B0B3052E0DD00120504531D34F4A0A
:1055400092F86E0003282CD30023012018E00020DD
:105550000390E9E70320F0E7052E16D1115C01F076
:105560000F011154049D012D08D1092906D90E29D6
:1055700004D00D2902D00C2900D00123401C80B298
:1055800092F86E10891E8142E6DC53B95FEA0B0087
:1055900024D092F86E1099F86E00814247D900200D
:1055A0003DE085E0072E04D0052E07D0082E0DD053
:1055B00012E0115C01F03F01203103E0115C01F0C9
:1055C0000F01303109EB0003597005E0115C01F067
:1055D0007F0309EB00014B70401C80B292F86E1003
:1055E0008142DFD81FE0072E04D0052E07D0082EF9
:1055F0000DD012E0115C01F03F0320330AE0115C92
:1056000009EB000301F00F013031597005E0115C26
:1056100001F07F0309EB00014B70401C80B292F84F
:105620006E108142DFD8C8B2401C89F86E0040E09D
:105630004FF00008114D06244046ADF80080C2B27C
:1056400095F86E100D48FEF79DFF88B3BDF8000079
:10565000401C80B2ADF80000A042F0D3B8F1000FBA
:1056600029D15FEA0B0012D095F86E1000E043E0FC
:1056700099F86E0081421CD9002014E0F71900202F
:10568000295C09EB00022031401C517080B295F872
:105690006E108142F4D8C6E7295C09EB0002203184
:1056A000401C517080B295F86E108142F4D8BAE770
:1056B00001E0012009900BF1010000F0FF0BBBF1AC
:1056C000020FFFF4EDAB099801280FD006980828C7
:1056D00002D30898642805D2059808280CD30798A7
:1056E000642809D301200BB0BDE8F08F99F86E0053
:1056F000042801D30020F6E70220F4E770B5A0B03B
:105700000E46040018D0002E16D080216846FDF702
:1057100072FF6A46012001E05054761C317800295E
:10572000FAD1254604E0115C09B904F8010B6D1C9F
:1057300028780028F7D1207020B070BDFCB500217A
:105740000A466E467254491CC9B20829FAD300228F
:105750000021845CC1F1070324FA01F707F0010777
:105760009740F55C491C3D43C9B2F5540829F1D373
:10577000521CD2B2082AEBD3002106EB4102431897
:105780005278425416F81120491CC9B21A710429E2
:10579000F3D3FCBD2DE9FC438146002003466F4650
:1057A0003B54401CC0B20828FAD300234FF0010834
:1057B00019F803C0002008FA00F40CEA0405C540FB
:1057C000C0F107049D403E5D401C3543C0B23D55CD
:1057D0000828F0D35B1CDBB2082BE9D300203B5C2C
:1057E0000B54C0F10603FB5C1354401CC0B20428E8
:1057F000F5D3C87800F0F000C870D0780001D07000
:10580000BDE8FC8370B5C1F10806FF22B240D4B2F6
:105810000278C378224043EA1213C3700022835CEB
:105820008B4085186D782540F5402B438354521CDE
:10583000D2B2032AF3D3C2788A40C27070BD70B569
:1058400000231DE00278550805704478660846EA92
:10585000C2124270827802F00106520842EAC41273
:105860008270C278520842EAC612C270140705D08C
:1058700045F08004047002F0F002C2705B1CDBB2E1
:105880008B42DFDB70BD00000149012008707047CA
:10589000240000202DE9F04F91B0044640216846D5
:1058A000FDF7A9FE66783F212046FEF74FFE94F8EB
:1058B0003F100527DFF89C900025274B4FF0010C87
:1058C00081420BD01878012841D18DF800708DF8F5
:1058D00001C0AA208DF80200AE202EE0022140F285
:1058E0002B1ADFF878B04FF4967EB61C18E0986853
:1058F0005A68521E904204D0586820B99A6852459E
:1059000001D15D600AE0625CD3F808800BF80820E2
:105910009868401C98609868704500D39D60491C49
:10592000B142E4D31878012811D18DF800708DF8B8
:1059300001C0BB208DF80200BF208DF83F0040233E
:105940006A468121064803F08BFF89F8005011B0A8
:10595000BDE8F08F24000020C4000020D802002001
:105960002C00002070B51E2003F0F0FB01F01EFAA1
:10597000012002F05DFE2D4C4FF080454FF6FF7682
:1059800030B3012002F04EFE6078022805D8686A24
:1059900020816078401C60701AE02548B0F8E80368
:1059A000B0F5FA7F14D2686A6081608921898842E3
:1059B00003D960892189401A03E020896189301A5E
:1059C000084481B20022012002F0E6F860892081BB
:1059D000022002F02DFE00280AD0022002F022FE52
:1059E000A078022805D8686AA081A078401CA07021
:1059F00070BD104840F21A41B0F834088842F7D21E
:105A0000686AE081E089A189884203D9E089A18997
:105A1000401A03E0A089E189301A084481B20022CB
:105A2000022002F0B9F8E089A08170BDAC0000202E
:105A3000460A0020300E002010B51E2003F086FB21
:105A400001F0B4F9802002F0F3FD00280DD0802091
:105A500002F0E8FD144C21784FF08040022905D86F
:105A6000406AA0802078401C207010BD0F49B1F81A
:105A70004016B1F5487FF8D2406AE080E088A188FE
:105A8000884203D9E088A188401A05E0A0884FF633
:105A9000FF71081AE188084481B20022104602F022
:105AA0007BF8E088A08010BDAC000020040400203A
:105AB00010B540F2115003F02FF94FF4C06003F01D
:105AC0002BF90022802311464FF0904002F096FF00
:105AD00000220221072003F0B7F80721002003F07D
:105AE0003BFB02220021802002F068FD802002F0B2
:105AF00099FD184C002201231146204602F07EFF3A
:105B000000220221052003F09FF80021012003F06C
:105B100023FB02220021012002F050FD012002F0AF
:105B200081FD002202231146204602F067FF002279
:105B30000221052003F088F80121084603F00CFB40
:105B400002220021104602F039FDBDE8104002207B
:105B500002F068BD0004004870B502787C2303EAB7
:105B60005205C478C2F3C10245EAC41414430C7050
:105B70000278540102F0010244EAC205427810247E
:105B800004EAD206354345EA52124A70427802F0DE
:105B90001805ED0002F01F0245EA4202857842EA4C
:105BA000D5128A70827803EA52054378C2F3C102A3
:105BB00045EAC3131343CB708278530102F001020C
:105BC00043EAC203C27804EAD204234343EA5212EE
:105BD0000A71C278007802F01803DB0002F01F029D
:105BE00043EA420242EAD010487170BD10B5044643
:105BF0004FF4702002F096FD02F0B4FDA10503D130
:105C0000204602F071FD18B102F066FD002010BDC3
:105C100002F062FD012010BD70B5002202230129AF
:105C200001D0052909D1027803EA9214C2F3800554
:105C30002C43C2F3C30202EB0412022901D006294D
:105C40000CD10278447802F00205C4F30016354303
:105C5000D207120F42EA541202EB0512032901D0B7
:105C600007290CD14278847803EA9205C4F38016A0
:105C700035435207120F42EAD41202EB05120429EF
:105C800001D0082909D1807803EA101200F001033D
:105C90001A43C0F3430000EB0212034800EB8110EB
:105CA000104410F8400C70BD20CA000810B500F078
:105CB00011FB02490020087010BD00009101002076
:105CC00070B50D4606460AA1FDF7A0FC044609A1E1
:105CD0003046FDF79BFC002C09D0002807D0021BA2
:105CE000521E611C2846BDE87040FDF7A1BC70BD86
:105CF0003B0000003D0000002DE9F04106461C4637
:105D000088461746104602F05DFF05463A46314682
:105D1000FDF758FC384602F055FF06463946FDF7B8
:105D20006AFCF817012107EB5070012C05D0032CF9
:105D300003D0022C01D034B317E0B1EBE00F05D152
:105D4000002305F10802294630460CE005F108025F
:105D5000002314462946304603F076FB00232246F2
:105D6000294606F1080003F06FFB3188A8F80010FF
:105D7000B17888F80210284602F01EFD3046BDE8D2
:105D8000F04102F019BDB1EBE00FDFD1002229464E
:105D9000304602F01DFBE8E7194910B591F83500CF
:105DA000401C10F0FF0081F8350020D191F834003C
:105DB000401C10F0FF0081F8340018D191F8330036
:105DC000401C10F0FF0081F8330010D191F8320030
:105DD000401C10F0FF0081F8320008D111F8310F9B
:105DE000401CC0B20870FF2801D3002010BD054C34
:105DF0000120207002F05EF900202070012010BD0B
:105E0000FC01002000000020FEE778B500256E466A
:105E100017E0435D1C098DF8004003F00F038DF877
:105E200001300023F45C0A2C01D2303402E0102C43
:105E300001D23734F4545B1C01F8014B022BF1DB27
:105E40006D1C9542E5DB78BD074B10B51C78002131
:105E500010F8012B641E03E010F8013B5A40491C66
:105E6000A142F9D3104610BDA800002070B500244F
:105E70004FF4801206462346154608E00BB152083F
:105E80001544164201D0641CE4B25B1CDBB28C42A8
:105E900001D2152BF2D306EA050070BD2DE9FF4FA4
:105EA00089B04FF000094C4EDDF858B08246CDF86D
:105EB0001090CDF81490CDF81890CDF81C90706823
:105EC0001C46B0F5001F04D96FF006000DB0BDE808
:105ED000F08FDFF808810A9800F0D1F805460146F6
:105EE000484600F0E5F9814605EB0510871907F1F2
:105EF000080198F800202046FDF764FB2046FFF7D4
:105F0000A3FF98F802103944097A884204D07168D6
:105F100001EB09007060DEE70A983149706000F01B
:105F2000CDF9BBF1010F06D0BBF1000F0DD0BBF1D5
:105F3000020F39D041E0BAF1000F02D0E07BC0433C
:105F4000E073E079C043E07137E06946BAF1000FD1
:105F50001BD0607BC04360736079C04360710020D8
:105F6000225C0A54401CC0B21028F9D301F1080287
:105F700000231646204603F067FA0023324669469E
:105F800004F1080003F060FA17E06079C043607123
:105F90000020225C0A54401CC0B20828F9D3002219
:105FA000204602F015FA08E0BAF1000F02D0A07BFB
:105FB000C043A073A079C043A07109490B980A6837
:105FC00002604A684260098901812A46494604A85C
:105FD00000F008F8012079E7300E0020A80000202A
:105FE0009D0F00202DE9F74F1C4F93468846786897
:105FF00000F038F80BEB0B113E468D19DFF860A06E
:1060000005F108044FF0FF0906F26D160A2811DAAF
:106010004FEA58015A46009800F0EAF8204611214C
:10602000FDF7E9FA9AF80210294481F80890786897
:10603000401C0BE020461121FDF7DDFA9AF8021012
:10604000294481F80890796801EB0800786003B072
:106050003146BDE8F04F00F031B90000300E0020AD
:10606000A800002010B504460020024601210C4281
:1060700000D0401C521C4900152AF8DB10BD00213D
:1060800003460122134203D1491C52001529F9D3BA
:10609000C1F1140070477FB5002300930193029370
:1060A0006C460393DD0021FA05F5C3F107065B1C7E
:1060B000A555032BF6D352F8021F029151680391A4
:1060C000002102AA635C555C2B434354491C0829F8
:1060D000F8D37FBD2DE9FF470027214D9046894623
:1060E000009701970297039718B11020287011218B
:1060F00002E008202870092169701A4EA870002457
:1061000004EB0410304408301121FDF774FA641CCC
:10611000152CF5D37760142413482A784946FDF7E7
:1061200051FA1149D8F8002011310D460A60D8F80B
:1061300004204A60B8F808000881706800F0BEF8D2
:1061400022464FF48011684600F052F870682946E4
:10615000401C706000F0B2F804B00120BDE8F08788
:10616000A8000020300E00208C0F00202DE9FF41F8
:1061700005460E461AA005F1080490E80E00C06816
:10618000CDE90012CDE902302868A860686806F100
:106190000807E86008223946204603F093FF0022F2
:1061A0003146204602F014F908223946204603F011
:1061B00089FF10226946304603F084FF08223946E1
:1061C000284603F07FFF00223146284602F000F9FE
:1061D00008223946284603F075FFBDE8FF8100001C
:1061E000C0C0C0C000000000C0C0C0C000000000AF
:1061F0002DE9F74F0E46824600F1080B294F4CE07F
:10620000294A31465046FFF746FF3046FFF737FF31
:1062100000EBD07121F00101411A00EB001000EBFE
:1062200007080298CCB200EB0010C11908F108056C
:1062300008F1100908315046FFF798FF7868FFF71A
:106240001EFF00EBD07121F00101401A7968C0B245
:1062500021B190F0010001D084F0010474B1DAF8AA
:106260000020C9F80020DAF80410C9F80410DBF89F
:1062700000102960DBF80400686005E00B4928463F
:106280000A785146FDF79EF95046FFF7DDFD074AB3
:106290007608927808EB02010872002EB0D1BDE8B2
:1062A000FE8F0000300E00209D0F0020A80000206F
:1062B000C1F1140201219140084370474872020A5B
:1062C0000A72CA79C0F3074002F0E0020243CA71C1
:1062D0007047000010B540F242611148FDF78BF99C
:1062E00040F2EA310F48FDF786F940F636010E48D4
:1062F000FDF781F940F222310C48FDF77CF96F215E
:106300000B48FDF778F90A486F216F30FDF773F9F4
:1063100007486F21BDE81040DE30FDF76CB9000082
:1063200004040020460A0020300E002066160020DB
:10633000661A002070B53148B0F8401630A0FEF75C
:1063400050F9374D37A0B5F8E813FEF74AF905F2D2
:10635000EA30B0F834183BA0FEF743F9414C6179BC
:10636000302904D0002002F0CBFA012813D12348B1
:10637000B0F8400614280ED9172000F01DFD38B1E2
:10638000182000F019FD18B1162000F015FD10B905
:1063900035492B2008706179302904D0012002F0A2
:1063A000AFFA02280BD1B5F8E803142807D9252045
:1063B00000F002FD18B92C492C206F31087061796A
:1063C000302904D0022002F09BFA042815D1274876
:1063D000B0F83408142810D9352000F0EDFC40B195
:1063E000372000F0E9FC20B1362000F0E5FC002861
:1063F00003D11D492D20DE31087070BD040400203A
:10640000547261636B3154696D65466C6F772E4CC5
:10641000656E677468203D2025640D0A0000000049
:10642000460A0020547261636B3254696D65466C94
:106430006F772E4C656E677468203D2025640D0AC9
:1064400000000000547261636B3354696D65466CE3
:106450006F772E4C656E677468203D2025640D0AA9
:1064600000000000FC010020661A0020300E002011
:106470002DE9F04F9BB0FE4C0025142106A8FDF736
:10648000BAF8142106A8FDF7B6F8FA480190FDF70E
:10649000DBF8C0B20090F748801D0F90FDF7D4F8EC
:1064A000C1B2F4480C30CDE90D01FDF7CDF8C0B212
:1064B0000C90F04812301190FDF7C6F8C1B2ED48CB
:1064C000109118301690FDF7BFF800F0FF0BE94867
:1064D0001E300B90FDF7B8F8C0B21390E5481E3897
:1064E0001290FDF7B1F800F0FF0AE2480F3817905C
:1064F000FDF7AAF8C0B2149010990098DD4E084438
:106500000E99159001440C98594401441398663E25
:106510000144149851440844C7B2B07830287DD063
:10652000307A012802D0002879D024E1D248BF2156
:106530000170D0486638C07A3228D04890F86E0092
:10654000A0F101006CD0FDF7AAF86FF002052A4611
:10655000FDF78EF801F02AFEFDF7B2F8C6B2C84882
:1065600090F86E00401EFDF79AF82A46FDF780F875
:1065700001F01CFEFDF7A4F800F0FF08C14890F8F8
:106580006E00401EFDF78BF82A46FDF771F801F00A
:106590000DFEFDF795F800F0FF0906EB080101EB91
:1065A000090007EBC005543546EA080050EA090027
:1065B000BBD0B24890F86E0000287CD0B24801F001
:1065C00091FAAE49B04891F86E20491C521E01F074
:1065D000A1FAAE49AC4800F079FDA94890F86E10D8
:1065E000AA4814301590002979D0A74801F07AFA0A
:1065F000A349A54891F86E20491C521E01F08AFA61
:10660000A148159900F062FD9E4FA04897F86E10C2
:106610002830189000296DD09B4802E0B7E053E283
:106620001EE001F05FFA97F86E20791C521E964822
:1066300001F070FA9448189900F048FD94A00168A0
:1066400021604168616000892081E81FA070000A14
:10665000E0708A4890F86E0070B3401EA07157E059
:10666000FDF71DF86FF003052A46FDF701F801F06C
:106670009DFDFDF725F8C6B2814890F86E00401EDA
:10668000FDF70DF82A46FCF7F3FF01F08FFDFDF74B
:1066900017F800F0FF087B4890F86E00401EFCF7EA
:1066A000FEFF2A46FCF7E4FF01F080FDFDF708F845
:1066B00000F0FF0902E008E028E010E006EB080126
:1066C00001EB090007EB00156DE76B48017801F05D
:1066D000F60101701598281A143885B27DE76648CE
:1066E000017801F0ED0101700E985844281A143811
:1066F00085B289E76048017801F0DB0101701399E8
:106700000C980844281A143885B297E7372060712E
:106710005B4890F86E0008B1401EE071594890F84F
:106720006E0008B1401E207253480078A07204F138
:106730000B0052461299FCF745FF0AF10B07DFF8F0
:1067400034A1AAF1660A9AF80A00312802D030284A
:1067500003D008E0FDF7CCFE05E0464910225A3987
:106760004E48FCF72FFF9AF80B00302803D0312851
:1067700010D032287AD00A25FF2229462046FCF77D
:1067800033FF41F288322946204601F029FC1BB034
:10679000BDE8F08F414A3948083200233F49401C88
:1067A000129202F051FE012012E03448082200EB60
:1067B000CA00C11F1990401C03F084FC19980023E3
:1067C000401C3649129A02F03FFE0AF1010080B2E5
:1067D0008246B042E9D3DDE90021E019FCF7F2FE80
:1067E000009826490744F200E019491CFCF7EAFE2C
:1067F000DDE9102107EBC607E019FCF7E3FE10986E
:106800000023384411901E482449401C129A02F07B
:106810001BFE012712E01A48082200EBC70AAAF162
:1068200007010AF1010003F04DFC0AF10100002309
:106830001A49129A02F008FE7F1CBFB24745EAD3FC
:106840001198DDE90E212044FCF7BCFE0E99119849
:106850004FEAC80247180A49E019491CFCF7B2FE82
:1068600007EBC807E0195A46169919E04CE00000FA
:10687000661600206202002013000020661A002025
:10688000D51A0020441B0020B81B00200C1D00203E
:10689000FF020000803F000000000000880200208E
:1068A000FCF790FEBB440023FD49FE48129A02F01B
:1068B000CBFD012713E0FB480822401E00EBC70A6E
:1068C000AAF107010AF1010003F0FCFB0AF1010043
:1068D0000023F349129A02F0B7FD7F1CBFB24F4567
:1068E000E9D3DDE90C2104EB0B00FCF76BFE0C99FE
:1068F0004FEAC9020BEB010087B2E019E949FCF746
:1069000061FE07EBC90082E0E74A8021E448FDF719
:1069100075FC46B300200590DDE90021029003904C
:106920000490E019FCF74EFE0098E04907EB000ADE
:10693000300104EB0A07024612903846FCF742FE8B
:10694000012102A8CDE9000139460846D64B129A2A
:10695000FDF75BF8DDE910210AEB0617E019FCF7FB
:1069600031FE10980744B8F1000F2AD0002004909F
:106970000590DDE90E2102900390E019FCF722FE5C
:106980000E98CB4907EB000A4FEA081004EB0A0700
:1069900002460E903846FCF715FE012102A8CDE90B
:1069A000000139460846C04B0E9AFDF72EF80AEB57
:1069B0000817E0195A461699FCF704FE07EB0B007E
:1069C00087B2B9F1000F2BD0002002900390DDE9CF
:1069D0000C2104900590E019FCF7F4FD0C984FEAA7
:1069E000091B38441FFA80FA04EB0A075A46AD49DE
:1069F0003846FCF7E7FD012102A8CDE90001394640
:106A00000846A94B5A46FDF700F80AEB091087B271
:106A1000E019139A0B99FCF7D5FD1398384487B207
:106A2000E019149A1799FCF7CDFDB9F1000F17D0B2
:106A30006719A7F1210014221899FCF7C3FDB8F1DA
:106A4000000F09D0A7F1350014221599FCF7BAFD03
:106A5000CEB1A7F1490011E0AEB1A7F135000DE0CC
:106A6000B8F1000F07D06719A7F12100142215997A
:106A7000FCF7A8FDF0E736B1601921388A491422E5
:106A8000F431FCF79FFD8B480078000608D58A4852
:106A90006119C26A41F80D2D026B4A60808E08812F
:106AA000002104200A46EE1E05E0235C59401A44EA
:106AB000401CD2B280B2B042F7DB601900F8031D6F
:106AC0000321427081705CE631797CA0FDF789FD7D
:106AD000DFF8D091A9F1010999F86E0018B1A9F178
:106AE000010132794254DFF8C881A8F1010898F811
:106AF0006E0018B1A8F10101327942546B48401E72
:106B000090F86E0018B169493279891E4254F179C2
:106B100072A0FDF766FDF079312801D033280CD141
:106B2000204652461299FCF74DFDDDE900215546FD
:106B30006019FCF747FD009805445F48C07930288C
:106B40001BD0322819D0594E6D363278574960190A
:106B5000491EFCF737FDDFF854A13078AAF1010A8D
:106B600005449AF86E1066A0FDF73BFD524EF07991
:106B7000312810D033280ED027E04C4864A1401EA5
:106B8000FEF7BCFD4948401EFCF75EFD474EC2B211
:106B90006D363270DAE7DDE910216019FCF712FD7D
:106BA000109805449AF86E00142807D998F86E00DA
:106BB000142803D9B07908B160556D1CDDE90E21A8
:106BC0006019FCF7FFFC0E9805443B48C079322859
:106BD00019D0332817D0302824D008F16E06327827
:106BE00033496019491EFCF7EDFC307898F86E10B7
:106BF000054449A0FDF7F5FC2F4EF07931281FD050
:106C000033281DD036E02A4806A9401EFFF758F861
:106C100006A8FCF719FDC2B208F16E0660193270C1
:106C200006A9E0E722483AA1401EFEF767FD20488A
:106C3000401EFCF709FD08F16E06C2B23270CFE7C4
:106C400060195A461699FCF7BDFC98F86E005D4431
:106C5000142807D999F86E00142803D9B07908B11F
:106C600060556D1CDDE90C216019FCF7ABFC0C983C
:106C7000284485B2F079302864D0322862D099F85F
:106C80006E2008496019491EFCF79CFC99F86E00BB
:106C900099F86E10284485B223A0FDF7A2FC4BE0C2
:106CA00088020020451B0020181C0020671A0020C5
:106CB000D61A002013000020FC010020454E435F3F
:106CC0004B45592E74656D702E5465726D696E61F9
:106CD000746F72203D2025640D0A0000454E435F0D
:106CE0004B45592E74656D702E73657474726163B3
:106CF0006B32666F726D6174203D2025640D0A0051
:106D0000544B3162756674203D2025640D0A0000E5
:106D10002B2C2D3B3F250000544B326275667420AE
:106D20003D2025640D0A0000544B336275667420C3
:106D30003D2025640D0A0000F07931280ED033285B
:106D40000CD018E0AFF238011248FEF7D7FC11481A
:106D5000FCF77AFCC2B289F86E2092E76019139AA8
:106D60000B99FCF72FFC1398149A284480B2204406
:106D70001799FCF727FC99F86E1098F86E000144FB
:106D80009AF86E0038440D18294603A0FDF729FC37
:106D9000F7E40000441B0020746F746C65206C6580
:106DA0006E203A2025640D0A0000000001490120F0
:106DB00008707047910100202DE9F04100258046C0
:106DC0002C462AE0012C28D14FEA1810012804D0C3
:106DD000022807D0032820D109E01B480146B0F85B
:106DE000402608E019480146B0F8E82303E01848B7
:106DF0000146B0F83428570800200CE0131A01EBC4
:106E0000430331F8106033F802CC21F810C0401C65
:106E100023F8026C80B2B842F0D34046FDF794FEEE
:106E200038B14046FEF70EF8002809D0012800D1FD
:106E30000125641CE4B2022CC4D3012D02D002202F
:106E4000BDE8F0810120FBE704040020460A002091
:106E5000300E0020FEE770470907090E002803DA0C
:106E600000F00F00024A00E0024A8154704700001F
:106E700014ED00E000E400E0F8B541780478CA01C0
:106E800004F0020342EA4312837803F0100542EA59
:106E9000450203F0080542EA4507C27802F00805FA
:106EA0002F43042505EA91063743022606EAD20C51
:106EB00047EA0C0747EAD3178DF8007004F0800703
:106EC00001F0020C47EA4C1703F0020C47EA0C17DA
:106ED0004FF0100C0CEA920C47EA0C0704F0080C77
:106EE00047EA0C0705EA131C47EA0C0702F0020CFC
:106EF00047EA0C07C1F3801C47EA0C078DF80170C4
:106F000004F040077F0004F0010C47EA8C1703F0FF
:106F1000010C47EA4C1701F0040C47EA8C0702F019
:106F2000010C47EACC0705EAD20C47EA0C0706EA4F
:106F3000141C47EA0C0747EAD1178DF8027003F0DA
:106F4000200701F0080CBF0047EACC0702F0040C50
:106F500047EACC0704F0040C47EA8C0703F004036B
:106F600047EA430305EAD1010B4306EAD4010B4388
:106F700043EAD2118DF8031000216A46535C435452
:106F8000491CC9B20429F9D3F8BD704710B50022D5
:106F9000082909D30123CC1A5B1C30F81440082BB4
:106FA0002244F8D9D00809E0002303E030F8134068
:106FB0005B1C22448B42F9D3B2FBF1F080B210BDCE
:106FC00070B50024FF25064EFCF7EAFA90FBF5F1B8
:106FD00005FB11003055641CE4B2082CF4D370BDDD
:106FE0000B00002070B515460E46044601F0BAFBB2
:106FF000002304E014F8010BF0545B1C9BB2AB427D
:10700000F8D3BDE8704001F067BB000070B5A4B0D4
:107010008C216846FCF7EFFA8C2269461748FFF787
:10702000E1FF174E00246D46154905EBC40001230E
:107030003246083902F008FA641CE4B2082CF3D393
:107040008C2269460F48FCF7BDFA00200246114623
:107050002B5C401C59401A44C0B2D2B28A28F7D3E4
:10706000084890F88A308B4206D190F88B00904205
:1070700002D1012024B070BD0020FBE700F8000819
:107080000CC90008FC01002070B50E4D00246C7284
:107090008C210D48FCF7AFFA0B48312130224172A8
:1070A0008170C27042710D2202718471322242706D
:1070B000C1710472C472AC700120287000F0FAFF34
:1070C0002C7070BD00000020FC0100202DE9FC4167
:1070D0000546C0690C46C0F17802402A00D9403A02
:1070E000D5E900104FF0FF2606EA3123370A07EAF8
:1070F00031610B4306EA302107EA30600143CDE9F4
:1071000000130F49284600F005FD0822694628466D
:1071100000F000FD002C11D0002105EB8102491C7C
:107120009068000E20709068000C60701089000A52
:10713000A070107AE070241D0529EEDBBDE8FC810B
:1071400020CC00082DE9F04FD2B00F234FF0FF25DF
:107150006A462E0A10C905EA342706EA3464274332
:1071600080C25B1EF6D56D4602A908AB0DAC3F266A
:1071700080CC53F804CB761E87EA0C0751F804CB79
:1071800087EA0C0755F804CB87EA0C074FEAF77734
:1071900080C2EDD5D0F808C0C56851950469416931
:1071A00083695093009E8B4606EBFC6784EA0106D8
:1071B0002E404E403344FE18FF4B4FEAB505F718FA
:1071C00085EA0408019E08EA0C0888EA040806EB30
:1071D000F76641443144CE18029AE6464FEABC01B4
:1071E00002EBF66C81EA05023A406A402244A2466C
:1071F00062444FEAB70402EB030C039F049A07EBC7
:10720000FC6884EA010737404F403D444544EF188D
:107210004FEAB60502EBF76685EA040202EA0C02C1
:10722000624011443144CE184FEABC01DDF814C06D
:1072300005AA0CEBF66881EA050C0CEA070C8CEA4F
:10724000050C6444444404EB030C4FEAB704069F66
:1072500007EBFC6884EA010737404F403D44454452
:10726000EF184FEAB60585EA0408079E08EA0C08FD
:1072700088EA040806EBF76641443144CE184FEA29
:10728000BC01DDF820C048320CEBF66881EA050C41
:107290000CEA070C8CEA050C6444444404EB030C30
:1072A0004FEAB70484EA0108099F08EA060888EA59
:1072B000010807EBFC6745443D44EF184FEAB6056B
:1072C00085EA040852F8346C08EA0C0888EA0408D5
:1072D00006EBF76641443144CE184FEABC0181EA1F
:1072E000050808EA070852F830CC88EA05080CEBD4
:1072F000F66C4444644404EB030CA9464FEAB7041B
:1073000052F82C5C84EA0107374005EBFC684F40DB
:1073100007EB0905454405EB030852F8285C4FEAE2
:10732000B60605EBF86786EA040505EA0C05654034
:10733000294439444FEABC05CF1885EA060C52F8B7
:10734000241C0CEA080C8CEA060C01EBF76164447F
:10735000214401EB030C52F8204C4FEAB80181EABA
:10736000050808EA070888EA050804EBFC644644B7
:107370003444E61852F81C3C4FEAB70403EBF667B6
:1073800084EA010303EA0C034B402B443B448A4F3D
:10739000DD194FEABC0352F818CC0CEBF56883EA10
:1073A000040C0CEA060C8CEA040C6144414401EB29
:1073B000070C4FEAB60152F8146C06EBFC6881EA40
:1073C00003062E405E4034444444E61952F8104C03
:1073D0004FEAB50504EBF66885EA010404EA0C04FB
:1073E0004C4023444344DC1952F80C7C4FEABC0364
:1073F00007EBF46C86EA03076F4039440CEB010796
:107400006E4952F808CC0F444FEAB6060CEBF76809
:1074100084EA060C8CEA030C654445444FEAB40444
:1074200052F804CC87EA04080D4488EA06080CEBFD
:10743000F56C434463444FEAB70C176885EA0C08BF
:107440000B4488EA040807EBF36746443E44771888
:107450004FEAB505566883EA050888EA0C0806EB8A
:10746000F7664444344466184FEAB304936887EAE5
:10747000040888EA050803EBF663C44463444FEA52
:10748000B70CD76886EA0C080B4488EA040807EBB7
:10749000F36745443D444FEAB607166983EA070897
:1074A0000D4488EA0C0806EBF566444434444FEA80
:1074B000B30685EA06080C4488EA0708C444536901
:1074C0004FEAB50503EBF463634484EA05080B4413
:1074D00088EA06084744D2F818C04FEAB4040CEB17
:1074E000F36C674483EA04080F4488EA05084644BD
:1074F000D2F81CC04FEAB3030CEBF76C664487EA82
:1075000003080E4488EA04084544D2F820C04FEA34
:10751000B7070CEBF66C654486EA0708D2F824C07E
:107520000D4488EA03080CEBF56C444464440C44B5
:107530004FEAB60685EA060888EA07084344D2F807
:1075400028C04FEAB5050CEBF46C634403EB010C67
:1075500084EA0508D36A88EA060803EBFC6347441B
:107560003B44176B0B444FEAB40407EBF3688CEA17
:1075700004076F403E444FEABC074644D2F834C08B
:107580000E440CEBF66883EA070C8CEA040C6544A5
:107590004544D2F838C00D444FEAB3030CEBF5680C
:1075A00086EA030C8CEA070C644444440C444FEA1A
:1075B000B606D2F83CC003E09979825AA1EBD96EA5
:1075C0000CEBF46885EA060C8CEA030C674447442C
:1075D000D2F840C00F444FEAB5050CEBF76884EAD7
:1075E000050C8CEA060C6344434403EB010C516C1C
:1075F0004FEAB40401EBFC6344EA0501394004EAB4
:10760000050841EA080131440B44FE49A9465E18C9
:107610004FEAB703956C43EA040705EBF66807EAFF
:107620000C0703EA04052F4307EB090545446F18CF
:10763000A1464FEABC05D46C45EA030C04EBF7689D
:107640000CEA060C05EA03044CEA040C0CEB0904F2
:10765000444404EB010C99464FEAB604136D44EA26
:10766000050603EBFC683E4004EA05031E4306EBF7
:10767000090343445E18A9464FEAB703556D43EA30
:10768000040805EBF66708EA0C0803EA040548EA73
:10769000050808EB09053D446F18A1464FEABC05F3
:1076A000946D45EA030C04EBF7680CEA060C05EA56
:1076B00003044CEA040C0CEB0904444404EB010CF5
:1076C00099464FEAB604D36D44EA050603EBFC681D
:1076D0003E4004EA05031E4306EB090343445E18DB
:1076E000A9464FEAB703156E43EA040705EBF668AF
:1076F00007EA0C0703EA04052F4307EB0905454495
:107700006F18A1464FEABC05546E45EA030804EB26
:10771000F76C08EA060805EA030448EA040808EBDF
:107720000904644404EB010C99464FEAB604936ED5
:1077300044EA050603EBFC683E4004EA05031E43E9
:1077400006EB090343441944A846D36E4FEAB70534
:1077500003EBF16645EA040303EA0C0305EA0407B8
:107760003B4343441E44A74BA146F7184FEABC06CF
:10777000146F46EA050C04EBF7680CEA010C06EA04
:1077800005044CEA040C0CEB0904A9464444556F6B
:107790001C444FEAB10105EBF46841EA060C0CEA1F
:1077A000070C01EA06054CEA050C0CEB09054544FB
:1077B00005EB030CB1464FEAB705966F45EA0107A2
:1077C00006EBFC68274005EA0106374307EB09068C
:1077D000464489464FEAB404D16F1E4401EBF66774
:1077E00044EA050808EA0C0804EA050148EA010829
:1077F00008EB09013944CF18A9464FEABC01D2F879
:10780000805041EA040C05EBF7680CEA060C01EA2B
:1078100004054CEA050C0CEB0905454405EB030C8B
:10782000A1464FEAB605D2F8844045EA010604EBCA
:10783000FC683E4005EA0104264306EB0904444483
:10784000E61889464FEAB704D2F8881044EA0508DA
:1078500001EBF66708EA0C0804EA050148EA0108AA
:1078600008EB09013944CF18A9464FEABC01D2F808
:107870008C5041EA040C05EBF7680CEA060C01EAAF
:1078800004054CEA050C0CEB0905454405EB030C1B
:10789000A1464FEAB605D2F8904045EA010604EB4E
:1078A000FC683E4005EA0104264306EB0904444413
:1078B0002344D2F894604FEAB70406EBF3678CEAEE
:1078C00004066E4031447E184F494FEABC07D2F897
:1078D00098C00E440CEBF66883EA070C8CEA040CA3
:1078E00065444544D2F89CC00D444FEAB3030CEB09
:1078F000F56886EA030C8CEA070C64444444D2F829
:10790000A0C00C444FEAB6060CEBF46885EA060CFE
:107910008CEA030C67444744D2F8A4C00F444FEAF2
:10792000B5050CEBF76884EA050C8CEA060C634499
:107930004344D2F8A8C00B444FEAB4040CEBF368FC
:1079400087EA040C8CEA050C66444644D2F8ACC0C5
:107950000E444FEAB7070CEBF66883EA070C8CEA93
:10796000040C65444544D2F8B0C00D444FEAB3035B
:107970000CEBF56886EA030C8CEA070C644444447B
:107980000C44D2F8B4C04FEAB6060CEBF46885EAB2
:10799000060C8CEA030C67444744D2F8B8C00F4485
:1079A0004FEAB5050CEBF76884EA050C8CEA060C87
:1079B00063444344D2F8BCC00B444FEAB4040CEB1C
:1079C000F36887EA040C8CEA050C66444644D2F856
:1079D000C0C00E444FEAB7070CEBF66883EA070C09
:1079E0008CEA040C65444544D2F8C4C00D444FEA07
:1079F000B3030CEBF56886EA030C8CEA070C6444CD
:107A0000444403E0DCBC1B8FD6C162CAD2F8C8C0B4
:107A10000C444FEAB6060CEBF46885EA060C8CEAD7
:107A2000030C67444744D2F8CCC00F444FEAB50575
:107A30000CEBF76884EA050C8CEA060C63444344BB
:107A4000D2F8D0C00B444FEAB4040CEBF36887EAD9
:107A5000040C8CEA050C66444644D2F8D4C00E44AB
:107A60004FEAB7070CEBF66883EA070C8CEA040CC4
:107A700065444544D2F8D8C00D444FEAB3030CEB3B
:107A8000F56886EA030C8CEA070C64444444D2F897
:107A9000DCC00C444FEAB6060CEBF46885EA060C31
:107AA0008CEA030C67444744D2F8E0200F444FEAC5
:107AB000B50502EBF76C84EA050272401A44624491
:107AC00011447144816051993944C1600AEBB40199
:107AD00001610BEB0501416150993144816152B064
:107AE000BDE8F08F0021C0E9001107498160074916
:107AF000C1600549C94301610449C9434161044961
:107B000081610021C16170470123456789ABCDEFD9
:107B1000F0E1D2C32DE9F0474FF0000816460F46BA
:107B20000546C14600F1200A21E0E869C0F14004A1
:107B3000B44200D93446504422463946FBF742FD50
:107B4000D5E90030E2009A1840EB0900C5E90020B1
:107B5000E869361B20442744E861402807D1514694
:107B60002846FFF7EFFA4FF00108C5F81C90002EE9
:107B7000DBD1B8F1000F05D0BDE8F0474FF4B87085
:107B800000F005BBBDE8F0877047027801238B4009
:107B90001A4302707047000078B1012814D00228FF
:107BA0000AD10F4A0E4B02F63400B2F8342823F8FB
:107BB00012100188491C018070470A4A094B02F5DE
:107BC000C860B2F84026F2E70748B0F8E82320F88A
:107BD0001210B0F8E813491CA0F8E8137047000031
:107BE000300E002004040020460A00202DE9FF4F3B
:107BF00082460D4600200D9E144601463154401C1D
:107C0000C0B20628FAD3BAF1000F07D1284603996B
:107C1000FDF7F8FD20460399FDF7F4FDA878697893
:107C20004FF0400909EA500201F0040342EA43120E
:107C300001F020010A4300F0010042EA0013287815
:107C4000082707EA10110B43042202EA50010B43F4
:107C5000022101EA10100343E8784FF0100EC0F340
:107C60000010034333706B7803F002004FEA801C6E
:107C70002878834600F004004CEA001CA87800F045
:107C800008084CEA880C0EEA93084CEA080C00F04D
:107C900002084CEA880C02EAD0004CEA000C01EA27
:107CA000D3004CEA000CCBF300104CEA000C86F831
:107CB00001C0EB7803F040004FEA400C287807EA57
:107CC000930300F001084CEA881C95F80180C34634
:107CD00008F001084CEA481C00F002084CEAC80C05
:107CE0004CEA030CAB78C0F3801002EA93034CEA31
:107CF000030C01EA9B034CEA030C4CEA000C86F8E7
:107D000002C0607800F008034FEA031CA37898468D
:107D100003F001034CEA831C23789B4603F0200305
:107D20004CEA030C0EEAD0034CEA030C07EA980372
:107D30004CEA030CE378C0F3001002EAD3034CEAE8
:107D4000030C01EA5B134CEA030C4CEA000C86F8C6
:107D500003C0A07809EA500300F0020743EA871342
:107D6000277807F0080743EA870700F010031F434E
:107D7000637802EA500003F0010C47EACC0707439E
:107D800001EA13100743E078C0F30010074337718E
:107D9000E278207809EA520200F0040342EA431331
:107DA000A278202707EA52073B43677802F00402D3
:107DB00007F0040743EA870343EA420200F00103A5
:107DC00001EA901142EA83020A43C0F30010024321
:107DD0007271BAF1010F0AD128460399FDF72FFD00
:107DE000039904B02046BDE8F04FFDF728BDBDE87B
:107DF000FF8F00F0DFBA00001448016841F0010174
:107E0000016001688907FCD54168114A1140416051
:107E10004168104A11404160416821F440014160CD
:107E200001680D4A11400160C16A21F00F01C16271
:107E3000016B40F2431291430163416B21F0010158
:107E400041630021816001F0B5B9000000100240DB
:107E50000C00FF08FFFFC277FFFFF2FE7FB504466C
:107E60004FF4E06000F058FF4FF08045284601F0E5
:107E7000FDF90020ADF800404FF6FF71ADF80C00A1
:107E8000ADF80200ADF8040002918DF80E006946CD
:107E9000284601F035FA0121284601F07DFA2846EE
:107EA00001F029FA7FBD00001FB540F2017000F01B
:107EB00033FF184C204601F0D9F940F69700ADF891
:107EC0000000002148F69F40ADF80C10ADF80210FC
:107ED000ADF8041002908DF80E106946204601F0AE
:107EE0000FFA204601F0BCF90121204601F054FAB6
:107EF0004FF4C06000F0EEFE01220021102000F0DF
:107F0000A3FE0121204601F043FA204601F0EEF9DC
:107F10001FBD0000000400407047000010B5094C70
:107F20000121204601F03CFA01280AD10121204616
:107F300001F032FAFEF73AFF2046BDE8104001F0AA
:107F4000D5B910BD0004004010B50C4C20221146DC
:107F5000204601F094FA00280FD0204601F08BFA59
:107F6000074A1188074B0B44491C11801870108870
:107F7000B0F5007F01D30020108010BD0038014013
:107F8000940100200404002001F0A6BEFEE70000DA
:107F90000A494A688B689A4201D100207047084A12
:107FA0004B68D25C02704868401C48604868B0F575
:107FB000967F01D30020486001207047C400002054
:107FC000D802002004480021416081604FF496717E
:107FD0000248FBF710BB0000C4000020D8020020BC
:107FE0002DE9F04391B0894680460C460026442195
:107FF0006846FBF700FB184F0120387034B1387821
:108000000028FBD03D2C05D33D2504E011B04846A7
:10801000BDE8F083254644216846FBF7ECFA0520CD
:108020008DF800008DF8015008EB06012A460DF18D
:108030000200FBF7C7FA3F216846FCF787FA8DF884
:108040003F000020387040236A468121034801F038
:1080500007FC2E44641BD1E7240000202C000020E4
:108060002DE9F04190460F46054600F07BFB5FEAA4
:1080700088700CD13E46002416E02846316800F096
:1080800081FB002022182978BA5C8A4204D000F0D3
:1080900023FB0020BDE8F081401C6D1CC0B2042809
:1080A000F0D3361D241DA4B24445E6D300F014FBE2
:1080B0000120EFE770B5A4B08C216846FBF79BFA6E
:1080C0001C480078012833D18A221B496846FBF7F7
:1080D00079FA1AA06D460088ADF88A0000209DF854
:1080E0008A102A5C51408DF88A102A5C9DF88B100A
:1080F000401C1144C0B28DF88B108A28EFD3104E6B
:1081000000240F4905EBC40000233246083901F072
:108110009BF9641CE4B2082CF3D372B6094C2046D8
:10812000FDF764FD8C2269462046FFF799FF62B691
:1081300024B070BD00000020FC0100200000000001
:108140000CC9000800F8000838B507A000680090C6
:1081500072B6064C2046FDF749FD042269462046CA
:10816000FFF77EFF62B638BDAABBAABB00FC0008C1
:1081700002E008C8121F08C1002AFAD170477047F0
:10818000002001E001C1121F002AFBD1704710B589
:10819000A0B0044680216846FBF72DFAA4F18000C8
:1081A000002801DDFFF7F3FF20B010BD2DE9F041FD
:1081B000C1F30A52A2F2FF362F4A304B0D46044655
:1081C000142E2FDA002E12DAFBF702FB00221346E0
:1081D000FBF7A6FB4CD2002DBCBF4FF0004500249E
:1081E00046DB55EA040018BF254D19D140E0DFF801
:1081F00094C02CFA06F705EA070C5CEA040C08BFE9
:10820000BDE8F081FBF7E4FA00221346FBF788FB98
:108210002ED2002D03DD4FF48010F0400544BD4305
:10822000002425E0332EC8BFBDE8F081A6F1140C70
:108230004FF0FF3727FA0CF73C4208BFBDE8F0814A
:10824000FBF76AFB00221346FBF76AFB10D2002DF6
:108250000DDD142E08BF6D1C09D0C6F134000121BC
:1082600001FA00F02044A04238BF6D1C0446BC4314
:1082700029462046BDE8F0819C7500883CE4377EA5
:108280000000F03FFFFF0F0010B5012901D021B120
:1082900005E0012A03D1002010BD012A01D00220EF
:1082A00010BD4023024A812101F076FAF3E7000075
:1082B0009802002010B50446812101F0F5F9012152
:1082C000204601F0F1F9002010BD000010B5044671
:1082D000074901F00DFA06492046C91D01F008FAC8
:1082E0004023044A0121204601F056FA002010BD27
:1082F000CBC900089802002070B500230C782A4DE5
:108300001A4614F0600429D0202C4BD14A780C2A4C
:1083100020D2DFE802F01F47060A1F1F1F1F1F0E93
:10832000181C214A01230C3232E01F4A0123083273
:108330002EE001226A708A782A708B791B4A00210C
:1083400001F02AFA2EE04888000AE8602AE08878DE
:10835000A86027E001F04BF9022070BD4C78062C94
:1083600004D00A2C18D00B2C1CD119E04C88240AFC
:10837000212C07D0222C0BD1CB88312B00D93123D3
:108380000B4A05E0CB88092B00D90923084A173A84
:10839000802101F065FA05E0034A0123121DF7E789
:1083A00088786860002070BD1400002098020020CA
:1083B000D9C900080549486808B1401E48600868E6
:1083C000002802D00868401E08607047BC000020EA
:1083D0002DE9F04F814671A0934690E81C0098B0BB
:1083E000C068CDE90623CDE9084070A090E81C00E4
:1083F000C068CDE90A23CDE90C4000200FAB01ACE9
:1084000019F8002022540A5C1A54401CC0B20828F3
:10841000F6D300208DF80C008DF844002046FDF7BF
:108420008DF901AD2C1D13AA12A90FA8FDF7B2F901
:1084300000260DF1500A0DF11008BBF1000FCDF828
:1084400000A001D00AA800E006A813AA835D12A923
:108450005846FFF7CBFB16AA14A9204600F0F8F8FF
:1084600004A92046FDF778FB0020534618F80010B9
:108470001F5C794008F80010401CC0B20628F5D3F4
:10848000022104A8FDF7C8FB0746012104A8FDF757
:10849000C3FB47EA00108DF83800042104A8FDF75B
:1084A000BBFB0746032104A8FDF7B6FB47EA001013
:1084B0008DF83900062108F10300FDF7ADFB0746F2
:1084C000052108F10300FDF7A7FB47EA00108DF82E
:1084D0003A00082108F10300FDF79EFB074607213B
:1084E00008F10300FDF798FB47EA00108DF83B0008
:1084F0000EA8FEF7C1FC00210EA86B5C425C5A403E
:108500004254625C6A54425C6254491CC9B20429F8
:10851000F3D3761CF6B2102E8FD3002001AE3318A1
:10852000215C2A5C1A713154401CC0B20428F6D375
:108530000020014616AB1954401CC0B20828FAD3DB
:10854000002101270020C1F10702345C07EB400540
:10855000944004F08004EC405D5C4FEA400C2C43F6
:1085600035185C542D79954005F0800525FA0CF5F9
:108570002543401CC0B25D540428E6D3491CC9B24F
:108580000829DFD300201A5C09F80020401CC0B283
:108590000828F8D318B0BDE8F08F000001010202EE
:1085A00002020202010202020202020101020202AE
:1085B000020202010202020202020101F0B5184D9C
:1085C0002B6883432B602E1D336883433360331D38
:1085D0001C6884431C601C1D27688743276011B1F9
:1085E000012907D103E029680143296002E03168CD
:1085F0000143316052B1012A0ED0022A05D1196817
:1086000001431960216801432160F0BD19680143ED
:10861000196021688143F7E719688143F1E7000099
:108620000004014001490860704700001404014043
:1086300006490968014206D0044914390968014213
:1086400001D0012070470020704700001404014051
:108650007CB50E4614466946FDF77EFA00236D464A
:10866000F15CE85C4840E8545B1CDBB2062BF7D3B6
:1086700002212846FDF7D0FA064601216846FDF79B
:10868000CBFA46EA0010207004216846FDF7C4FAD0
:10869000064603216846FDF7BFFA46EA00106070FF
:1086A0000621E81CFDF7B8FA06460521E81CFDF78F
:1086B000B3FA46EA0010A0700821E81CFDF7ACFAF6
:1086C00006460721E81CFDF7A7FA46EA0010E0700D
:1086D0002046FEF7D1FB7CBD0248016941F08001D4
:1086E000016170470020024070B505464FF47026C6
:1086F000304600F017F8002810D1094C206940F0EE
:10870000020020616561206940F040002061304630
:1087100000F008F8216921F00201216170BD00001C
:108720000020024000B5034600F008F85B1E012857
:1087300002D1002BF8D1042000BD00000849002020
:10874000CA68D20701D001207047CA68D20601D595
:1087500002207047C9684907FBD503207047000015
:108760000020024004480169090603D5034941601D
:108770000349416070470000002002402301674523
:10878000AB89EFCDF0B506464FF470270D4638465D
:10879000FFF7C8FF00280CD1064C206940F001000B
:1087A000206135603846FFF7BDFF216921F00101E6
:1087B0002161F0BD0020024010B5002821D0114BEE
:1087C000001F0022196803E0814203D80A46496865
:1087D0000029F9D152B11368841A9C4204D100686F
:1087E00018441060104602E0506000E0186039B193
:1087F00002680B1A934203D10B681A44026049685D
:10880000416010BDF40100202DE9F04703460C78CB
:1088100000202B2C03D14C78202C03D1891C0C7800
:108820000D2C3DD0324F4FF0FF3A0C78802C45D2C2
:1088300017F80490B9F1FF0F40D04E78802E3DD24A
:1088400017F806C0BCF1FF0F38D08C783D2C04D04F
:10885000802C33D23D5DFF2D30D0CD783D2D06D01C
:10886000802D2BD217F80580B8F1FF0F26D0091DF7
:10887000401C0AB1904221DC4FEA890848EA1C1CDE
:1088800003F801CB3D2C2AD0401C0AB1904215DCE4
:10889000BE5D36074FEA166C802C04D23E5D03E0C5
:1088A0000020BDE8F087FF264CEA960603F8016B2E
:1088B0003D2D14D0401C1AB1904201DD5046F0E726
:1088C000802C01D23C5D00E0FF24A407260E802D01
:1088D00001D27C5D00E0FF24264303F8016B0C7895
:1088E000002CDED00D2CDCD03D2D9ED1D9E7000030
:1088F000110100200148406870470000BC000020C2
:108900000122824002EA01007047F0B5046A456A1C
:1089100000234FF0010C4FF00F0E0CFA03F6164235
:1089200006D09E000EFA06F7BC4301FA06F73C4358
:108930005B1C9BB2082BF0D308230CFA03F61642FB
:1089400007D09E00203E0EFA06F7BD4301FA06F757
:108950003D435B1C9BB2102BEFD304624562F0BD1C
:108960008161704770B540F2125000F0D5F94FF0B8
:108970009044802300220221204600F03FF880230B
:1089800003220021204600F05DF8802202212046CB
:10899000FFF7BBFF184D012300220221284600F0FB
:1089A0002DF8012303220021284600F04BF8012274
:1089B00002212846FFF7A9FF022300221946284674
:1089C00000F01CF8022303220021284600F03AF8A8
:1089D000022211462846FFF798FF2023002201219A
:1089E000204600F00BF82046BDE87040202303220B
:1089F000002100F027B80000000400482DE9F047EE
:108A00000568C66800244FF0010A4FF003090AFA0E
:108A100004F71F420ED0670009FA07FC25EA0C058F
:108A200026EA0C0601FA07F802FA07FC48EA0505EF
:108A30004CEA0606641CA4B2102CE8D30560C6609C
:108A4000BDE8F087F0B50129416818D0994341602D
:108A5000846800210126032706FA01F51D4208D08B
:108A60004D0007FA05FC24EA0C0402FA05FC4CEA66
:108A70000404491C89B21029EED38460F0BD194367
:108A8000E5E7000002480021C170017141717047A3
:108A90000000002000F0C4FB00F030F9FDF708F8FA
:108AA000FFF760FF4FF450514FF0006000F01CF9E9
:108AB00062B625494FF67F7008602320FFF7CEF994
:108AC000FFF7F2F9214800F053FD21A000F0D2FC9D
:108AD00000F0AEF824A000F0CDFC20214FF0904033
:108AE000FFF73EFF25A000F0C5FC1849052048709F
:108AF00027A000F0BFFCFFF765FAFEF787FA2C4EBF
:108B00002C4D00242C4FDFF8B480DFF8B490FBF735
:108B1000C5FFFBF767FD30780028F8D0FFF7EAFEC5
:108B20000028F4D1FDF706FCFDF7A2FC287810B16F
:108B3000FDF732F92C70FDF7B9F83C7088F8004069
:108B400089F80040E3E700004C5C00402C00002066
:108B5000312E757362645F636F72655F696E6974ED
:108B60002E2E2E0D0A000000322E6E7669635F6392
:108B70006F6E6669672E2E2E0D0A0000332E677009
:108B8000696F5F6269745F7365742E2E2E0D0A0023
:108B9000342E7573625F6465766963655F646576BC
:108BA0002E7374617475732E2E2E0D0A0000000052
:108BB0009101002001000020AC000020AD00002049
:108BC000AE000020F0B50B30154D20F00701002459
:108BD000144A0FE003688B420BD38B4205D95E1A0F
:108BE00043184768C3E9006700E04368136002C0A8
:108BF00004E0021D10680028ECD12046002802D1B4
:108C0000286808B10020F0BD064A07481060074AEE
:108C1000121A22F00702C0E9002401202860D7E7D9
:108C2000F8010020F40100204C1D0020681D0020E8
:108C300010B54FF4C06000F04DF800220121BDE8EE
:108C400010402520AFF3008070B5204D002423464E
:108C50002E68C6F30226072E14D02E68C6F302260D
:108C6000062E11D02E68C6F30226052E0FD02E68D0
:108C7000C6F30226042E0DD02D68C5F30225032D60
:108C80000BD00BE0042309E00124032306E00224B7
:108C9000234603E00324012300E00424C4F1040478
:108CA000A140C3F104040F23E3401340084A0B43DF
:108CB0001901815400F01F020121914040094FF039
:108CC000E02202EB8000C0F8001170BD0CED00E066
:108CD00000E400E0024908430249086070470000D0
:108CE0000000FA050CED00E0024A11400143024881
:108CF0000160704780FFFF1F08ED00E010B540F2F3
:108D0000115000F009F8002000F030F8BDE81040E4
:108D100040F21770AFF30080054901EB90110A682B
:108D200000F01F030120984002430A6070470000D2
:108D300000100240054901EB90110A6800F01F0382
:108D40000120984082430A607047000000100240F2
:108D5000054901EB90110A6800F01F0301209840BB
:108D600002430A60704700000010024004494A684C
:108D700022F440024A604A6802434A607047000099
:108D800000100240054801684FF6FB721140016077
:108D90000168121F1140016070470000405C0040F4
:108DA0002DE9F047A4B0D5A1D74DD1E900238968BA
:108DB000CDE91E232091A978002406220327D34B56
:108DC000DFF84CC32D784FF0010A4FF00B094FF03C
:108DD0000A086E4651287DD00EDC22287BD006DCA6
:108DE00006281AD00A2877D0152811D115E028288E
:108DF00017D04E280CD1BBE0742859D004DC54287D
:108E00006BD0552804D108E07E2835D0F3286ED0E9
:108E1000FFF738FE24B0BDE8F0878DF8000001248C
:108E200065E18DF80020B1468DF80150B948FAF798
:108E30000BFC8DF80200BA460324B648FAF704FC8E
:108E40006840C6B20025DFF8CC824F4607E018F82C
:108E500005003855641C46406D1CE4B2EDB2AD48C7
:108E6000FAF7F2FBA842F2D807F804A0641CE0B2BB
:108E700086F003013954B6E07E2916D18DF8002022
:108E80008DF801507E208DF802008DF803A0587AED
:108E90008DF8040085F07F0148408DF8057080F062
:108EA00003008DF80600072421E1FFF7EBFD1EE12A
:108EB0007429FAD1964B8DF80020022000218DF8FC
:108EC00001500B335A5C3254401C6A40C0B2154604
:108ED000491C03E030E00BE0A5E065E0C9B20829D9
