:020000040800F2
:10340000601F00207D3500086F76000815650008F4
:103410006D7600086F4700088987000800000000EB
:103420000000000000000000000000007D83000894
:103430009551000800000000A3770008E785000808
:10344000973500089735000897350008973500082C
:10345000973500087160000897350008456100083D
:10346000973500089735000897350008973500080C
:103470009735000897350008973500080D87000834
:1034800011870008973500080000000097350008F4
:1034900097350008973500089735000897350008DC
:1034A0009735000897350008973500083D870008D4
:1034B0009735000800000000973500080000000064
:1034C0009735000800000000973500089735000880
:1034D0009735000885870008973500080000000030
:1034E0000000000000000000973500089735000834
:1034F000973500089735000897350008973500087C
:103500009735000800000000000000009735000813
:1035100000000000000000000000000000000000AB
:10352000000000000000000000000000000000009B
:10353000000000000000000000000000000000008B
:10354000000000000000000000000000000000007B
:1035500000000000000000009735000897350008C3
:103560009735000897350008DFF80CD000F02CFBE9
:10357000004800476D9C0008601F002006488047F7
:1035800006480047FEE7FEE7FEE7FEE7FEE7FEE748
:10359000FEE7FEE7FEE7FEE7ED8500086935000877
:1035A0000649074A0868504343F23902104408604C
:1035B000400870470149086070470000FC01002086
:1035C0006D4EC64140EA01039B0703D009E008C9DC
:1035D000121F08C0042AFAD203E011F8013B00F8D8
:1035E000013B521EF9D27047D2B201E000F8012B24
:1035F000491EFBD270470022F6E710B513460A4673
:1036000004461946FFF7F0FF204610BD30B50546C9
:103610002A460B4612F8010B13F8014B08B1A042E1
:10362000F8D01CB1002802D06D1CF1E7284630BD4F
:1036300010B5044604E00B7800F8013B03B1491CC7
:10364000521EF8D2204610BD421C10F8011B002962
:10365000FBD1801A704730B504460020034600E0D5
:103660005B1C934203D2E05CCD5C401BF8D030BDC4
:1036700070B521F0004303430CD0C1F30A55002478
:10368000D5EB040564EB0403D617AD1AB34102DB96
:103690000020014670BD201841EB025170BD0EB5EF
:1036A000C10F80EAE0700844CA07002140F23343AA
:1036B0008DE80E000A460B4600F07FF803B000BD0F
:1036C000C1F30A5210B5C1F3130140F2FF3341F4C4
:1036D00080119A4201DA002010BD40F233439A4231
:1036E000A2F2334203DC524200F04AF810BD90408F
:1036F00010BD30B50B46014600202022012409E010
:1037000021FA02F59D4205D303FA02F5491B04FA9A
:1037100002F52844151EA2F10102F1DC30BD2DE9AD
:10372000F05F0546002092469B4688460646814645
:1037300040241BE0284641464746224600F020F838
:1037400053465A46C01A914110D311461846224694
:1037500000F04CFA2D1A67EB01084F462246012073
:10376000002100F043FA17EB00094E41201EA4F19E
:103770000104DFDC484631462A464346BDE8F09F57
:10378000202A04DB203A21FA02F00021704721FAB6
:1037900002F3D040C2F1200291400843194670471D
:1037A00010B5002B08DA401C41F1000192185B4172
:1037B0001A4301D120F0010010BD2DE9F04D9246D1
:1037C0009B4611B1B1FA81F202E0B0FA80F22032E8
:1037D000904600F00BFA04460F4640EA0A0041EA20
:1037E0000B0153465A46084303D120463946BDE8EB
:1037F000F08D114653EA010015D0C8F14002504641
:10380000FFF7BEFF05460E4650465946424600F0B9
:10381000EDF9084301D0012000E00020054346EA0D
:10382000E0762C4337430A984FEA4453A0EB080054
:103830004FEAD4240A304FF0000244EA47544FEADA
:10384000D72502D500200146D1E7010510196941AD
:10385000DDE9084500196941BDE8F04DA0E72DE913
:10386000FE4F804681EA0300C00F0C46009021F015
:10387000004123F00045B8EB0200A94105D24046C3
:10388000214690461C460B46024623F0004010435A
:1038900004D14046214603B0BDE8F08F270DC7F3A1
:1038A0000A00C3F30A510290401A0190402866DAD8
:1038B000C3F3130040F4801B0098924620B100230C
:1038C000D2EB030A63EB0B0B01985946C0F140029F
:1038D000504600F08BF906460D4650465946019A6F
:1038E00000F093F910EB08006141002487EA1152BF
:1038F00084EAE7731A433BD0009A3AB3019A012A4B
:103900004FEA075210DC001B61EB02014FF000424E
:1039100002EA0752CDE90042001C41F5801132460F
:103920002B46FFF74AFFB6E7001B61EB0201001CC4
:1039300041F5801300185B412018A2F5001747EBF2
:10394000030140EAD570B6196D4111E06D084FEAE8
:10395000360645EAC0754FEA0752001B61EB0201CB
:10396000001C41F5801149084FEA3000001951410F
:1039700032462B4603B0BDE8F04FFFF711BF009869
:10398000012240000023D0EB020263EBE0730098B9
:1039900021464FEAE074B8EB000061EB0401E9E76F
:1039A00083F000435BE781F0004158E72DE9FE4FCB
:1039B00081EA030404F0004421F0004100944FF038
:1039C000000B23F0004350EA010402D052EA030442
:1039D00004D10020014603B0BDE8F08FC3F30A54C0
:1039E000C1F30A552C44A4F2F3340194A0FB025411
:1039F000C1F3130141F48011C3F3130343F48013A3
:103A000001FB024400FB034E840A970A44EA8154F6
:103A100047EA8357A4FB076802958D0A05FB0785D3
:103A20004FEA932C04FB0C542705029D4FEA0658DD
:103A300047EA1637B5EB08056EEB070C870E920EBA
:103A400047EA811742EA8312A7FB0201B6EB0B019A
:103A500064EB00042B0D43EA0C335E1844EB1C505E
:103A6000DA465146E7FB0201C5F313044FEA0B3374
:103A700043EA14534FEA0432019C43EA0603A4F1DB
:103A80000C040294009CCDE900B4FFF796FEA2E777
:103A90002DE9F04D81EA030404F0004B21F00045CC
:103AA00014464FF0000A23F0004150EA050220D0EE
:103AB00054EA01021DD0C5F30A570246C5F31303A9
:103AC000C1F31300C1F30A5640F4801543F4801388
:103AD000A7EB0608101BD64608F2FD3873EB05006D
:103AE00002D308F1010801E092185B41B8F1000F20
:103AF00003DA00200146BDE8F08D00204FF480116C
:103B0000064684460EE0171B73EB050705D3121B10
:103B100063EB050306434CEA010C49084FEA300009
:103B200092185B4150EA0107EDD152EA030012D02E
:103B300082EA040083EA0501084303D100224FF022
:103B4000004308E0101BAB4102D20122002302E037
:103B50006FF0010253101AEB06004CEB085110EB0A
:103B60000A0041EB0B01BDE8F04DFFF719BEC1F3B0
:103B70000A52C1F3130140F2FF3341F480119A421B
:103B800002DA00200146704740F233439A42A2F223
:103B9000334202DC5242FFF7F3BD00F027B80000C9
:103BA00030B5002904DB4FF00044404264EB0101D2
:103BB000002B04DB4FF00044524264EB03039942B4
:103BC00008BF904230BD0000064C074D06E0E0689B
:103BD00040F0010394E8070098471034AC42F6D354
:103BE000FFF7C6FC1CE400083CE40008202A04DBC4
:103BF000203A00FA02F1002070479140C2F1200300
:103C000020FA03F3194390407047202A06DBCB17B4
:103C1000203A41FA02F043EAE07306E041FA02F387
:103C2000D040C2F12002914008431946704770B558
:103C300001EB020410F8015B15F0070301D110F845
:103C4000013B2A1106D110F8012B03E010F8016B9B
:103C500001F8016B5B1EF9D12B0705D40023521E1E
:103C60000FD401F8013BFAE710F8013B02F1020220
:103C7000A1EB030303E013F8015B01F8015B521EA3
:103C8000F9D5A142D6D3002070BD2DE9FF470646E5
:103C9000DDE90C70994614460D46E846B0B94EE091
:103CA00000204246315C3B5C59401154401C1028B6
:103CB000F8D34A462946684600F020FA10222946E1
:103CC0003846FFF77FFC103C10361035102CE7D239
:103CD000002C51D00020414604E0325C3B5C5A404D
:103CE0000A54401CA042F8D302E0385D0855641C19
:103CF000102CFAD369464A46084600F0FFF9102214
:103D000069462846FFF75EFC31E0102231466846DE
:103D1000FFF758FC4A462946304600F02FF80020AD
:103D2000295C3A5C51402954401C1028F8D31022D9
:103D300069463846FFF746FC103C10361035102C0B
:103D4000E3D2002C18D0102231466846FFF73AFC27
:103D500069464A46084600F011F80020424604E051
:103D6000115C3B5C59402954401CA042F8D31022FE
:103D700069463846FFF726FCBDE8FF872DE9F84F76
:103D8000C3780478857883EA04634478D84E2404A1
:103D900084EA052463401468857983EA0409C379B9
:103DA000047983EA04634479240484EA05246340A3
:103DB0005468857A83EA040AC37A047A83EA04643D
:103DC000437A1B0483EA05235C409368057B5C40CF
:103DD000C37B83EA0565437B807B1B0483EA002069
:103DE0004540D0684540D2F8F00040100090DFF820
:103DF00004B34FEA19630BF58060C5F307475BF81E
:103E0000233050F827000BF5006EC4F3072743401A
:103E10005EF827000AF0FF07C9F3074C56F8277031
:103E2000CAF307487840434010694FEA1A67434095
:103E30005BF827000BF5806757F82C70C5F3072C4B
:103E400078405EF82C7004F0FF0C56F82CC087EA1E
:103E50000C07784057694FEA146C78405BF82C7077
:103E60000BF5806CC4F307445CF828C0C9F307283D
:103E700087EA0C075EF828C005F0FF0856F828808E
:103E80008CEA080C87EA0C07D2F818C087EA0C07FE
:103E90004FEA156C5BF82C500BF5806C5CF82440F5
:103EA000CAF3072C65405EF82C4009F0FF0C56F869
:103EB0002CC084EA0C046540D46920326540009C23
:103EC000641E00946DD04FEA136CC5F307485BF88D
:103ED0002C400BF5806CDE465CF828C00BF5006BBF
:103EE000C7F3072884EA0C045BF828C000F0FF0839
:103EF00056F828808CEA080C84EA0C04D2F800C03A
:103F0000C3F3074884EA0C094FEA106C5EF82C40B2
:103F1000ABF5806C5CF828C0C5F3072884EA0C0474
:103F20005BF828C007F0FF0856F828808CEA080CD8
:103F300084EA0C04D2F804C0C0F3074884EA0C0AEF
:103F40004FEA176CC7F307475EF82C40ABF5806C5F
:103F5000C0F307205CF828C0C3F3072884EA0C04E8
:103F60005BF828C005F0FF08DBB256F828805BF844
:103F700020008CEA080C84EA0C04D2F808C056F839
:103F8000233084EA0C044FEA156C58405EF82C503C
:103F9000ABF5806C5CF827707D404540D0684540AB
:103FA00025E7554C1E0EC5F3074C54F8266054F80F
:103FB0002CC006F07F460CF47F0C86EA0C06C7F393
:103FC000072C34F82CC00CF47F4C86EA0C0600F069
:103FD000FF0C14F82CC086EA0C06D2F800C086EA62
:103FE0000C064FEA166C81F800C04FEA164C81F8B7
:103FF00001C04FEA162C81F802C0CE70060EC3F342
:10400000074C54F8266054F82CC006F07F460CF498
:104010007F0C86EA0C06C5F3072C34F82CC00CF490
:104020007F4C86EA0C0607F0FF0C14F82CC086EAD9
:104030000C06D2F804C086EA0C064FEA166C81F82A
:1040400004C04FEA164C81F805C04FEA162C81F8DF
:1040500006C0CE713E0EC0F3074C54F8266054F8EB
:104060002CC006F07F460CF47F0C86EA0C06C3F3E6
:10407000072C34F82CC00CF47F4C86EA0C0605F0B3
:10408000FF0C2D0E14F82CC086EA0C06D2F808C0DE
:1040900086EA0C064FEA166C81F808C04FEA164C07
:1040A00081F809C04FEA162C81F80AC0CE72C7F316
:1040B000074654F8255054F8266005F07F45C0F3B4
:1040C000072006F47F0634F82000754000F47F4096
:1040D0004540D8B214F820004540D0684540280E2D
:1040E0000873280C4873280A8873CD73BDE8F88FCD
:1040F00088D8000888CC000888DC00082DE9F84F33
:10410000C3780478857883EA04634478D84E24041D
:1041100084EA052463401468857983EA0409C37935
:10412000047983EA04634479240484EA052463401F
:104130005468857A83EA040AC37A047A83EA0464B9
:10414000437A1B0483EA05235C409368057B5C404B
:10415000C37B83EA0565437B807B1B0483EA0020E5
:104160004540D0684540D2F8F00040100090DFF89C
:1041700004B34FEA19630BF58060CAF307475BF895
:10418000233050F827000BF5006EC4F30727434097
:104190005EF82700EFB2C4F3074C56F82770C5F35A
:1041A00007487840434010694FEA1A6743405BF87C
:1041B00027000BF5806757F82C70C5F3072C784063
:1041C0005EF82C7009F0FF0C56F82CC087EA0C073B
:1041D000784057694FEA146C78405BF82C700BF507
:1041E000806CE4B25CF828C0C9F3072887EA0C07A2
:1041F0005EF828C00AF0FF0856F8244056F82880D8
:104200008CEA080C87EA0C07D2F818C0C9F30748F3
:1042100087EA0C074FEA156C5BF82C500BF5806CA5
:104220005CF828C0CAF3072885EA0C055EF828C0A8
:104230008CEA040CD46985EA0C056540009C2032A8
:10424000641E00946DD04FEA136CC0F307485BF80E
:104250002C400BF5806CDE465CF828C00BF5006B3B
:10426000C7F3072884EA0C045BF828C005F0FF08B0
:1042700056F828808CEA080C84EA0C04D2F800C0B6
:10428000C7F3074884EA0C094FEA106C5EF82C402B
:10429000ABF5806C5CF828C0C5F3072884EA0C04F1
:1042A0005BF828C003F0FF0856F828808CEA080C59
:1042B00084EA0C04D2F804C0C5F3074884EA0C0A67
:1042C0004FEA176C5EF82C40ABF5806C5CF828C0A8
:1042D000C3F3072884EA0C045BF828C000F0FF0849
:1042E000C3F3074356F82880C0F307208CEA080C74
:1042F00084EA0C04D2F808C05BF8200084EA0C04BD
:104300004FEA156C5EF82C50ABF5806C5CF82330EE
:104310005D40FBB256F8233058404540D0684540D8
:1043200025E7554C1E0EC0F3074C54F8266054F890
:104330002CC006F07F460CF47F0C86EA0C06C7F30F
:10434000072C34F82CC00CF47F4C86EA0C0605F0E0
:10435000FF0C14F82CC086EA0C06D2F800C086EADE
:104360000C064FEA166C81F800C04FEA164C81F833
:1043700001C04FEA162C81F802C0CE70060EC7F3BA
:10438000074C54F8266054F82CC006F07F460CF415
:104390007F0C86EA0C06C5F3072C34F82CC00CF40D
:1043A0007F4C86EA0C0603F0FF0C14F82CC086EA5A
:1043B0000C06D2F804C086EA0C064FEA166C81F8A7
:1043C00004C04FEA164C81F805C04FEA162C81F85C
:1043D00006C0CE713E0EC5F3074C54F8266054F863
:1043E0002CC006F07F460CF47F0C86EA0C06C3F363
:1043F000072C2D0E34F82CC0C3F307430CF47F4C6C
:1044000086EA0C0600F0FF0C14F82CC086EA0C06B5
:10441000D2F808C086EA0C064FEA166C81F808C08C
:104420004FEA164C81F809C04FEA162C81F80AC0F1
:10443000CE7254F8255054F8233005F07F45C0F370
:10444000072003F47F0334F820005D4000F47F4030
:104450004540F8B214F820004540D0684540280E89
:104460000873280C4873280A8873CD73BDE8F88F49
:1044700088C4000888B8000888C80008F0B5002380
:1044800050B14AB14FF48076802908D0C02906D0B7
:10449000B14204D0981EF0BD4FF0FF30F0BD80292E
:1044A0007DD0C0297CD00E25C2F8F050C4780578A4
:1044B000877884EA056445782D0485EA07256C40F1
:1044C0001460C4790579877984EA056445792D04F7
:1044D00085EA07256C405460C47A057A877A84EAB5
:1044E0000564457A2D0485EA07256C409460C47BF9
:1044F000057B877B84EA0564457B2D0485EA0725D7
:104500006C40804FD460A7F5C05480297ED0C57C14
:1045100090F810C090F812E085EA0C6590F811C090
:10452000C0294FEA0C4C8CEA0E2C85EA0C0515616B
:10453000C57D90F814C090F816E085EA0C6590F8F7
:1045400015C04FEA0C4C8CEA0E2C85EA0C0555611F
:1045500073D0C57E90F818C090F81AE085EA0C6513
:1045600090F819C04FEA0C4C8CEA0E2C85EA0C0529
:104570009561C57F90F81CC085EA0C6590F81DC058
:10458000807F4FEA0C4C8CEA00204540D561B14257
:104590007ED1D069C0F3074554F8255001E04DE0C5
:1045A0004EE0116805F07F456940C0F30725C6B2AB
:1045B00054F8255034F8266005F47F0506F47F464C
:1045C00075406940050E14F82550694057F823508E
:1045D0005B1C6940116255684D40556296686E409B
:1045E0009662D1687140D162072B51D00E0E1569C9
:1045F00054F82660C1F3072C06F07F467540C1F3DE
:10460000074654F8266006F47F0600E01AE034F806
:104610002CC0C9B20CF47F4C86EA0C0614F82110A9
:1046200075404D40156351696940516395694D402E
:104630006840C2E90E502032ABE730E00A2533E78C
:104640000C2531E7D0681168C0F30745C6B254F8AD
:10465000255034F8266005F07F456940C0F30725F2
:1046600006F47F4654F8255005F47F0575406940EF
:10467000050E14F82550694057F823506940116120
:1046800055684D4055619168694048405B1C00E0A9
:1046900036E0C2E906100A2B32D01032D2E7506958
:1046A0001168C0F30745C6B254F8255034F82660A7
:1046B00005F07F456940C0F3072506F47F4654F8AE
:1046C000255005F47F0575406940050E14F8255006
:1046D000694057F823505B1C6940916155684D4013
:1046E000D561916869401162D5684D405562082BCB
:1046F00006D0116969404840C2E90A101832CEE775
:104700000020F0BD88E00008F8B5D3072DD102EBFA
:10471000D272561000246D4623E002788DF80020F6
:104720004278801C8DF801200022AB5CA3F1410788
:10473000052F01D8373B08E0A3F16107052F01D809
:10474000573B02E0303B092B0FD8AB54521C022AD6
:10475000EBDB9DF800209DF8013043EA02120A5578
:10476000641CB442D9DB0120F8BD0020F8BDFEE78F
:10477000F8B5144901244C70134A20461746A2F19B
:10478000100102F02DF810482C38002590F8331055
:10479000808E01F01F0146BA61F31F462146304664
:1047A00001F0EAFE084B014664333A4601200095C9
:1047B00001F0FAFE641CE4B2304601F0D9FFA042D9
:1047C000ECDAF8BD000000203802002010B50346E6
:1047D0000022104602E09C5C6040521C8A42FAD3E0
:1047E00010BD10B50346022002E09C5C6040521CE4
:1047F0008A42FADB10BD00221146C30701D0521CC9
:10480000D2B2491C4008C9B20829F6D3012A01D006
:10481000002070470120704730B50024234607E090
:10482000C55CD540ED0701D0641CA4B25B1C9BB2F3
:104830008B42F5D3E00701D0002030BD012030BD10
:1048400000F00F02044901EB10108A5C007842402E
:1048500002F00100704700000CE400080278012318
:104860008B409A4302707047027801238B405A4074
:10487000027070472DE9F04F4FF0000987B04C46A9
:10488000FE4DCDF80890687955287DD1002006F0BE
:10489000E3FFDFF8EC830127FA4898F80010009056
:1048A000012951D198F80500012841D1A97A01299F
:1048B00004D0A872287B10B101280DD04BE2F1483A
:1048C0002F7310218430FEF796FEEE48102208F177
:1048D00006018430FEF776FEEA482C73AC72102194
:1048E0009430FEF788FEE748102208F10601943064
:1048F000FEF768FEE34910229431A1F1100006F0A2
:10490000B7FF10210098FEF776FEDE4910228431B1
:104910000098FEF757FEDB4810218430FEF76BFE4F
:10492000D84810219430FEF766FE062005F0D0FB33
:1049300098F80500022843D1E97A022940D0E872AC
:10494000287B10B101280DD03AE0CE482F731021FA
:104950008430FEF750FECB48102208F10601843067
:10496000FEF730FEC7482C73EC7210219430FEF72E
:1049700042FEC448102208F106019430FEF722FEE0
:10498000C0491022943100E06EE1A1F1100006F060
:104990006FFF10210098FEF72EFEBA4910228431D5
:1049A0000098FEF70FFEB74810218430FEF723FE73
:1049B000B44810219430FEF71EFE062005F088FB57
:1049C00098F800004146022817D14878552815D09C
:1049D000AC4E0DF1080A1C3E06F10C020192412872
:1049E0001FD028287ED0F8287DD04FF0310B4628E4
:1049F0007AD0522879D0532878D0ACE1062005F03F
:104A000067FB05F02BF903F09DFFBFF34F8F9E4826
:104A100001689E4A01F4E06111430160BFF34F8FCA
:104A2000FEE70D46CA78C146091D5046FEF7CAFD8D
:104A3000E878C508400700D06D1C039404940594E1
:104A40000694707A322801D0332877D1B07A312891
:104A500001D1FFF78DFEB07AB046302802D0312860
:104A600007D023E08748102274300199FEF7AAFD91
:104A70002FE0844A00237C329346A2F1080102A869
:104A800006F026F801240FE00AEBC406F11F3046B9
:104A9000082206F0EDFE7B49701C00235A46743153
:104AA00006F016F8641CA4B2AC42EDD398F80A00E4
:104AB00032280ED17348764A80217430FFF7DEFC2D
:104AC00003A8CDE9000702A92A01714B0846FFF7A8
:104AD000DCF898F80900444633280DD199F80350C2
:104AE0002A4604E027E02AE02DE09EE0EDE065495B
:104AF00002A81A31FEF766FDA07A312802D03028CC
:104B000008D011E00AEB0500E16A0160216B416009
:104B1000A18E07E00AEB050054F83E1F01606168B2
:104B20004160218901810A3540F6B832294602A840
:104B300003F054FE412005F0CBFA0CE15CE002F0FA
:104B40009DFE0620F7E78878462832D1DFF84481B9
:104B5000C8F80040EA79C91CD21F404604F040FF63
:104B6000287298F80000FF287ED10021404604E01A
:104B7000425C491C82EA090989B22A7A521E914292
:104B8000F6DB297A014411F8012C4A456CD1817871
:104B9000297241780A2912D0F3290AD1297A0129E8
:104BA00003D198F80300022804D0152005F090FAEC
:104BB0006C72D0E0F32005F08BFA6F72CBE0697A6B
:104BC000D1B1297A112902D1C178322903D0297AA9
:104BD000212913D0BFE02A7A2A49521E103108F148
:104BE0000400FFF791FD01F05DFC28B10A2005F0FB
:104BF0006FFA02206872AEE015209CE7C178332975
:104C000012D12A7A08F10400521E0099FFF77CFDA8
:104C100086F80AB0332070722F7003F049FE0A2024
:104C200005F056FA6C722C7095E08878542849D0BB
:104C300008DC1F2846D0222844D04E2842D05128D4
:104C400076D13FE074283DD07E283BD080286FD1BC
:104C5000707A33286DD1C878802832D198F8040052
:104C600002282ED1002700E077E0D146F06AB8464E
:104C70004FF07F0A029000260EE0000000000020A6
:104C8000BC190020280200200CED00E00400FA0509
:104C9000481C00202B1A0020FEF782FC90FBFAF241
:104CA0000AFB120009F807007F1C761CB6B2BFB2DF
:104CB000062EE1D308F101001FFA80F8B8F1020FC7
:104CC000D9D357E005F004FA58E098F802004FF005
:104CD0003009392873D01CDC1D284BD00ADCA0F128
:104CE00011000A2837D2DFE800F06B367B36363603
:104CF000875EA2FD36286FD006DC21286DD03428CF
:104D00006CD0352827D198E1372868D0382822D1AF
:104D1000B7E14FF0320A76287ED010DC58287CD0DC
:104D200008DC4C287AD04E2879D0542813D11CE1C5
:104D300011E021E05C2823D074280CD196E086286D
:104D40000ED004DC84286BD0852804D1F0E0D22872
:104D500067D0D32866D004F081FF07B0BDE8F08F9C
:104D600098F80310012907D198F80400012801D10F
:104D700086F88D000620A5E71520A3E76C71ECE707
:104D800041465C28F8D1C8780128F7D198F804008A
:104D9000012805D0022803D0042801D00728E9D132
:104DA00086F88C00E6E7347286F809B0F472AC70CD
:104DB0002F7003F07DFD2C7000F0C8FFDAE76CE186
:104DC00098F803100129D7D198F80400A0F1300118
:104DD0000429D1D27070EEE03BE1F4E021E144E13E
:104DE00098F803100129C7D198F80400A0F1300108
:104DF0000929C1D87071DEE098F803100129BBD1F0
:104E000098F804107F29B7D88846ABA003F0AEFD10
:104E1000414686F8068006E09AE014E042E0AFE002
:104E200063E0DDE0EEE0A7A003F0A0FDC3E098F8AA
:104E300003100129A0D198F80400A0F13001042941
:104E40009AD2F071B7E098F80310012994D198F83C
:104E50000400302801D031288ED1B072302802D021
:104E600033207072A7E086F809A0A4E000239D4AD1
:104E70009D48019905F02CFE98F8032008F10401E3
:104E80009948FEF7E8FB30B185F80290C5F80E406E
:104E9000C5F8124070E785F802B0C5F80E40C5F8B5
:104EA000124067E798F80310012905D034722F707B
:104EB00003F0FEFC2C705FE798F80400312801D065
:104EC000322808D1F07237722F7003F0F1FC2C7089
:104ED000062005F0FDF898F8040030287FF4F4AEC1
:104EE000F07200E05EE0347265E098F80300474637
:104EF0000128CFD13879012804D186F88B0006200B
:104F000005F0E6F83879022804D186F88B000620EF
:104F100005F0DEF83879042804D186F88B000620E5
:104F200005F0D6F838790828D8D186F88B0021E723
:104F300098F80300012802D00028CFD11CE798F888
:104F40000400312801D03028C8D186F88A0011E742
:104F500098F80320102A9DD1A87831289AD108F119
:104F600004010198FEF72EFB7DE798F803104046F8
:104F700008298FD1416846F8361F806870601AE0B2
:104F800098F8031040460A2984D1F178302992D14B
:104F9000416846F83E1F816871608089308106F85B
:104FA0003BBC08E098F80310012984D198F804006C
:104FB000302805D0B0702F7003F07AFC2C70D9E641
:104FC00086F80290F7E798F803100129B6D198F80F
:104FD000040030712F7003F06BFC2C70212071E6FF
:104FE00098F8030046460F28A8D8012800D9F77082
:104FF0003C480F2134308046FEF7FDFAF278311D2F
:10500000404655E098F803600F2E97D835480F2199
:1050100043308146FEF7EFFA324608F10501484673
:1050200046E098F803204146062A87D846F8664F9E
:105030002C48091DB48052303AE098F803204146CC
:10504000062AD1D82748F466091DA6F870405830C2
:105050002EE098F803204146062AC5D846F8724F3C
:105060002048091DB4805E3022E098F803204146B4
:10507000062AB9D81B48B467091DA6F87C406430DD
:1050800016E098F803204146062AADD846F87E4F30
:105090001448091DB4806A300AE098F8032041469C
:1050A000062AA1D80F48091D6C3044600481001DF8
:1050B000FEF788FA7FE70000527864427566202583
:1050C000780D0A00454E435F4B45592E74656D704F
:1050D0002E736574736570617261746F72202564DC
:1050E0000D0A0000200200200E000020F8B5002567
:1050F000264C274F8DF800501926684603F046FBD2
:10510000012842D1F87840B1192811D01A281ED0B0
:1051100078790028F1D1FD7003E09DF800000228A5
:1051200001D03D71E9E7207078730120B8712AE061
:105130009DF80010032901D11A20F870B8792218BF
:10514000401CB8711170787B48407873D5E79DF8A2
:105150000000797B884204D07A7B80F00201914282
:1051600009D1B9796218491CB9711070B879F87110
:1051700055207871CFE7B9796218491CB971107060
:10518000797B41407973FE70B7E7F8BDBC19002008
:1051900000000020704700002DE9F04F014600207C
:1051A00089B08346069007468146804606460490AD
:1051B00000900190029005460446039008090128DA
:1051C00007D002280BD003280FD0032009B0BDE878
:1051D000F08FAC48B0F840060590AA480AE0AA480B
:1051E000B0F8E8030590A84804E0A848B0F83408EF
:1051F0000590A64840F222318246A548FEF7FBF909
:1052000030E1069820B33AF8182008211444684683
:10521000079202F0C7FA0646642004FB00F191FBF6
:10522000F6F081B2079A64204243B2FBF6F2A2F193
:1052300014000D2801D24FF00109A1F12100252809
:105240003DD2142A01D24FF001097F1CFFB205E1C3
:105250003AF818000028FAD047F230518842F6D8C0
:10526000864201D9311A00E0811B89B26422514380
:10527000B1FBF0F106461E2902D900200490EDE0B2
:105280000498401C80B204900828E0D34FF0000935
:1052900001207F4906904F46A1F820934C4648468E
:1052A00008F101016B4606E03AF8102000F007050E
:1052B000401C23F815208842F6D38DB2CEE0A1F130
:1052C00046003C2876D20AEB48005A394088142917
:1052D00017D3059B08F10101994212D288B16421CC
:1052E0004143B1FBF6F121290BD22044642148430C
:1052F00090FBF6F06E2804DA0BF1010000F0FF0BD2
:10530000ACE0BBF1000F04D1012F02D1142A00D26E
:105310000027A64212DD301B64214143B1FBF6F1A8
:10532000232912D305F00702C0EBC00004EBD00024
:105330006D1C2DF81200ADB2341A17E0A01B6421C9
:105340004143B1FBF6F1232907D205F007016D1C9B
:105350002DF81140ADB2002408E0C008211A05F074
:1053600007036D1C2DF81310ADB20446B9F1010FFF
:1053700008D04749B1F8200367B1B0F5487F77D22C
:1053800001220BE04249B1F82003B0F5487F6FD20B
:10539000022203E0B0F5487F6AD200220A54B1F835
:1053A00020034FF0000B401CA1F820035F46D946B4
:1053B00054E0FFE7822951D300271BE07F1C0A2F0E
:1053C0001AD805F007016D1C2DF811606846ADB2C2
:1053D000A41B082102F0E6F92D490646B1F8200386
:1053E000B0F5487F08D202220A54B1F82003401CCD
:1053F000A1F82003B442E1DA6420604390FBF6F0A8
:105400004FF000094F46CB4628280DD2681EC11721
:1054100000EB517121F00701411A684600EB410091
:1054200001882144018014E0462814D305F00701C7
:105430006D1C2DF811401649ADB2B1F82003B0F53E
:10544000487F13D202220A54B1F82003401CA1F86D
:105450002003002402E04FF001094F4608F101004B
:105460001FFA80F805998845FFF4CBAE069808B17D
:105470000120ABE640F222310548FEF7BCF80020DF
:10548000A4E60000380400207A0A0020640E002000
:105490009A1600202DE9F04F00278BB006463C46B7
:1054A00015280ED0162E0CD0172E0AD0182E08D084
:1054B000252E08D0352E09D0362E07D0372E05D010
:1054C000FDE3FC4804E0FB486F3001E0F948DE30C2
:1054D00081466F21FEF78FF8F749B1F820030028C5
:1054E000EED0002008900790069005908346099022
:1054F0000020054602908246049006F00F080190B5
:1055000029E1BBF1000F08D00199401A401E80B27A
:10551000105C0446022802D002E00198F8E700245B
:10552000029919B3002878D00128E248A0F16F0051
:1055300007D090F86E1008443946FFF78FF9DD4820
:10554000DE3890F86E100844394602F018FF7F1CD0
:10555000FFB2B8F1070F71D0B8F1050F6FD0B8F1F5
:10556000060F6ED0B8F1080F6CD0E2E0B8F1070F6B
:1055700009D0B8F1050F2AD0B8F1060F56D0B8F10E
:10558000080F74D0E3E0072D62D2DFE805F05F0476
:1055900006090B0D0F00ECB3B4E0012C72D0B1E0A2
:1055A000CCB3AFE0C4B3ADE0C4B3ABE0012C17D1D2
:1055B00001200290BF4800276F21DE38FEF71BF85C
:1055C000BC486F216F38FEF716F845201DE0052D09
:1055D0003ED2DFE805F03B0306080B00012C68D043
:1055E00090E06CB38EE0012C65D08BE05CBB0120B9
:1055F0000290B04800276F21DE38FDF7FCFFAD4870
:105600006F216F38FDF7F7FF0B20AA496F3908703B
:10561000012004E04DE04EE051E075E053E081F8F8
:105620006E00A449DE3981F86E006BE0062D0FD2C2
:10563000DFE805F00C0B0F0A032AB3E76DE06EE01C
:1056400020E06EE073E05DE0AAE7A4E7012C2ED035
:105650007DE098486F21DE38FDF7CDFF95486F213A
:105660006F38FDF7C8FF012C02D02CB14AE012E0E0
:10567000162E47D1052002E0362E43D101208D4958
:105680006F390870032562E0E4BB012089490027D7
:105690006F390290BDE7082D59D2DFE805F0070603
:1056A00005040E12161A9EE777E797E7CEE7012565
:1056B0004DE002254BE0042549E0012C22D10525CF
:1056C00045E0012C1ED1062541E0012C1AD1072509
:1056D0003DE0012C16D101200290764800276F2171
:1056E000DE38FDF788FF73486F216F38FDF783FFC1
:1056F0007048FF216F380170012180F86E106F38FB
:1057000080F86E10002522E06A486F3890F86E101D
:1057100008443946FFF7A2F819E7072002E0052000
:1057200000E00620B7FBF0F100FB117701E007F085
:10573000070767B95F496F3991F86E006D2811D27C
:10574000401C81F86E00481E0178491C01700198C8
:10575000401C80B20190584A0199B2F82003884257
:105760003FF6CFAE02984646002879D0BBF1000F35
:1057700008D0072E26D0052E2BD0062E30D0082E8E
:1057800036D03BE0072E06D0052E0BD0062E10D0CB
:10579000082E07D032E047486F3890F86E00C0EB13
:1057A000C0000DE043486F3890F86E0000EB8000B9
:1057B00006E040486F3890F86E0000EB4000400073
:1057C00008901BE03B486F3890F86E00C0EBC000BB
:1057D00013E038486F3890F86E0000EB80000CE062
:1057E00034486F3890F86E0000EB4000400004E051
:1057F00030486F3890F86E00C00007904FF00008F6
:10580000ADF800802B4A01206F3A92F86E301FE00D
:10581000072E06D0062E06D0052E06D0082E0ED056
:1058200004E07F2402E03F2400E01F2421496F3977
:10583000095C21401F2914D0082E01D006E0FF2466
:105840001C496F39095C2140FF290AD0401C80B2F5
:105850008342DDD8BDF8001058EA01000BD045E0C6
:10586000C7E11449801CDE3982F86E0081F86E00B1
:105870004FF00108EEE7062E38D0002531E00D4844
:105880006F38405DFEF7DCFF48BB0A48DE38405DFC
:10589000FEF7B1FF18B3074A6F3AA2F16F01505DEE
:1058A000495D48405055072E08D0052E08D0082ED7
:1058B0000ED006E09A1A00209A1600207F2400E0FD
:1058C0001F2400EA04031F2B1DD0082E01D004E082
:1058D000FF24C34313F0FF0F15D0484050556D1CF3
:1058E000ADB2FA4890F86E10A942C8D8BDF80000D1
:1058F000401C80B2ADF80000B8F1000F0ED0B8F136
:10590000010F0FD0FFE1F1490AF1010000F0FF0A99
:105910006F390020485501200490E7E70228FFF482
:1059200071AFF0E1062E7DD00120039000200546E6
:1059300001900DE0E548405DFEF782FFA0B1BBF1AC
:10594000000F3CD00598401C80B205906D1CADB294
:10595000DE4890F86E00A842ECD8072E34D0052E11
:1059600034D0082E34D034E0BBF1000F21D005989C
:10597000082801D200200590DFF850830020A8F10C
:105980006F08039018F80500FEF735FF0028DDD0FA
:10599000CE4918F805300AF101004A5D00F0FF0A0F
:1059A0005A404A55002108F8051001200190049042
:1059B000CCE706980828DFD200200690DCE706989E
:1059C000401C80B20690C1E7062402E0042400E0F7
:1059D000072400253DE0BD48EAB290F86E10FEF7BE
:1059E0001BFFA0BBB94A00206F3A0390104600216C
:1059F00090F86EE06B4605F0FF0808460BE012F8E1
:105A000000C02CFA08FC5FEACC7C02D0491C18804C
:105A100089B2401C80B27045F1D3012917D10AF137
:105A2000010000E02CE100F0FF0AA848BDF80020CA
:105A3000E9B21044FEF718FFA448BDF800206F3803
:105A4000E9B21044FEF70AFF0120019004906D1C9A
:105A5000ADB2A542BFD3019800287FF465AF03988B
:105A6000E0BB4FF000080120CDE90280CDF80480B2
:105A700045462AE09548405DFEF7E2FE18BB00204F
:105A800003900198401C80B2CDE90105072E04D097
:105A9000052E04D0082E04D004E0062402E00424DD
:105AA00000E00724002009E0C2B2884890F86E1098
:105AB000FEF7B2FE98B1BDF80000401CADF8000042
:105AC00080B2A042F0D36D1CADB2804890F86E0059
:105AD000A842CFD80198012811D02DE052E00AF158
:105AE000010000F0FF0ABDF80000C1B27748284469
:105AF000FEF7BAFE4FF00108CDF81080E3E7B8F1E9
:105B0000000F19D1072E04D0052E04D0082E04D082
:105B100004E0062402E0042400E007240AF1010066
:105B200000F0FF0A6948029908442146FEF79CFEEE
:105B30004FF00108CDF81080072E04D0052E04D0B8
:105B4000082E04D004E0062402E0042400E0072428
:105B50000020ADF800005D4D0BE0C2B295F86E106C
:105B60005A48FEF759FED0B1BDF80000401CADF810
:105B7000000080B2A042F0D3B8F1000F7FF471AF03
:105B80000398B0B3052E0DD00120504531D34F4AB4
:105B900092F86E0003282CD30023012018E0002087
:105BA0000390E9E70320F0E7052E16D1115C01F020
:105BB0000F011154049D012D08D1092906D90E2980
:105BC00004D00D2902D00C2900D00123401C80B242
:105BD00092F86E10891E8142E6DC53B95FEA0B0031
:105BE00024D092F86E1099F86E00814247D90020B7
:105BF0003DE085E0072E04D0052E07D0082E0DD0FD
:105C000012E0115C01F03F01203103E0115C01F072
:105C10000F01303109EB0003597005E0115C01F010
:105C20007F0309EB00014B70401C80B292F86E10AC
:105C30008142DFD81FE0072E04D0052E07D0082EA2
:105C40000DD012E0115C01F03F0320330AE0115C3B
:105C500009EB000301F00F013031597005E0115CD0
:105C600001F07F0309EB00014B70401C80B292F8F9
:105C70006E108142DFD8C8B2401C89F86E0040E047
:105C80004FF00008114D06244046ADF80080C2B226
:105C900095F86E100D48FEF7BFFD88B3BDF8000003
:105CA000401C80B2ADF80000A042F0D3B8F1000F64
:105CB00029D15FEA0B0012D095F86E1000E043E0A6
:105CC00099F86E0081421CD9002014E02B1A0020A4
:105CD000295C09EB00022031401C517080B295F81C
:105CE0006E108142F4D8C6E7295C09EB000220312E
:105CF000401C517080B295F86E108142F4D8BAE71A
:105D000001E0012009900BF1010000F0FF0BBBF155
:105D1000020FFFF4EDAB099801280FD00698082870
:105D200002D30898642805D2059808280CD3079850
:105D3000642809D301200BB0BDE8F08F99F86E00FC
:105D4000042801D30020F6E70220F4E72DE9F04112
:105D500090212448FDF74FFC224C312630216672F9
:105D6000A670E17061710D2020713B20A07132207E
:105D70006070E671002525721BA0E1720268E26284
:105D8000426822630089A0861A4F84F88A1007208F
:105D900084F88C00B970102217A104F11C00FDF7E3
:105DA00011FCA6700F2104F14800FDF724FC0F211F
:105DB00004F15700FDF71FFCC4F86650A4F86A50C0
:105DC000E566A4F87050C4F87250A4F87650A56740
:105DD000A4F87C500120387002F06AFD3D70BDE8E7
:105DE000F08100000C0200200102030405060708F0
:105DF000090000000000002000010203040506075E
:105E0000080900010203040070B5A0B00E460400AA
:105E100018D0002E16D080216846FDF7ECFB6A46AC
:105E2000012001E05054761C31780029FAD1254632
:105E300004E0115C09B904F8010B6D1C28780028F6
:105E4000F7D1207020B070BDFCB500210A466E4627
:105E50007254491CC9B20829FAD300220021845C7B
:105E6000C1F1070324FA01F707F001079740F55C39
:105E7000491C3D43C9B2F5540829F1D3521CD2B292
:105E8000082AEBD3002106EB410243185278425412
:105E900016F81120491CC9B21A710429F3D3FCBDAC
:105EA0002DE9FC438146002003466F463B54401CCD
:105EB000C0B20828FAD300234FF0010819F803C034
:105EC000002008FA00F40CEA0405C540C0F10704FC
:105ED0009D403E5D401C3543C0B23D550828F0D37F
:105EE0005B1CDBB2082BE9D300203B5C0B54C0F1F8
:105EF0000603FB5C1354401CC0B20428F5D3C878D9
:105F000000F0F000C870D0780001D070BDE8FC83CC
:105F100070B5C1F10806FF22B240D4B20278C3784E
:105F2000224043EA1213C3700022835C8B40851821
:105F30006D782540F5402B438354521CD2B2032A7E
:105F4000F3D3C2788A40C27070BD70B500231DE0E3
:105F50000278550805704478660846EAC212427015
:105F6000827802F00106520842EAC4128270C278B6
:105F7000520842EAC612C270140705D045F08004E8
:105F8000047002F0F002C2705B1CDBB28B42DFDBFC
:105F900070BD0000014901200870704728000020F2
:105FA0002DE9F04F91B0044640216846FDF723FBF0
:105FB00066783F212046FEF709FC94F83F1005273C
:105FC000DFF89C900025274B4FF0010C81420BD04D
:105FD0001878012841D18DF800708DF801C0AA20F1
:105FE0008DF80200AE202EE0022140F22B1ADFF8DD
:105FF00078B04FF4967EB61C18E098685A68521E26
:10600000904204D0586820B99A68524501D15D6029
:106010000AE0625CD3F808800BF808209868401CFE
:1060200098609868704500D39D60491CB142E4D3E4
:106030001878012811D18DF800708DF801C0BB20AF
:106040008DF80200BF208DF83F0040236A46812171
:10605000064804F0DBFF89F8005011B0BDE8F08F6E
:1060600028000020CC0000200C030020300000207D
:1060700070B51E2004F0AEFB01F0A4FA012003F07D
:10608000B1FB2D4C4FF080454FF6FF7630B3012029
:1060900003F0A2FB6078022805D8686A2081607846
:1060A000401C60701AE02548B0F8E803B0F5FA7FAC
:1060B00014D2686A608160892189884203D9608925
:1060C0002189401A03E020896189301A084481B28D
:1060D0000022012002F05AF960892081022003F099
:1060E00081FB00280AD0022003F076FBA07802286A
:1060F00005D8686AA081A078401CA07070BD1048C7
:1061000040F21A41B0F834088842F7D2686AE08158
:10611000E089A189884203D9E089A189401A03E076
:10612000A089E189301A084481B20022022002F0DD
:106130002DF9E089A08170BDB00000207A0A00200E
:10614000640E002010B51E2004F044FB01F03AFA62
:10615000802003F047FB00280DD0802003F03CFB9B
:10616000144C21784FF08040022905D8406AA08065
:106170002078401C207010BD0F49B1F84016B1F5D1
:10618000487FF8D2406AE080E088A188884203D93D
:10619000E088A188401A05E0A0884FF6FF71081A30
:1061A000E188084481B20022104602F0EFF8E0884E
:1061B000A08010BDB00000203804002010B540F2CF
:1061C000115003F041FF4FF4C06003F03DFF002287
:1061D000802311464FF0904003F0FCFC0022022186
:1061E000072003F00BFE0721002004F0F9FA022239
:1061F0000021802003F0BCFA802003F0EDFA184C57
:10620000002201231146204603F0E4FC0022022173
:10621000052003F0F3FD0021012004F0E1FA022241
:106220000021012003F0A4FA012003F0D5FA002296
:1062300002231146204603F0CDFC00220221052056
:1062400003F0DCFD0121084604F0CAFA0222002115
:10625000104603F08DFABDE81040022003F0BCBAEE
:106260000004004870B502787C2303EA5205C47824
:10627000C2F3C10245EAC41414430C7002785401FD
:1062800002F0010244EAC2054278102404EAD20670
:10629000354345EA52124A70427802F01805ED0083
:1062A00002F01F0245EA4202857842EAD5128A705E
:1062B000827803EA52054378C2F3C10245EAC31368
:1062C0001343CB708278530102F0010243EAC20308
:1062D000C27804EAD204234343EA52120A71C27814
:1062E000007802F01803DB0002F01F0243EA4202CA
:1062F00042EAD010487170BD10B504464FF47020CA
:1063000003F0EAFA03F008FBA10503D1204603F0ED
:10631000C5FA18B103F0BAFA002010BD03F0B6FABE
:10632000012010BD70B500220223012901D00529EA
:1063300009D1027803EA9214C2F380052C43C2F318
:10634000C30202EB0412022901D006290CD1027803
:10635000447802F00205C4F300163543D207120F49
:1063600042EA541202EB0512032901D007290CD18D
:106370004278847803EA9205C4F3801635435207C5
:10638000120F42EAD41202EB0512042901D00829A7
:1063900009D1807803EA101200F001031A43C0F318
:1063A000430000EB0212034800EB8110104410F888
:1063B000400C70BDCCE1000810B500F011FB0249A3
:1063C0000020087010BD00009901002070B50D4636
:1063D00006460AA1FDF71AF9044609A13046FDF761
:1063E00015F9002C09D0002807D0021B521E611C91
:1063F0002846BDE87040FDF71BB970BD3B000000AA
:106400003D0000002DE9F04106461C46884617462F
:10641000104603F0B1FC05463A463146FDF7D2F886
:10642000384603F0A9FC06463946FDF7E4F8F817AC
:10643000012107EB5070012C05D0032C03D0022C56
:1064400001D034B317E0B1EBE00F05D1002305F123
:106450000802294630460CE005F1080200231446E4
:106460002946304604F034FB00232246294606F133
:10647000080004F02DFB3188A8F80010B17888F8E6
:106480000210284603F084FA3046BDE8F04103F0DC
:106490007FBAB1EBE00FDFD100222946304602F08F
:1064A000F7FFE8E7194910B591F83500401C10F0E6
:1064B000FF0081F8350020D191F83400401C10F025
:1064C000FF0081F8340018D191F83300401C10F01F
:1064D000FF0081F8330010D191F83200401C10F019
:1064E000FF0081F8320008D111F8310F401CC0B212
:1064F0000870FF2801D3002010BD054C012020703A
:1065000002F0D6F900202070012010BD0C020020FE
:1065100000000020FEE778B500256E4617E0435DD9
:106520001C098DF8004003F00F038DF801300023A3
:10653000F45C0A2C01D2303402E0102C01D2373442
:10654000F4545B1C01F8014B022BF1DB6D1C9542EE
:10655000E5DB78BD074B10B51C78002110F8012B46
:10656000641E03E010F8013B5A40491CA142F9D3D4
:10657000104610BDAC00002070B500244FF480120E
:1065800006462346154608E00BB15208154416424C
:1065900001D0641CE4B25B1CDBB28C4201D2152B2F
:1065A000F2D306EA050070BD2DE9FF4F89B04FF028
:1065B00000094C4EDDF858B08246CDF81090CDF869
:1065C0001490CDF81890CDF81C9070681C46B0F56A
:1065D000001F04D96FF006000DB0BDE8F08FDFF8A2
:1065E00008810A9800F0D1F805460146484600F0B7
:1065F000E5F9814605EB0510871907F1080198F8C0
:1066000000202046FCF7DEFF2046FFF7A3FF98F8A6
:1066100002103944097A884204D0716801EB0900FC
:106620007060DEE70A983149706000F0CDF9BBF187
:10663000010F06D0BBF1000F0DD0BBF1020F39D016
:1066400041E0BAF1000F02D0E07BC043E073E07993
:10665000C043E07137E06946BAF1000F1BD0607BA0
:10666000C04360736079C04360710020225C0A54AB
:10667000401CC0B21028F9D301F1080200231646CD
:10668000204604F025FA00233246694604F108004A
:1066900004F01EFA17E06079C04360710020225CAC
:1066A0000A54401CC0B20828F9D30022204602F048
:1066B000EFFE08E0BAF1000F02D0A07BC043A07348
:1066C000A079C043A07109490B980A6802604A6822
:1066D0004260098901812A46494604A800F008F869
:1066E000012079E7640E0020AC000020D10F0020CB
:1066F0002DE9F74F1C4F93468846786800F038F82C
:106700000BEB0B113E468D19DFF860A005F1080474
:106710004FF0FF0906F26D160A2811DA4FEA580108
:106720005A46009800F0EAF820461121FCF763FF72
:106730009AF80210294481F808907868401C0BE010
:1067400020461121FCF757FF9AF80210294481F8DE
:106750000890796801EB0800786003B03146BDE825
:10676000F04F00F031B90000640E0020AC000020B2
:1067700010B504460020024601210C4200D0401C06
:10678000521C4900152AF8DB10BD002103460122E6
:10679000134203D1491C52001529F9D3C1F1140049
:1067A00070477FB500230093019302936C460393D7
:1067B000DD0021FA05F5C3F107065B1CA555032B87
:1067C000F6D352F8021F029151680391002102AAE8
:1067D000635C555C2B434354491C0829F8D37FBDA7
:1067E0002DE9FF470027214D9046894600970197E4
:1067F0000297039718B110202870112102E0082099
:106800002870092169701A4EA870002404EB041046
:10681000304408301121FCF7EEFE641C152CF5D332
:106820007760142413482A784946FCF7CBFE1149B7
:10683000D8F8002011310D460A60D8F804204A60CB
:10684000B8F808000881706800F0BEF822464FF4DE
:106850008011684600F052F870682946401C70604C
:1068600000F0B2F804B00120BDE8F087AC000020D1
:10687000640E0020C00F00202DE9FF4105460E46A2
:106880001AA005F1080490E80E00C068CDE90012D6
:10689000CDE902302868A860686806F10807E8605A
:1068A00008223946204604F0E3FF00223146204604
:1068B00002F0EEFD08223946204604F0D9FF1022EE
:1068C0006946304604F0D4FF08223946284604F0D1
:1068D000CFFF00223146284602F0DAFD0822394671
:1068E000284604F0C5FFBDE8FF810000C0C0C0C05D
:1068F00000000000C0C0C0C0000000002DE9F74F3C
:106900000E46824600F1080B294F4CE0294A3146D9
:106910005046FFF746FF3046FFF737FF00EBD071D8
:1069200021F00101411A00EB001000EB070802986A
:10693000CCB200EB0010C11908F1080508F11009EC
:1069400008315046FFF798FF7868FFF71EFF00EB0D
:10695000D07121F00101401A7968C0B221B190F0E4
:10696000010001D084F0010474B1DAF80020C9F804
:106970000020DAF80410C9F80410DBF800102960D0
:10698000DBF80400686005E00B4928460A785146A8
:10699000FCF718FE5046FFF7DDFD074A76089278AF
:1069A00008EB02010872002EB0D1BDE8FE8F000096
:1069B000640E0020D10F0020AC000020C1F11402B1
:1069C00001219140084370474872020A0A72CA794D
:1069D000C0F3074002F0E0020243CA7170470000B2
:1069E00010B540F242611148FCF705FE40F2EA3171
:1069F0000F48FCF700FE40F636010E48FCF7FBFDA1
:106A000040F222310C48FCF7F6FD6F210B48FCF7F1
:106A1000F2FD0A486F216F30FCF7EDFD07486F214A
:106A2000BDE81040DE30FCF7E6BD00003804002071
:106A30007A0A0020640E00209A1600209A1A00207C
:106A400010B5284C6179302904D0002003F044F8B7
:106A5000012813D12448B0F8400614280ED9172075
:106A600000F0B6FD38B1182000F0B2FD18B11620C4
:106A700000F0AEFD10B91D49A07908706179302988
:106A800004D0012003F028F802280CD11848B0F8EF
:106A9000E803142807D9252000F09AFD18B91349F6
:106AA000A0796F3108706179302904D0022003F099
:106AB00013F8042815D10F48B0F83408142810D959
:106AC000352000F085FD40B1372000F081FD20B178
:106AD000362000F07DFD002803D10449A079DE3185
:106AE000087010BD0C020020380400209A1A002003
:106AF0007A0A0020640E00202DE9F04F99B000259D
:106B0000FC4C2E46142102A8FCF775FD142102A8A6
:106B1000FCF771FDDFF8E093D9F800000660F74854
:106B20000190FCF791FDC0B20090F448801D1590D3
:106B3000FCF78AFD00F0FF0BF0480C300E90FCF7DC
:106B400083FDC0B20D90ED4812301490FCF77CFD2F
:106B5000C1B2EA481830CDE91001FCF775FDC0B2AA
:106B60000F90E6481E300C90FCF76EFDC0B20B9003
:106B7000E2481E381790FCF767FDC0B21290DF485C
:106B80000F381690FCF760FDC0B213901199009871
:106B9000DA4F084400EB0B0118900F98663F014450
:106BA0000D9801440B98014412980144139808442D
:106BB00000F0FF0AB87830287ED0387A012802D059
:106BC00000287AD01FE1CE48BF210170CB4866383B
:106BD000C07A3228CB4890F86E00A0F101006DD049
:106BE000FCF75DFD6FF002084246FCF741FD02F044
:106BF0003DFBFCF765FDC6B2C34890F86E00401E31
:106C0000FCF74DFD4246FCF733FD02F02FFBFCF78D
:106C100057FDC7B2BD4890F86E00401EFCF73FFD1F
:106C20004246FCF725FD02F021FBFCF749FD00F090
:106C3000FF08F11941440AEBC10000F1540A46EA89
:106C4000070050EA0800BDD0AE4890F86E0000285A
:106C50006FD0AF4801F040FBAA49AD4891F86E20D3
:106C6000491C521E01F050FBA948D9F8001000F051
:106C700027FEA54890F86E0000287DD0A44801F0BA
:106C80002BFBA149A24891F86E20491C521E01F02D
:106C90003BFBD9F800109E48143100F011FE9B4DCB
:106CA00095F86E00002868D0994801F015FB95F81A
:106CB0006E20521E691C02E0AAE08BE33AE0944881
:106CC00001F022FBD9F800109148283100F0F8FDBE
:106CD0000021216002202070AAF107006070000AE4
:106CE000A070E1703F202071864890F86E0008B1D6
:106CF000401E6071844890F86E0008B1401EA0717B
:106D0000824890F86E0008B1401EE07104F108005E
:106D1000129A1799FCF756FCDFF8E0A1129DAAF130
:106D2000660A08359AF80A0031285BD030285CD012
:106D300061E030E0FCF7B3FC6FF003084246FCF77B
:106D400097FC02F093FAFCF7BBFCC6B26E4890F8D1
:106D50006E00401EFCF7A3FC4246FCF789FC02F0E3
:106D600085FAFCF7ADFCC7B2684890F86E00401E8B
:106D7000FCF795FC424601E019E025E0FCF778FCC1
:106D800002F074FAFCF79CFC00F0FF08F119414492
:106D90000AEB011051E75A48017801F0F601017041
:106DA0001898AAEB000014381FFA80FA61E75448DB
:106DB000017801F0ED0101700F995944AAEB01002F
:106DC00014381FFA80FA6AE74D48017801F0DB01B8
:106DD00001700B990D980144AAEB010014381FFAB9
:106DE00080FA75E7FDF7C4FC05E0444910225A39E2
:106DF0004848FCF7E7FB9AF80B00302803D031280D
:106E000009D0322875D0FF2229462046FCF7ECFB3A
:106E100019B0BDE8F08F3F4A3A48083200233D4997
:106E2000401C129203F054FE012012E03548082263
:106E300000EBCA00C11F1790401C04F019FD179801
:106E40000023401C3349129A03F042FE0AF101006C
:106E500080B28246B042E9D3DDE900216019FCF737
:106E6000B1FB009827490544012000EBC6026019D8
:106E7000FCF7A8FB05EBC6056D1C6019119A149967
:106E8000FCF7A0FB11980023284400901E482149DC
:106E9000401C129A03F01CFE012512E01A48082239
:106EA00000EBC50AAAF107010AF1010004F0E0FCB9
:106EB0000AF1010000231749129A03F009FE6D1C24
:106EC000ADB2BD42EAD300985A4620441599FCF76A
:106ED00079FB0099012001EB0B0500EBC70260195B
:106EE0000949FCF76FFB05EBC700401C85B2601930
:106EF00012E04DE09A1600209C0100207202002052
:106F0000160000209A1A0020091B0020781B002080
:106F1000E81B00209C020020DDE90F21FCF752FB5A
:106F20000F98002328441FFA80FBFE49FE48129A5E
:106F300003F0CEFD012514E0FB480822401E00EBC3
:106F4000C50AAAF107010AF1010004F091FCF54914
:106F50000AF101000023C91D129A03F0B9FD6D1C4E
:106F6000ADB24545E8D3DDE90D2104EB0B00FCF79C
:106F700029FB0D98012101EBC8025844EA4985B26A
:106F80006019491EFCF71EFB05EBC800401C7EE0A3
:106F9000E448E64A8021C01DFDF770FAE4A001F044
:106FA000E5FC0DF11C0A2EB300200A90DDE900215A
:106FB0000790089009906019FCF704FB0098E049DD
:106FC0000544300112906019129AFCF7FBFA012077
:106FD000CDE900A06D1C6019D44B0146129AFCF754
:106FE00054FE05EB06156019119A1499FCF7EAFA9C
:106FF0001198054437B300200790089009900A9033
:1070000060195A461599FCF7DDFA5D444FEA071BF3
:1070100060195A46CB49FCF7D5FA0120CDE900A00A
:107020006D1C6019C14B5A460146FCF72EFE05EB5C
:107030000710DDE90F2185B26019FCF7C3FA0F983C
:10704000284485B2B8F1000F2AD00020079008909C
:1070500009900A90DDE90D216019FCF7B3FA0D984B
:10706000B149284485B24FEA081B60195A46491EA7
:10707000FCF7A8FA0120CDE900A06D1CADB26019A3
:10708000AA4B5A460146FCF700FE05EB0810DDE965
:107090000B2185B26019FCF795FA0B98284485B24C
:1070A0006019139A1699FCF78DFA1398DFF898A2D5
:1070B000284485B29AF88A0031287DD19AF80900CF
:1070C000322868D19AF88C00012808D1EEB36019F3
:1070D0001422D9F80010FCF775FA1435ADB29AF8FD
:1070E0008C00022809D187B3D9F800106019142246
:1070F0001431FCF767FA1435ADB29AF88C00042805
:107100000BD1B8F1000F2DD0D9F80010601914225E
:107110002831FCF757FA2835ADB29AF88C000728C9
:1071200020D13EB160191422D9F80010FCF74AFAB8
:107130001435ADB247B1D9F80010601914221431DA
:10714000FCF740FA1435ADB200E00BE0B8F1000FE7
:1071500008D0D9F80010601914222831FCF732FA4F
:107160001435ADB29AF80A105046312906D161198A
:10717000C26A0A60026B4A60828E0A81817A302973
:1071800007D1611950F83E2F0A6042684A600089B1
:1071900008810A35ADB29AF809105046332972D1E8
:1071A000611950F8362F0A6042684A60083590F835
:1071B0005600ADB2012800E065E008D1EEB36019D9
:1071C0001422D9F80010FCF7FDF91435ADB29AF885
:1071D0008C00022809D187B3D9F800106019142255
:1071E0001431FCF7EFF91435ADB29AF88C0004288D
:1071F0000BD1B8F1000F2DD0D9F80010601914226E
:107200002831FCF7DFF91435ADB29AF88C00072865
:1072100020D13EB160191422D9F80010FCF7D2F940
:107220001435ADB247B1D9F80010601914221431E9
:10723000FCF7C8F91435ADB200E00BE0B8F1000F6F
:1072400008D0D9F80010601914222831FCF7BAF9D7
:107250001435ADB29AF80A105046312906D1611999
:10726000C26A0A60026B4A60828E0A81817A302982
:1072700007D1611950F83E2F0A6042684A600089C0
:1072800008810A35ADB29AF88A1030297ED19AF871
:107290000900D04632282BD13EB160191422D9F80A
:1072A0000010FCF78FF91435ADB247B1D9F80010D2
:1072B000601914221431FCF785F91435ADB298F831
:1072C0000A104046312906D16119C26A0A60026B70
:1072D0004A60828E0A81817A302907D1611950F87B
:1072E0003E2F0A6042684A60008908810A35ADB2C3
:1072F00098F80910404633294AD1611950F8362FC1
:107300000A60406808354860ADB23EB16019142289
:10731000D9F80010FCF756F91435ADB2EFB1601989
:10732000142213E095020020791B0020481C002045
:10733000616573206A69616D69200D0A00000000B3
:107340009A1A0020091B00200C020020D9F8001016
:107350001431FCF737F91435ADB298F80A104046ED
:10736000312906D16119C26A0A60026B4A60828EB5
:107370000A81817A302907D1611950F83E2F0A60BD
:1073800042684A60008908810A3500E000E0ADB239
:10739000002204201346EE1E05E0215C4A401944F9
:1073A000401CCBB280B2B042F7DBED1CA9B2601832
:1073B00000F8032D03224370827041F28832204688
:1073C00001F00CFA79490020086079490860794990
:1073D00008601DE5DFF8D49199F86E0018B1A9F1A5
:1073E00001013A794254724E96F86E0010B1711E46
:1073F0003A794254DFF8BC8198F86E0018B1A8F1D0
:1074000001013A794254F879312801D033280CD15E
:107410002046129A1799FCF7D5F8129DDDE9002154
:107420006019FCF7CFF8009805446348C07930280C
:1074300011D032280FD008F16E073A7860195D49F3
:10744000FCF7C0F838785C4F0544F87931280ED045
:1074500033280CD024E059A15648FEF7D5FC5548F6
:10746000FCF7F2F808F16E07C2B23A70E6E760196D
:10747000119A1499FCF7A6F81198054498F86E0033
:10748000142807D996F86E00142803D9B87908B1E2
:1074900060556D1C60195A461599FCF793F85D44C8
:1074A000F879322812D0332810D030281BD096F823
:1074B0006E2060193E49FCF785F896F86E00054489
:1074C000F87931281AD0332818D032E002A9384888
:1074D000FEF77CFF02A8FCF7B7F8C2B286F86E2070
:1074E000601902A9E7E735A13148FEF78DFC304865
:1074F000FCF7AAF8C2B286F86E20DAE7DDE90F21C0
:107500006019FCF75FF80F98054496F86E00142890
:1075100007D999F86E00142803D9B87908B16055D5
:107520006D1CDDE90D216019FCF74CF80D9828441D
:1075300085B2F879302811D032280FD099F86E2012
:1075400060191A49FCF73EF899F86E00284485B294
:10755000F87931280DD033280BD017E017A1134844
:10756000FEF752FC1148FCF76FF8C2B289F86E20A2
:10757000E6E7DDE90B216019FCF724F80B98139A74
:10758000284480B220441699FCF71CF899F86E0044
:1075900096F86E1098F86E20014402EB0A00014440
:1075A00041F28832204601F019F931E4781B0020BD
:1075B000091B00209A1A00200C0200202B2C2D3BC6
:1075C0003F25000001490120087070479901002003
:1075D0002DE9F041002580462C462AE0012C28D1D7
:1075E0004FEA1810012804D0022807D0032820D120
:1075F00009E01B480146B0F8402608E0194801465A
:10760000B0F8E82303E018480146B0F834285708DA
:1076100000200CE0131A01EB430331F8106033F83B
:1076200002CC21F810C0401C23F8026C80B2B84292
:10763000F0D34046FDF7B0FD38B14046FDF72AFFD4
:10764000002809D0012800D10125641CE4B2022CD5
:10765000C4D3012D02D00220BDE8F0810120FBE758
:10766000380400207A0A0020640E0020FEE77047EC
:107670000907090E002803DA00F00F00024A00E0B3
:10768000024A81547047000014ED00E000E400E07D
:10769000F8B541780478CA0104F0020342EA4312C3
:1076A000837803F0100542EA450203F0080542EA38
:1076B0004507C27802F008052F43042505EA910624
:1076C0003743022606EAD20C47EA0C0747EAD317EB
:1076D0008DF8007004F0800701F0020C47EA4C17A7
:1076E00003F0020C47EA0C174FF0100C0CEA920C56
:1076F00047EA0C0704F0080C47EA0C0705EA131CDC
:1077000047EA0C0702F0020C47EA0C07C1F3801CA1
:1077100047EA0C078DF8017004F040077F0004F081
:10772000010C47EA8C1703F0010C47EA4C1701F0F3
:10773000040C47EA8C0702F0010C47EACC0705EA83
:10774000D20C47EA0C0706EA141C47EA0C0747EA82
:10775000D1178DF8027003F0200701F0080CBF006C
:1077600047EACC0702F0040C47EACC0704F0040C0B
:1077700047EA8C0703F0040347EA430305EAD10113
:107780000B4306EAD4010B4343EAD2118DF80310F0
:1077900000216A46535C4354491CC9B20429F9D3F9
:1077A000F8BD704710B50022082909D30123CC1A6F
:1077B0005B1C30F81440082B2244F8D9D00809E0AB
:1077C000002303E030F813405B1C22448B42F9D3C2
:1077D000B2FBF1F080B210BD70B515460E460446FE
:1077E00002F09AF8002304E014F8010BF0545B1C3B
:1077F0009BB2AB42F8D3BDE8704002F047B800003E
:1078000070B5A4B090216846FBF7F5FE902269465A
:107810001748FFF7E1FF174E00246D46154905EBA9
:10782000C40001233246083903F052F9641CE4B263
:10783000082CF3D3902269460F48FBF7C3FE0020C3
:10784000024611462B5C401C59401A44C0B2D2B2C9
:107850008E28F7D3084890F88E308B4206D190F8E6
:107860008F00904202D1012024B070BD0020FBE7C0
:1078700000F80008B8E000080C02002070B50E4DBA
:1078800000246C7290210D48FBF7B5FE0B483121A6
:10789000302241728170C27042710D220271847176
:1078A00032224270C1710472C472AC70012028701F
:1078B00000F0FEFF2C7070BD000000200C020020C4
:1078C0002DE9FC410546C0690C46C0F17802402A0A
:1078D00000D9403AD5E900104FF0FF2606EA3123DF
:1078E000370A07EA31610B4306EA302107EA3060C4
:1078F0000143CDE900130F49284600F005FD082299
:107900006946284600F000FD002C11D0002105EB4F
:107910008102491C9068000E20709068000C607015
:107920001089000AA070107AE070241D0529EEDB92
:10793000BDE8FC81CCE300082DE9F04FD2B00F2365
:107940004FF0FF256A462E0A10C905EA342706EAD9
:107950003464274380C25B1EF6D56D4602A908AB8E
:107960000DAC3F2680CC53F804CB761E87EA0C077B
:1079700051F804CB87EA0C0755F804CB87EA0C07CB
:107980004FEAF77780C2EDD5D0F808C0C5685195A9
:107990000469416983695093009E8B4606EBFC673E
:1079A00084EA01062E404E403344FE18FF4B4FEA56
:1079B000B505F71885EA0408019E08EA0C0888EA6C
:1079C000040806EBF76641443144CE18029AE646B5
:1079D0004FEABC0102EBF66C81EA05023A406A40CC
:1079E0002244A24662444FEAB70402EB030C039F11
:1079F000049A07EBFC6884EA010737404F403D4496
:107A00004544EF184FEAB60502EBF76685EA040233
:107A100002EA0C02624011443144CE184FEABC0124
:107A2000DDF814C005AA0CEBF66881EA050C0CEA37
:107A3000070C8CEA050C6444444404EB030C4FEA45
:107A4000B704069F07EBFC6884EA010737404F4004
:107A50003D444544EF184FEAB60585EA0408079E01
:107A600008EA0C0888EA040806EBF766414431444A
:107A7000CE184FEABC01DDF820C048320CEBF668A6
:107A800081EA050C0CEA070C8CEA050C64444444BA
:107A900004EB030C4FEAB70484EA0108099F08EAE3
:107AA000060888EA010807EBFC6745443D44EF18E7
:107AB0004FEAB60585EA040852F8346C08EA0C0867
:107AC00088EA040806EBF76641443144CE184FEAD1
:107AD000BC0181EA050808EA070852F830CC88EAB8
:107AE00005080CEBF66C4444644404EB030CA94613
:107AF0004FEAB70452F82C5C84EA0107374005EBE3
:107B0000FC684F4007EB0905454405EB030852F8B4
:107B1000285C4FEAB60605EBF86786EA040505EA35
:107B20000C056540294439444FEABC05CF1885EA65
:107B3000060C52F8241C0CEA080C8CEA060C01EB2B
:107B4000F7616444214401EB030C52F8204C4FEAE6
:107B5000B80181EA050808EA070888EA050804EB85
:107B6000FC6446443444E61852F81C3C4FEAB7041F
:107B700003EBF66784EA010303EA0C034B402B4452
:107B80003B448A4FDD194FEABC0352F818CC0CEB8A
:107B9000F56883EA040C0CEA060C8CEA040C6144D8
:107BA000414401EB070C4FEAB60152F8146C06EBA6
:107BB000FC6881EA03062E405E4034444444E619E2
:107BC00052F8104C4FEAB50504EBF66885EA01045B
:107BD00004EA0C044C4023444344DC1952F80C7C66
:107BE0004FEABC0307EBF46C86EA03076F403944A5
:107BF0000CEB01076E4952F808CC0F444FEAB60669
:107C00000CEBF76884EA060C8CEA030C65444544E7
:107C10004FEAB40452F804CC87EA04080D4488EA19
:107C200006080CEBF56C434463444FEAB70C176845
:107C300085EA0C080B4488EA040807EBF36746441E
:107C40003E4477184FEAB505566883EA050888EA86
:107C50000C0806EBF7664444344466184FEAB30454
:107C6000936887EA040888EA050803EBF663C444CE
:107C700063444FEAB70CD76886EA0C080B4488EADD
:107C8000040807EBF36745443D444FEAB60716691D
:107C900083EA07080D4488EA0C0806EBF5664444BD
:107CA00034444FEAB30685EA06080C4488EA07081C
:107CB000C44453694FEAB50503EBF463634484EAB3
:107CC00005080B4488EA06084744D2F818C04FEA72
:107CD000B4040CEBF36C674483EA04080F4488EAAD
:107CE00005084644D2F81CC04FEAB3030CEBF76C0E
:107CF000664487EA03080E4488EA04084544D2F83B
:107D000020C04FEAB7070CEBF66C654486EA07081B
:107D1000D2F824C00D4488EA03080CEBF56C444407
:107D200064440C444FEAB60685EA060888EA070868
:107D30004344D2F828C04FEAB5050CEBF46C634419
:107D400003EB010C84EA0508D36A88EA060803EB12
:107D5000FC6347443B44176B0B444FEAB40407EB06
:107D6000F3688CEA04076F403E444FEABC07464480
:107D7000D2F834C00E440CEBF66883EA070C8CEAA8
:107D8000040C65444544D2F838C00D444FEAB303AF
:107D90000CEBF56886EA030C8CEA070C6444444457
:107DA0000C444FEAB606D2F83CC003E09979825AF7
:107DB000A1EBD96E0CEBF46885EA060C8CEA030C97
:107DC00067444744D2F840C00F444FEAB5050CEB76
:107DD000F76884EA050C8CEA060C6344434403EB21
:107DE000010C516C4FEAB40401EBFC6344EA050159
:107DF000394004EA050841EA080131440B44FE49D0
:107E0000A9465E184FEAB703956C43EA040705EBF1
:107E1000F66807EA0C0703EA04052F4307EB090598
:107E200045446F18A1464FEABC05D46C45EA030CE3
:107E300004EBF7680CEA060C05EA03044CEA040CB0
:107E40000CEB0904444404EB010C99464FEAB604D8
:107E5000136D44EA050603EBFC683E4004EA0503A3
:107E60001E4306EB090343445E18A9464FEAB703D5
:107E7000556D43EA040805EBF66708EA0C0803EAC7
:107E8000040548EA050808EB09053D446F18A146BA
:107E90004FEABC05946D45EA030C04EBF7680CEA65
:107EA000060C05EA03044CEA040C0CEB09044444F8
:107EB00004EB010C99464FEAB604D36D44EA05067B
:107EC00003EBFC683E4004EA05031E4306EB09038E
:107ED00043445E18A9464FEAB703156E43EA040708
:107EE00005EBF66807EA0C0703EA04052F4307EBE6
:107EF000090545446F18A1464FEABC05546E45EA92
:107F0000030804EBF76C08EA060805EA030448EAEC
:107F1000040808EB0904644404EB010C99464FEA99
:107F2000B604936E44EA050603EBFC683E4004EA9F
:107F300005031E4306EB090343441944A846D36EC8
:107F40004FEAB70503EBF16645EA040303EA0C03C5
:107F500005EA04073B4343441E44A74BA146F718D8
:107F60004FEABC06146F46EA050C04EBF7680CEA0E
:107F7000010C06EA05044CEA040C0CEB0904A946C2
:107F80004444556F1C444FEAB10105EBF46841EAE3
:107F9000060C0CEA070C01EA06054CEA050C0CEB92
:107FA0000905454405EB030CB1464FEAB705966F4A
:107FB00045EA010706EBFC68274005EA010637435E
:107FC00007EB0906464489464FEAB404D16F1E44C4
:107FD00001EBF66744EA050808EA0C0804EA050123
:107FE00048EA010808EB09013944CF18A9464FEACD
:107FF000BC01D2F8805041EA040C05EBF7680CEAAA
:10800000060C01EA04054CEA050C0CEB0905454495
:1080100005EB030CA1464FEAB605D2F8844045EAC9
:10802000010604EBFC683E4005EA0104264306EB2A
:1080300009044444E61889464FEAB704D2F8881088
:1080400044EA050801EBF66708EA0C0804EA0501B2
:1080500048EA010808EB09013944CF18A9464FEA5C
:10806000BC01D2F88C5041EA040C05EBF7680CEA2D
:10807000060C01EA04054CEA050C0CEB0905454425
:1080800005EB030CA1464FEAB605D2F8904045EA4D
:10809000010604EBFC683E4005EA0104264306EBBA
:1080A000090444442344D2F894604FEAB70406EB31
:1080B000F3678CEA04066E4031447E184F494FEA5C
:1080C000BC07D2F898C00E440CEBF66883EA070CA4
:1080D0008CEA040C65444544D2F89CC00D444FEA38
:1080E000B3030CEBF56886EA030C8CEA070C6444D6
:1080F0004444D2F8A0C00C444FEAB6060CEBF46836
:1081000085EA060C8CEA030C67444744D2F8A4C005
:108110000F444FEAB5050CEBF76884EA050C8CEACE
:10812000060C63444344D2F8A8C00B444FEAB4049D
:108130000CEBF36887EA040C8CEA050C66444644B1
:10814000D2F8ACC00E444FEAB7070CEBF66883EAEE
:10815000070C8CEA040C65444544D2F8B0C00D44C9
:108160004FEAB3030CEBF56886EA030C8CEA070CC4
:10817000644444440C44D2F8B4C04FEAB6060CEB55
:10818000F46885EA060C8CEA030C67444744D2F88D
:10819000B8C00F444FEAB5050CEBF76884EA050C4C
:1081A0008CEA060C63444344D2F8BCC00B444FEA4B
:1081B000B4040CEBF36887EA040C8CEA050C664403
:1081C0004644D2F8C0C00E444FEAB7070CEBF6683D
:1081D00083EA070C8CEA040C65444544D2F8C4C019
:1081E0000D444FEAB3030CEBF56886EA030C8CEA06
:1081F000070C6444444403E0DCBC1B8FD6C162CA54
:10820000D2F8C8C00C444FEAB6060CEBF46885EA15
:10821000060C8CEA030C67444744D2F8CCC00F44E8
:108220004FEAB5050CEBF76884EA050C8CEA060CFE
:1082300063444344D2F8D0C00B444FEAB4040CEB7F
:10824000F36887EA040C8CEA050C66444644D2F8CD
:10825000D4C00E444FEAB7070CEBF66883EA070C6C
:108260008CEA040C65444544D2F8D8C00D444FEA6A
:10827000B3030CEBF56886EA030C8CEA070C644444
:108280004444D2F8DCC00C444FEAB6060CEBF46868
:1082900085EA060C8CEA030C67444744D2F8E020D8
:1082A0000F444FEAB50502EBF76C84EA0502724011
:1082B0001A44624411447144816051993944C16047
:1082C0000AEBB40101610BEB0501416150993144A6
:1082D000816152B0BDE8F08F0021C0E9001107496B
:1082E00081600749C1600549C94301610449C94327
:1082F0004161044981610021C161704701234567E3
:1083000089ABCDEFF0E1D2C32DE9F0474FF0000883
:1083100016460F460546C14600F1200A21E0E869ED
:10832000C0F14004B44200D9344650442246394694
:10833000FBF748F9D5E90030E2009A1840EB090054
:10834000C5E90020E869361B20442744E86140283D
:1083500007D151462846FFF7EFFA4FF00108C5F85C
:108360001C90002EDBD1B8F1000F05D0BDE8F0471E
:108370004FF4B87000F06BBFBDE8F087704702782B
:1083800001238B401A4302707047000078B1012826
:1083900014D002280AD10F4A0E4B02F63400B2F86C
:1083A000342823F812100188491C018070470A4ABA
:1083B000094B02F5C860B2F84026F2E70748B0F86A
:1083C000E82320F81210B0F8E813491CA0F8E813CD
:1083D00070470000640E0020380400207A0A002054
:1083E0002DE9FF4F82460D4600200D9E14460146A2
:1083F0003154401CC0B20628FAD3BAF1000F07D19D
:1084000028460399FDF784FD20460399FDF780FD7A
:10841000A87869784FF0400909EA500201F0040396
:1084200042EA431201F020010A4300F0010042EA4F
:1084300000132878082707EA10110B43042202EAE8
:1084400050010B43022101EA10100343E8784FF07A
:10845000100EC0F30010034333706B7803F002007A
:108460004FEA801C2878834600F004004CEA001C88
:10847000A87800F008084CEA880C0EEA93084CEA49
:10848000080C00F002084CEA880C02EAD0004CEA22
:10849000000C01EAD3004CEA000CCBF300104CEACC
:1084A000000C86F801C0EB7803F040004FEA400C66
:1084B000287807EA930300F001084CEA881C95F835
:1084C0000180C34608F001084CEA481C00F002088D
:1084D0004CEAC80C4CEA030CAB78C0F3801002EAFB
:1084E00093034CEA030C01EA9B034CEA030C4CEAAD
:1084F000000C86F802C0607800F008034FEA031C05
:10850000A378984603F001034CEA831C23789B462A
:1085100003F020034CEA030C0EEAD0034CEA030CF0
:1085200007EA98034CEA030CE378C0F3001002EA70
:10853000D3034CEA030C01EA5B134CEA030C4CEA4C
:10854000000C86F803C0A07809EA500300F0020787
:1085500043EA8713277807F0080743EA870700F004
:1085600010031F43637802EA500003F0010C47EA4E
:10857000CC07074301EA13100743E078C0F300106B
:1085800007433771E278207809EA520200F00403C9
:1085900042EA4313A278202707EA52073B43677851
:1085A00002F0040207F0040743EA870343EA4202A9
:1085B00000F0010301EA901142EA83020A43C0F38A
:1085C000001002437271BAF1010F0AD128460399D3
:1085D000FDF7BBFC039904B02046BDE8F04FFDF762
:1085E000B4BCBDE8FF8F00F045BF0000144801682F
:1085F00041F00101016001688907FCD54168114A19
:10860000114041604168104A11404160416821F4C5
:108610004001416001680D4A11400160C16A21F0CA
:108620000F01C162016B40F2431291430163416B40
:1086300021F0010141630021816002F0FFB80000D8
:10864000001002400C00FF08FFFFC277FFFFF2FEA0
:108650007FB504464FF4E06001F0F6FC4FF0804532
:10866000284602F047F90020ADF800404FF6FF71B0
:10867000ADF80C00ADF80200ADF8040002918DF8E1
:108680000E006946284602F07FF90121284602F0D3
:10869000C7F9284602F073F97FBD00001FB540F20C
:1086A000017001F0D1FC184C204602F023F940F68D
:1086B0009700ADF80000002148F69F40ADF80C107F
:1086C000ADF80210ADF8041002908DF80E10694656
:1086D000204602F059F9204602F006F90121204611
:1086E00002F09EF94FF4C06001F0CEFB01220021A0
:1086F000102001F083FB0121204602F08DF9204675
:1087000002F038F91FBD000000040040704700006F
:1087100010B5094C0121204602F086F901280AD142
:108720000121204602F07CF9FEF74CFF2046BDE80F
:10873000104002F01FB910BD0004004010B50D4CF0
:1087400020221146204602F04CFA002811D0204683
:1087500002F00CFA08490870084A1188084B0B44CB
:10876000491C118018701088B0F5007F01D30020DB
:10877000108010BD00380140C0000020A201002080
:108780003804002002F07EBEFEE700000A494A6875
:108790008B689A4201D100207047084A4B68D25C2E
:1087A00002704868401C48604868B0F5967F01D365
:1087B0000020486001207047CC0000200C030020FE
:1087C00004480021416081604FF496710248FAF735
:1087D00012BF0000CC0000200C0300202DE9F04364
:1087E00091B0894680460C46002644216846FAF737
:1087F00002FF184F0120387034B138780028FBD0C0
:108800003D2C05D33D2504E011B04846BDE8F0837A
:10881000254644216846FAF7EEFE05208DF8000053
:108820008DF8015008EB06012A460DF10200FAF717
:10883000C9FE3F216846FBF7C9FF8DF83F000020C5
:10884000387040236A468121034802F0DFFB2E4442
:10885000641BD1E728000020300000202DE9F04102
:1088600090460F46054601F057F85FEA88700CD134
:108870003E46002416E02846316801F05DF80020ED
:1088800022182978BA5C8A4204D000F0FFFF002049
:10889000BDE8F081401C6D1CC0B20428F0D3361D29
:1088A000241DA4B24445E6D300F0F0FF0120EFE719
:1088B00070B5A4B090216846FAF79DFE1C48007878
:1088C000012833D18E221B496846FAF77BFE1AA095
:1088D0006D460088ADF88E0000209DF88E102A5C51
:1088E00051408DF88E102A5C9DF88F10401C114469
:1088F000C0B28DF88F108E28EFD3104E00240F4990
:1089000005EBC40000233246083902F0E1F8641C8C
:10891000E4B2082CF3D372B6094C2046FDF7ECFC08
:10892000902269462046FFF799FF62B624B070BDD9
:10893000000000200C02002000000000B8E0000849
:1089400000F8000838B507A00068009072B6064C21
:108950002046FDF7D1FC042269462046FFF77EFF42
:1089600062B638BDAABBAABB00FC00080FB4054B19
:1089700010B503A9044A029800F0C6F810BC5DF8CF
:1089800014FB00006D9900080002002002E008C8F6
:10899000121F08C1002AFAD170477047002001E079
:1089A00001C1121F002AFBD1704700002DE9FF5FB3
:1089B000DDE90220010DDDF838B0024310D10F9837
:1089C00001244CA2012808D0002100980F9BC0E987
:1089D0000021C0E90243BDE8FF9F6FEA0B01F4E705
:1089E000A1F2FF3144F6105041430D140F980128B5
:1089F0000ED0A5EB0B00401C4FF000043E4EDFF8FC
:108A0000FC90B0F1000AA04605DACAF1000717E0B1
:108A1000CBF10000F0E7074612E0F80707D0224646
:108A2000334640464946FAF7C1FF8046894622460A
:108A3000334610461946FAF7B9FF04460E467F1032
:108A4000002FEAD1DDE90201BAF1000F42464B46A0
:108A500002DAFAF7ABFF01E0FBF71AF804460E461C
:108A60000022274BFBF79CF803D84FF0FF3001465C
:108A700007E00022234B20463146FAF7F0FEFBF7D1
:108A800076F8102409E0002C0ADB0A220023FAF70A
:108A900046FE019B30321A55641E50EA0102F2D1A3
:108AA000641C019AC4F1110314440F9A012A09D0DD
:108AB0000122084301D15B450FDD4FF0000205F1B3
:108AC00001050DE0084303D1A3EB0B056D1E09E082
:108AD00000204FF0110B0F9088E701DA00226D1E85
:108AE000002A83D000980F99C0E90231C0E90045FF
:108AF00071E7000030000000000024400000F03F5B
:108B00000000F0430000E03F2DE9FF4F95B09B4689
:108B100089460646002512E2252878D10024761CD5
:108B2000F94A2746012105943378203B01FA03F0E6
:108B3000104202D00443761CF6E730782A2811D080
:108B40006FF02F033078A0F13002092A16D8059A69
:108B500044F0020402EB820203EB42021044761C52
:108B60000590EFE759F8042B0592002A03DA5042EA
:108B700044F40054059044F00204761C30782E280A
:108B800016D116F8010F44F004042A280DD06FF016
:108B90002F023078A0F13003092B09D807EB8703A7
:108BA00002EB4303C718761CF3E759F8047B761CE5
:108BB00030786C280FD006DC4C2817D068280DD0F0
:108BC0006A2814D104E0742810D07A280FD10DE05F
:108BD00044F400140AE044F4801401E044F4401426
:108BE0007278824202D1761C04F58014761C3078AB
:108BF00066280BD013DC582877D009DC002875D004
:108C00004528F6D04628F4D047281AD19FE118E02D
:108C1000632835D0642879D0652812D197E170286F
:108C200073D008DC6728F1D069286FD06E280DD08A
:108C30006F2806D1B5E073282CD0752875D0782818
:108C400074D05A46179990476D1C76E1C4F30250D0
:108C5000022809D003280DD0D9F8001004280DD01F
:108C60000D6009F1040968E1D9F80010EA17C1E9BB
:108C70000052F6E7D9F800100D80F2E70D70F0E72A
:108C800019F8041B8DF8001000208DF80100EA4649
:108C9000012003E059F804AB4FF0FF3061074FF0BB
:108CA000000102D40DE008F101018846B9420FDA53
:108CB0008045F8DB1AF808100029F4D108E008F123
:108CC000010188468142FADB1AF808100029F6D122
:108CD00005985B46A0EB080721463846179A00F036
:108CE0009EFA284400EB080507E04DE02BE10DE07B
:108CF0001AF8010B5A4617999047B8F10108F7D2B4
:108D00005B4621463846179A14E142E00A22009257
:108D1000C4F302524FF0000A022A08D059F804CBDB
:108D2000032A4FEAEC710AD00DE029E02AE009F1AC
:108D3000070121F00702F2E802C1914609E00FFAAB
:108D40008CFC4FEAEC71042A03D14FFA8CFC4FEAF9
:108D5000EC71002907DA0A460021DCF1000C61EB16
:108D600002012D2202E0220504D52B228DF80420D9
:108D7000012203E0E20701D02022F7E7904653E00A
:108D80000A2102E010220DE010214FF0000A0091AC
:108D90000BE010224FF0000A44F004040827009270
:108DA00003E008224FF0000A0092C4F30252022AA4
:108DB00005D059F804CB0021032A08D009E009F1B5
:108DC000070121F00702F2E802C1914605E01FFA0F
:108DD0008CFC042A01D10CF0FF0C4FF00008220794
:108DE00022D5702827D0009B83F0100353EA0A0392
:108DF00009D15CEA010206D030228DF804208DF8FA
:108E0000050002229046009B83F0080353EA0A0300
:108E10000AD15CEA010201D1620705D530228DF842
:108E200004204FF001087F1E582809D037A0039076
:108E30000EA8029013E040228DF804200122E1E701
:108E400037A0F4E753466046009AFAF768FC844678
:108E50000398825C0298A0F10100029002705CEA23
:108E60000100EFD1029806A9A1EB000000F1200A51
:108E7000600702D524F4803400E00127574502DD65
:108E8000A7EB0A0000E0002000EB0A010090059823
:108E90004144A0EB01000590E00306D45B46214667
:108EA000179A059800F0BBF90544002706E001A8D1
:108EB0005A46C05D179990476D1C7F1C4745F6DBED
:108EC000E0030CD55B462146179A059800F0A7F9F8
:108ED000054404E030205A46179990476D1C0099CC
