:020000040800F2
:100000007811002001010008DF0E0008290E000809
:10001000DD0E0008850300080F2000080000000026
:10002000000000000000000000000000A91500080A
:10003000550A000800000000F9100008A11B000884
:100040001B0100081B0100081B0100081B01000820
:100050001B0100081B0100081B0100081B01000810
:100060001B0100081B0100081B0100081B01000800
:100070001B0100081B0100081B0100081B010008F0
:100080001B0100081B0100081B0100081B010008E0
:10009000A11F00081B0100081B0100081B0100082C
:1000A0001B0100081B0100081B0100081B010008C0
:1000B0001B0100081B0100081B0100081B010008B0
:1000C0001B0100081B0100081B0100081B010008A0
:1000D0001B010008051C00081B0100081B0100088B
:1000E0001B010008311400081B010008DFF80CD0C8
:1000F00000F088F8004800477525000878110020B6
:100100000648804706480047FEE7FEE7FEE7FEE7B1
:10011000FEE7FEE7FEE7FEE7FEE7FEE7B51B0008A9
:10012000ED000008D2B201E000F8012B491EFBD21D
:1001300070470022F6E710B513460A4604461946F2
:10014000FFF7F0FF204610BD30B505462A460B46A6
:1001500012F8010B13F8014B08B1A042F8D01CB102
:10016000002802D06D1CF1E7284630BD421C10F873
:10017000011B0029FBD1801A704770B5064602F0BA
:10018000F1F8046805460A220021304600F002F822
:100190002C6070BD2DE9F04791460F46804604461D
:1001A000002614F8015B2DB100F03EF80068405DB8
:1001B000C007F6D12B2D02D02D2D18D0641E4A4633
:1001C0003946204600F034F827B13968A14201D100
:1001D000C7F8008071054FF002040BD5404200289B
:1001E00003DD02F0BFF80460A007BDE8F08746F425
:1001F0008066E4E70028F8DA02F0B4F804606FF0F3
:100200000040F2E7064C074D06E0E06840F00103CD
:1002100094E8070098471034AC42F6D3FFF76AFF22
:1002200018270008382700080048704714270008DE
:100230002DE9F05F82460078002715468B460AF1CB
:100240000104B946302801D09DB113E014F8010B28
:100250000127782803D0582801D045B10AE00DB114
:10026000102D07D10027102514F8010B02E00825F6
:1002700000E00A250026B0460EE005FB080005FB5D
:1002800006F1012701EB10461FFA80F8B6F5803F12
:1002900000D3B94614F8010B294600F018F80028DD
:1002A000EBDABBF1000F05D00FB1641E00E054463D
:1002B000CBF80040B9F1000F06D002F053F802214C
:1002C0000160C81EBDE8F09F48EA0640FAE73A28F8
:1002D00000D2303820F02002412A01D3A2F13700A9
:1002E000884201D34FF0FF30704770B501EB020434
:1002F00010F8015B15F0070301D110F8013B2A113A
:1003000006D110F8012B03E010F8016B01F8016B26
:100310005B1EF9D12B0705D40023521E0FD401F820
:10032000013BFAE710F8013B02F10202A1EB0303E3
:1003300003E013F8015B01F8015B521EF9D5A142FD
:10034000D6D3002070BD000010B500F03FFF00F0D4
:10035000C8FD482002F01AF802F042F805A002F0A9
:1003600031F901F055FE012001F0C8FEBDE8104052
:1003700001F0B6BE69617020696E69742E2E2E0D73
:100380000A000000FEE7C1B2000A40EA01207047FF
:100390002DE9F84F0020ADF800004BF6BF7748F28A
:1003A0008008484E40F68F79474D484C48F60F7A02
:1003B000DFF81CB12AE0088810F00F0028702FD059
:1003C00004EB80000168ADF80010BDF800100904CE
:1003D0000AD5016801EA090101603E48297800EB6D
:1003E000810050F8040C8047BDF8000000060DD5D0
:1003F000287804EB8000016801EA0A0101603648B0
:10040000297800EB810050F8040C80472F484430D5
:1004100000685946ABF800000004CCD4BDE8F88F62
:1004200020683080308800F030007080308800F420
:10043000405030802068384080F4005080F0200028
:1004400040EA080020600888C00617D4216801EA45
:100450000A01216000F0EAFC28E03188890401D516
:1004600080F400507188C90628D47188890601D5A6
:1004700080F0200040EA08002060CFE72068ADF857
:100480000000BDF80000000506D5206800EA09005C
:10049000206001F0BBF909E0BDF800000004B5D50B
:1004A000206800EA0900206000F0E0FD2068318843
:1004B0003840C904D1D580F48050CEE780F01000D8
:1004C000D3E700004E0100203C010020005C00400A
:1004D0005A000020780000205C00002010B5034680
:1004E0000022104602E09C5C6040521C8A42FAD313
:1004F00010BD0000074901EB80000168490407D5E1
:10050000016848F68F7211404CF28002114301607D
:1005100070470000005C0040074901EB8000016863
:10052000490607D5016848F68F72114048F2C002AB
:100530001143016070470000005C0040054901EB79
:100540008000016848F68F62114048F28002114332
:1005500001607047005C0040124910B50A68062827
:10056000117801F07F0103D1012901D1537913B131
:1005700021290AD013E09078222802D0212802D025
:100580000DE0094904E0094902E0032807D10849C0
:1005900029B10020916150828847002010BD0220BF
:1005A00010BD000040010020F5050008CD05000841
:1005B000D9050008014901F0E7B90000A4000020B6
:1005C000014901F0E1B900009C000020014901F05F
:1005D000DBB90000B400002008B1044870470449AA
:1005E0000120096808820020704700009800002060
:1005F00040010020014901F0C7B90000AC00002013
:1006000005490968C978042901D900207047034ABF
:1006100002EBC10101F0B8B940010020EC0000205C
:1006200009B9002800D00220704700000649096877
:10063000097801F07F01212901D10B2801D0022086
:10064000704700F06FB8000040010020274810B547
:10065000006800218172C1722549C9794172002068
:1006600000F0A4FF4FF40071002001F065F81021A4
:10067000002001F039F81821002000F0BFFF5821B8
:10068000002001F013F80020FFF758FF194890F8F8
:100690002C10002000F0C2FF002000F0F7FF4FF404
:1006A000C061012001F048F84FF48071012000F092
:1006B000FDFF4FF4A171012000F0A0FF40210120B7
:1006C00001F004F84021012000F0A8FF4FF4405150
:1006D000012000F0C3FF2021012001F005F80020D7
:1006E00000F06CFF04490120086010BD40010020AB
:1006F000EE250008BC0000203001002004480068FE
:10070000807A002802D00349052008607047000065
:10071000400100203001002001490420086070479A
:1007200030010020034804490068C07808600020B8
:10073000704700004001002098000020704770477B
:1007400010B500F057FB054800240068847200F0E3
:10075000F7FC01F027FC0248046010BD40010020B6
:10076000300100202DE9F047DFF89490254F4FF03D
:100770003008D9F8001001F11005088A0E7A08B97E
:10078000042E04D0AC88A04215D8042614E01E49DB
:100790000878012803D00726102038802BE01B4A58
:1007A000002012681A4B92B203EB42025060A7F885
:1007B000008008701FE00226844200D90446A96820
:1007C000204688478246002000F006FB014622466C
:1007D000504601F075FD2146002000F077FF288883
:1007E000001B2880688820446880A7F80080094999
:1007F0004FF440500880D9F800000672BDE8F08739
:10080000400100205001002038010020505C0040D1
:10081000006000404E0100202DE9F047224EDFF835
:100820008C803027346834F8100FA168A9B100B368
:10083000A588854200D905462846884781462088F4
:10084000401B2080608828446080002000F0A4FACB
:1008500001462A46484600F02DFC208848B114493C
:100860004FF4405008800021084600F02FFFA8F800
:1008700000702088A188884201D3032001E020B1C4
:10088000052031680872BDE8F087316806200872DB
:10089000084900200968084A89B202EB4101486012
:1008A000A8F80070EFE70000400100205001002090
:1008B0004E010020505C004000600040F8B55C4CE8
:1008C0005C4D09262068002729684278062A05D051
:1008D000AAB1082A4BD00A2A4ED069E00278520603
:1008E00066D18078012804D0022804D0032804D0DF
:1008F0005EE0C96954E0096A52E0496A50E0428802
:10090000A2BBC288022A53D102797ABB027853066D
:1009100001D1838833B102F07F02012A04D0022A78
:100920000CD045E044493BE08A694079002190477A
:10093000E0B92068807A0028F4D139E0417901F0EB
:100940000F0001F070020B063C4951F8201003D54E
:10095000C1F30111090102E0C1F301310903384B70
:100960001B78834224D90AB90029DBD120E0007822
:1009700040061DD1334913E0027802F07F02012ABC
:1009800016D1827AA2B1428892B9027982B9C2881C
:10099000012A0DD18A6940790021904740B92A493E
:1009A00031B120684782816100208847002006E03D
:1009B00029682068096940788847032807D021689A
:1009C0000A8AA2F57F43FF3B04D10E72F8BD20686E
:1009D0000672F8BD022809D042B10878000621D578
:1009E000C8880090824205D9088213E04FF00800C1
:1009F0000872F8BD0ED22868144B90F82C00824281
:100A000001D21F7006E0B2FBF0F400FB142008B91D
:100A100001201870286890F82C008882BDE8F84002
:100A2000FFF7A0BE03200872094900030880F8BD43
:100A30004001002044010020CD190008005C004066
:100A40009400002061190008A51900083801002051
:100A50004E010020704700000149012008707047D6
:100A60004C0000202DE9F04F91B040216846FFF77F
:100A700060FB3849012001F0A5FA364F7E783F210E
:100A80003846FFF72BFD97F83F200024324D4FF0FA
:100A900001094FF440514FF0050A82420ED0012067
:100AA00000F0DCFD6878012850D18DF800A08DF8A9
:100AB0000190AA208DF80200AE203CE0022040F216
:100AC000FF52264B4FF4C06BB61C24E0D5F80880CB
:100AD000D5F804C0ACF1010CE04508D0D5F804C04D
:100AE000BCF1000F05D1D5F808C0944501D16C6068
:100AF0000FE017F800C0D5F8088003F808C0D5F853
:100B000008C00CF1010CC5F808C0D5F808C0DC45D8
:100B100000D3AC60401CB042D8D3012000F09EFD51
:100B20006878012812D18DF800A08DF80190BB20C3
:100B30008DF80200BF208DF83F00402269468120D9
:100B400001F052FA012000F0E7FD2C7011B0BDE871
:100B5000F08F0000D80C00204C000020D8060020A8
:100B600001490860704700001404014038B50421B1
:100B700004468DF8001000F0A1F8A10508D1204628
:100B800000F01AF88DF800009DF80000042803D04A
:100B900000F044F8002038BD00F040F8012038BDD6
:100BA0000149032008607047300100200149C860F6
:100BB000704700000020024070B505464FF4302613
:100BC000304600F087F8042811D1094C206940F024
:100BD000020020616561206940F0400020613046DC
:100BE00000F078F8216941F6FD721140216170BD75
:100BF0000020024008490420CA68D20701D0012021
:100C00007047CA68520701D502207047C968C906F3
:100C1000FBD5032070470000002002400248016914
:100C200041F08001016170470020024001B5009849
:100C3000810503D0012101EB902008BD800A08BD89
:100C400004490A6822F010020A600A6802430A6036
:100C500070470000002002402DE9F84106460020C0
:100C60004FF4005700900D46384600F033F8042842
:100C700016D10C4C206940F0010020613580B84647
:100C8000384600F027F8BF1E042806D1B61C280CF1
:100C900000963080404600F01DF8216939402161FE
:100CA000BDE8F88100200240034A116801F03801D4
:100CB00001431160704700000020024003480249D0
:100CC00041600349416070472301674500200240AD
:100CD000AB89EFCD00B50346FFF78CFF02E0FFF7CD
:100CE00089FF5B1E012803D0002B00D1052000BD29
:100CF000002BF4D1FAE7F0B5CC78002204F00F0312
:100D0000E40601D58C7823430C784FF00F0C4FF09C
:100D1000010EDCB105680E880EFA02F42640A642E8
:100D200010D196000CFA06F725EA070703FA06F534
:100D3000CE783D43282E02D0482E02D002E04461F6
:100D400000E00461521C082AE5D305600A88FF2AE6
:100D50001CD94468002202F108060EFA06F50E8836
:100D60002E40AE420ED196000CFA06F7BC4303FAB1
:100D700006F7CE783C43282E00D14561CE78482E28
:100D800000D10561521C082AE5D34460F0BD4161E1
:100D900070470161704700000549096889B201EB9D
:100DA000C000044901EB4000008980B27047000098
:100DB000505C0040006000400549096889B201EBC1
:100DC000C000044901EB40008089C0F3090070476E
:100DD000505C0040006000400449096889B201EBA2
:100DE000C000034931F8100080B27047505C0040E9
:100DF000006000400A4810B50168001D0468001D2D
:100E0000006808180BD00822064900F03DF8054993
:100E100020460422BDE81040103100F035B810BD66
:100E2000E8F7FF1F33000020FEE7000010B5134C69
:100E30002068017A022904D0042902D0062905D0AD
:100E400015E0FFF78FFC2068007A11E04178052952
:100E500009D10178490606D1C07800F0AFFB0848F7
:100E60000068006A8047074800688068804708205B
:100E700021680872BDE8104000F040B94001002030
:100E80004801002044010020F0B500230A24302549
:100E900037261F4610E0B4EB107F02D905EB107C1B
:100EA00001E006EB107C01F813C001EB430C0001DC
:100EB0005B1C8CF80170DBB29342ECD3F0BD0000F8
:100EC0000448817A044809B1052100E0012101604C
:100ED000704700005C0D002030010020FEE77047E5
:100EE000704700214FF0006000F03CB870B50F2350
:100EF000C278017801244FF0E025DAB1124A126875
:100F000002F4E062C2F5E062120AC2F10406D340C4
:100F10004278B24086781E400C4B16433201CA54C8
:100F2000007800F01F018C40400905EB8000C0F8FC
:100F3000004170BD01F01F008440480905EB8000AE
:100F4000C0F8804170BD00000CED00E000E400E05E
:100F50000249084302490860704700000000FA0592
:100F60000CED00E0024A1140014302480160704765
:100F700080FFFF1F08ED00E0BFF34F8F04480168BA
:100F8000044A01F4E06111430160BFF34F8FFEE7B3
:100F90000CED00E00400FA0570B52F4D29680878C3
:100FA0004C78420606D000F07F00012828D00228A5
:100FB0002BD035E0092C06D0052C07D0032C0ED001
:100FC000012C14D02CE000F049FD28E0C8787F28DF
:100FD0002ED8887860BB888850BB887A27E0C8788C
:100FE00001281DD18888D8B900F054FD17E0C878D1
:100FF000012815D1888898B9487A80060AD40FE06C
:101000000B2C0DD100F098FD09E0012C02D0032C2F
:1010100003D005E000F02EFC01E000F04DFD58B1DA
:101020000E492046096849698847032802D018B14B
:1010300008200DE009200BE0094A06200021126873
:10104000084B92B203EB42025160074A30211180F3
:101050002968087270BD0000400100204401002092
:10106000505C0040006000405001002010B50F4C63
:101070002068007A022811D004280FD0032804D059
:10108000052802D0072805D008E0FFF7C5FB206837
:10109000007A04E006480068C0688047082021689C
:1010A0000872BDE8104000F029B80000400100209F
:1010B00044010020064B521C520803EB410105D0AD
:1010C00031F8043B20F8023B521EF9D17047000072
:1010D0000060004002490A6842EA800008607047E8
:1010E00000700040034A0146002052680A4200D0C6
:1010F0000120704700700040704700000C4810B598
:1011000090F82C10002000F089FA0A480068007A54
:10111000082802D0092809D006E007494FF480507A
:101120000880064910200880002010BD012010BD55
:10113000BC000020400100204E0100205001002092
:1011400010B5012000F082FE064801210160002157
:10115000054A0160031D19604FF4E05111800160E0
:10116000002010BD405C00404C010020044A0029D2
:10117000D16901D0014300E08143D1617047000093
:1011800000100240044A0029116901D0014300E027
:10119000814311617047000000100240044A002999
:1011A000916901D0014300E08143916170470000E3
:1011B00000100240044A0029D16801D0014300E038
:1011C0008143D160704700000010024010B500F06C
:1011D00037F84FF48034204600F0C6F800F012F9DA
:1011E00016490128087022D1002000F0B3F8002031
:1011F00000F0DEF8A01100F0D1F80220FFF754FD56
:101200001020FFF71DFD4FF4E011204600F0E0F83C
:10121000012000F0D7F8392000F07CF80028FAD03F
:10122000022000F0DFF800F08DF80828FBD1012142
:10123000BDE810400D20FFF7B1BF000030000020D6
:101240000C48016841F00101016041680A4A1140FF
:1012500041600168094A11400160016821F4802160
:101260000160416821F4FE0141604FF41F0181607B
:1012700070470000001002400000FFF8FFFFF6FE7C
:1012800030B5204A5168204B11F00C0103D00429DD
:1012900001D0082901D0036012E05168536801F4BD
:1012A00070114FF0020413F4803F04EB914102D01F
:1012B00053689B0301D5154B00E0134B5943016064
:1012C00051680F2303EA1111114B5C5C0168E14086
:1012D00041605468072505EA14241C5D21FA04F4D2
:1012E0008460546805EAD4241B5DD940C16052680B
:1012F000032303EA9232064B1B1F9A5CB1FBF2F107
:10130000016130BD0010024000127A0000093D006A
:1013100020000020034600205909094A01290AD06B
:1013200002290AD0516A03F01F02012393400B42A5
:1013300000D0012070471168F5E7116AF3E700005B
:10134000001002400248406800F00C0070470000A6
:1013500000100240034A516821F0F001014351603E
:1013600070470000001002400B490A6822F48032E6
:101370000A600A6822F480220A60B0F5803F07D034
:10138000B0F5802F03D1086840F4A02008607047B2
:10139000086840F48030F9E700100240034A5168C1
:1013A00021F4E061014351607047000000100240E9
:1013B000034A516821F4605141EAC000506070470F
:1013C00000100240014908667047000000004242D8
:1013D000034B5A68084322F47C121043586070474C
:1013E00000100240034A516821F00301014351609B
:1013F000704700000010024001490860704700007B
:10140000D800424218B500204FF4A064009031206B
:10141000FFF780FF0099491C0091A14201D00028EC
:10142000F5D03120FFF776FF002800D0012018BD4D
:1014300010B5022000F020F8002813D04FF400303F
:10144000FFF78EFB0120FFF74DFE10B10120FFF7E3
:1014500041FE00F021F8022000F006F8BDE810403F
:1014600000F01AB810BD000002490A8882430A80C1
:10147000704700000428004006490988C2B21140A4
:10148000044A121F1288024202D009B1012070479B
:101490000020704704280040024801888906FCD5D6
:1014A000704700000428004010B5002304E010F845
:1014B000014BCC545B1C9BB29342F8D310BD00008F
:1014C00010B5104C90B00020206040216846FEF717
:1014D00030FE042269460C48FFF7E6FF00982060C2
:1014E0002078AA2808D16078BB2805D1A078AA283E
:1014F00002D1E078BB2802D0022010B010BD01203C
:10150000FBE700000C00002000FC000870B51C4C3C
:10151000072800D0207020780626042519490628BF
:101520002CD2DFE800F00306090E162000F02CF89C
:1015300024E000F029F80AE0022060700320207007
:1015400070BD6078401E607060780028F8D125700A
:1015500070BD086880B240F010000860052020705F
:101560000A20607070BD6078401E6070607800284E
:10157000F8D1086880B220F010000860267070BDB5
:1015800035010020405C004010B5064C206880B258
:1015900020F004002060FFF793FC4FF43F402060F0
:1015A00010BD0000405C004070470000024920F080
:1015B0000700086070470000505C0040F0B50D491E
:1015C0000D4E48F68F770D78002148F2800C09E027
:1015D000CAB206EB82031C683C40144344EA0C0484
:1015E0001C60491CA942F3D3034940F080004C31F0
:1015F0000860F0BD94000020005C0040054A21F026
:101600000101126892B202EBC000034A02EB4000F3
:1016100081607047505C0040006000400D4A1268D5
:101620003E2992B202EBC0000B4A02EB400209D9FC
:101630004809C90601D1401E80B24FF4004141EA79
:10164000802004E04808C90700D0401C80021060D8
:1016500070470000505C00400C6000400A4A02EBFA
:10166000800210684BF68F7300EA0300CB0401D5AB
:1016700080F48050890401D580F4005048F2800144
:101680000843106070470000005C0040064901EB11
:10169000800001684BF68F72114081F4405148F28E
:1016A0008002114301607047005C0040054A21F050
:1016B0000101126892B202EBC000034A42F8101016
:1016C00070470000505C004000600040044A12680F
:1016D00092B202EBC000034A02EB40004160704747
:1016E000505C0040006000400A4A02EB8002106833
:1016F00048F6BF7300EA0300CB0601D580F0100066
:10170000890601D580F0200048F28001084310606E
:1017100070470000005C0040064901EB8000016852
:1017200048F6BF72114081F0300148F28002114347
:1017300001607047005C0040044A02EB80000268D0
:1017400048F68F131A400A4302607047005C00405D
:101750000CB50022264800920192016841F48031C4
:1017600001604FF4A063016801F400310191009918
:10177000491C0091019911B900999942F3D101686E
:10178000890333D5012101911A490A6842F01002F8
:101790000A600A6822F003020A600A6842F0020244
:1017A0000A604168416041684160416841F480617C
:1017B0004160416821F47C114160416841F4E811C5
:1017C0004160016841F08071016001688901FCD5C8
:1017D000416821F003014160416841F0020141602C
:1017E0004168C1F381010229FAD10CBD01920CBDFF
:1017F000001002400020024010B50020FFF7FCFD61
:101800000121BDE81040C805FFF7B0BC70B516480F
:101810000068174D81B2154800EB4101098989B272
:1018200000EB41042868017A09290FD02178017062
:1018300061784170A088FEF7A6FD2968488020895C
:10184000FEF7A1FD29688880A089C8802868012149
:101850000172C08828B1FFF731F8BDE87040FFF78A
:101860004DBCFFF799FBF8E7505C0040006000407A
:10187000400100202DE9F04134480068017811F062
:101880007F0102D0022905D05DE0417A01F0DF013D
:10189000417247E04188002955D10179F1BB417976
:1018A0002C4D21F080040A06294B55F8242003D53D
:1018B000C2F30112120102E0C2F3013212031E78D8
:1018C0002346A6423FD94AB3807A38B308060DD5DD
:1018D00055F82400C0F3011001281DD11846FEF769
:1018E0001BFE20463021FFF7FFFE15E005EB8406C6
:1018F0003068C0F3013001280ED14BF68F7748F2E3
:10190000800894B11846FEF7F5FD3068384080F441
:10191000405040EA080030600F4800E013E00068E3
:10192000406980470020BDE8F0810C4890F82C10F9
:101930000020FFF773FE2868384080F4405040EAEA
:1019400008002860E8E70220EDE7000040010020E1
:1019500094000020005C004048010020BC000020F2
:1019600010B5074C30B10748006800688047206810
:101970000A3010BD216801200882002010BD00003F
:101980004001002048010020054A13685A8A10B11E
:101990000868104470478888801A188200207047B1
:1019A0004001002010B5074C30B10748006880683E
:1019B000804720680C3010BD21680120088200207B
:1019C00010BD000040010020480100201F4910B553
:1019D000096860B11E48002202800A7853060AD0C6
:1019E00002F07F02012A16D0022A16D001E002205E
:1019F0000882002010BD497A8A06027802D542F09A
:101A0000020201E002F0FD0249060270D1B210D4D8
:101A100001F0FE010FE00E4810BD497901F00F0200
:101A20000B060C4951F8221007D5C1F3011106E04D
:101A3000017841F00101017003E0C1F30131012996
:101A4000F6D00548006800698047E4E740010020BF
:101A50003A010020005C0040480100200A4810B50F
:101A600000680A4AC1785278914203D882780AB94C
:101A700082880AB1022010BD817205480068406862
:101A80008047002010BD000040010020940000208D
:101A900048010020064810B50068417A41F0200155
:101AA000417204480068C0698047002010BD0000F2
:101AB000400100204801002070B51B4802681B4807
:101AC000517921F0800500EB85000B06036821F0B9
:101AD000800403D5C3F301131B0102E0C3F30133F8
:101AE0001B03134D2D78A5420FD954886CB963B1EF
:101AF000927A52B10906016848F2800207D548F689
:101B0000BF73194081F0100106E0022070BD4BF652
:101B10008F73194081F480511143016005480068BA
:101B200080698047002070BD40010020005C0040BB
:101B3000940000204801002010B50E4C0E4A206889
:101B40001268C17892694079904721688A7A22B1F7
:101B500018B9087908B9887808B1022010BD07487B
:101B60000068C068804720684179C172C1780173FC
:101B7000002010BD40010020440100204801002049
:101B80000648016889B241F008010160016889B224
:101B900041F004010160FFF703B80000405C004021
:101BA00003480168002902D00168491E016070479E
:101BB000180000200F4810B5016841F001010160D4
:101BC00041680D4A1140416001680C4A11400160B2
:101BD000016821F480210160416821F4FE01416027
:101BE0004FF41F018160FFF7B3FD05494FF000601E
:101BF000086010BD001002400000FFF8FFFFF6FE75
:101C000008ED00E0F0B52A4F38882A4E82062A48AF
:101C10004FF6F77CA0F104011ED50A8892061BD569
:101C20004FF6DF720A803288244BD20708D00A8828
:101C3000120705D50288A1F800C0214A12880AE0DF
:101C400004881A881F4D1544521C1A802C701A885B
:101C5000802A01D300221A803288D20706D00A884F
:101C6000920703D54FF6FD720A8002883A88D205A2
:101C700009D50A88D20706D00A889206FCD54FF605
:101C8000FE720A8002883288D20705D00A881207BD
:101C900002D5A1F800C002883288D20706D00A888F
:101CA000520703D54FF6FB720A800088F0BD000092
:101CB0000C3801401438014004380140160000205F
:101CC00014000020580600200029818902D041F428
:101CD000005101E021F4005181817047174910B58E
:101CE00088420AD101218C032046FFF763FA20467F
:101CF000BDE810400021FFF75DBA1149884202D1CA
:101D000001214C0410E00F49884202D101218C04CA
:101D10000AE00D49884202D10121CC0404E00B49BC
:101D200088420AD101210C052046FFF72BFA2046F4
:101D3000BDE810400021FFF725BA10BD0038014072
:101D40000044004000480040004C0040005000406B
:101D50000246002012880A4200D00120704710B5C8
:101D6000C1F3421301F01F040121A140012B07D050
:101D7000022B07D01430002A026805D00A4304E081
:101D80000C30F8E71030F6E78A43026010BD00001F
:101D900030B50446008A85B00D464CF6FF71084008
:101DA000E98801432182A0894EF6F3110840A988F1
:101DB0002A8911436A8902431143A181A08A4FF6FF
:101DC000FF410840A9890143A1826846FFF758FAFC
:101DD0001B48844201D1039800E00298A1890904BC
:101DE000002900EBC00101EB0010296802DA4FEA7C
:101DF000410101E04FEA8101B0FBF1F06422B0FB48
:101E0000F2F14FEA01114FEA11136FF018056B431D
:101E100000EB8300A3891D044FF0320306D503EBCA
:101E2000C000B0FBF2F000F0070005E003EB00108B
:101E3000B0FBF2F000F00F000843208105B030BD88
:101E400000380140C1F308018180704738B504466D
:101E500001210420FFF7A2F90821ADF8001010219C
:101E60008DF803100321094D8DF8021069462846AC
:101E7000FEF741FF012C4FF00801284602D0FEF783
:101E800086FF38BDFEF785FF38BD00000008014021
:101E900006490548022208600272064A0448C1E960
:101EA00001020068004700005C0D00204001002096
:101EB000BC0000200C01002008B54FF4A060FFF723
:101EC00047F814208DF8000000208DF80100012053
:101ED0008DF802008DF803006846FFF707F808BD8B
:101EE00070B52A4C20682A4D68806888294E318850
:101EF0000840000401D5FEF74BFA68883188084095
:101F0000400505D54FF6FF302060234840688047E4
:101F1000698830880140890402D54DF6FF7121603F
:101F200069880140C80405D54EF6FF702060002086
:101F3000FFF7ECFA68883188084000050BD5174890
:101F4000007810B1FFF71CFE02E00220FFF7DEFA76
:101F50004FF2FF702060698830880140890506D5FE
:101F60004FF6FF512160297801F10101297069883C
:101F700001EA0001C80507D54FF6FF602060BDE803
:101F800070400720FFF7C2BA70BD0000445C0040FB
:101F9000580000204C010020BC000020340100202B
:101FA000FFF79EBF05490020086005494FF43F40F8
:101FB00008800249091F086000207047445C004007
:101FC0004C01002070B500F07F060D463046FEF74C
:101FD000F3FE04463046FEF7DFFE01462246284661
:101FE000FFF768F8204670BD70B500F07F05144615
:101FF0000E462846FEF7F0FE0146A2B2304600F03B
:102000005FF9A1B22846FFF761FB002070BDFEE733
:1020100010B5FFF7F1FB0120FFF718FFFFF74CFFAA
:10202000BDE81040FFF734BF10B501460348FEF786
:102030008BF8002800D0012010BD0000D806002039
:102040002DE9F843804617480024009440680E4666
:10205000914615490D180BD011462846FEF774F825
:10206000070009D04846FEF781F83844451B14E0C4
:102070004FF0FF30BDE8F8836FF00100FAE76846E3
:1020800000F014F8012808D19DF80010601C08F831
:102090000410B04201D2641C6D1E002DEFD1204609
:1020A000E8E700004C000020D80600200A494A68F2
:1020B0008B689A4201D100207047084A4B68D25C75
:1020C00002704868401C48604868B0F5C06F01D392
:1020D00000204860012070474C000020D8060020F6
:1020E00004480021416081604FF4C0610248FEF75E
:1020F00020B800004C000020D8060020024900B1A2
:1021000001204870704700004C0000201CB50027DB
:10211000DFF878B1BA463D46B9463C464FF4806692
:102120000097062FFDD2DFE807F0031B3BA2A5AC0A
:102130004FF47A7000F040F900F0D6F94FF4A06146
:102140005348FDF7F6FFFFF7CBFF4FF0000A554667
:10215000D14654464FF480660127CDF800A0E0E751
:102160004CA0FFF761FF0128DBD14FF4A068414686
:102170004748FDF7DEFF47A241464548FFF760FFAD
:1021800041464348FDF7D5FF45A241464048FFF789
:1021900057FF3F48FDF7F1FFC0B2022700901EE055
:1021A00040A0FFF741FF0128BBD14FF4A068414692
:1021B0003748FDF7BEFF3BA241463548FFF740FFD9
:1021C00041463348FDF7B5FF3AA241463048FFF794
:1021D00037FF2F48FDF7D1FF8246054603274146CA
:1021E0002B48FDF7A6FF9CE745B1DFF8A48008EB7C
:1021F0000400FFF75BFF012803D007E07F1CFFB25C
:102200008FE718F80400641C80EA0909B4422ED351
:102210002A491F4C0AEB01004FF00008019013E01F
:102220002168FEF719FDDBF8000022680168914281
:1022300004D000F083F8FEF7F1FC20E0001D241D1F
:1022400008F10408CBF80000B04504D2DBF8000028
:1022500001998842E4D3AD1B4FF48066B54200D2A9
:102260002E4600244FF4A0610948FDF762FF032FBA
:10227000B9D1B9E700998945DBD0052751E7FEF7C9
:102280007BFE0020FFF73AFFF9E70000080000207E
:1022900058010020436865636B73756D3A00000058
:1022A0000D0A0000436F6E74656E742D4C656E6789
:1022B00074683A000D0A0D0A00000000003400089E
:1022C000084B10B5521C520803EB410108D00378AB
:1022D0004478801C43EA042321F8043B521EF6D1C3
:1022E00010BD0000006000402DE9F04190460F460F
:1022F0000546FEF7E3FC5FEA88700CD13E460024F9
:1023000016E028463168FEF7A7FC0020221829783D
:10231000BA5C8A4204D0FEF781FC0020BDE8F0815F
:10232000401C6D1CC0B20428F0D3361D241DA4B27D
:102330004445E6D3FEF772FC0120EFE738B507A06D
:102340000068009072B6064C2046FEF70FFC04228F
:1023500069462046FFF7C8FF62B638BD55AA55AAA0
:1023600000FC0008004870475401002002E008C843
:10237000121F08C1002AFAD170477047002001E0FF
:1023800001C1121F002AFBD1704700004FF0E0216D
:102390000A6922F004020A610649C00800EB400203
:1023A0000870C2EBC0104FF6FF7202EAC00048800E
:1023B00070470000100000200849498848434FF04A
:1023C000E021486100238B61012008610869C20790
:1023D00001D0C003FAD50B618B617047100000205B
:1023E00030B5294D87B02846FFF778FC012144F22B
:1023F0000500FEF7D3FE6815ADF8100003208DF838
:1024000012001820214C8DF8130004A92046FEF775
:1024100072FC2015ADF8100004208DF8130004A9FB
:102420002046FEF768FC25208DF8140001218DF868
:10243000151000248DF816408DF8171005A8FEF72A
:1024400055FD4FF4E1300090ADF808400C20ADF898
:102450000440ADF80A00ADF80640ADF80C406946FE
:102460002846FFF795FC012240F225512846FFF748
:1024700076FC01212846FFF727FC054804804480AC
:1024800007B0002030BD00000038014000080140C6
:10249000140000202DE9F0470E465FEA000801D045
:1024A000002E03DC4FF0FF30BDE8F087DFF83490FA
:1024B00000254FF48017002403E02046641CB84236
:1024C0000DD280214846FFF743FC0028F5D018F8CC
:1024D00005104846FFF7B6FC6D1C761EEBD128466A
:1024E000E2E70000003801402DE9F0410024042714
:1024F0004FF44840FEF79AFB0546FEF7DFFB342019
:10250000FEF754FB074E06E0306800EB8420FEF730
:1025100053FB0746641CAC4201D2042FF4D0BDE843
:10252000F08100000800002010B50F4C20680F4912
:102530000840B0F1005F01D0002010BD00214FF431
:102540000000FEF713FE0848001D006808494860B7
:102550000860216881F30988002181F314882168CB
:1025600081F308888047FEE7003400080000FE2F52
:102570000000002010B5FDF7E7FEFEF7A1FF0128DF
:1025800006D006A000F01EF8FFF7CEFF002010BD19
:1025900008A000F017F8FFF7B9FDFCE74A756D7069
:1025A00020546F204170706C69636174696F6E0DA7
:1025B0000A0000006961702069732073746172748D
:1025C0000D0A000010B5044604E001212046FFF783
:1025D00061FF641C20780028F7D110BD12010002B1
:1025E00000000040CD0A3020000201020301090270
:1025F0002900010100C032090400000203000000AC
:10260000092110010001223100070581034000016A
:102610000705010340000106FF000901A101850132
:102620000901150025017508953FB1828501090151
:10263000918285050905150026FF007508953F81E3
:102640008285050905B182C00403090426035000F0
:10265000410059004C00460055004C004C0053000E
:102660004500430055005200450048004500410028
:1026700044002003500041005900460055004C0022
:102680004C0028004D005300520031003000300053
:1026900029000040404040404040404041414141CD
:1026A0004140404040404040404040404040404029
:1026B000404040050202020202020202020202023D
:1026C00002020220202020202020202020020202BE
:1026D0000202020290909090909010101010101032
:1026E0001010101010101010101010101010020206
:1026F0000202020288888888888808080808080872
:102700000808080808080808080808080808020255
:10271000020240009326000838270008000000202D
:1027200058010000EA020008D027000858010020E4
:10273000201000007C2300089112340210083C0293
:102740000406142D01020304041506070809141ACF
:102750000353125A1259124C12561239C230F20156
:1027600013590A0C1408E10E040A19651C5A02498F
:1027700013DC253308121AEE0832291317264308F2
:10278000311908320913410714084D061B083D088A
:102790001A3F041359051B082D101A21041AC10CE5
:1027A0001AB5041A010C4132401A483832041A4C46
:1027B0000832261A72083220195433201A297C1A3A
:1027C000FD300916981A19640912E8011400000076
:04000005080000ED02
:00000001FF
